{
  "_format": "hh-sol-artifact-1",
  "contractName": "Program",
  "sourceName": "contracts/Program.sol",
  "abi": [
    {
      "inputs": [],
      "stateMutability": "nonpayable",
      "type": "constructor"
    },
    {
      "inputs": [
        {
          "internalType": "string",
          "name": "_programCode",
          "type": "string"
        },
        {
          "internalType": "string",
          "name": "_programName",
          "type": "string"
        },
        {
          "internalType": "string",
          "name": "_programType",
          "type": "string"
        }
      ],
      "name": "addProgram",
      "outputs": [],
      "stateMutability": "nonpayable",
      "type": "function"
    },
    {
      "inputs": [
        {
          "internalType": "uint256",
          "name": "",
          "type": "uint256"
        }
      ],
      "name": "allprograms",
      "outputs": [
        {
          "internalType": "string",
          "name": "programCode",
          "type": "string"
        },
        {
          "internalType": "string",
          "name": "programName",
          "type": "string"
        },
        {
          "internalType": "string",
          "name": "programType",
          "type": "string"
        },
        {
          "internalType": "bool",
          "name": "isActive",
          "type": "bool"
        }
      ],
      "stateMutability": "view",
      "type": "function"
    },
    {
      "inputs": [
        {
          "internalType": "string",
          "name": "_programCode",
          "type": "string"
        }
      ],
      "name": "checkProgram",
      "outputs": [
        {
          "internalType": "bool",
          "name": "",
          "type": "bool"
        }
      ],
      "stateMutability": "view",
      "type": "function"
    },
    {
      "inputs": [
        {
          "internalType": "string",
          "name": "_programCode",
          "type": "string"
        }
      ],
      "name": "deleteProgram",
      "outputs": [],
      "stateMutability": "nonpayable",
      "type": "function"
    },
    {
      "inputs": [
        {
          "internalType": "string",
          "name": "_prevProgramCode",
          "type": "string"
        },
        {
          "internalType": "string",
          "name": "_newProgramCode",
          "type": "string"
        },
        {
          "internalType": "string",
          "name": "_programName",
          "type": "string"
        },
        {
          "internalType": "string",
          "name": "_programType",
          "type": "string"
        }
      ],
      "name": "editProgram",
      "outputs": [],
      "stateMutability": "nonpayable",
      "type": "function"
    },
    {
      "inputs": [],
      "name": "getProgramList",
      "outputs": [
        {
          "components": [
            {
              "internalType": "string",
              "name": "programCode",
              "type": "string"
            },
            {
              "internalType": "string",
              "name": "programName",
              "type": "string"
            },
            {
              "internalType": "string",
              "name": "programType",
              "type": "string"
            },
            {
              "internalType": "bool",
              "name": "isActive",
              "type": "bool"
            }
          ],
          "internalType": "struct Program.program[]",
          "name": "",
          "type": "tuple[]"
        }
      ],
      "stateMutability": "view",
      "type": "function"
    },
    {
      "inputs": [],
      "name": "owner",
      "outputs": [
        {
          "internalType": "address",
          "name": "",
          "type": "address"
        }
      ],
      "stateMutability": "view",
      "type": "function"
    },
    {
      "inputs": [
        {
          "internalType": "address",
          "name": "addr",
          "type": "address"
        }
      ],
      "name": "setAdminContract",
      "outputs": [],
      "stateMutability": "nonpayable",
      "type": "function"
    }
  ],
  "bytecode": "0x608060405234801561001057600080fd5b5033600160006101000a81548173ffffffffffffffffffffffffffffffffffffffff021916908373ffffffffffffffffffffffffffffffffffffffff160217905550611f82806100616000396000f3fe608060405234801561001057600080fd5b50600436106100885760003560e01c80638da5cb5b1161005b5780638da5cb5b14610116578063b4627f2e14610134578063ba3f12bd14610150578063f67125dc1461016c57610088565b80631ffb3fd61461008d578063455b7ffe146100a957806363a812f9146100dc5780637b2c375a146100f8575b600080fd5b6100a760048036038101906100a29190611504565b61019c565b005b6100c360048036038101906100be91906115e1565b6104ac565b6040516100d394939291906116b1565b60405180910390f35b6100f660048036038101906100f19190611769565b610691565b005b6101006106d4565b60405161010d9190611922565b60405180910390f35b61011e6109ec565b60405161012b9190611953565b60405180910390f35b61014e6004803603810190610149919061196e565b610a12565b005b61016a60048036038101906101659190611a45565b610e53565b005b61018660048036038101906101819190611a45565b6111f1565b6040516101939190611a8e565b60405180910390f35b60008054906101000a900473ffffffffffffffffffffffffffffffffffffffff1673ffffffffffffffffffffffffffffffffffffffff16639026dee8336040518263ffffffff1660e01b81526004016101f59190611953565b60206040518083038186803b15801561020d57600080fd5b505afa158015610221573d6000803e3d6000fd5b505050506040513d601f19601f820116820180604052508101906102459190611ad5565b610284576040517f08c379a000000000000000000000000000000000000000000000000000000000815260040161027b90611b4e565b60405180910390fd5b6002836040516102949190611baa565b908152602001604051809103902060030160009054906101000a900460ff16156102f3576040517f08c379a00000000000000000000000000000000000000000000000000000000081526004016102ea90611c0d565b60405180910390fd5b826002846040516103049190611baa565b9081526020016040518091039020600001908051906020019061032892919061123a565b508160028460405161033a9190611baa565b9081526020016040518091039020600101908051906020019061035e92919061123a565b50806002846040516103709190611baa565b9081526020016040518091039020600201908051906020019061039492919061123a565b5060016002846040516103a79190611baa565b908152602001604051809103902060030160006101000a81548160ff02191690831515021790555060036002846040516103e19190611baa565b90815260200160405180910390209080600181540180825580915050600190039060005260206000209060040201600090919091909150600082018160000190805461042c90611c5c565b6104379291906112c0565b50600182018160010190805461044c90611c5c565b6104579291906112c0565b50600282018160020190805461046c90611c5c565b6104779291906112c0565b506003820160009054906101000a900460ff168160030160006101000a81548160ff0219169083151502179055505050505050565b600381815481106104bc57600080fd5b90600052602060002090600402016000915090508060000180546104df90611c5c565b80601f016020809104026020016040519081016040528092919081815260200182805461050b90611c5c565b80156105585780601f1061052d57610100808354040283529160200191610558565b820191906000526020600020905b81548152906001019060200180831161053b57829003601f168201915b50505050509080600101805461056d90611c5c565b80601f016020809104026020016040519081016040528092919081815260200182805461059990611c5c565b80156105e65780601f106105bb576101008083540402835291602001916105e6565b820191906000526020600020905b8154815290600101906020018083116105c957829003601f168201915b5050505050908060020180546105fb90611c5c565b80601f016020809104026020016040519081016040528092919081815260200182805461062790611c5c565b80156106745780601f1061064957610100808354040283529160200191610674565b820191906000526020600020905b81548152906001019060200180831161065757829003601f168201915b5050505050908060030160009054906101000a900460ff16905084565b806000806101000a81548173ffffffffffffffffffffffffffffffffffffffff021916908373ffffffffffffffffffffffffffffffffffffffff16021790555050565b606060008054906101000a900473ffffffffffffffffffffffffffffffffffffffff1673ffffffffffffffffffffffffffffffffffffffff16639026dee8336040518263ffffffff1660e01b815260040161072f9190611953565b60206040518083038186803b15801561074757600080fd5b505afa15801561075b573d6000803e3d6000fd5b505050506040513d601f19601f8201168201806040525081019061077f9190611ad5565b6107be576040517f08c379a00000000000000000000000000000000000000000000000000000000081526004016107b590611b4e565b60405180910390fd5b6003805480602002602001604051908101604052809291908181526020016000905b828210156109e3578382906000526020600020906004020160405180608001604052908160008201805461081390611c5c565b80601f016020809104026020016040519081016040528092919081815260200182805461083f90611c5c565b801561088c5780601f106108615761010080835404028352916020019161088c565b820191906000526020600020905b81548152906001019060200180831161086f57829003601f168201915b505050505081526020016001820180546108a590611c5c565b80601f01602080910402602001604051908101604052809291908181526020018280546108d190611c5c565b801561091e5780601f106108f35761010080835404028352916020019161091e565b820191906000526020600020905b81548152906001019060200180831161090157829003601f168201915b5050505050815260200160028201805461093790611c5c565b80601f016020809104026020016040519081016040528092919081815260200182805461096390611c5c565b80156109b05780601f10610985576101008083540402835291602001916109b0565b820191906000526020600020905b81548152906001019060200180831161099357829003601f168201915b505050505081526020016003820160009054906101000a900460ff161515151581525050815260200190600101906107e0565b50505050905090565b600160009054906101000a900473ffffffffffffffffffffffffffffffffffffffff1681565b60008054906101000a900473ffffffffffffffffffffffffffffffffffffffff1673ffffffffffffffffffffffffffffffffffffffff16639026dee8336040518263ffffffff1660e01b8152600401610a6b9190611953565b60206040518083038186803b158015610a8357600080fd5b505afa158015610a97573d6000803e3d6000fd5b505050506040513d601f19601f82011682018060405250810190610abb9190611ad5565b610afa576040517f08c379a0000000000000000000000000000000000000000000000000000000008152600401610af190611b4e565b60405180910390fd5b8280519060200120848051906020012014610b7f57600283604051610b1f9190611baa565b908152602001604051809103902060030160009054906101000a900460ff1615610b7e576040517f08c379a0000000000000000000000000000000000000000000000000000000008152600401610b7590611d00565b60405180910390fd5b5b600284604051610b8f9190611baa565b908152602001604051809103902060030160009054906101000a900460ff16610bed576040517f08c379a0000000000000000000000000000000000000000000000000000000008152600401610be490611d6c565b60405180910390fd5b60005b600380549050811015610d0b57848051906020012060038281548110610c1957610c18611d8c565b5b9060005260206000209060040201600001604051610c379190611e5a565b60405180910390201415610cf8578360038281548110610c5a57610c59611d8c565b5b90600052602060002090600402016000019080519060200190610c7e92919061123a565b508260038281548110610c9457610c93611d8c565b5b90600052602060002090600402016001019080519060200190610cb892919061123a565b508160038281548110610cce57610ccd611d8c565b5b90600052602060002090600402016002019080519060200190610cf292919061123a565b50610d0b565b8080610d0390611ea0565b915050610bf0565b600285604051610d1b9190611baa565b908152602001604051809103902060008082016000610d3a919061134d565b600182016000610d4a919061134d565b600282016000610d5a919061134d565b6003820160006101000a81549060ff0219169055505083600285604051610d819190611baa565b90815260200160405180910390206000019080519060200190610da592919061123a565b5082600285604051610db79190611baa565b90815260200160405180910390206001019080519060200190610ddb92919061123a565b5081600285604051610ded9190611baa565b90815260200160405180910390206002019080519060200190610e1192919061123a565b506001600285604051610e249190611baa565b908152602001604051809103902060030160006101000a81548160ff0219169083151502179055505050505050565b60008054906101000a900473ffffffffffffffffffffffffffffffffffffffff1673ffffffffffffffffffffffffffffffffffffffff16639026dee8336040518263ffffffff1660e01b8152600401610eac9190611953565b60206040518083038186803b158015610ec457600080fd5b505afa158015610ed8573d6000803e3d6000fd5b505050506040513d601f19601f82011682018060405250810190610efc9190611ad5565b610f3b576040517f08c379a0000000000000000000000000000000000000000000000000000000008152600401610f3290611b4e565b60405180910390fd5b600281604051610f4b9190611baa565b908152602001604051809103902060030160009054906101000a900460ff16610fa9576040517f08c379a0000000000000000000000000000000000000000000000000000000008152600401610fa090611d6c565b60405180910390fd5b60005b6003805490508110156111ec57818051906020012060038281548110610fd557610fd4611d8c565b5b9060005260206000209060040201600001604051610ff39190611e5a565b604051809103902014156111d95760016003805490506110139190611ee9565b81146110ff576003600160038054905061102d9190611ee9565b8154811061103e5761103d611d8c565b5b9060005260206000209060040201600382815481106110605761105f611d8c565b5b9060005260206000209060040201600082018160000190805461108290611c5c565b61108d9291906112c0565b5060018201816001019080546110a290611c5c565b6110ad9291906112c0565b5060028201816002019080546110c290611c5c565b6110cd9291906112c0565b506003820160009054906101000a900460ff168160030160006101000a81548160ff0219169083151502179055509050505b600380548061111157611110611f1d565b5b600190038181906000526020600020906004020160008082016000611136919061134d565b600182016000611146919061134d565b600282016000611156919061134d565b6003820160006101000a81549060ff02191690555050905560028260405161117e9190611baa565b90815260200160405180910390206000808201600061119d919061134d565b6001820160006111ad919061134d565b6002820160006111bd919061134d565b6003820160006101000a81549060ff02191690555050506111ee565b80806111e490611ea0565b915050610fac565b505b50565b60006002826040516112039190611baa565b908152602001604051809103902060030160009054906101000a900460ff16156112305760019050611235565b600090505b919050565b82805461124690611c5c565b90600052602060002090601f01602090048101928261126857600085556112af565b82601f1061128157805160ff19168380011785556112af565b828001600101855582156112af579182015b828111156112ae578251825591602001919060010190611293565b5b5090506112bc919061138d565b5090565b8280546112cc90611c5c565b90600052602060002090601f0160209004810192826112ee576000855561133c565b82601f106112ff578054855561133c565b8280016001018555821561133c57600052602060002091601f016020900482015b8281111561133b578254825591600101919060010190611320565b5b509050611349919061138d565b5090565b50805461135990611c5c565b6000825580601f1061136b575061138a565b601f016020900490600052602060002090810190611389919061138d565b5b50565b5b808211156113a657600081600090555060010161138e565b5090565b6000604051905090565b600080fd5b600080fd5b600080fd5b600080fd5b6000601f19601f8301169050919050565b7f4e487b7100000000000000000000000000000000000000000000000000000000600052604160045260246000fd5b611411826113c8565b810181811067ffffffffffffffff821117156114305761142f6113d9565b5b80604052505050565b60006114436113aa565b905061144f8282611408565b919050565b600067ffffffffffffffff82111561146f5761146e6113d9565b5b611478826113c8565b9050602081019050919050565b82818337600083830152505050565b60006114a76114a284611454565b611439565b9050828152602081018484840111156114c3576114c26113c3565b5b6114ce848285611485565b509392505050565b600082601f8301126114eb576114ea6113be565b5b81356114fb848260208601611494565b91505092915050565b60008060006060848603121561151d5761151c6113b4565b5b600084013567ffffffffffffffff81111561153b5761153a6113b9565b5b611547868287016114d6565b935050602084013567ffffffffffffffff811115611568576115676113b9565b5b611574868287016114d6565b925050604084013567ffffffffffffffff811115611595576115946113b9565b5b6115a1868287016114d6565b9150509250925092565b6000819050919050565b6115be816115ab565b81146115c957600080fd5b50565b6000813590506115db816115b5565b92915050565b6000602082840312156115f7576115f66113b4565b5b6000611605848285016115cc565b91505092915050565b600081519050919050565b600082825260208201905092915050565b60005b8381101561164857808201518184015260208101905061162d565b83811115611657576000848401525b50505050565b60006116688261160e565b6116728185611619565b935061168281856020860161162a565b61168b816113c8565b840191505092915050565b60008115159050919050565b6116ab81611696565b82525050565b600060808201905081810360008301526116cb818761165d565b905081810360208301526116df818661165d565b905081810360408301526116f3818561165d565b905061170260608301846116a2565b95945050505050565b600073ffffffffffffffffffffffffffffffffffffffff82169050919050565b60006117368261170b565b9050919050565b6117468161172b565b811461175157600080fd5b50565b6000813590506117638161173d565b92915050565b60006020828403121561177f5761177e6113b4565b5b600061178d84828501611754565b91505092915050565b600081519050919050565b600082825260208201905092915050565b6000819050602082019050919050565b600082825260208201905092915050565b60006117de8261160e565b6117e881856117c2565b93506117f881856020860161162a565b611801816113c8565b840191505092915050565b61181581611696565b82525050565b6000608083016000830151848203600086015261183882826117d3565b9150506020830151848203602086015261185282826117d3565b9150506040830151848203604086015261186c82826117d3565b9150506060830151611881606086018261180c565b508091505092915050565b6000611898838361181b565b905092915050565b6000602082019050919050565b60006118b882611796565b6118c281856117a1565b9350836020820285016118d4856117b2565b8060005b8581101561191057848403895281516118f1858261188c565b94506118fc836118a0565b925060208a019950506001810190506118d8565b50829750879550505050505092915050565b6000602082019050818103600083015261193c81846118ad565b905092915050565b61194d8161172b565b82525050565b60006020820190506119686000830184611944565b92915050565b60008060008060808587031215611988576119876113b4565b5b600085013567ffffffffffffffff8111156119a6576119a56113b9565b5b6119b2878288016114d6565b945050602085013567ffffffffffffffff8111156119d3576119d26113b9565b5b6119df878288016114d6565b935050604085013567ffffffffffffffff811115611a00576119ff6113b9565b5b611a0c878288016114d6565b925050606085013567ffffffffffffffff811115611a2d57611a2c6113b9565b5b611a39878288016114d6565b91505092959194509250565b600060208284031215611a5b57611a5a6113b4565b5b600082013567ffffffffffffffff811115611a7957611a786113b9565b5b611a85848285016114d6565b91505092915050565b6000602082019050611aa360008301846116a2565b92915050565b611ab281611696565b8114611abd57600080fd5b50565b600081519050611acf81611aa9565b92915050565b600060208284031215611aeb57611aea6113b4565b5b6000611af984828501611ac0565b91505092915050565b7f596f7520617265206e6f742041646d696e000000000000000000000000000000600082015250565b6000611b38601183611619565b9150611b4382611b02565b602082019050919050565b60006020820190508181036000830152611b6781611b2b565b9050919050565b600081905092915050565b6000611b848261160e565b611b8e8185611b6e565b9350611b9e81856020860161162a565b80840191505092915050565b6000611bb68284611b79565b915081905092915050565b7f50726f6772616d20616c72656164792072656769737465726564000000000000600082015250565b6000611bf7601a83611619565b9150611c0282611bc1565b602082019050919050565b60006020820190508181036000830152611c2681611bea565b9050919050565b7f4e487b7100000000000000000000000000000000000000000000000000000000600052602260045260246000fd5b60006002820490506001821680611c7457607f821691505b60208210811415611c8857611c87611c2d565b5b50919050565b7f50726f6772616d20616c7265616479207265676973746572656420776974682060008201527f7468697320636f64650000000000000000000000000000000000000000000000602082015250565b6000611cea602983611619565b9150611cf582611c8e565b604082019050919050565b60006020820190508181036000830152611d1981611cdd565b9050919050565b7f496e76616c69642070726f6772616d20636f6465000000000000000000000000600082015250565b6000611d56601483611619565b9150611d6182611d20565b602082019050919050565b60006020820190508181036000830152611d8581611d49565b9050919050565b7f4e487b7100000000000000000000000000000000000000000000000000000000600052603260045260246000fd5b600081905092915050565b60008190508160005260206000209050919050565b60008154611de881611c5c565b611df28186611dbb565b94506001821660008114611e0d5760018114611e1e57611e51565b60ff19831686528186019350611e51565b611e2785611dc6565b60005b83811015611e4957815481890152600182019150602081019050611e2a565b838801955050505b50505092915050565b6000611e668284611ddb565b915081905092915050565b7f4e487b7100000000000000000000000000000000000000000000000000000000600052601160045260246000fd5b6000611eab826115ab565b91507fffffffffffffffffffffffffffffffffffffffffffffffffffffffffffffffff821415611ede57611edd611e71565b5b600182019050919050565b6000611ef4826115ab565b9150611eff836115ab565b925082821015611f1257611f11611e71565b5b828203905092915050565b7f4e487b7100000000000000000000000000000000000000000000000000000000600052603160045260246000fdfea26469706673582212208a674f8fa2c93800ae52f3e10941be2f67d227d76e20a6a4856726533d1c283964736f6c63430008090033",
  "linkReferences": {},
  "deployedLinkReferences": {}
}