{"contracts/RegisterStudent.sol":{"RegisterStudent":{"abi":[{"inputs":[{"internalType":"string","name":"_picture","type":"string"},{"internalType":"string","name":"_cnic","type":"string"},{"internalType":"string","name":"_ssc_degree","type":"string"},{"internalType":"string","name":"_hssc_degree","type":"string"}],"name":"DocumentDetails","outputs":[],"stateMutability":"nonpayable","type":"function"},{"inputs":[{"internalType":"string","name":"_ssc_board_name","type":"string"},{"internalType":"int256","name":"_ssc_total_marks","type":"int256"},{"internalType":"int256","name":"_ssc_obtained_marks","type":"int256"},{"internalType":"string","name":"_hssc_board_name","type":"string"},{"internalType":"int256","name":"_hssc_total_marks","type":"int256"},{"internalType":"int256","name":"_hssc_obtained_marks","type":"int256"}],"name":"EducationalDetails","outputs":[],"stateMutability":"nonpayable","type":"function"},{"inputs":[{"internalType":"string","name":"_name","type":"string"},{"internalType":"string","name":"_cnic","type":"string"},{"internalType":"string","name":"_phone_no","type":"string"},{"internalType":"string","name":"_ocupation","type":"string"},{"internalType":"string","name":"_salary","type":"string"}],"name":"FatherDetails","outputs":[],"stateMutability":"nonpayable","type":"function"},{"inputs":[{"internalType":"string","name":"_name","type":"string"},{"internalType":"string","name":"_surname","type":"string"},{"internalType":"string","name":"_date_of_birth","type":"string"},{"internalType":"string","name":"_cnic","type":"string"},{"internalType":"string","name":"_gender","type":"string"},{"internalType":"string","name":"_phone","type":"string"},{"internalType":"string","name":"_email","type":"string"},{"internalType":"string","name":"_address","type":"string"},{"internalType":"string","name":"_city","type":"string"},{"internalType":"string","name":"_country","type":"string"}],"name":"PersonalDetails","outputs":[],"stateMutability":"nonpayable","type":"function"},{"inputs":[{"components":[{"internalType":"string","name":"Id","type":"string"},{"internalType":"address","name":"addr","type":"address"},{"internalType":"string","name":"programCode","type":"string"},{"internalType":"uint256","name":"admission_date","type":"uint256"},{"components":[{"internalType":"string","name":"picture","type":"string"},{"internalType":"string","name":"cnic","type":"string"},{"internalType":"string","name":"ssc_degree","type":"string"},{"internalType":"string","name":"hssc_degree","type":"string"},{"internalType":"bool","name":"stored","type":"bool"}],"internalType":"struct documents","name":"d_data","type":"tuple"},{"components":[{"internalType":"string","name":"name","type":"string"},{"internalType":"string","name":"surname","type":"string"},{"internalType":"string","name":"date_of_birth","type":"string"},{"internalType":"string","name":"cnic","type":"string"},{"internalType":"string","name":"gender","type":"string"},{"internalType":"string","name":"phone_no","type":"string"},{"internalType":"string","name":"email","type":"string"},{"internalType":"string","name":"permanent_addr","type":"string"},{"internalType":"string","name":"city","type":"string"},{"internalType":"string","name":"country","type":"string"},{"internalType":"bool","name":"stored","type":"bool"}],"internalType":"struct personal_details","name":"s_data","type":"tuple"},{"components":[{"internalType":"string","name":"name","type":"string"},{"internalType":"string","name":"cnic","type":"string"},{"internalType":"string","name":"phone_no","type":"string"},{"internalType":"string","name":"ocupation","type":"string"},{"internalType":"string","name":"salary","type":"string"},{"internalType":"bool","name":"stored","type":"bool"}],"internalType":"struct father_details","name":"f_data","type":"tuple"},{"components":[{"internalType":"string","name":"ssc_board_name","type":"string"},{"internalType":"int256","name":"ssc_total_marks","type":"int256"},{"internalType":"int256","name":"ssc_obtained_marks","type":"int256"},{"internalType":"string","name":"hssc_board_name","type":"string"},{"internalType":"int256","name":"hssc_total_marks","type":"int256"},{"internalType":"int256","name":"hssc_obtained_marks","type":"int256"},{"internalType":"bool","name":"stored","type":"bool"}],"internalType":"struct education_details","name":"e_data","type":"tuple"},{"internalType":"bool","name":"isCreated","type":"bool"}],"internalType":"struct student","name":"st","type":"tuple"},{"internalType":"address","name":"adminAddr","type":"address"}],"name":"UpdateStudentData","outputs":[],"stateMutability":"nonpayable","type":"function"},{"inputs":[{"internalType":"string","name":"_regId","type":"string"},{"internalType":"address","name":"_addr","type":"address"},{"internalType":"string","name":"_programCode","type":"string"}],"name":"add_student","outputs":[],"stateMutability":"nonpayable","type":"function"},{"inputs":[{"internalType":"address","name":"addr","type":"address"}],"name":"checkStudent","outputs":[{"internalType":"bool","name":"","type":"bool"}],"stateMutability":"view","type":"function"},{"inputs":[],"name":"getStudentsList","outputs":[{"components":[{"internalType":"string","name":"Id","type":"string"},{"internalType":"address","name":"addr","type":"address"},{"internalType":"string","name":"programCode","type":"string"},{"internalType":"uint256","name":"admission_date","type":"uint256"},{"components":[{"internalType":"string","name":"picture","type":"string"},{"internalType":"string","name":"cnic","type":"string"},{"internalType":"string","name":"ssc_degree","type":"string"},{"internalType":"string","name":"hssc_degree","type":"string"},{"internalType":"bool","name":"stored","type":"bool"}],"internalType":"struct documents","name":"d_data","type":"tuple"},{"components":[{"internalType":"string","name":"name","type":"string"},{"internalType":"string","name":"surname","type":"string"},{"internalType":"string","name":"date_of_birth","type":"string"},{"internalType":"string","name":"cnic","type":"string"},{"internalType":"string","name":"gender","type":"string"},{"internalType":"string","name":"phone_no","type":"string"},{"internalType":"string","name":"email","type":"string"},{"internalType":"string","name":"permanent_addr","type":"string"},{"internalType":"string","name":"city","type":"string"},{"internalType":"string","name":"country","type":"string"},{"internalType":"bool","name":"stored","type":"bool"}],"internalType":"struct personal_details","name":"s_data","type":"tuple"},{"components":[{"internalType":"string","name":"name","type":"string"},{"internalType":"string","name":"cnic","type":"string"},{"internalType":"string","name":"phone_no","type":"string"},{"internalType":"string","name":"ocupation","type":"string"},{"internalType":"string","name":"salary","type":"string"},{"internalType":"bool","name":"stored","type":"bool"}],"internalType":"struct father_details","name":"f_data","type":"tuple"},{"components":[{"internalType":"string","name":"ssc_board_name","type":"string"},{"internalType":"int256","name":"ssc_total_marks","type":"int256"},{"internalType":"int256","name":"ssc_obtained_marks","type":"int256"},{"internalType":"string","name":"hssc_board_name","type":"string"},{"internalType":"int256","name":"hssc_total_marks","type":"int256"},{"internalType":"int256","name":"hssc_obtained_marks","type":"int256"},{"internalType":"bool","name":"stored","type":"bool"}],"internalType":"struct education_details","name":"e_data","type":"tuple"},{"internalType":"bool","name":"isCreated","type":"bool"}],"internalType":"struct student[]","name":"","type":"tuple[]"}],"stateMutability":"view","type":"function"},{"inputs":[{"internalType":"address","name":"_addr","type":"address"}],"name":"get_student","outputs":[{"components":[{"internalType":"string","name":"Id","type":"string"},{"internalType":"address","name":"addr","type":"address"},{"internalType":"string","name":"programCode","type":"string"},{"internalType":"uint256","name":"admission_date","type":"uint256"},{"components":[{"internalType":"string","name":"picture","type":"string"},{"internalType":"string","name":"cnic","type":"string"},{"internalType":"string","name":"ssc_degree","type":"string"},{"internalType":"string","name":"hssc_degree","type":"string"},{"internalType":"bool","name":"stored","type":"bool"}],"internalType":"struct documents","name":"d_data","type":"tuple"},{"components":[{"internalType":"string","name":"name","type":"string"},{"internalType":"string","name":"surname","type":"string"},{"internalType":"string","name":"date_of_birth","type":"string"},{"internalType":"string","name":"cnic","type":"string"},{"internalType":"string","name":"gender","type":"string"},{"internalType":"string","name":"phone_no","type":"string"},{"internalType":"string","name":"email","type":"string"},{"internalType":"string","name":"permanent_addr","type":"string"},{"internalType":"string","name":"city","type":"string"},{"internalType":"string","name":"country","type":"string"},{"internalType":"bool","name":"stored","type":"bool"}],"internalType":"struct personal_details","name":"s_data","type":"tuple"},{"components":[{"internalType":"string","name":"name","type":"string"},{"internalType":"string","name":"cnic","type":"string"},{"internalType":"string","name":"phone_no","type":"string"},{"internalType":"string","name":"ocupation","type":"string"},{"internalType":"string","name":"salary","type":"string"},{"internalType":"bool","name":"stored","type":"bool"}],"internalType":"struct father_details","name":"f_data","type":"tuple"},{"components":[{"internalType":"string","name":"ssc_board_name","type":"string"},{"internalType":"int256","name":"ssc_total_marks","type":"int256"},{"internalType":"int256","name":"ssc_obtained_marks","type":"int256"},{"internalType":"string","name":"hssc_board_name","type":"string"},{"internalType":"int256","name":"hssc_total_marks","type":"int256"},{"internalType":"int256","name":"hssc_obtained_marks","type":"int256"},{"internalType":"bool","name":"stored","type":"bool"}],"internalType":"struct education_details","name":"e_data","type":"tuple"},{"internalType":"bool","name":"isCreated","type":"bool"}],"internalType":"struct student","name":"","type":"tuple"}],"stateMutability":"view","type":"function"},{"inputs":[{"internalType":"address","name":"addr","type":"address"}],"name":"setAdminContract","outputs":[],"stateMutability":"nonpayable","type":"function"},{"inputs":[{"internalType":"address","name":"addr","type":"address"}],"name":"setProgramContract","outputs":[],"stateMutability":"nonpayable","type":"function"}],"evm":{"bytecode":{"linkReferences":{},"object":"608060405234801561001057600080fd5b50615ff480620000216000396000f3fe608060405234801561001057600080fd5b50600436106100a95760003560e01c80638b2601ef116100715780638b2601ef1461013c5780638cc7326414610158578063b550b22714610174578063e4d1ee6114610190578063ec56f4d9146101c0578063f481345a146101dc576100a9565b806304aa5b14146100ae5780631f44ee65146100ca57806349fd8dfb146100e657806363a812f91461010457806370201a0f14610120575b600080fd5b6100c860048036038101906100c39190614efc565b61020c565b005b6100e460048036038101906100df9190614f58565b610bd3565b005b6100ee610c17565b6040516100fb91906154f4565b60405180910390f35b61011e60048036038101906101199190614f58565b611bdd565b005b61013a60048036038101906101359190615516565b611c20565b005b610156600480360381019061015191906155db565b611ef1565b005b610172600480360381019061016d9190615666565b612454565b005b61018e6004803603810190610189919061576d565b61270a565b005b6101aa60048036038101906101a59190614f58565b612b87565b6040516101b79190615a4c565b60405180910390f35b6101da60048036038101906101d59190615a6e565b613a5f565b005b6101f660048036038101906101f19190614f58565b6141a8565b6040516102039190615b54565b60405180910390f35b60008054906101000a900473ffffffffffffffffffffffffffffffffffffffff1673ffffffffffffffffffffffffffffffffffffffff16639026dee8826040518263ffffffff1660e01b81526004016102659190615b7e565b60206040518083038186803b15801561027d57600080fd5b505afa158015610291573d6000803e3d6000fd5b505050506040513d601f19601f820116820180604052508101906102b59190615bae565b6102f4576040517f08c379a00000000000000000000000000000000000000000000000000000000081526004016102eb90615c38565b60405180910390fd5b8160026000846020015173ffffffffffffffffffffffffffffffffffffffff1673ffffffffffffffffffffffffffffffffffffffff1681526020019081526020016000206000820151816000019080519060200190610354929190614326565b5060208201518160010160006101000a81548173ffffffffffffffffffffffffffffffffffffffff021916908373ffffffffffffffffffffffffffffffffffffffff16021790555060408201518160020190805190602001906103b8929190614326565b506060820151816003015560808201518160040160008201518160000190805190602001906103e8929190614326565b506020820151816001019080519060200190610405929190614326565b506040820151816002019080519060200190610422929190614326565b50606082015181600301908051906020019061043f929190614326565b5060808201518160040160006101000a81548160ff021916908315150217905550505060a0820151816009016000820151816000019080519060200190610487929190614326565b5060208201518160010190805190602001906104a4929190614326565b5060408201518160020190805190602001906104c1929190614326565b5060608201518160030190805190602001906104de929190614326565b5060808201518160040190805190602001906104fb929190614326565b5060a0820151816005019080519060200190610518929190614326565b5060c0820151816006019080519060200190610535929190614326565b5060e0820151816007019080519060200190610552929190614326565b50610100820151816008019080519060200190610570929190614326565b5061012082015181600901908051906020019061058e929190614326565b5061014082015181600a0160006101000a81548160ff021916908315150217905550505060c08201518160140160008201518160000190805190602001906105d7929190614326565b5060208201518160010190805190602001906105f4929190614326565b506040820151816002019080519060200190610611929190614326565b50606082015181600301908051906020019061062e929190614326565b50608082015181600401908051906020019061064b929190614326565b5060a08201518160050160006101000a81548160ff021916908315150217905550505060e082015181601a016000820151816000019080519060200190610693929190614326565b50602082015181600101556040820151816002015560608201518160030190805190602001906106c4929190614326565b506080820151816004015560a0820151816005015560c08201518160060160006101000a81548160ff02191690831515021790555050506101008201518160210160006101000a81548160ff02191690831515021790555090505060005b600480549050811015610bce57826020015173ffffffffffffffffffffffffffffffffffffffff166004828154811061075e5761075d615c58565b5b906000526020600020906022020160010160009054906101000a900473ffffffffffffffffffffffffffffffffffffffff1673ffffffffffffffffffffffffffffffffffffffff161415610bbb5782600482815481106107c1576107c0615c58565b5b906000526020600020906022020160008201518160000190805190602001906107eb929190614326565b5060208201518160010160006101000a81548173ffffffffffffffffffffffffffffffffffffffff021916908373ffffffffffffffffffffffffffffffffffffffff160217905550604082015181600201908051906020019061084f929190614326565b5060608201518160030155608082015181600401600082015181600001908051906020019061087f929190614326565b50602082015181600101908051906020019061089c929190614326565b5060408201518160020190805190602001906108b9929190614326565b5060608201518160030190805190602001906108d6929190614326565b5060808201518160040160006101000a81548160ff021916908315150217905550505060a082015181600901600082015181600001908051906020019061091e929190614326565b50602082015181600101908051906020019061093b929190614326565b506040820151816002019080519060200190610958929190614326565b506060820151816003019080519060200190610975929190614326565b506080820151816004019080519060200190610992929190614326565b5060a08201518160050190805190602001906109af929190614326565b5060c08201518160060190805190602001906109cc929190614326565b5060e08201518160070190805190602001906109e9929190614326565b50610100820151816008019080519060200190610a07929190614326565b50610120820151816009019080519060200190610a25929190614326565b5061014082015181600a0160006101000a81548160ff021916908315150217905550505060c0820151816014016000820151816000019080519060200190610a6e929190614326565b506020820151816001019080519060200190610a8b929190614326565b506040820151816002019080519060200190610aa8929190614326565b506060820151816003019080519060200190610ac5929190614326565b506080820151816004019080519060200190610ae2929190614326565b5060a08201518160050160006101000a81548160ff021916908315150217905550505060e082015181601a016000820151816000019080519060200190610b2a929190614326565b5060208201518160010155604082015181600201556060820151816003019080519060200190610b5b929190614326565b506080820151816004015560a0820151816005015560c08201518160060160006101000a81548160ff02191690831515021790555050506101008201518160210160006101000a81548160ff021916908315150217905550905050610bce565b8080610bc690615cb6565b915050610722565b505050565b80600160006101000a81548173ffffffffffffffffffffffffffffffffffffffff021916908373ffffffffffffffffffffffffffffffffffffffff16021790555050565b606060008054906101000a900473ffffffffffffffffffffffffffffffffffffffff1673ffffffffffffffffffffffffffffffffffffffff16639026dee8336040518263ffffffff1660e01b8152600401610c729190615b7e565b60206040518083038186803b158015610c8a57600080fd5b505afa158015610c9e573d6000803e3d6000fd5b505050506040513d601f19601f82011682018060405250810190610cc29190615bae565b610d01576040517f08c379a0000000000000000000000000000000000000000000000000000000008152600401610cf890615c38565b60405180910390fd5b6004805480602002602001604051908101604052809291908181526020016000905b82821015611bd4578382906000526020600020906022020160405180610120016040529081600082018054610d5790615d2e565b80601f0160208091040260200160405190810160405280929190818152602001828054610d8390615d2e565b8015610dd05780601f10610da557610100808354040283529160200191610dd0565b820191906000526020600020905b815481529060010190602001808311610db357829003601f168201915b505050505081526020016001820160009054906101000a900473ffffffffffffffffffffffffffffffffffffffff1673ffffffffffffffffffffffffffffffffffffffff1673ffffffffffffffffffffffffffffffffffffffff168152602001600282018054610e3f90615d2e565b80601f0160208091040260200160405190810160405280929190818152602001828054610e6b90615d2e565b8015610eb85780601f10610e8d57610100808354040283529160200191610eb8565b820191906000526020600020905b815481529060010190602001808311610e9b57829003601f168201915b5050505050815260200160038201548152602001600482016040518060a0016040529081600082018054610eeb90615d2e565b80601f0160208091040260200160405190810160405280929190818152602001828054610f1790615d2e565b8015610f645780601f10610f3957610100808354040283529160200191610f64565b820191906000526020600020905b815481529060010190602001808311610f4757829003601f168201915b50505050508152602001600182018054610f7d90615d2e565b80601f0160208091040260200160405190810160405280929190818152602001828054610fa990615d2e565b8015610ff65780601f10610fcb57610100808354040283529160200191610ff6565b820191906000526020600020905b815481529060010190602001808311610fd957829003601f168201915b5050505050815260200160028201805461100f90615d2e565b80601f016020809104026020016040519081016040528092919081815260200182805461103b90615d2e565b80156110885780601f1061105d57610100808354040283529160200191611088565b820191906000526020600020905b81548152906001019060200180831161106b57829003601f168201915b505050505081526020016003820180546110a190615d2e565b80601f01602080910402602001604051908101604052809291908181526020018280546110cd90615d2e565b801561111a5780601f106110ef5761010080835404028352916020019161111a565b820191906000526020600020905b8154815290600101906020018083116110fd57829003601f168201915b505050505081526020016004820160009054906101000a900460ff1615151515815250508152602001600982016040518061016001604052908160008201805461116390615d2e565b80601f016020809104026020016040519081016040528092919081815260200182805461118f90615d2e565b80156111dc5780601f106111b1576101008083540402835291602001916111dc565b820191906000526020600020905b8154815290600101906020018083116111bf57829003601f168201915b505050505081526020016001820180546111f590615d2e565b80601f016020809104026020016040519081016040528092919081815260200182805461122190615d2e565b801561126e5780601f106112435761010080835404028352916020019161126e565b820191906000526020600020905b81548152906001019060200180831161125157829003601f168201915b5050505050815260200160028201805461128790615d2e565b80601f01602080910402602001604051908101604052809291908181526020018280546112b390615d2e565b80156113005780601f106112d557610100808354040283529160200191611300565b820191906000526020600020905b8154815290600101906020018083116112e357829003601f168201915b5050505050815260200160038201805461131990615d2e565b80601f016020809104026020016040519081016040528092919081815260200182805461134590615d2e565b80156113925780601f1061136757610100808354040283529160200191611392565b820191906000526020600020905b81548152906001019060200180831161137557829003601f168201915b505050505081526020016004820180546113ab90615d2e565b80601f01602080910402602001604051908101604052809291908181526020018280546113d790615d2e565b80156114245780601f106113f957610100808354040283529160200191611424565b820191906000526020600020905b81548152906001019060200180831161140757829003601f168201915b5050505050815260200160058201805461143d90615d2e565b80601f016020809104026020016040519081016040528092919081815260200182805461146990615d2e565b80156114b65780601f1061148b576101008083540402835291602001916114b6565b820191906000526020600020905b81548152906001019060200180831161149957829003601f168201915b505050505081526020016006820180546114cf90615d2e565b80601f01602080910402602001604051908101604052809291908181526020018280546114fb90615d2e565b80156115485780601f1061151d57610100808354040283529160200191611548565b820191906000526020600020905b81548152906001019060200180831161152b57829003601f168201915b5050505050815260200160078201805461156190615d2e565b80601f016020809104026020016040519081016040528092919081815260200182805461158d90615d2e565b80156115da5780601f106115af576101008083540402835291602001916115da565b820191906000526020600020905b8154815290600101906020018083116115bd57829003601f168201915b505050505081526020016008820180546115f390615d2e565b80601f016020809104026020016040519081016040528092919081815260200182805461161f90615d2e565b801561166c5780601f106116415761010080835404028352916020019161166c565b820191906000526020600020905b81548152906001019060200180831161164f57829003601f168201915b5050505050815260200160098201805461168590615d2e565b80601f01602080910402602001604051908101604052809291908181526020018280546116b190615d2e565b80156116fe5780601f106116d3576101008083540402835291602001916116fe565b820191906000526020600020905b8154815290600101906020018083116116e157829003601f168201915b50505050508152602001600a820160009054906101000a900460ff1615151515815250508152602001601482016040518060c001604052908160008201805461174690615d2e565b80601f016020809104026020016040519081016040528092919081815260200182805461177290615d2e565b80156117bf5780601f10611794576101008083540402835291602001916117bf565b820191906000526020600020905b8154815290600101906020018083116117a257829003601f168201915b505050505081526020016001820180546117d890615d2e565b80601f016020809104026020016040519081016040528092919081815260200182805461180490615d2e565b80156118515780601f1061182657610100808354040283529160200191611851565b820191906000526020600020905b81548152906001019060200180831161183457829003601f168201915b5050505050815260200160028201805461186a90615d2e565b80601f016020809104026020016040519081016040528092919081815260200182805461189690615d2e565b80156118e35780601f106118b8576101008083540402835291602001916118e3565b820191906000526020600020905b8154815290600101906020018083116118c657829003601f168201915b505050505081526020016003820180546118fc90615d2e565b80601f016020809104026020016040519081016040528092919081815260200182805461192890615d2e565b80156119755780601f1061194a57610100808354040283529160200191611975565b820191906000526020600020905b81548152906001019060200180831161195857829003601f168201915b5050505050815260200160048201805461198e90615d2e565b80601f01602080910402602001604051908101604052809291908181526020018280546119ba90615d2e565b8015611a075780601f106119dc57610100808354040283529160200191611a07565b820191906000526020600020905b8154815290600101906020018083116119ea57829003601f168201915b505050505081526020016005820160009054906101000a900460ff1615151515815250508152602001601a82016040518060e0016040529081600082018054611a4f90615d2e565b80601f0160208091040260200160405190810160405280929190818152602001828054611a7b90615d2e565b8015611ac85780601f10611a9d57610100808354040283529160200191611ac8565b820191906000526020600020905b815481529060010190602001808311611aab57829003601f168201915b505050505081526020016001820154815260200160028201548152602001600382018054611af590615d2e565b80601f0160208091040260200160405190810160405280929190818152602001828054611b2190615d2e565b8015611b6e5780601f10611b4357610100808354040283529160200191611b6e565b820191906000526020600020905b815481529060010190602001808311611b5157829003601f168201915b5050505050815260200160048201548152602001600582015481526020016006820160009054906101000a900460ff16151515158152505081526020016021820160009054906101000a900460ff16151515158152505081526020019060010190610d23565b50505050905090565b806000806101000a81548173ffffffffffffffffffffffffffffffffffffffff021916908373ffffffffffffffffffffffffffffffffffffffff16021790555050565b600260003373ffffffffffffffffffffffffffffffffffffffff1673ffffffffffffffffffffffffffffffffffffffff16815260200190815260200160002060210160009054906101000a900460ff16611caf576040517f08c379a0000000000000000000000000000000000000000000000000000000008152600401611ca690615dac565b60405180910390fd5b85600260003373ffffffffffffffffffffffffffffffffffffffff1673ffffffffffffffffffffffffffffffffffffffff168152602001908152602001600020601a016000019080519060200190611d08929190614326565b5084600260003373ffffffffffffffffffffffffffffffffffffffff1673ffffffffffffffffffffffffffffffffffffffff168152602001908152602001600020601a016001018190555083600260003373ffffffffffffffffffffffffffffffffffffffff1673ffffffffffffffffffffffffffffffffffffffff168152602001908152602001600020601a016002018190555082600260003373ffffffffffffffffffffffffffffffffffffffff1673ffffffffffffffffffffffffffffffffffffffff168152602001908152602001600020601a016003019080519060200190611df6929190614326565b5081600260003373ffffffffffffffffffffffffffffffffffffffff1673ffffffffffffffffffffffffffffffffffffffff168152602001908152602001600020601a016004018190555080600260003373ffffffffffffffffffffffffffffffffffffffff1673ffffffffffffffffffffffffffffffffffffffff168152602001908152602001600020601a01600501819055506001600260003373ffffffffffffffffffffffffffffffffffffffff1673ffffffffffffffffffffffffffffffffffffffff168152602001908152602001600020601a0160060160006101000a81548160ff021916908315150217905550505050505050565b60008054906101000a900473ffffffffffffffffffffffffffffffffffffffff1673ffffffffffffffffffffffffffffffffffffffff16639026dee8336040518263ffffffff1660e01b8152600401611f4a9190615b7e565b60206040518083038186803b158015611f6257600080fd5b505afa158015611f76573d6000803e3d6000fd5b505050506040513d601f19601f82011682018060405250810190611f9a9190615bae565b611fd9576040517f08c379a0000000000000000000000000000000000000000000000000000000008152600401611fd090615c38565b60405180910390fd5b60026000600385604051611fed9190615e08565b908152602001604051809103902060009054906101000a900473ffffffffffffffffffffffffffffffffffffffff1673ffffffffffffffffffffffffffffffffffffffff1673ffffffffffffffffffffffffffffffffffffffff16815260200190815260200160002060210160009054906101000a900460ff16156120a7576040517f08c379a000000000000000000000000000000000000000000000000000000000815260040161209e90615e6b565b60405180910390fd5b600260008373ffffffffffffffffffffffffffffffffffffffff1673ffffffffffffffffffffffffffffffffffffffff16815260200190815260200160002060210160009054906101000a900460ff1615612137576040517f08c379a000000000000000000000000000000000000000000000000000000000815260040161212e90615ed7565b60405180910390fd5b600160009054906101000a900473ffffffffffffffffffffffffffffffffffffffff1673ffffffffffffffffffffffffffffffffffffffff1663f67125dc826040518263ffffffff1660e01b81526004016121929190615f30565b60206040518083038186803b1580156121aa57600080fd5b505afa1580156121be573d6000803e3d6000fd5b505050506040513d601f19601f820116820180604052508101906121e29190615bae565b612221576040517f08c379a000000000000000000000000000000000000000000000000000000000815260040161221890615f9e565b60405180910390fd5b81600260008473ffffffffffffffffffffffffffffffffffffffff1673ffffffffffffffffffffffffffffffffffffffff16815260200190815260200160002060010160006101000a81548173ffffffffffffffffffffffffffffffffffffffff021916908373ffffffffffffffffffffffffffffffffffffffff16021790555082600260008473ffffffffffffffffffffffffffffffffffffffff1673ffffffffffffffffffffffffffffffffffffffff16815260200190815260200160002060000190805190602001906122f8929190614326565b5080600260008473ffffffffffffffffffffffffffffffffffffffff1673ffffffffffffffffffffffffffffffffffffffff168152602001908152602001600020600201908051906020019061234f929190614326565b5042600260008473ffffffffffffffffffffffffffffffffffffffff1673ffffffffffffffffffffffffffffffffffffffff168152602001908152602001600020600301819055506001600260008473ffffffffffffffffffffffffffffffffffffffff1673ffffffffffffffffffffffffffffffffffffffff16815260200190815260200160002060210160006101000a81548160ff021916908315150217905550816003846040516124039190615e08565b908152602001604051809103902060006101000a81548173ffffffffffffffffffffffffffffffffffffffff021916908373ffffffffffffffffffffffffffffffffffffffff160217905550505050565b600260003373ffffffffffffffffffffffffffffffffffffffff1673ffffffffffffffffffffffffffffffffffffffff16815260200190815260200160002060210160009054906101000a900460ff166124e3576040517f08c379a00000000000000000000000000000000000000000000000000000000081526004016124da90615dac565b60405180910390fd5b84600260003373ffffffffffffffffffffffffffffffffffffffff1673ffffffffffffffffffffffffffffffffffffffff168152602001908152602001600020601401600001908051906020019061253c929190614326565b5083600260003373ffffffffffffffffffffffffffffffffffffffff1673ffffffffffffffffffffffffffffffffffffffff1681526020019081526020016000206014016001019080519060200190612596929190614326565b5082600260003373ffffffffffffffffffffffffffffffffffffffff1673ffffffffffffffffffffffffffffffffffffffff16815260200190815260200160002060140160020190805190602001906125f0929190614326565b5081600260003373ffffffffffffffffffffffffffffffffffffffff1673ffffffffffffffffffffffffffffffffffffffff168152602001908152602001600020601401600301908051906020019061264a929190614326565b5080600260003373ffffffffffffffffffffffffffffffffffffffff1673ffffffffffffffffffffffffffffffffffffffff16815260200190815260200160002060140160040190805190602001906126a4929190614326565b506001600260003373ffffffffffffffffffffffffffffffffffffffff1673ffffffffffffffffffffffffffffffffffffffff16815260200190815260200160002060140160050160006101000a81548160ff0219169083151502179055505050505050565b600260003373ffffffffffffffffffffffffffffffffffffffff1673ffffffffffffffffffffffffffffffffffffffff16815260200190815260200160002060210160009054906101000a900460ff16612799576040517f08c379a000000000000000000000000000000000000000000000000000000000815260040161279090615dac565b60405180910390fd5b89600260003373ffffffffffffffffffffffffffffffffffffffff1673ffffffffffffffffffffffffffffffffffffffff16815260200190815260200160002060090160000190805190602001906127f2929190614326565b5088600260003373ffffffffffffffffffffffffffffffffffffffff1673ffffffffffffffffffffffffffffffffffffffff168152602001908152602001600020600901600101908051906020019061284c929190614326565b5087600260003373ffffffffffffffffffffffffffffffffffffffff1673ffffffffffffffffffffffffffffffffffffffff16815260200190815260200160002060090160020190805190602001906128a6929190614326565b5086600260003373ffffffffffffffffffffffffffffffffffffffff1673ffffffffffffffffffffffffffffffffffffffff1681526020019081526020016000206009016003019080519060200190612900929190614326565b5085600260003373ffffffffffffffffffffffffffffffffffffffff1673ffffffffffffffffffffffffffffffffffffffff168152602001908152602001600020600901600401908051906020019061295a929190614326565b5084600260003373ffffffffffffffffffffffffffffffffffffffff1673ffffffffffffffffffffffffffffffffffffffff16815260200190815260200160002060090160050190805190602001906129b4929190614326565b5083600260003373ffffffffffffffffffffffffffffffffffffffff1673ffffffffffffffffffffffffffffffffffffffff1681526020019081526020016000206009016006019080519060200190612a0e929190614326565b5082600260003373ffffffffffffffffffffffffffffffffffffffff1673ffffffffffffffffffffffffffffffffffffffff1681526020019081526020016000206009016007019080519060200190612a68929190614326565b5081600260003373ffffffffffffffffffffffffffffffffffffffff1673ffffffffffffffffffffffffffffffffffffffff1681526020019081526020016000206009016008019080519060200190612ac2929190614326565b5080600260003373ffffffffffffffffffffffffffffffffffffffff1673ffffffffffffffffffffffffffffffffffffffff1681526020019081526020016000206009016009019080519060200190612b1c929190614326565b506001600260003373ffffffffffffffffffffffffffffffffffffffff1673ffffffffffffffffffffffffffffffffffffffff168152602001908152602001600020600901600a0160006101000a81548160ff02191690831515021790555050505050505050505050565b612b8f6143ac565b600260008373ffffffffffffffffffffffffffffffffffffffff1673ffffffffffffffffffffffffffffffffffffffff16815260200190815260200160002060405180610120016040529081600082018054612bea90615d2e565b80601f0160208091040260200160405190810160405280929190818152602001828054612c1690615d2e565b8015612c635780601f10612c3857610100808354040283529160200191612c63565b820191906000526020600020905b815481529060010190602001808311612c4657829003601f168201915b505050505081526020016001820160009054906101000a900473ffffffffffffffffffffffffffffffffffffffff1673ffffffffffffffffffffffffffffffffffffffff1673ffffffffffffffffffffffffffffffffffffffff168152602001600282018054612cd290615d2e565b80601f0160208091040260200160405190810160405280929190818152602001828054612cfe90615d2e565b8015612d4b5780601f10612d2057610100808354040283529160200191612d4b565b820191906000526020600020905b815481529060010190602001808311612d2e57829003601f168201915b5050505050815260200160038201548152602001600482016040518060a0016040529081600082018054612d7e90615d2e565b80601f0160208091040260200160405190810160405280929190818152602001828054612daa90615d2e565b8015612df75780601f10612dcc57610100808354040283529160200191612df7565b820191906000526020600020905b815481529060010190602001808311612dda57829003601f168201915b50505050508152602001600182018054612e1090615d2e565b80601f0160208091040260200160405190810160405280929190818152602001828054612e3c90615d2e565b8015612e895780601f10612e5e57610100808354040283529160200191612e89565b820191906000526020600020905b815481529060010190602001808311612e6c57829003601f168201915b50505050508152602001600282018054612ea290615d2e565b80601f0160208091040260200160405190810160405280929190818152602001828054612ece90615d2e565b8015612f1b5780601f10612ef057610100808354040283529160200191612f1b565b820191906000526020600020905b815481529060010190602001808311612efe57829003601f168201915b50505050508152602001600382018054612f3490615d2e565b80601f0160208091040260200160405190810160405280929190818152602001828054612f6090615d2e565b8015612fad5780601f10612f8257610100808354040283529160200191612fad565b820191906000526020600020905b815481529060010190602001808311612f9057829003601f168201915b505050505081526020016004820160009054906101000a900460ff16151515158152505081526020016009820160405180610160016040529081600082018054612ff690615d2e565b80601f016020809104026020016040519081016040528092919081815260200182805461302290615d2e565b801561306f5780601f106130445761010080835404028352916020019161306f565b820191906000526020600020905b81548152906001019060200180831161305257829003601f168201915b5050505050815260200160018201805461308890615d2e565b80601f01602080910402602001604051908101604052809291908181526020018280546130b490615d2e565b80156131015780601f106130d657610100808354040283529160200191613101565b820191906000526020600020905b8154815290600101906020018083116130e457829003601f168201915b5050505050815260200160028201805461311a90615d2e565b80601f016020809104026020016040519081016040528092919081815260200182805461314690615d2e565b80156131935780601f1061316857610100808354040283529160200191613193565b820191906000526020600020905b81548152906001019060200180831161317657829003601f168201915b505050505081526020016003820180546131ac90615d2e565b80601f01602080910402602001604051908101604052809291908181526020018280546131d890615d2e565b80156132255780601f106131fa57610100808354040283529160200191613225565b820191906000526020600020905b81548152906001019060200180831161320857829003601f168201915b5050505050815260200160048201805461323e90615d2e565b80601f016020809104026020016040519081016040528092919081815260200182805461326a90615d2e565b80156132b75780601f1061328c576101008083540402835291602001916132b7565b820191906000526020600020905b81548152906001019060200180831161329a57829003601f168201915b505050505081526020016005820180546132d090615d2e565b80601f01602080910402602001604051908101604052809291908181526020018280546132fc90615d2e565b80156133495780601f1061331e57610100808354040283529160200191613349565b820191906000526020600020905b81548152906001019060200180831161332c57829003601f168201915b5050505050815260200160068201805461336290615d2e565b80601f016020809104026020016040519081016040528092919081815260200182805461338e90615d2e565b80156133db5780601f106133b0576101008083540402835291602001916133db565b820191906000526020600020905b8154815290600101906020018083116133be57829003601f168201915b505050505081526020016007820180546133f490615d2e565b80601f016020809104026020016040519081016040528092919081815260200182805461342090615d2e565b801561346d5780601f106134425761010080835404028352916020019161346d565b820191906000526020600020905b81548152906001019060200180831161345057829003601f168201915b5050505050815260200160088201805461348690615d2e565b80601f01602080910402602001604051908101604052809291908181526020018280546134b290615d2e565b80156134ff5780601f106134d4576101008083540402835291602001916134ff565b820191906000526020600020905b8154815290600101906020018083116134e257829003601f168201915b5050505050815260200160098201805461351890615d2e565b80601f016020809104026020016040519081016040528092919081815260200182805461354490615d2e565b80156135915780601f1061356657610100808354040283529160200191613591565b820191906000526020600020905b81548152906001019060200180831161357457829003601f168201915b50505050508152602001600a820160009054906101000a900460ff1615151515815250508152602001601482016040518060c00160405290816000820180546135d990615d2e565b80601f016020809104026020016040519081016040528092919081815260200182805461360590615d2e565b80156136525780601f1061362757610100808354040283529160200191613652565b820191906000526020600020905b81548152906001019060200180831161363557829003601f168201915b5050505050815260200160018201805461366b90615d2e565b80601f016020809104026020016040519081016040528092919081815260200182805461369790615d2e565b80156136e45780601f106136b9576101008083540402835291602001916136e4565b820191906000526020600020905b8154815290600101906020018083116136c757829003601f168201915b505050505081526020016002820180546136fd90615d2e565b80601f016020809104026020016040519081016040528092919081815260200182805461372990615d2e565b80156137765780601f1061374b57610100808354040283529160200191613776565b820191906000526020600020905b81548152906001019060200180831161375957829003601f168201915b5050505050815260200160038201805461378f90615d2e565b80601f01602080910402602001604051908101604052809291908181526020018280546137bb90615d2e565b80156138085780601f106137dd57610100808354040283529160200191613808565b820191906000526020600020905b8154815290600101906020018083116137eb57829003601f168201915b5050505050815260200160048201805461382190615d2e565b80601f016020809104026020016040519081016040528092919081815260200182805461384d90615d2e565b801561389a5780601f1061386f5761010080835404028352916020019161389a565b820191906000526020600020905b81548152906001019060200180831161387d57829003601f168201915b505050505081526020016005820160009054906101000a900460ff1615151515815250508152602001601a82016040518060e00160405290816000820180546138e290615d2e565b80601f016020809104026020016040519081016040528092919081815260200182805461390e90615d2e565b801561395b5780601f106139305761010080835404028352916020019161395b565b820191906000526020600020905b81548152906001019060200180831161393e57829003601f168201915b50505050508152602001600182015481526020016002820154815260200160038201805461398890615d2e565b80601f01602080910402602001604051908101604052809291908181526020018280546139b490615d2e565b8015613a015780601f106139d657610100808354040283529160200191613a01565b820191906000526020600020905b8154815290600101906020018083116139e457829003601f168201915b5050505050815260200160048201548152602001600582015481526020016006820160009054906101000a900460ff16151515158152505081526020016021820160009054906101000a900460ff1615151515815250509050919050565b600260003373ffffffffffffffffffffffffffffffffffffffff1673ffffffffffffffffffffffffffffffffffffffff16815260200190815260200160002060210160009054906101000a900460ff16613aee576040517f08c379a0000000000000000000000000000000000000000000000000000000008152600401613ae590615dac565b60405180910390fd5b83600260003373ffffffffffffffffffffffffffffffffffffffff1673ffffffffffffffffffffffffffffffffffffffff1681526020019081526020016000206004016000019080519060200190613b47929190614326565b5082600260003373ffffffffffffffffffffffffffffffffffffffff1673ffffffffffffffffffffffffffffffffffffffff1681526020019081526020016000206004016001019080519060200190613ba1929190614326565b5081600260003373ffffffffffffffffffffffffffffffffffffffff1673ffffffffffffffffffffffffffffffffffffffff1681526020019081526020016000206004016002019080519060200190613bfb929190614326565b5080600260003373ffffffffffffffffffffffffffffffffffffffff1673ffffffffffffffffffffffffffffffffffffffff1681526020019081526020016000206004016003019080519060200190613c55929190614326565b506001600260003373ffffffffffffffffffffffffffffffffffffffff1673ffffffffffffffffffffffffffffffffffffffff16815260200190815260200160002060040160040160006101000a81548160ff0219169083151502179055506004600260003373ffffffffffffffffffffffffffffffffffffffff1673ffffffffffffffffffffffffffffffffffffffff16815260200190815260200160002090806001815401808255809150506001900390600052602060002090602202016000909190919091506000820181600001908054613d3290615d2e565b613d3d929190614428565b506001820160009054906101000a900473ffffffffffffffffffffffffffffffffffffffff168160010160006101000a81548173ffffffffffffffffffffffffffffffffffffffff021916908373ffffffffffffffffffffffffffffffffffffffff1602179055506002820181600201908054613db990615d2e565b613dc4929190614428565b506003820154816003015560048201816004016000820181600001908054613deb90615d2e565b613df6929190614428565b506001820181600101908054613e0b90615d2e565b613e16929190614428565b506002820181600201908054613e2b90615d2e565b613e36929190614428565b506003820181600301908054613e4b90615d2e565b613e56929190614428565b506004820160009054906101000a900460ff168160040160006101000a81548160ff021916908315150217905550505060098201816009016000820181600001908054613ea290615d2e565b613ead929190614428565b506001820181600101908054613ec290615d2e565b613ecd929190614428565b506002820181600201908054613ee290615d2e565b613eed929190614428565b506003820181600301908054613f0290615d2e565b613f0d929190614428565b506004820181600401908054613f2290615d2e565b613f2d929190614428565b506005820181600501908054613f4290615d2e565b613f4d929190614428565b506006820181600601908054613f6290615d2e565b613f6d929190614428565b506007820181600701908054613f8290615d2e565b613f8d929190614428565b506008820181600801908054613fa290615d2e565b613fad929190614428565b506009820181600901908054613fc290615d2e565b613fcd929190614428565b50600a820160009054906101000a900460ff1681600a0160006101000a81548160ff02191690831515021790555050506014820181601401600082018160000190805461401990615d2e565b614024929190614428565b50600182018160010190805461403990615d2e565b614044929190614428565b50600282018160020190805461405990615d2e565b614064929190614428565b50600382018160030190805461407990615d2e565b614084929190614428565b50600482018160040190805461409990615d2e565b6140a4929190614428565b506005820160009054906101000a900460ff168160050160006101000a81548160ff0219169083151502179055505050601a820181601a0160008201816000019080546140f090615d2e565b6140fb929190614428565b506001820154816001015560028201548160020155600382018160030190805461412490615d2e565b61412f929190614428565b5060048201548160040155600582015481600501556006820160009054906101000a900460ff168160060160006101000a81548160ff02191690831515021790555050506021820160009054906101000a900460ff168160210160006101000a81548160ff021916908315150217905550505050505050565b6000600260008373ffffffffffffffffffffffffffffffffffffffff1673ffffffffffffffffffffffffffffffffffffffff168152602001908152602001600020600901600a0160009054906101000a900460ff1680156142585750600260008373ffffffffffffffffffffffffffffffffffffffff1673ffffffffffffffffffffffffffffffffffffffff16815260200190815260200160002060140160050160009054906101000a900460ff165b80156142b35750600260008373ffffffffffffffffffffffffffffffffffffffff1673ffffffffffffffffffffffffffffffffffffffff168152602001908152602001600020601a0160060160009054906101000a900460ff165b801561430e5750600260008373ffffffffffffffffffffffffffffffffffffffff1673ffffffffffffffffffffffffffffffffffffffff16815260200190815260200160002060040160040160009054906101000a900460ff165b1561431c5760019050614321565b600090505b919050565b82805461433290615d2e565b90600052602060002090601f016020900481019282614354576000855561439b565b82601f1061436d57805160ff191683800117855561439b565b8280016001018555821561439b579182015b8281111561439a57825182559160200191906001019061437f565b5b5090506143a891906144b5565b5090565b60405180610120016040528060608152602001600073ffffffffffffffffffffffffffffffffffffffff16815260200160608152602001600081526020016143f26144d2565b81526020016143ff614503565b815260200161440c61455f565b8152602001614419614597565b81526020016000151581525090565b82805461443490615d2e565b90600052602060002090601f01602090048101928261445657600085556144a4565b82601f1061446757805485556144a4565b828001600101855582156144a457600052602060002091601f016020900482015b828111156144a3578254825591600101919060010190614488565b5b5090506144b191906144b5565b5090565b5b808211156144ce5760008160009055506001016144b6565b5090565b6040518060a00160405280606081526020016060815260200160608152602001606081526020016000151581525090565b604051806101600160405280606081526020016060815260200160608152602001606081526020016060815260200160608152602001606081526020016060815260200160608152602001606081526020016000151581525090565b6040518060c0016040528060608152602001606081526020016060815260200160608152602001606081526020016000151581525090565b6040518060e001604052806060815260200160008152602001600081526020016060815260200160008152602001600081526020016000151581525090565b6000604051905090565b600080fd5b600080fd5b600080fd5b6000601f19601f8301169050919050565b7f4e487b7100000000000000000000000000000000000000000000000000000000600052604160045260246000fd5b614638826145ef565b810181811067ffffffffffffffff8211171561465757614656614600565b5b80604052505050565b600061466a6145d6565b9050614676828261462f565b919050565b600080fd5b600080fd5b600080fd5b600067ffffffffffffffff8211156146a5576146a4614600565b5b6146ae826145ef565b9050602081019050919050565b82818337600083830152505050565b60006146dd6146d88461468a565b614660565b9050828152602081018484840111156146f9576146f8614685565b5b6147048482856146bb565b509392505050565b600082601f83011261472157614720614680565b5b81356147318482602086016146ca565b91505092915050565b600073ffffffffffffffffffffffffffffffffffffffff82169050919050565b60006147658261473a565b9050919050565b6147758161475a565b811461478057600080fd5b50565b6000813590506147928161476c565b92915050565b6000819050919050565b6147ab81614798565b81146147b657600080fd5b50565b6000813590506147c8816147a2565b92915050565b60008115159050919050565b6147e3816147ce565b81146147ee57600080fd5b50565b600081359050614800816147da565b92915050565b600060a0828403121561481c5761481b6145ea565b5b61482660a0614660565b9050600082013567ffffffffffffffff8111156148465761484561467b565b5b6148528482850161470c565b600083015250602082013567ffffffffffffffff8111156148765761487561467b565b5b6148828482850161470c565b602083015250604082013567ffffffffffffffff8111156148a6576148a561467b565b5b6148b28482850161470c565b604083015250606082013567ffffffffffffffff8111156148d6576148d561467b565b5b6148e28482850161470c565b60608301525060806148f6848285016147f1565b60808301525092915050565b60006101608284031215614919576149186145ea565b5b614924610160614660565b9050600082013567ffffffffffffffff8111156149445761494361467b565b5b6149508482850161470c565b600083015250602082013567ffffffffffffffff8111156149745761497361467b565b5b6149808482850161470c565b602083015250604082013567ffffffffffffffff8111156149a4576149a361467b565b5b6149b08482850161470c565b604083015250606082013567ffffffffffffffff8111156149d4576149d361467b565b5b6149e08482850161470c565b606083015250608082013567ffffffffffffffff811115614a0457614a0361467b565b5b614a108482850161470c565b60808301525060a082013567ffffffffffffffff811115614a3457614a3361467b565b5b614a408482850161470c565b60a08301525060c082013567ffffffffffffffff811115614a6457614a6361467b565b5b614a708482850161470c565b60c08301525060e082013567ffffffffffffffff811115614a9457614a9361467b565b5b614aa08482850161470c565b60e08301525061010082013567ffffffffffffffff811115614ac557614ac461467b565b5b614ad18482850161470c565b6101008301525061012082013567ffffffffffffffff811115614af757614af661467b565b5b614b038482850161470c565b61012083015250610140614b19848285016147f1565b6101408301525092915050565b600060c08284031215614b3c57614b3b6145ea565b5b614b4660c0614660565b9050600082013567ffffffffffffffff811115614b6657614b6561467b565b5b614b728482850161470c565b600083015250602082013567ffffffffffffffff811115614b9657614b9561467b565b5b614ba28482850161470c565b602083015250604082013567ffffffffffffffff811115614bc657614bc561467b565b5b614bd28482850161470c565b604083015250606082013567ffffffffffffffff811115614bf657614bf561467b565b5b614c028482850161470c565b606083015250608082013567ffffffffffffffff811115614c2657614c2561467b565b5b614c328482850161470c565b60808301525060a0614c46848285016147f1565b60a08301525092915050565b6000819050919050565b614c6581614c52565b8114614c7057600080fd5b50565b600081359050614c8281614c5c565b92915050565b600060e08284031215614c9e57614c9d6145ea565b5b614ca860e0614660565b9050600082013567ffffffffffffffff811115614cc857614cc761467b565b5b614cd48482850161470c565b6000830152506020614ce884828501614c73565b6020830152506040614cfc84828501614c73565b604083015250606082013567ffffffffffffffff811115614d2057614d1f61467b565b5b614d2c8482850161470c565b6060830152506080614d4084828501614c73565b60808301525060a0614d5484828501614c73565b60a08301525060c0614d68848285016147f1565b60c08301525092915050565b60006101208284031215614d8b57614d8a6145ea565b5b614d96610120614660565b9050600082013567ffffffffffffffff811115614db657614db561467b565b5b614dc28482850161470c565b6000830152506020614dd684828501614783565b602083015250604082013567ffffffffffffffff811115614dfa57614df961467b565b5b614e068482850161470c565b6040830152506060614e1a848285016147b9565b606083015250608082013567ffffffffffffffff811115614e3e57614e3d61467b565b5b614e4a84828501614806565b60808301525060a082013567ffffffffffffffff811115614e6e57614e6d61467b565b5b614e7a84828501614902565b60a08301525060c082013567ffffffffffffffff811115614e9e57614e9d61467b565b5b614eaa84828501614b26565b60c08301525060e082013567ffffffffffffffff811115614ece57614ecd61467b565b5b614eda84828501614c88565b60e083015250610100614eef848285016147f1565b6101008301525092915050565b60008060408385031215614f1357614f126145e0565b5b600083013567ffffffffffffffff811115614f3157614f306145e5565b5b614f3d85828601614d74565b9250506020614f4e85828601614783565b9150509250929050565b600060208284031215614f6e57614f6d6145e0565b5b6000614f7c84828501614783565b91505092915050565b600081519050919050565b600082825260208201905092915050565b6000819050602082019050919050565b600081519050919050565b600082825260208201905092915050565b60005b83811015614feb578082015181840152602081019050614fd0565b83811115614ffa576000848401525b50505050565b600061500b82614fb1565b6150158185614fbc565b9350615025818560208601614fcd565b61502e816145ef565b840191505092915050565b6150428161475a565b82525050565b61505181614798565b82525050565b615060816147ce565b82525050565b600060a08301600083015184820360008601526150838282615000565b9150506020830151848203602086015261509d8282615000565b915050604083015184820360408601526150b78282615000565b915050606083015184820360608601526150d18282615000565b91505060808301516150e66080860182615057565b508091505092915050565b600061016083016000830151848203600086015261510f8282615000565b915050602083015184820360208601526151298282615000565b915050604083015184820360408601526151438282615000565b9150506060830151848203606086015261515d8282615000565b915050608083015184820360808601526151778282615000565b91505060a083015184820360a08601526151918282615000565b91505060c083015184820360c08601526151ab8282615000565b91505060e083015184820360e08601526151c58282615000565b9150506101008301518482036101008601526151e18282615000565b9150506101208301518482036101208601526151fd8282615000565b915050610140830151615214610140860182615057565b508091505092915050565b600060c083016000830151848203600086015261523c8282615000565b915050602083015184820360208601526152568282615000565b915050604083015184820360408601526152708282615000565b9150506060830151848203606086015261528a8282615000565b915050608083015184820360808601526152a48282615000565b91505060a08301516152b960a0860182615057565b508091505092915050565b6152cd81614c52565b82525050565b600060e08301600083015184820360008601526152f08282615000565b915050602083015161530560208601826152c4565b50604083015161531860408601826152c4565b50606083015184820360608601526153308282615000565b915050608083015161534560808601826152c4565b5060a083015161535860a08601826152c4565b5060c083015161536b60c0860182615057565b508091505092915050565b60006101208301600083015184820360008601526153948282615000565b91505060208301516153a96020860182615039565b50604083015184820360408601526153c18282615000565b91505060608301516153d66060860182615048565b50608083015184820360808601526153ee8282615066565b91505060a083015184820360a086015261540882826150f1565b91505060c083015184820360c0860152615422828261521f565b91505060e083015184820360e086015261543c82826152d3565b915050610100830151615453610100860182615057565b508091505092915050565b600061546a8383615376565b905092915050565b6000602082019050919050565b600061548a82614f85565b6154948185614f90565b9350836020820285016154a685614fa1565b8060005b858110156154e257848403895281516154c3858261545e565b94506154ce83615472565b925060208a019950506001810190506154aa565b50829750879550505050505092915050565b6000602082019050818103600083015261550e818461547f565b905092915050565b60008060008060008060c08789031215615533576155326145e0565b5b600087013567ffffffffffffffff811115615551576155506145e5565b5b61555d89828a0161470c565b965050602061556e89828a01614c73565b955050604061557f89828a01614c73565b945050606087013567ffffffffffffffff8111156155a05761559f6145e5565b5b6155ac89828a0161470c565b93505060806155bd89828a01614c73565b92505060a06155ce89828a01614c73565b9150509295509295509295565b6000806000606084860312156155f4576155f36145e0565b5b600084013567ffffffffffffffff811115615612576156116145e5565b5b61561e8682870161470c565b935050602061562f86828701614783565b925050604084013567ffffffffffffffff8111156156505761564f6145e5565b5b61565c8682870161470c565b9150509250925092565b600080600080600060a08688031215615682576156816145e0565b5b600086013567ffffffffffffffff8111156156a05761569f6145e5565b5b6156ac8882890161470c565b955050602086013567ffffffffffffffff8111156156cd576156cc6145e5565b5b6156d98882890161470c565b945050604086013567ffffffffffffffff8111156156fa576156f96145e5565b5b6157068882890161470c565b935050606086013567ffffffffffffffff811115615727576157266145e5565b5b6157338882890161470c565b925050608086013567ffffffffffffffff811115615754576157536145e5565b5b6157608882890161470c565b9150509295509295909350565b6000806000806000806000806000806101408b8d031215615791576157906145e0565b5b60008b013567ffffffffffffffff8111156157af576157ae6145e5565b5b6157bb8d828e0161470c565b9a505060208b013567ffffffffffffffff8111156157dc576157db6145e5565b5b6157e88d828e0161470c565b99505060408b013567ffffffffffffffff811115615809576158086145e5565b5b6158158d828e0161470c565b98505060608b013567ffffffffffffffff811115615836576158356145e5565b5b6158428d828e0161470c565b97505060808b013567ffffffffffffffff811115615863576158626145e5565b5b61586f8d828e0161470c565b96505060a08b013567ffffffffffffffff8111156158905761588f6145e5565b5b61589c8d828e0161470c565b95505060c08b013567ffffffffffffffff8111156158bd576158bc6145e5565b5b6158c98d828e0161470c565b94505060e08b013567ffffffffffffffff8111156158ea576158e96145e5565b5b6158f68d828e0161470c565b9350506101008b013567ffffffffffffffff811115615918576159176145e5565b5b6159248d828e0161470c565b9250506101208b013567ffffffffffffffff811115615946576159456145e5565b5b6159528d828e0161470c565b9150509295989b9194979a5092959850565b60006101208301600083015184820360008601526159828282615000565b91505060208301516159976020860182615039565b50604083015184820360408601526159af8282615000565b91505060608301516159c46060860182615048565b50608083015184820360808601526159dc8282615066565b91505060a083015184820360a08601526159f682826150f1565b91505060c083015184820360c0860152615a10828261521f565b91505060e083015184820360e0860152615a2a82826152d3565b915050610100830151615a41610100860182615057565b508091505092915050565b60006020820190508181036000830152615a668184615964565b905092915050565b60008060008060808587031215615a8857615a876145e0565b5b600085013567ffffffffffffffff811115615aa657615aa56145e5565b5b615ab28782880161470c565b945050602085013567ffffffffffffffff811115615ad357615ad26145e5565b5b615adf8782880161470c565b935050604085013567ffffffffffffffff811115615b0057615aff6145e5565b5b615b0c8782880161470c565b925050606085013567ffffffffffffffff811115615b2d57615b2c6145e5565b5b615b398782880161470c565b91505092959194509250565b615b4e816147ce565b82525050565b6000602082019050615b696000830184615b45565b92915050565b615b788161475a565b82525050565b6000602082019050615b936000830184615b6f565b92915050565b600081519050615ba8816147da565b92915050565b600060208284031215615bc457615bc36145e0565b5b6000615bd284828501615b99565b91505092915050565b600082825260208201905092915050565b7f596f7520617265206e6f742041646d696e000000000000000000000000000000600082015250565b6000615c22601183615bdb565b9150615c2d82615bec565b602082019050919050565b60006020820190508181036000830152615c5181615c15565b9050919050565b7f4e487b7100000000000000000000000000000000000000000000000000000000600052603260045260246000fd5b7f4e487b7100000000000000000000000000000000000000000000000000000000600052601160045260246000fd5b6000615cc182614798565b91507fffffffffffffffffffffffffffffffffffffffffffffffffffffffffffffffff821415615cf457615cf3615c87565b5b600182019050919050565b7f4e487b7100000000000000000000000000000000000000000000000000000000600052602260045260246000fd5b60006002820490506001821680615d4657607f821691505b60208210811415615d5a57615d59615cff565b5b50919050565b7f496e76616c6964206d6574616d61736b206163636f756e740000000000000000600082015250565b6000615d96601883615bdb565b9150615da182615d60565b602082019050919050565b60006020820190508181036000830152615dc581615d89565b9050919050565b600081905092915050565b6000615de282614fb1565b615dec8185615dcc565b9350615dfc818560208601614fcd565b80840191505092915050565b6000615e148284615dd7565b915081905092915050565b7f496e76616c696420726567697374726174696f6e204964000000000000000000600082015250565b6000615e55601783615bdb565b9150615e6082615e1f565b602082019050919050565b60006020820190508181036000830152615e8481615e48565b9050919050565b7f53747564656e7420697320616c72656164792072656769737465726564000000600082015250565b6000615ec1601d83615bdb565b9150615ecc82615e8b565b602082019050919050565b60006020820190508181036000830152615ef081615eb4565b9050919050565b6000615f0282614fb1565b615f0c8185615bdb565b9350615f1c818560208601614fcd565b615f25816145ef565b840191505092915050565b60006020820190508181036000830152615f4a8184615ef7565b905092915050565b7f50726f6772616d206973206e6f74207265676973746572656400000000000000600082015250565b6000615f88601983615bdb565b9150615f9382615f52565b602082019050919050565b60006020820190508181036000830152615fb781615f7b565b905091905056fea2646970667358221220b7a85526044cc9128dfcdce1623f1f85430fc3a0ef80b9890d8251186abba8af64736f6c63430008090033","opcodes":"PUSH1 0x80 PUSH1 0x40 MSTORE CALLVALUE DUP1 ISZERO PUSH2 0x10 JUMPI PUSH1 0x0 DUP1 REVERT JUMPDEST POP PUSH2 0x5FF4 DUP1 PUSH3 0x21 PUSH1 0x0 CODECOPY PUSH1 0x0 RETURN INVALID PUSH1 0x80 PUSH1 0x40 MSTORE CALLVALUE DUP1 ISZERO PUSH2 0x10 JUMPI PUSH1 0x0 DUP1 REVERT JUMPDEST POP PUSH1 0x4 CALLDATASIZE LT PUSH2 0xA9 JUMPI PUSH1 0x0 CALLDATALOAD PUSH1 0xE0 SHR DUP1 PUSH4 0x8B2601EF GT PUSH2 0x71 JUMPI DUP1 PUSH4 0x8B2601EF EQ PUSH2 0x13C JUMPI DUP1 PUSH4 0x8CC73264 EQ PUSH2 0x158 JUMPI DUP1 PUSH4 0xB550B227 EQ PUSH2 0x174 JUMPI DUP1 PUSH4 0xE4D1EE61 EQ PUSH2 0x190 JUMPI DUP1 PUSH4 0xEC56F4D9 EQ PUSH2 0x1C0 JUMPI DUP1 PUSH4 0xF481345A EQ PUSH2 0x1DC JUMPI PUSH2 0xA9 JUMP JUMPDEST DUP1 PUSH4 0x4AA5B14 EQ PUSH2 0xAE JUMPI DUP1 PUSH4 0x1F44EE65 EQ PUSH2 0xCA JUMPI DUP1 PUSH4 0x49FD8DFB EQ PUSH2 0xE6 JUMPI DUP1 PUSH4 0x63A812F9 EQ PUSH2 0x104 JUMPI DUP1 PUSH4 0x70201A0F EQ PUSH2 0x120 JUMPI JUMPDEST PUSH1 0x0 DUP1 REVERT JUMPDEST PUSH2 0xC8 PUSH1 0x4 DUP1 CALLDATASIZE SUB DUP2 ADD SWAP1 PUSH2 0xC3 SWAP2 SWAP1 PUSH2 0x4EFC JUMP JUMPDEST PUSH2 0x20C JUMP JUMPDEST STOP JUMPDEST PUSH2 0xE4 PUSH1 0x4 DUP1 CALLDATASIZE SUB DUP2 ADD SWAP1 PUSH2 0xDF SWAP2 SWAP1 PUSH2 0x4F58 JUMP JUMPDEST PUSH2 0xBD3 JUMP JUMPDEST STOP JUMPDEST PUSH2 0xEE PUSH2 0xC17 JUMP JUMPDEST PUSH1 0x40 MLOAD PUSH2 0xFB SWAP2 SWAP1 PUSH2 0x54F4 JUMP JUMPDEST PUSH1 0x40 MLOAD DUP1 SWAP2 SUB SWAP1 RETURN JUMPDEST PUSH2 0x11E PUSH1 0x4 DUP1 CALLDATASIZE SUB DUP2 ADD SWAP1 PUSH2 0x119 SWAP2 SWAP1 PUSH2 0x4F58 JUMP JUMPDEST PUSH2 0x1BDD JUMP JUMPDEST STOP JUMPDEST PUSH2 0x13A PUSH1 0x4 DUP1 CALLDATASIZE SUB DUP2 ADD SWAP1 PUSH2 0x135 SWAP2 SWAP1 PUSH2 0x5516 JUMP JUMPDEST PUSH2 0x1C20 JUMP JUMPDEST STOP JUMPDEST PUSH2 0x156 PUSH1 0x4 DUP1 CALLDATASIZE SUB DUP2 ADD SWAP1 PUSH2 0x151 SWAP2 SWAP1 PUSH2 0x55DB JUMP JUMPDEST PUSH2 0x1EF1 JUMP JUMPDEST STOP JUMPDEST PUSH2 0x172 PUSH1 0x4 DUP1 CALLDATASIZE SUB DUP2 ADD SWAP1 PUSH2 0x16D SWAP2 SWAP1 PUSH2 0x5666 JUMP JUMPDEST PUSH2 0x2454 JUMP JUMPDEST STOP JUMPDEST PUSH2 0x18E PUSH1 0x4 DUP1 CALLDATASIZE SUB DUP2 ADD SWAP1 PUSH2 0x189 SWAP2 SWAP1 PUSH2 0x576D JUMP JUMPDEST PUSH2 0x270A JUMP JUMPDEST STOP JUMPDEST PUSH2 0x1AA PUSH1 0x4 DUP1 CALLDATASIZE SUB DUP2 ADD SWAP1 PUSH2 0x1A5 SWAP2 SWAP1 PUSH2 0x4F58 JUMP JUMPDEST PUSH2 0x2B87 JUMP JUMPDEST PUSH1 0x40 MLOAD PUSH2 0x1B7 SWAP2 SWAP1 PUSH2 0x5A4C JUMP JUMPDEST PUSH1 0x40 MLOAD DUP1 SWAP2 SUB SWAP1 RETURN JUMPDEST PUSH2 0x1DA PUSH1 0x4 DUP1 CALLDATASIZE SUB DUP2 ADD SWAP1 PUSH2 0x1D5 SWAP2 SWAP1 PUSH2 0x5A6E JUMP JUMPDEST PUSH2 0x3A5F JUMP JUMPDEST STOP JUMPDEST PUSH2 0x1F6 PUSH1 0x4 DUP1 CALLDATASIZE SUB DUP2 ADD SWAP1 PUSH2 0x1F1 SWAP2 SWAP1 PUSH2 0x4F58 JUMP JUMPDEST PUSH2 0x41A8 JUMP JUMPDEST PUSH1 0x40 MLOAD PUSH2 0x203 SWAP2 SWAP1 PUSH2 0x5B54 JUMP JUMPDEST PUSH1 0x40 MLOAD DUP1 SWAP2 SUB SWAP1 RETURN JUMPDEST PUSH1 0x0 DUP1 SLOAD SWAP1 PUSH2 0x100 EXP SWAP1 DIV PUSH20 0xFFFFFFFFFFFFFFFFFFFFFFFFFFFFFFFFFFFFFFFF AND PUSH20 0xFFFFFFFFFFFFFFFFFFFFFFFFFFFFFFFFFFFFFFFF AND PUSH4 0x9026DEE8 DUP3 PUSH1 0x40 MLOAD DUP3 PUSH4 0xFFFFFFFF AND PUSH1 0xE0 SHL DUP2 MSTORE PUSH1 0x4 ADD PUSH2 0x265 SWAP2 SWAP1 PUSH2 0x5B7E JUMP JUMPDEST PUSH1 0x20 PUSH1 0x40 MLOAD DUP1 DUP4 SUB DUP2 DUP7 DUP1 EXTCODESIZE ISZERO DUP1 ISZERO PUSH2 0x27D JUMPI PUSH1 0x0 DUP1 REVERT JUMPDEST POP GAS STATICCALL ISZERO DUP1 ISZERO PUSH2 0x291 JUMPI RETURNDATASIZE PUSH1 0x0 DUP1 RETURNDATACOPY RETURNDATASIZE PUSH1 0x0 REVERT JUMPDEST POP POP POP POP PUSH1 0x40 MLOAD RETURNDATASIZE PUSH1 0x1F NOT PUSH1 0x1F DUP3 ADD AND DUP3 ADD DUP1 PUSH1 0x40 MSTORE POP DUP2 ADD SWAP1 PUSH2 0x2B5 SWAP2 SWAP1 PUSH2 0x5BAE JUMP JUMPDEST PUSH2 0x2F4 JUMPI PUSH1 0x40 MLOAD PUSH32 0x8C379A000000000000000000000000000000000000000000000000000000000 DUP2 MSTORE PUSH1 0x4 ADD PUSH2 0x2EB SWAP1 PUSH2 0x5C38 JUMP JUMPDEST PUSH1 0x40 MLOAD DUP1 SWAP2 SUB SWAP1 REVERT JUMPDEST DUP2 PUSH1 0x2 PUSH1 0x0 DUP5 PUSH1 0x20 ADD MLOAD PUSH20 0xFFFFFFFFFFFFFFFFFFFFFFFFFFFFFFFFFFFFFFFF AND PUSH20 0xFFFFFFFFFFFFFFFFFFFFFFFFFFFFFFFFFFFFFFFF AND DUP2 MSTORE PUSH1 0x20 ADD SWAP1 DUP2 MSTORE PUSH1 0x20 ADD PUSH1 0x0 KECCAK256 PUSH1 0x0 DUP3 ADD MLOAD DUP2 PUSH1 0x0 ADD SWAP1 DUP1 MLOAD SWAP1 PUSH1 0x20 ADD SWAP1 PUSH2 0x354 SWAP3 SWAP2 SWAP1 PUSH2 0x4326 JUMP JUMPDEST POP PUSH1 0x20 DUP3 ADD MLOAD DUP2 PUSH1 0x1 ADD PUSH1 0x0 PUSH2 0x100 EXP DUP2 SLOAD DUP2 PUSH20 0xFFFFFFFFFFFFFFFFFFFFFFFFFFFFFFFFFFFFFFFF MUL NOT AND SWAP1 DUP4 PUSH20 0xFFFFFFFFFFFFFFFFFFFFFFFFFFFFFFFFFFFFFFFF AND MUL OR SWAP1 SSTORE POP PUSH1 0x40 DUP3 ADD MLOAD DUP2 PUSH1 0x2 ADD SWAP1 DUP1 MLOAD SWAP1 PUSH1 0x20 ADD SWAP1 PUSH2 0x3B8 SWAP3 SWAP2 SWAP1 PUSH2 0x4326 JUMP JUMPDEST POP PUSH1 0x60 DUP3 ADD MLOAD DUP2 PUSH1 0x3 ADD SSTORE PUSH1 0x80 DUP3 ADD MLOAD DUP2 PUSH1 0x4 ADD PUSH1 0x0 DUP3 ADD MLOAD DUP2 PUSH1 0x0 ADD SWAP1 DUP1 MLOAD SWAP1 PUSH1 0x20 ADD SWAP1 PUSH2 0x3E8 SWAP3 SWAP2 SWAP1 PUSH2 0x4326 JUMP JUMPDEST POP PUSH1 0x20 DUP3 ADD MLOAD DUP2 PUSH1 0x1 ADD SWAP1 DUP1 MLOAD SWAP1 PUSH1 0x20 ADD SWAP1 PUSH2 0x405 SWAP3 SWAP2 SWAP1 PUSH2 0x4326 JUMP JUMPDEST POP PUSH1 0x40 DUP3 ADD MLOAD DUP2 PUSH1 0x2 ADD SWAP1 DUP1 MLOAD SWAP1 PUSH1 0x20 ADD SWAP1 PUSH2 0x422 SWAP3 SWAP2 SWAP1 PUSH2 0x4326 JUMP JUMPDEST POP PUSH1 0x60 DUP3 ADD MLOAD DUP2 PUSH1 0x3 ADD SWAP1 DUP1 MLOAD SWAP1 PUSH1 0x20 ADD SWAP1 PUSH2 0x43F SWAP3 SWAP2 SWAP1 PUSH2 0x4326 JUMP JUMPDEST POP PUSH1 0x80 DUP3 ADD MLOAD DUP2 PUSH1 0x4 ADD PUSH1 0x0 PUSH2 0x100 EXP DUP2 SLOAD DUP2 PUSH1 0xFF MUL NOT AND SWAP1 DUP4 ISZERO ISZERO MUL OR SWAP1 SSTORE POP POP POP PUSH1 0xA0 DUP3 ADD MLOAD DUP2 PUSH1 0x9 ADD PUSH1 0x0 DUP3 ADD MLOAD DUP2 PUSH1 0x0 ADD SWAP1 DUP1 MLOAD SWAP1 PUSH1 0x20 ADD SWAP1 PUSH2 0x487 SWAP3 SWAP2 SWAP1 PUSH2 0x4326 JUMP JUMPDEST POP PUSH1 0x20 DUP3 ADD MLOAD DUP2 PUSH1 0x1 ADD SWAP1 DUP1 MLOAD SWAP1 PUSH1 0x20 ADD SWAP1 PUSH2 0x4A4 SWAP3 SWAP2 SWAP1 PUSH2 0x4326 JUMP JUMPDEST POP PUSH1 0x40 DUP3 ADD MLOAD DUP2 PUSH1 0x2 ADD SWAP1 DUP1 MLOAD SWAP1 PUSH1 0x20 ADD SWAP1 PUSH2 0x4C1 SWAP3 SWAP2 SWAP1 PUSH2 0x4326 JUMP JUMPDEST POP PUSH1 0x60 DUP3 ADD MLOAD DUP2 PUSH1 0x3 ADD SWAP1 DUP1 MLOAD SWAP1 PUSH1 0x20 ADD SWAP1 PUSH2 0x4DE SWAP3 SWAP2 SWAP1 PUSH2 0x4326 JUMP JUMPDEST POP PUSH1 0x80 DUP3 ADD MLOAD DUP2 PUSH1 0x4 ADD SWAP1 DUP1 MLOAD SWAP1 PUSH1 0x20 ADD SWAP1 PUSH2 0x4FB SWAP3 SWAP2 SWAP1 PUSH2 0x4326 JUMP JUMPDEST POP PUSH1 0xA0 DUP3 ADD MLOAD DUP2 PUSH1 0x5 ADD SWAP1 DUP1 MLOAD SWAP1 PUSH1 0x20 ADD SWAP1 PUSH2 0x518 SWAP3 SWAP2 SWAP1 PUSH2 0x4326 JUMP JUMPDEST POP PUSH1 0xC0 DUP3 ADD MLOAD DUP2 PUSH1 0x6 ADD SWAP1 DUP1 MLOAD SWAP1 PUSH1 0x20 ADD SWAP1 PUSH2 0x535 SWAP3 SWAP2 SWAP1 PUSH2 0x4326 JUMP JUMPDEST POP PUSH1 0xE0 DUP3 ADD MLOAD DUP2 PUSH1 0x7 ADD SWAP1 DUP1 MLOAD SWAP1 PUSH1 0x20 ADD SWAP1 PUSH2 0x552 SWAP3 SWAP2 SWAP1 PUSH2 0x4326 JUMP JUMPDEST POP PUSH2 0x100 DUP3 ADD MLOAD DUP2 PUSH1 0x8 ADD SWAP1 DUP1 MLOAD SWAP1 PUSH1 0x20 ADD SWAP1 PUSH2 0x570 SWAP3 SWAP2 SWAP1 PUSH2 0x4326 JUMP JUMPDEST POP PUSH2 0x120 DUP3 ADD MLOAD DUP2 PUSH1 0x9 ADD SWAP1 DUP1 MLOAD SWAP1 PUSH1 0x20 ADD SWAP1 PUSH2 0x58E SWAP3 SWAP2 SWAP1 PUSH2 0x4326 JUMP JUMPDEST POP PUSH2 0x140 DUP3 ADD MLOAD DUP2 PUSH1 0xA ADD PUSH1 0x0 PUSH2 0x100 EXP DUP2 SLOAD DUP2 PUSH1 0xFF MUL NOT AND SWAP1 DUP4 ISZERO ISZERO MUL OR SWAP1 SSTORE POP POP POP PUSH1 0xC0 DUP3 ADD MLOAD DUP2 PUSH1 0x14 ADD PUSH1 0x0 DUP3 ADD MLOAD DUP2 PUSH1 0x0 ADD SWAP1 DUP1 MLOAD SWAP1 PUSH1 0x20 ADD SWAP1 PUSH2 0x5D7 SWAP3 SWAP2 SWAP1 PUSH2 0x4326 JUMP JUMPDEST POP PUSH1 0x20 DUP3 ADD MLOAD DUP2 PUSH1 0x1 ADD SWAP1 DUP1 MLOAD SWAP1 PUSH1 0x20 ADD SWAP1 PUSH2 0x5F4 SWAP3 SWAP2 SWAP1 PUSH2 0x4326 JUMP JUMPDEST POP PUSH1 0x40 DUP3 ADD MLOAD DUP2 PUSH1 0x2 ADD SWAP1 DUP1 MLOAD SWAP1 PUSH1 0x20 ADD SWAP1 PUSH2 0x611 SWAP3 SWAP2 SWAP1 PUSH2 0x4326 JUMP JUMPDEST POP PUSH1 0x60 DUP3 ADD MLOAD DUP2 PUSH1 0x3 ADD SWAP1 DUP1 MLOAD SWAP1 PUSH1 0x20 ADD SWAP1 PUSH2 0x62E SWAP3 SWAP2 SWAP1 PUSH2 0x4326 JUMP JUMPDEST POP PUSH1 0x80 DUP3 ADD MLOAD DUP2 PUSH1 0x4 ADD SWAP1 DUP1 MLOAD SWAP1 PUSH1 0x20 ADD SWAP1 PUSH2 0x64B SWAP3 SWAP2 SWAP1 PUSH2 0x4326 JUMP JUMPDEST POP PUSH1 0xA0 DUP3 ADD MLOAD DUP2 PUSH1 0x5 ADD PUSH1 0x0 PUSH2 0x100 EXP DUP2 SLOAD DUP2 PUSH1 0xFF MUL NOT AND SWAP1 DUP4 ISZERO ISZERO MUL OR SWAP1 SSTORE POP POP POP PUSH1 0xE0 DUP3 ADD MLOAD DUP2 PUSH1 0x1A ADD PUSH1 0x0 DUP3 ADD MLOAD DUP2 PUSH1 0x0 ADD SWAP1 DUP1 MLOAD SWAP1 PUSH1 0x20 ADD SWAP1 PUSH2 0x693 SWAP3 SWAP2 SWAP1 PUSH2 0x4326 JUMP JUMPDEST POP PUSH1 0x20 DUP3 ADD MLOAD DUP2 PUSH1 0x1 ADD SSTORE PUSH1 0x40 DUP3 ADD MLOAD DUP2 PUSH1 0x2 ADD SSTORE PUSH1 0x60 DUP3 ADD MLOAD DUP2 PUSH1 0x3 ADD SWAP1 DUP1 MLOAD SWAP1 PUSH1 0x20 ADD SWAP1 PUSH2 0x6C4 SWAP3 SWAP2 SWAP1 PUSH2 0x4326 JUMP JUMPDEST POP PUSH1 0x80 DUP3 ADD MLOAD DUP2 PUSH1 0x4 ADD SSTORE PUSH1 0xA0 DUP3 ADD MLOAD DUP2 PUSH1 0x5 ADD SSTORE PUSH1 0xC0 DUP3 ADD MLOAD DUP2 PUSH1 0x6 ADD PUSH1 0x0 PUSH2 0x100 EXP DUP2 SLOAD DUP2 PUSH1 0xFF MUL NOT AND SWAP1 DUP4 ISZERO ISZERO MUL OR SWAP1 SSTORE POP POP POP PUSH2 0x100 DUP3 ADD MLOAD DUP2 PUSH1 0x21 ADD PUSH1 0x0 PUSH2 0x100 EXP DUP2 SLOAD DUP2 PUSH1 0xFF MUL NOT AND SWAP1 DUP4 ISZERO ISZERO MUL OR SWAP1 SSTORE POP SWAP1 POP POP PUSH1 0x0 JUMPDEST PUSH1 0x4 DUP1 SLOAD SWAP1 POP DUP2 LT ISZERO PUSH2 0xBCE JUMPI DUP3 PUSH1 0x20 ADD MLOAD PUSH20 0xFFFFFFFFFFFFFFFFFFFFFFFFFFFFFFFFFFFFFFFF AND PUSH1 0x4 DUP3 DUP2 SLOAD DUP2 LT PUSH2 0x75E JUMPI PUSH2 0x75D PUSH2 0x5C58 JUMP JUMPDEST JUMPDEST SWAP1 PUSH1 0x0 MSTORE PUSH1 0x20 PUSH1 0x0 KECCAK256 SWAP1 PUSH1 0x22 MUL ADD PUSH1 0x1 ADD PUSH1 0x0 SWAP1 SLOAD SWAP1 PUSH2 0x100 EXP SWAP1 DIV PUSH20 0xFFFFFFFFFFFFFFFFFFFFFFFFFFFFFFFFFFFFFFFF AND PUSH20 0xFFFFFFFFFFFFFFFFFFFFFFFFFFFFFFFFFFFFFFFF AND EQ ISZERO PUSH2 0xBBB JUMPI DUP3 PUSH1 0x4 DUP3 DUP2 SLOAD DUP2 LT PUSH2 0x7C1 JUMPI PUSH2 0x7C0 PUSH2 0x5C58 JUMP JUMPDEST JUMPDEST SWAP1 PUSH1 0x0 MSTORE PUSH1 0x20 PUSH1 0x0 KECCAK256 SWAP1 PUSH1 0x22 MUL ADD PUSH1 0x0 DUP3 ADD MLOAD DUP2 PUSH1 0x0 ADD SWAP1 DUP1 MLOAD SWAP1 PUSH1 0x20 ADD SWAP1 PUSH2 0x7EB SWAP3 SWAP2 SWAP1 PUSH2 0x4326 JUMP JUMPDEST POP PUSH1 0x20 DUP3 ADD MLOAD DUP2 PUSH1 0x1 ADD PUSH1 0x0 PUSH2 0x100 EXP DUP2 SLOAD DUP2 PUSH20 0xFFFFFFFFFFFFFFFFFFFFFFFFFFFFFFFFFFFFFFFF MUL NOT AND SWAP1 DUP4 PUSH20 0xFFFFFFFFFFFFFFFFFFFFFFFFFFFFFFFFFFFFFFFF AND MUL OR SWAP1 SSTORE POP PUSH1 0x40 DUP3 ADD MLOAD DUP2 PUSH1 0x2 ADD SWAP1 DUP1 MLOAD SWAP1 PUSH1 0x20 ADD SWAP1 PUSH2 0x84F SWAP3 SWAP2 SWAP1 PUSH2 0x4326 JUMP JUMPDEST POP PUSH1 0x60 DUP3 ADD MLOAD DUP2 PUSH1 0x3 ADD SSTORE PUSH1 0x80 DUP3 ADD MLOAD DUP2 PUSH1 0x4 ADD PUSH1 0x0 DUP3 ADD MLOAD DUP2 PUSH1 0x0 ADD SWAP1 DUP1 MLOAD SWAP1 PUSH1 0x20 ADD SWAP1 PUSH2 0x87F SWAP3 SWAP2 SWAP1 PUSH2 0x4326 JUMP JUMPDEST POP PUSH1 0x20 DUP3 ADD MLOAD DUP2 PUSH1 0x1 ADD SWAP1 DUP1 MLOAD SWAP1 PUSH1 0x20 ADD SWAP1 PUSH2 0x89C SWAP3 SWAP2 SWAP1 PUSH2 0x4326 JUMP JUMPDEST POP PUSH1 0x40 DUP3 ADD MLOAD DUP2 PUSH1 0x2 ADD SWAP1 DUP1 MLOAD SWAP1 PUSH1 0x20 ADD SWAP1 PUSH2 0x8B9 SWAP3 SWAP2 SWAP1 PUSH2 0x4326 JUMP JUMPDEST POP PUSH1 0x60 DUP3 ADD MLOAD DUP2 PUSH1 0x3 ADD SWAP1 DUP1 MLOAD SWAP1 PUSH1 0x20 ADD SWAP1 PUSH2 0x8D6 SWAP3 SWAP2 SWAP1 PUSH2 0x4326 JUMP JUMPDEST POP PUSH1 0x80 DUP3 ADD MLOAD DUP2 PUSH1 0x4 ADD PUSH1 0x0 PUSH2 0x100 EXP DUP2 SLOAD DUP2 PUSH1 0xFF MUL NOT AND SWAP1 DUP4 ISZERO ISZERO MUL OR SWAP1 SSTORE POP POP POP PUSH1 0xA0 DUP3 ADD MLOAD DUP2 PUSH1 0x9 ADD PUSH1 0x0 DUP3 ADD MLOAD DUP2 PUSH1 0x0 ADD SWAP1 DUP1 MLOAD SWAP1 PUSH1 0x20 ADD SWAP1 PUSH2 0x91E SWAP3 SWAP2 SWAP1 PUSH2 0x4326 JUMP JUMPDEST POP PUSH1 0x20 DUP3 ADD MLOAD DUP2 PUSH1 0x1 ADD SWAP1 DUP1 MLOAD SWAP1 PUSH1 0x20 ADD SWAP1 PUSH2 0x93B SWAP3 SWAP2 SWAP1 PUSH2 0x4326 JUMP JUMPDEST POP PUSH1 0x40 DUP3 ADD MLOAD DUP2 PUSH1 0x2 ADD SWAP1 DUP1 MLOAD SWAP1 PUSH1 0x20 ADD SWAP1 PUSH2 0x958 SWAP3 SWAP2 SWAP1 PUSH2 0x4326 JUMP JUMPDEST POP PUSH1 0x60 DUP3 ADD MLOAD DUP2 PUSH1 0x3 ADD SWAP1 DUP1 MLOAD SWAP1 PUSH1 0x20 ADD SWAP1 PUSH2 0x975 SWAP3 SWAP2 SWAP1 PUSH2 0x4326 JUMP JUMPDEST POP PUSH1 0x80 DUP3 ADD MLOAD DUP2 PUSH1 0x4 ADD SWAP1 DUP1 MLOAD SWAP1 PUSH1 0x20 ADD SWAP1 PUSH2 0x992 SWAP3 SWAP2 SWAP1 PUSH2 0x4326 JUMP JUMPDEST POP PUSH1 0xA0 DUP3 ADD MLOAD DUP2 PUSH1 0x5 ADD SWAP1 DUP1 MLOAD SWAP1 PUSH1 0x20 ADD SWAP1 PUSH2 0x9AF SWAP3 SWAP2 SWAP1 PUSH2 0x4326 JUMP JUMPDEST POP PUSH1 0xC0 DUP3 ADD MLOAD DUP2 PUSH1 0x6 ADD SWAP1 DUP1 MLOAD SWAP1 PUSH1 0x20 ADD SWAP1 PUSH2 0x9CC SWAP3 SWAP2 SWAP1 PUSH2 0x4326 JUMP JUMPDEST POP PUSH1 0xE0 DUP3 ADD MLOAD DUP2 PUSH1 0x7 ADD SWAP1 DUP1 MLOAD SWAP1 PUSH1 0x20 ADD SWAP1 PUSH2 0x9E9 SWAP3 SWAP2 SWAP1 PUSH2 0x4326 JUMP JUMPDEST POP PUSH2 0x100 DUP3 ADD MLOAD DUP2 PUSH1 0x8 ADD SWAP1 DUP1 MLOAD SWAP1 PUSH1 0x20 ADD SWAP1 PUSH2 0xA07 SWAP3 SWAP2 SWAP1 PUSH2 0x4326 JUMP JUMPDEST POP PUSH2 0x120 DUP3 ADD MLOAD DUP2 PUSH1 0x9 ADD SWAP1 DUP1 MLOAD SWAP1 PUSH1 0x20 ADD SWAP1 PUSH2 0xA25 SWAP3 SWAP2 SWAP1 PUSH2 0x4326 JUMP JUMPDEST POP PUSH2 0x140 DUP3 ADD MLOAD DUP2 PUSH1 0xA ADD PUSH1 0x0 PUSH2 0x100 EXP DUP2 SLOAD DUP2 PUSH1 0xFF MUL NOT AND SWAP1 DUP4 ISZERO ISZERO MUL OR SWAP1 SSTORE POP POP POP PUSH1 0xC0 DUP3 ADD MLOAD DUP2 PUSH1 0x14 ADD PUSH1 0x0 DUP3 ADD MLOAD DUP2 PUSH1 0x0 ADD SWAP1 DUP1 MLOAD SWAP1 PUSH1 0x20 ADD SWAP1 PUSH2 0xA6E SWAP3 SWAP2 SWAP1 PUSH2 0x4326 JUMP JUMPDEST POP PUSH1 0x20 DUP3 ADD MLOAD DUP2 PUSH1 0x1 ADD SWAP1 DUP1 MLOAD SWAP1 PUSH1 0x20 ADD SWAP1 PUSH2 0xA8B SWAP3 SWAP2 SWAP1 PUSH2 0x4326 JUMP JUMPDEST POP PUSH1 0x40 DUP3 ADD MLOAD DUP2 PUSH1 0x2 ADD SWAP1 DUP1 MLOAD SWAP1 PUSH1 0x20 ADD SWAP1 PUSH2 0xAA8 SWAP3 SWAP2 SWAP1 PUSH2 0x4326 JUMP JUMPDEST POP PUSH1 0x60 DUP3 ADD MLOAD DUP2 PUSH1 0x3 ADD SWAP1 DUP1 MLOAD SWAP1 PUSH1 0x20 ADD SWAP1 PUSH2 0xAC5 SWAP3 SWAP2 SWAP1 PUSH2 0x4326 JUMP JUMPDEST POP PUSH1 0x80 DUP3 ADD MLOAD DUP2 PUSH1 0x4 ADD SWAP1 DUP1 MLOAD SWAP1 PUSH1 0x20 ADD SWAP1 PUSH2 0xAE2 SWAP3 SWAP2 SWAP1 PUSH2 0x4326 JUMP JUMPDEST POP PUSH1 0xA0 DUP3 ADD MLOAD DUP2 PUSH1 0x5 ADD PUSH1 0x0 PUSH2 0x100 EXP DUP2 SLOAD DUP2 PUSH1 0xFF MUL NOT AND SWAP1 DUP4 ISZERO ISZERO MUL OR SWAP1 SSTORE POP POP POP PUSH1 0xE0 DUP3 ADD MLOAD DUP2 PUSH1 0x1A ADD PUSH1 0x0 DUP3 ADD MLOAD DUP2 PUSH1 0x0 ADD SWAP1 DUP1 MLOAD SWAP1 PUSH1 0x20 ADD SWAP1 PUSH2 0xB2A SWAP3 SWAP2 SWAP1 PUSH2 0x4326 JUMP JUMPDEST POP PUSH1 0x20 DUP3 ADD MLOAD DUP2 PUSH1 0x1 ADD SSTORE PUSH1 0x40 DUP3 ADD MLOAD DUP2 PUSH1 0x2 ADD SSTORE PUSH1 0x60 DUP3 ADD MLOAD DUP2 PUSH1 0x3 ADD SWAP1 DUP1 MLOAD SWAP1 PUSH1 0x20 ADD SWAP1 PUSH2 0xB5B SWAP3 SWAP2 SWAP1 PUSH2 0x4326 JUMP JUMPDEST POP PUSH1 0x80 DUP3 ADD MLOAD DUP2 PUSH1 0x4 ADD SSTORE PUSH1 0xA0 DUP3 ADD MLOAD DUP2 PUSH1 0x5 ADD SSTORE PUSH1 0xC0 DUP3 ADD MLOAD DUP2 PUSH1 0x6 ADD PUSH1 0x0 PUSH2 0x100 EXP DUP2 SLOAD DUP2 PUSH1 0xFF MUL NOT AND SWAP1 DUP4 ISZERO ISZERO MUL OR SWAP1 SSTORE POP POP POP PUSH2 0x100 DUP3 ADD MLOAD DUP2 PUSH1 0x21 ADD PUSH1 0x0 PUSH2 0x100 EXP DUP2 SLOAD DUP2 PUSH1 0xFF MUL NOT AND SWAP1 DUP4 ISZERO ISZERO MUL OR SWAP1 SSTORE POP SWAP1 POP POP PUSH2 0xBCE JUMP JUMPDEST DUP1 DUP1 PUSH2 0xBC6 SWAP1 PUSH2 0x5CB6 JUMP JUMPDEST SWAP2 POP POP PUSH2 0x722 JUMP JUMPDEST POP POP POP JUMP JUMPDEST DUP1 PUSH1 0x1 PUSH1 0x0 PUSH2 0x100 EXP DUP2 SLOAD DUP2 PUSH20 0xFFFFFFFFFFFFFFFFFFFFFFFFFFFFFFFFFFFFFFFF MUL NOT AND SWAP1 DUP4 PUSH20 0xFFFFFFFFFFFFFFFFFFFFFFFFFFFFFFFFFFFFFFFF AND MUL OR SWAP1 SSTORE POP POP JUMP JUMPDEST PUSH1 0x60 PUSH1 0x0 DUP1 SLOAD SWAP1 PUSH2 0x100 EXP SWAP1 DIV PUSH20 0xFFFFFFFFFFFFFFFFFFFFFFFFFFFFFFFFFFFFFFFF AND PUSH20 0xFFFFFFFFFFFFFFFFFFFFFFFFFFFFFFFFFFFFFFFF AND PUSH4 0x9026DEE8 CALLER PUSH1 0x40 MLOAD DUP3 PUSH4 0xFFFFFFFF AND PUSH1 0xE0 SHL DUP2 MSTORE PUSH1 0x4 ADD PUSH2 0xC72 SWAP2 SWAP1 PUSH2 0x5B7E JUMP JUMPDEST PUSH1 0x20 PUSH1 0x40 MLOAD DUP1 DUP4 SUB DUP2 DUP7 DUP1 EXTCODESIZE ISZERO DUP1 ISZERO PUSH2 0xC8A JUMPI PUSH1 0x0 DUP1 REVERT JUMPDEST POP GAS STATICCALL ISZERO DUP1 ISZERO PUSH2 0xC9E JUMPI RETURNDATASIZE PUSH1 0x0 DUP1 RETURNDATACOPY RETURNDATASIZE PUSH1 0x0 REVERT JUMPDEST POP POP POP POP PUSH1 0x40 MLOAD RETURNDATASIZE PUSH1 0x1F NOT PUSH1 0x1F DUP3 ADD AND DUP3 ADD DUP1 PUSH1 0x40 MSTORE POP DUP2 ADD SWAP1 PUSH2 0xCC2 SWAP2 SWAP1 PUSH2 0x5BAE JUMP JUMPDEST PUSH2 0xD01 JUMPI PUSH1 0x40 MLOAD PUSH32 0x8C379A000000000000000000000000000000000000000000000000000000000 DUP2 MSTORE PUSH1 0x4 ADD PUSH2 0xCF8 SWAP1 PUSH2 0x5C38 JUMP JUMPDEST PUSH1 0x40 MLOAD DUP1 SWAP2 SUB SWAP1 REVERT JUMPDEST PUSH1 0x4 DUP1 SLOAD DUP1 PUSH1 0x20 MUL PUSH1 0x20 ADD PUSH1 0x40 MLOAD SWAP1 DUP2 ADD PUSH1 0x40 MSTORE DUP1 SWAP3 SWAP2 SWAP1 DUP2 DUP2 MSTORE PUSH1 0x20 ADD PUSH1 0x0 SWAP1 JUMPDEST DUP3 DUP3 LT ISZERO PUSH2 0x1BD4 JUMPI DUP4 DUP3 SWAP1 PUSH1 0x0 MSTORE PUSH1 0x20 PUSH1 0x0 KECCAK256 SWAP1 PUSH1 0x22 MUL ADD PUSH1 0x40 MLOAD DUP1 PUSH2 0x120 ADD PUSH1 0x40 MSTORE SWAP1 DUP2 PUSH1 0x0 DUP3 ADD DUP1 SLOAD PUSH2 0xD57 SWAP1 PUSH2 0x5D2E JUMP JUMPDEST DUP1 PUSH1 0x1F ADD PUSH1 0x20 DUP1 SWAP2 DIV MUL PUSH1 0x20 ADD PUSH1 0x40 MLOAD SWAP1 DUP2 ADD PUSH1 0x40 MSTORE DUP1 SWAP3 SWAP2 SWAP1 DUP2 DUP2 MSTORE PUSH1 0x20 ADD DUP3 DUP1 SLOAD PUSH2 0xD83 SWAP1 PUSH2 0x5D2E JUMP JUMPDEST DUP1 ISZERO PUSH2 0xDD0 JUMPI DUP1 PUSH1 0x1F LT PUSH2 0xDA5 JUMPI PUSH2 0x100 DUP1 DUP4 SLOAD DIV MUL DUP4 MSTORE SWAP2 PUSH1 0x20 ADD SWAP2 PUSH2 0xDD0 JUMP JUMPDEST DUP3 ADD SWAP2 SWAP1 PUSH1 0x0 MSTORE PUSH1 0x20 PUSH1 0x0 KECCAK256 SWAP1 JUMPDEST DUP2 SLOAD DUP2 MSTORE SWAP1 PUSH1 0x1 ADD SWAP1 PUSH1 0x20 ADD DUP1 DUP4 GT PUSH2 0xDB3 JUMPI DUP3 SWAP1 SUB PUSH1 0x1F AND DUP3 ADD SWAP2 JUMPDEST POP POP POP POP POP DUP2 MSTORE PUSH1 0x20 ADD PUSH1 0x1 DUP3 ADD PUSH1 0x0 SWAP1 SLOAD SWAP1 PUSH2 0x100 EXP SWAP1 DIV PUSH20 0xFFFFFFFFFFFFFFFFFFFFFFFFFFFFFFFFFFFFFFFF AND PUSH20 0xFFFFFFFFFFFFFFFFFFFFFFFFFFFFFFFFFFFFFFFF AND PUSH20 0xFFFFFFFFFFFFFFFFFFFFFFFFFFFFFFFFFFFFFFFF AND DUP2 MSTORE PUSH1 0x20 ADD PUSH1 0x2 DUP3 ADD DUP1 SLOAD PUSH2 0xE3F SWAP1 PUSH2 0x5D2E JUMP JUMPDEST DUP1 PUSH1 0x1F ADD PUSH1 0x20 DUP1 SWAP2 DIV MUL PUSH1 0x20 ADD PUSH1 0x40 MLOAD SWAP1 DUP2 ADD PUSH1 0x40 MSTORE DUP1 SWAP3 SWAP2 SWAP1 DUP2 DUP2 MSTORE PUSH1 0x20 ADD DUP3 DUP1 SLOAD PUSH2 0xE6B SWAP1 PUSH2 0x5D2E JUMP JUMPDEST DUP1 ISZERO PUSH2 0xEB8 JUMPI DUP1 PUSH1 0x1F LT PUSH2 0xE8D JUMPI PUSH2 0x100 DUP1 DUP4 SLOAD DIV MUL DUP4 MSTORE SWAP2 PUSH1 0x20 ADD SWAP2 PUSH2 0xEB8 JUMP JUMPDEST DUP3 ADD SWAP2 SWAP1 PUSH1 0x0 MSTORE PUSH1 0x20 PUSH1 0x0 KECCAK256 SWAP1 JUMPDEST DUP2 SLOAD DUP2 MSTORE SWAP1 PUSH1 0x1 ADD SWAP1 PUSH1 0x20 ADD DUP1 DUP4 GT PUSH2 0xE9B JUMPI DUP3 SWAP1 SUB PUSH1 0x1F AND DUP3 ADD SWAP2 JUMPDEST POP POP POP POP POP DUP2 MSTORE PUSH1 0x20 ADD PUSH1 0x3 DUP3 ADD SLOAD DUP2 MSTORE PUSH1 0x20 ADD PUSH1 0x4 DUP3 ADD PUSH1 0x40 MLOAD DUP1 PUSH1 0xA0 ADD PUSH1 0x40 MSTORE SWAP1 DUP2 PUSH1 0x0 DUP3 ADD DUP1 SLOAD PUSH2 0xEEB SWAP1 PUSH2 0x5D2E JUMP JUMPDEST DUP1 PUSH1 0x1F ADD PUSH1 0x20 DUP1 SWAP2 DIV MUL PUSH1 0x20 ADD PUSH1 0x40 MLOAD SWAP1 DUP2 ADD PUSH1 0x40 MSTORE DUP1 SWAP3 SWAP2 SWAP1 DUP2 DUP2 MSTORE PUSH1 0x20 ADD DUP3 DUP1 SLOAD PUSH2 0xF17 SWAP1 PUSH2 0x5D2E JUMP JUMPDEST DUP1 ISZERO PUSH2 0xF64 JUMPI DUP1 PUSH1 0x1F LT PUSH2 0xF39 JUMPI PUSH2 0x100 DUP1 DUP4 SLOAD DIV MUL DUP4 MSTORE SWAP2 PUSH1 0x20 ADD SWAP2 PUSH2 0xF64 JUMP JUMPDEST DUP3 ADD SWAP2 SWAP1 PUSH1 0x0 MSTORE PUSH1 0x20 PUSH1 0x0 KECCAK256 SWAP1 JUMPDEST DUP2 SLOAD DUP2 MSTORE SWAP1 PUSH1 0x1 ADD SWAP1 PUSH1 0x20 ADD DUP1 DUP4 GT PUSH2 0xF47 JUMPI DUP3 SWAP1 SUB PUSH1 0x1F AND DUP3 ADD SWAP2 JUMPDEST POP POP POP POP POP DUP2 MSTORE PUSH1 0x20 ADD PUSH1 0x1 DUP3 ADD DUP1 SLOAD PUSH2 0xF7D SWAP1 PUSH2 0x5D2E JUMP JUMPDEST DUP1 PUSH1 0x1F ADD PUSH1 0x20 DUP1 SWAP2 DIV MUL PUSH1 0x20 ADD PUSH1 0x40 MLOAD SWAP1 DUP2 ADD PUSH1 0x40 MSTORE DUP1 SWAP3 SWAP2 SWAP1 DUP2 DUP2 MSTORE PUSH1 0x20 ADD DUP3 DUP1 SLOAD PUSH2 0xFA9 SWAP1 PUSH2 0x5D2E JUMP JUMPDEST DUP1 ISZERO PUSH2 0xFF6 JUMPI DUP1 PUSH1 0x1F LT PUSH2 0xFCB JUMPI PUSH2 0x100 DUP1 DUP4 SLOAD DIV MUL DUP4 MSTORE SWAP2 PUSH1 0x20 ADD SWAP2 PUSH2 0xFF6 JUMP JUMPDEST DUP3 ADD SWAP2 SWAP1 PUSH1 0x0 MSTORE PUSH1 0x20 PUSH1 0x0 KECCAK256 SWAP1 JUMPDEST DUP2 SLOAD DUP2 MSTORE SWAP1 PUSH1 0x1 ADD SWAP1 PUSH1 0x20 ADD DUP1 DUP4 GT PUSH2 0xFD9 JUMPI DUP3 SWAP1 SUB PUSH1 0x1F AND DUP3 ADD SWAP2 JUMPDEST POP POP POP POP POP DUP2 MSTORE PUSH1 0x20 ADD PUSH1 0x2 DUP3 ADD DUP1 SLOAD PUSH2 0x100F SWAP1 PUSH2 0x5D2E JUMP JUMPDEST DUP1 PUSH1 0x1F ADD PUSH1 0x20 DUP1 SWAP2 DIV MUL PUSH1 0x20 ADD PUSH1 0x40 MLOAD SWAP1 DUP2 ADD PUSH1 0x40 MSTORE DUP1 SWAP3 SWAP2 SWAP1 DUP2 DUP2 MSTORE PUSH1 0x20 ADD DUP3 DUP1 SLOAD PUSH2 0x103B SWAP1 PUSH2 0x5D2E JUMP JUMPDEST DUP1 ISZERO PUSH2 0x1088 JUMPI DUP1 PUSH1 0x1F LT PUSH2 0x105D JUMPI PUSH2 0x100 DUP1 DUP4 SLOAD DIV MUL DUP4 MSTORE SWAP2 PUSH1 0x20 ADD SWAP2 PUSH2 0x1088 JUMP JUMPDEST DUP3 ADD SWAP2 SWAP1 PUSH1 0x0 MSTORE PUSH1 0x20 PUSH1 0x0 KECCAK256 SWAP1 JUMPDEST DUP2 SLOAD DUP2 MSTORE SWAP1 PUSH1 0x1 ADD SWAP1 PUSH1 0x20 ADD DUP1 DUP4 GT PUSH2 0x106B JUMPI DUP3 SWAP1 SUB PUSH1 0x1F AND DUP3 ADD SWAP2 JUMPDEST POP POP POP POP POP DUP2 MSTORE PUSH1 0x20 ADD PUSH1 0x3 DUP3 ADD DUP1 SLOAD PUSH2 0x10A1 SWAP1 PUSH2 0x5D2E JUMP JUMPDEST DUP1 PUSH1 0x1F ADD PUSH1 0x20 DUP1 SWAP2 DIV MUL PUSH1 0x20 ADD PUSH1 0x40 MLOAD SWAP1 DUP2 ADD PUSH1 0x40 MSTORE DUP1 SWAP3 SWAP2 SWAP1 DUP2 DUP2 MSTORE PUSH1 0x20 ADD DUP3 DUP1 SLOAD PUSH2 0x10CD SWAP1 PUSH2 0x5D2E JUMP JUMPDEST DUP1 ISZERO PUSH2 0x111A JUMPI DUP1 PUSH1 0x1F LT PUSH2 0x10EF JUMPI PUSH2 0x100 DUP1 DUP4 SLOAD DIV MUL DUP4 MSTORE SWAP2 PUSH1 0x20 ADD SWAP2 PUSH2 0x111A JUMP JUMPDEST DUP3 ADD SWAP2 SWAP1 PUSH1 0x0 MSTORE PUSH1 0x20 PUSH1 0x0 KECCAK256 SWAP1 JUMPDEST DUP2 SLOAD DUP2 MSTORE SWAP1 PUSH1 0x1 ADD SWAP1 PUSH1 0x20 ADD DUP1 DUP4 GT PUSH2 0x10FD JUMPI DUP3 SWAP1 SUB PUSH1 0x1F AND DUP3 ADD SWAP2 JUMPDEST POP POP POP POP POP DUP2 MSTORE PUSH1 0x20 ADD PUSH1 0x4 DUP3 ADD PUSH1 0x0 SWAP1 SLOAD SWAP1 PUSH2 0x100 EXP SWAP1 DIV PUSH1 0xFF AND ISZERO ISZERO ISZERO ISZERO DUP2 MSTORE POP POP DUP2 MSTORE PUSH1 0x20 ADD PUSH1 0x9 DUP3 ADD PUSH1 0x40 MLOAD DUP1 PUSH2 0x160 ADD PUSH1 0x40 MSTORE SWAP1 DUP2 PUSH1 0x0 DUP3 ADD DUP1 SLOAD PUSH2 0x1163 SWAP1 PUSH2 0x5D2E JUMP JUMPDEST DUP1 PUSH1 0x1F ADD PUSH1 0x20 DUP1 SWAP2 DIV MUL PUSH1 0x20 ADD PUSH1 0x40 MLOAD SWAP1 DUP2 ADD PUSH1 0x40 MSTORE DUP1 SWAP3 SWAP2 SWAP1 DUP2 DUP2 MSTORE PUSH1 0x20 ADD DUP3 DUP1 SLOAD PUSH2 0x118F SWAP1 PUSH2 0x5D2E JUMP JUMPDEST DUP1 ISZERO PUSH2 0x11DC JUMPI DUP1 PUSH1 0x1F LT PUSH2 0x11B1 JUMPI PUSH2 0x100 DUP1 DUP4 SLOAD DIV MUL DUP4 MSTORE SWAP2 PUSH1 0x20 ADD SWAP2 PUSH2 0x11DC JUMP JUMPDEST DUP3 ADD SWAP2 SWAP1 PUSH1 0x0 MSTORE PUSH1 0x20 PUSH1 0x0 KECCAK256 SWAP1 JUMPDEST DUP2 SLOAD DUP2 MSTORE SWAP1 PUSH1 0x1 ADD SWAP1 PUSH1 0x20 ADD DUP1 DUP4 GT PUSH2 0x11BF JUMPI DUP3 SWAP1 SUB PUSH1 0x1F AND DUP3 ADD SWAP2 JUMPDEST POP POP POP POP POP DUP2 MSTORE PUSH1 0x20 ADD PUSH1 0x1 DUP3 ADD DUP1 SLOAD PUSH2 0x11F5 SWAP1 PUSH2 0x5D2E JUMP JUMPDEST DUP1 PUSH1 0x1F ADD PUSH1 0x20 DUP1 SWAP2 DIV MUL PUSH1 0x20 ADD PUSH1 0x40 MLOAD SWAP1 DUP2 ADD PUSH1 0x40 MSTORE DUP1 SWAP3 SWAP2 SWAP1 DUP2 DUP2 MSTORE PUSH1 0x20 ADD DUP3 DUP1 SLOAD PUSH2 0x1221 SWAP1 PUSH2 0x5D2E JUMP JUMPDEST DUP1 ISZERO PUSH2 0x126E JUMPI DUP1 PUSH1 0x1F LT PUSH2 0x1243 JUMPI PUSH2 0x100 DUP1 DUP4 SLOAD DIV MUL DUP4 MSTORE SWAP2 PUSH1 0x20 ADD SWAP2 PUSH2 0x126E JUMP JUMPDEST DUP3 ADD SWAP2 SWAP1 PUSH1 0x0 MSTORE PUSH1 0x20 PUSH1 0x0 KECCAK256 SWAP1 JUMPDEST DUP2 SLOAD DUP2 MSTORE SWAP1 PUSH1 0x1 ADD SWAP1 PUSH1 0x20 ADD DUP1 DUP4 GT PUSH2 0x1251 JUMPI DUP3 SWAP1 SUB PUSH1 0x1F AND DUP3 ADD SWAP2 JUMPDEST POP POP POP POP POP DUP2 MSTORE PUSH1 0x20 ADD PUSH1 0x2 DUP3 ADD DUP1 SLOAD PUSH2 0x1287 SWAP1 PUSH2 0x5D2E JUMP JUMPDEST DUP1 PUSH1 0x1F ADD PUSH1 0x20 DUP1 SWAP2 DIV MUL PUSH1 0x20 ADD PUSH1 0x40 MLOAD SWAP1 DUP2 ADD PUSH1 0x40 MSTORE DUP1 SWAP3 SWAP2 SWAP1 DUP2 DUP2 MSTORE PUSH1 0x20 ADD DUP3 DUP1 SLOAD PUSH2 0x12B3 SWAP1 PUSH2 0x5D2E JUMP JUMPDEST DUP1 ISZERO PUSH2 0x1300 JUMPI DUP1 PUSH1 0x1F LT PUSH2 0x12D5 JUMPI PUSH2 0x100 DUP1 DUP4 SLOAD DIV MUL DUP4 MSTORE SWAP2 PUSH1 0x20 ADD SWAP2 PUSH2 0x1300 JUMP JUMPDEST DUP3 ADD SWAP2 SWAP1 PUSH1 0x0 MSTORE PUSH1 0x20 PUSH1 0x0 KECCAK256 SWAP1 JUMPDEST DUP2 SLOAD DUP2 MSTORE SWAP1 PUSH1 0x1 ADD SWAP1 PUSH1 0x20 ADD DUP1 DUP4 GT PUSH2 0x12E3 JUMPI DUP3 SWAP1 SUB PUSH1 0x1F AND DUP3 ADD SWAP2 JUMPDEST POP POP POP POP POP DUP2 MSTORE PUSH1 0x20 ADD PUSH1 0x3 DUP3 ADD DUP1 SLOAD PUSH2 0x1319 SWAP1 PUSH2 0x5D2E JUMP JUMPDEST DUP1 PUSH1 0x1F ADD PUSH1 0x20 DUP1 SWAP2 DIV MUL PUSH1 0x20 ADD PUSH1 0x40 MLOAD SWAP1 DUP2 ADD PUSH1 0x40 MSTORE DUP1 SWAP3 SWAP2 SWAP1 DUP2 DUP2 MSTORE PUSH1 0x20 ADD DUP3 DUP1 SLOAD PUSH2 0x1345 SWAP1 PUSH2 0x5D2E JUMP JUMPDEST DUP1 ISZERO PUSH2 0x1392 JUMPI DUP1 PUSH1 0x1F LT PUSH2 0x1367 JUMPI PUSH2 0x100 DUP1 DUP4 SLOAD DIV MUL DUP4 MSTORE SWAP2 PUSH1 0x20 ADD SWAP2 PUSH2 0x1392 JUMP JUMPDEST DUP3 ADD SWAP2 SWAP1 PUSH1 0x0 MSTORE PUSH1 0x20 PUSH1 0x0 KECCAK256 SWAP1 JUMPDEST DUP2 SLOAD DUP2 MSTORE SWAP1 PUSH1 0x1 ADD SWAP1 PUSH1 0x20 ADD DUP1 DUP4 GT PUSH2 0x1375 JUMPI DUP3 SWAP1 SUB PUSH1 0x1F AND DUP3 ADD SWAP2 JUMPDEST POP POP POP POP POP DUP2 MSTORE PUSH1 0x20 ADD PUSH1 0x4 DUP3 ADD DUP1 SLOAD PUSH2 0x13AB SWAP1 PUSH2 0x5D2E JUMP JUMPDEST DUP1 PUSH1 0x1F ADD PUSH1 0x20 DUP1 SWAP2 DIV MUL PUSH1 0x20 ADD PUSH1 0x40 MLOAD SWAP1 DUP2 ADD PUSH1 0x40 MSTORE DUP1 SWAP3 SWAP2 SWAP1 DUP2 DUP2 MSTORE PUSH1 0x20 ADD DUP3 DUP1 SLOAD PUSH2 0x13D7 SWAP1 PUSH2 0x5D2E JUMP JUMPDEST DUP1 ISZERO PUSH2 0x1424 JUMPI DUP1 PUSH1 0x1F LT PUSH2 0x13F9 JUMPI PUSH2 0x100 DUP1 DUP4 SLOAD DIV MUL DUP4 MSTORE SWAP2 PUSH1 0x20 ADD SWAP2 PUSH2 0x1424 JUMP JUMPDEST DUP3 ADD SWAP2 SWAP1 PUSH1 0x0 MSTORE PUSH1 0x20 PUSH1 0x0 KECCAK256 SWAP1 JUMPDEST DUP2 SLOAD DUP2 MSTORE SWAP1 PUSH1 0x1 ADD SWAP1 PUSH1 0x20 ADD DUP1 DUP4 GT PUSH2 0x1407 JUMPI DUP3 SWAP1 SUB PUSH1 0x1F AND DUP3 ADD SWAP2 JUMPDEST POP POP POP POP POP DUP2 MSTORE PUSH1 0x20 ADD PUSH1 0x5 DUP3 ADD DUP1 SLOAD PUSH2 0x143D SWAP1 PUSH2 0x5D2E JUMP JUMPDEST DUP1 PUSH1 0x1F ADD PUSH1 0x20 DUP1 SWAP2 DIV MUL PUSH1 0x20 ADD PUSH1 0x40 MLOAD SWAP1 DUP2 ADD PUSH1 0x40 MSTORE DUP1 SWAP3 SWAP2 SWAP1 DUP2 DUP2 MSTORE PUSH1 0x20 ADD DUP3 DUP1 SLOAD PUSH2 0x1469 SWAP1 PUSH2 0x5D2E JUMP JUMPDEST DUP1 ISZERO PUSH2 0x14B6 JUMPI DUP1 PUSH1 0x1F LT PUSH2 0x148B JUMPI PUSH2 0x100 DUP1 DUP4 SLOAD DIV MUL DUP4 MSTORE SWAP2 PUSH1 0x20 ADD SWAP2 PUSH2 0x14B6 JUMP JUMPDEST DUP3 ADD SWAP2 SWAP1 PUSH1 0x0 MSTORE PUSH1 0x20 PUSH1 0x0 KECCAK256 SWAP1 JUMPDEST DUP2 SLOAD DUP2 MSTORE SWAP1 PUSH1 0x1 ADD SWAP1 PUSH1 0x20 ADD DUP1 DUP4 GT PUSH2 0x1499 JUMPI DUP3 SWAP1 SUB PUSH1 0x1F AND DUP3 ADD SWAP2 JUMPDEST POP POP POP POP POP DUP2 MSTORE PUSH1 0x20 ADD PUSH1 0x6 DUP3 ADD DUP1 SLOAD PUSH2 0x14CF SWAP1 PUSH2 0x5D2E JUMP JUMPDEST DUP1 PUSH1 0x1F ADD PUSH1 0x20 DUP1 SWAP2 DIV MUL PUSH1 0x20 ADD PUSH1 0x40 MLOAD SWAP1 DUP2 ADD PUSH1 0x40 MSTORE DUP1 SWAP3 SWAP2 SWAP1 DUP2 DUP2 MSTORE PUSH1 0x20 ADD DUP3 DUP1 SLOAD PUSH2 0x14FB SWAP1 PUSH2 0x5D2E JUMP JUMPDEST DUP1 ISZERO PUSH2 0x1548 JUMPI DUP1 PUSH1 0x1F LT PUSH2 0x151D JUMPI PUSH2 0x100 DUP1 DUP4 SLOAD DIV MUL DUP4 MSTORE SWAP2 PUSH1 0x20 ADD SWAP2 PUSH2 0x1548 JUMP JUMPDEST DUP3 ADD SWAP2 SWAP1 PUSH1 0x0 MSTORE PUSH1 0x20 PUSH1 0x0 KECCAK256 SWAP1 JUMPDEST DUP2 SLOAD DUP2 MSTORE SWAP1 PUSH1 0x1 ADD SWAP1 PUSH1 0x20 ADD DUP1 DUP4 GT PUSH2 0x152B JUMPI DUP3 SWAP1 SUB PUSH1 0x1F AND DUP3 ADD SWAP2 JUMPDEST POP POP POP POP POP DUP2 MSTORE PUSH1 0x20 ADD PUSH1 0x7 DUP3 ADD DUP1 SLOAD PUSH2 0x1561 SWAP1 PUSH2 0x5D2E JUMP JUMPDEST DUP1 PUSH1 0x1F ADD PUSH1 0x20 DUP1 SWAP2 DIV MUL PUSH1 0x20 ADD PUSH1 0x40 MLOAD SWAP1 DUP2 ADD PUSH1 0x40 MSTORE DUP1 SWAP3 SWAP2 SWAP1 DUP2 DUP2 MSTORE PUSH1 0x20 ADD DUP3 DUP1 SLOAD PUSH2 0x158D SWAP1 PUSH2 0x5D2E JUMP JUMPDEST DUP1 ISZERO PUSH2 0x15DA JUMPI DUP1 PUSH1 0x1F LT PUSH2 0x15AF JUMPI PUSH2 0x100 DUP1 DUP4 SLOAD DIV MUL DUP4 MSTORE SWAP2 PUSH1 0x20 ADD SWAP2 PUSH2 0x15DA JUMP JUMPDEST DUP3 ADD SWAP2 SWAP1 PUSH1 0x0 MSTORE PUSH1 0x20 PUSH1 0x0 KECCAK256 SWAP1 JUMPDEST DUP2 SLOAD DUP2 MSTORE SWAP1 PUSH1 0x1 ADD SWAP1 PUSH1 0x20 ADD DUP1 DUP4 GT PUSH2 0x15BD JUMPI DUP3 SWAP1 SUB PUSH1 0x1F AND DUP3 ADD SWAP2 JUMPDEST POP POP POP POP POP DUP2 MSTORE PUSH1 0x20 ADD PUSH1 0x8 DUP3 ADD DUP1 SLOAD PUSH2 0x15F3 SWAP1 PUSH2 0x5D2E JUMP JUMPDEST DUP1 PUSH1 0x1F ADD PUSH1 0x20 DUP1 SWAP2 DIV MUL PUSH1 0x20 ADD PUSH1 0x40 MLOAD SWAP1 DUP2 ADD PUSH1 0x40 MSTORE DUP1 SWAP3 SWAP2 SWAP1 DUP2 DUP2 MSTORE PUSH1 0x20 ADD DUP3 DUP1 SLOAD PUSH2 0x161F SWAP1 PUSH2 0x5D2E JUMP JUMPDEST DUP1 ISZERO PUSH2 0x166C JUMPI DUP1 PUSH1 0x1F LT PUSH2 0x1641 JUMPI PUSH2 0x100 DUP1 DUP4 SLOAD DIV MUL DUP4 MSTORE SWAP2 PUSH1 0x20 ADD SWAP2 PUSH2 0x166C JUMP JUMPDEST DUP3 ADD SWAP2 SWAP1 PUSH1 0x0 MSTORE PUSH1 0x20 PUSH1 0x0 KECCAK256 SWAP1 JUMPDEST DUP2 SLOAD DUP2 MSTORE SWAP1 PUSH1 0x1 ADD SWAP1 PUSH1 0x20 ADD DUP1 DUP4 GT PUSH2 0x164F JUMPI DUP3 SWAP1 SUB PUSH1 0x1F AND DUP3 ADD SWAP2 JUMPDEST POP POP POP POP POP DUP2 MSTORE PUSH1 0x20 ADD PUSH1 0x9 DUP3 ADD DUP1 SLOAD PUSH2 0x1685 SWAP1 PUSH2 0x5D2E JUMP JUMPDEST DUP1 PUSH1 0x1F ADD PUSH1 0x20 DUP1 SWAP2 DIV MUL PUSH1 0x20 ADD PUSH1 0x40 MLOAD SWAP1 DUP2 ADD PUSH1 0x40 MSTORE DUP1 SWAP3 SWAP2 SWAP1 DUP2 DUP2 MSTORE PUSH1 0x20 ADD DUP3 DUP1 SLOAD PUSH2 0x16B1 SWAP1 PUSH2 0x5D2E JUMP JUMPDEST DUP1 ISZERO PUSH2 0x16FE JUMPI DUP1 PUSH1 0x1F LT PUSH2 0x16D3 JUMPI PUSH2 0x100 DUP1 DUP4 SLOAD DIV MUL DUP4 MSTORE SWAP2 PUSH1 0x20 ADD SWAP2 PUSH2 0x16FE JUMP JUMPDEST DUP3 ADD SWAP2 SWAP1 PUSH1 0x0 MSTORE PUSH1 0x20 PUSH1 0x0 KECCAK256 SWAP1 JUMPDEST DUP2 SLOAD DUP2 MSTORE SWAP1 PUSH1 0x1 ADD SWAP1 PUSH1 0x20 ADD DUP1 DUP4 GT PUSH2 0x16E1 JUMPI DUP3 SWAP1 SUB PUSH1 0x1F AND DUP3 ADD SWAP2 JUMPDEST POP POP POP POP POP DUP2 MSTORE PUSH1 0x20 ADD PUSH1 0xA DUP3 ADD PUSH1 0x0 SWAP1 SLOAD SWAP1 PUSH2 0x100 EXP SWAP1 DIV PUSH1 0xFF AND ISZERO ISZERO ISZERO ISZERO DUP2 MSTORE POP POP DUP2 MSTORE PUSH1 0x20 ADD PUSH1 0x14 DUP3 ADD PUSH1 0x40 MLOAD DUP1 PUSH1 0xC0 ADD PUSH1 0x40 MSTORE SWAP1 DUP2 PUSH1 0x0 DUP3 ADD DUP1 SLOAD PUSH2 0x1746 SWAP1 PUSH2 0x5D2E JUMP JUMPDEST DUP1 PUSH1 0x1F ADD PUSH1 0x20 DUP1 SWAP2 DIV MUL PUSH1 0x20 ADD PUSH1 0x40 MLOAD SWAP1 DUP2 ADD PUSH1 0x40 MSTORE DUP1 SWAP3 SWAP2 SWAP1 DUP2 DUP2 MSTORE PUSH1 0x20 ADD DUP3 DUP1 SLOAD PUSH2 0x1772 SWAP1 PUSH2 0x5D2E JUMP JUMPDEST DUP1 ISZERO PUSH2 0x17BF JUMPI DUP1 PUSH1 0x1F LT PUSH2 0x1794 JUMPI PUSH2 0x100 DUP1 DUP4 SLOAD DIV MUL DUP4 MSTORE SWAP2 PUSH1 0x20 ADD SWAP2 PUSH2 0x17BF JUMP JUMPDEST DUP3 ADD SWAP2 SWAP1 PUSH1 0x0 MSTORE PUSH1 0x20 PUSH1 0x0 KECCAK256 SWAP1 JUMPDEST DUP2 SLOAD DUP2 MSTORE SWAP1 PUSH1 0x1 ADD SWAP1 PUSH1 0x20 ADD DUP1 DUP4 GT PUSH2 0x17A2 JUMPI DUP3 SWAP1 SUB PUSH1 0x1F AND DUP3 ADD SWAP2 JUMPDEST POP POP POP POP POP DUP2 MSTORE PUSH1 0x20 ADD PUSH1 0x1 DUP3 ADD DUP1 SLOAD PUSH2 0x17D8 SWAP1 PUSH2 0x5D2E JUMP JUMPDEST DUP1 PUSH1 0x1F ADD PUSH1 0x20 DUP1 SWAP2 DIV MUL PUSH1 0x20 ADD PUSH1 0x40 MLOAD SWAP1 DUP2 ADD PUSH1 0x40 MSTORE DUP1 SWAP3 SWAP2 SWAP1 DUP2 DUP2 MSTORE PUSH1 0x20 ADD DUP3 DUP1 SLOAD PUSH2 0x1804 SWAP1 PUSH2 0x5D2E JUMP JUMPDEST DUP1 ISZERO PUSH2 0x1851 JUMPI DUP1 PUSH1 0x1F LT PUSH2 0x1826 JUMPI PUSH2 0x100 DUP1 DUP4 SLOAD DIV MUL DUP4 MSTORE SWAP2 PUSH1 0x20 ADD SWAP2 PUSH2 0x1851 JUMP JUMPDEST DUP3 ADD SWAP2 SWAP1 PUSH1 0x0 MSTORE PUSH1 0x20 PUSH1 0x0 KECCAK256 SWAP1 JUMPDEST DUP2 SLOAD DUP2 MSTORE SWAP1 PUSH1 0x1 ADD SWAP1 PUSH1 0x20 ADD DUP1 DUP4 GT PUSH2 0x1834 JUMPI DUP3 SWAP1 SUB PUSH1 0x1F AND DUP3 ADD SWAP2 JUMPDEST POP POP POP POP POP DUP2 MSTORE PUSH1 0x20 ADD PUSH1 0x2 DUP3 ADD DUP1 SLOAD PUSH2 0x186A SWAP1 PUSH2 0x5D2E JUMP JUMPDEST DUP1 PUSH1 0x1F ADD PUSH1 0x20 DUP1 SWAP2 DIV MUL PUSH1 0x20 ADD PUSH1 0x40 MLOAD SWAP1 DUP2 ADD PUSH1 0x40 MSTORE DUP1 SWAP3 SWAP2 SWAP1 DUP2 DUP2 MSTORE PUSH1 0x20 ADD DUP3 DUP1 SLOAD PUSH2 0x1896 SWAP1 PUSH2 0x5D2E JUMP JUMPDEST DUP1 ISZERO PUSH2 0x18E3 JUMPI DUP1 PUSH1 0x1F LT PUSH2 0x18B8 JUMPI PUSH2 0x100 DUP1 DUP4 SLOAD DIV MUL DUP4 MSTORE SWAP2 PUSH1 0x20 ADD SWAP2 PUSH2 0x18E3 JUMP JUMPDEST DUP3 ADD SWAP2 SWAP1 PUSH1 0x0 MSTORE PUSH1 0x20 PUSH1 0x0 KECCAK256 SWAP1 JUMPDEST DUP2 SLOAD DUP2 MSTORE SWAP1 PUSH1 0x1 ADD SWAP1 PUSH1 0x20 ADD DUP1 DUP4 GT PUSH2 0x18C6 JUMPI DUP3 SWAP1 SUB PUSH1 0x1F AND DUP3 ADD SWAP2 JUMPDEST POP POP POP POP POP DUP2 MSTORE PUSH1 0x20 ADD PUSH1 0x3 DUP3 ADD DUP1 SLOAD PUSH2 0x18FC SWAP1 PUSH2 0x5D2E JUMP JUMPDEST DUP1 PUSH1 0x1F ADD PUSH1 0x20 DUP1 SWAP2 DIV MUL PUSH1 0x20 ADD PUSH1 0x40 MLOAD SWAP1 DUP2 ADD PUSH1 0x40 MSTORE DUP1 SWAP3 SWAP2 SWAP1 DUP2 DUP2 MSTORE PUSH1 0x20 ADD DUP3 DUP1 SLOAD PUSH2 0x1928 SWAP1 PUSH2 0x5D2E JUMP JUMPDEST DUP1 ISZERO PUSH2 0x1975 JUMPI DUP1 PUSH1 0x1F LT PUSH2 0x194A JUMPI PUSH2 0x100 DUP1 DUP4 SLOAD DIV MUL DUP4 MSTORE SWAP2 PUSH1 0x20 ADD SWAP2 PUSH2 0x1975 JUMP JUMPDEST DUP3 ADD SWAP2 SWAP1 PUSH1 0x0 MSTORE PUSH1 0x20 PUSH1 0x0 KECCAK256 SWAP1 JUMPDEST DUP2 SLOAD DUP2 MSTORE SWAP1 PUSH1 0x1 ADD SWAP1 PUSH1 0x20 ADD DUP1 DUP4 GT PUSH2 0x1958 JUMPI DUP3 SWAP1 SUB PUSH1 0x1F AND DUP3 ADD SWAP2 JUMPDEST POP POP POP POP POP DUP2 MSTORE PUSH1 0x20 ADD PUSH1 0x4 DUP3 ADD DUP1 SLOAD PUSH2 0x198E SWAP1 PUSH2 0x5D2E JUMP JUMPDEST DUP1 PUSH1 0x1F ADD PUSH1 0x20 DUP1 SWAP2 DIV MUL PUSH1 0x20 ADD PUSH1 0x40 MLOAD SWAP1 DUP2 ADD PUSH1 0x40 MSTORE DUP1 SWAP3 SWAP2 SWAP1 DUP2 DUP2 MSTORE PUSH1 0x20 ADD DUP3 DUP1 SLOAD PUSH2 0x19BA SWAP1 PUSH2 0x5D2E JUMP JUMPDEST DUP1 ISZERO PUSH2 0x1A07 JUMPI DUP1 PUSH1 0x1F LT PUSH2 0x19DC JUMPI PUSH2 0x100 DUP1 DUP4 SLOAD DIV MUL DUP4 MSTORE SWAP2 PUSH1 0x20 ADD SWAP2 PUSH2 0x1A07 JUMP JUMPDEST DUP3 ADD SWAP2 SWAP1 PUSH1 0x0 MSTORE PUSH1 0x20 PUSH1 0x0 KECCAK256 SWAP1 JUMPDEST DUP2 SLOAD DUP2 MSTORE SWAP1 PUSH1 0x1 ADD SWAP1 PUSH1 0x20 ADD DUP1 DUP4 GT PUSH2 0x19EA JUMPI DUP3 SWAP1 SUB PUSH1 0x1F AND DUP3 ADD SWAP2 JUMPDEST POP POP POP POP POP DUP2 MSTORE PUSH1 0x20 ADD PUSH1 0x5 DUP3 ADD PUSH1 0x0 SWAP1 SLOAD SWAP1 PUSH2 0x100 EXP SWAP1 DIV PUSH1 0xFF AND ISZERO ISZERO ISZERO ISZERO DUP2 MSTORE POP POP DUP2 MSTORE PUSH1 0x20 ADD PUSH1 0x1A DUP3 ADD PUSH1 0x40 MLOAD DUP1 PUSH1 0xE0 ADD PUSH1 0x40 MSTORE SWAP1 DUP2 PUSH1 0x0 DUP3 ADD DUP1 SLOAD PUSH2 0x1A4F SWAP1 PUSH2 0x5D2E JUMP JUMPDEST DUP1 PUSH1 0x1F ADD PUSH1 0x20 DUP1 SWAP2 DIV MUL PUSH1 0x20 ADD PUSH1 0x40 MLOAD SWAP1 DUP2 ADD PUSH1 0x40 MSTORE DUP1 SWAP3 SWAP2 SWAP1 DUP2 DUP2 MSTORE PUSH1 0x20 ADD DUP3 DUP1 SLOAD PUSH2 0x1A7B SWAP1 PUSH2 0x5D2E JUMP JUMPDEST DUP1 ISZERO PUSH2 0x1AC8 JUMPI DUP1 PUSH1 0x1F LT PUSH2 0x1A9D JUMPI PUSH2 0x100 DUP1 DUP4 SLOAD DIV MUL DUP4 MSTORE SWAP2 PUSH1 0x20 ADD SWAP2 PUSH2 0x1AC8 JUMP JUMPDEST DUP3 ADD SWAP2 SWAP1 PUSH1 0x0 MSTORE PUSH1 0x20 PUSH1 0x0 KECCAK256 SWAP1 JUMPDEST DUP2 SLOAD DUP2 MSTORE SWAP1 PUSH1 0x1 ADD SWAP1 PUSH1 0x20 ADD DUP1 DUP4 GT PUSH2 0x1AAB JUMPI DUP3 SWAP1 SUB PUSH1 0x1F AND DUP3 ADD SWAP2 JUMPDEST POP POP POP POP POP DUP2 MSTORE PUSH1 0x20 ADD PUSH1 0x1 DUP3 ADD SLOAD DUP2 MSTORE PUSH1 0x20 ADD PUSH1 0x2 DUP3 ADD SLOAD DUP2 MSTORE PUSH1 0x20 ADD PUSH1 0x3 DUP3 ADD DUP1 SLOAD PUSH2 0x1AF5 SWAP1 PUSH2 0x5D2E JUMP JUMPDEST DUP1 PUSH1 0x1F ADD PUSH1 0x20 DUP1 SWAP2 DIV MUL PUSH1 0x20 ADD PUSH1 0x40 MLOAD SWAP1 DUP2 ADD PUSH1 0x40 MSTORE DUP1 SWAP3 SWAP2 SWAP1 DUP2 DUP2 MSTORE PUSH1 0x20 ADD DUP3 DUP1 SLOAD PUSH2 0x1B21 SWAP1 PUSH2 0x5D2E JUMP JUMPDEST DUP1 ISZERO PUSH2 0x1B6E JUMPI DUP1 PUSH1 0x1F LT PUSH2 0x1B43 JUMPI PUSH2 0x100 DUP1 DUP4 SLOAD DIV MUL DUP4 MSTORE SWAP2 PUSH1 0x20 ADD SWAP2 PUSH2 0x1B6E JUMP JUMPDEST DUP3 ADD SWAP2 SWAP1 PUSH1 0x0 MSTORE PUSH1 0x20 PUSH1 0x0 KECCAK256 SWAP1 JUMPDEST DUP2 SLOAD DUP2 MSTORE SWAP1 PUSH1 0x1 ADD SWAP1 PUSH1 0x20 ADD DUP1 DUP4 GT PUSH2 0x1B51 JUMPI DUP3 SWAP1 SUB PUSH1 0x1F AND DUP3 ADD SWAP2 JUMPDEST POP POP POP POP POP DUP2 MSTORE PUSH1 0x20 ADD PUSH1 0x4 DUP3 ADD SLOAD DUP2 MSTORE PUSH1 0x20 ADD PUSH1 0x5 DUP3 ADD SLOAD DUP2 MSTORE PUSH1 0x20 ADD PUSH1 0x6 DUP3 ADD PUSH1 0x0 SWAP1 SLOAD SWAP1 PUSH2 0x100 EXP SWAP1 DIV PUSH1 0xFF AND ISZERO ISZERO ISZERO ISZERO DUP2 MSTORE POP POP DUP2 MSTORE PUSH1 0x20 ADD PUSH1 0x21 DUP3 ADD PUSH1 0x0 SWAP1 SLOAD SWAP1 PUSH2 0x100 EXP SWAP1 DIV PUSH1 0xFF AND ISZERO ISZERO ISZERO ISZERO DUP2 MSTORE POP POP DUP2 MSTORE PUSH1 0x20 ADD SWAP1 PUSH1 0x1 ADD SWAP1 PUSH2 0xD23 JUMP JUMPDEST POP POP POP POP SWAP1 POP SWAP1 JUMP JUMPDEST DUP1 PUSH1 0x0 DUP1 PUSH2 0x100 EXP DUP2 SLOAD DUP2 PUSH20 0xFFFFFFFFFFFFFFFFFFFFFFFFFFFFFFFFFFFFFFFF MUL NOT AND SWAP1 DUP4 PUSH20 0xFFFFFFFFFFFFFFFFFFFFFFFFFFFFFFFFFFFFFFFF AND MUL OR SWAP1 SSTORE POP POP JUMP JUMPDEST PUSH1 0x2 PUSH1 0x0 CALLER PUSH20 0xFFFFFFFFFFFFFFFFFFFFFFFFFFFFFFFFFFFFFFFF AND PUSH20 0xFFFFFFFFFFFFFFFFFFFFFFFFFFFFFFFFFFFFFFFF AND DUP2 MSTORE PUSH1 0x20 ADD SWAP1 DUP2 MSTORE PUSH1 0x20 ADD PUSH1 0x0 KECCAK256 PUSH1 0x21 ADD PUSH1 0x0 SWAP1 SLOAD SWAP1 PUSH2 0x100 EXP SWAP1 DIV PUSH1 0xFF AND PUSH2 0x1CAF JUMPI PUSH1 0x40 MLOAD PUSH32 0x8C379A000000000000000000000000000000000000000000000000000000000 DUP2 MSTORE PUSH1 0x4 ADD PUSH2 0x1CA6 SWAP1 PUSH2 0x5DAC JUMP JUMPDEST PUSH1 0x40 MLOAD DUP1 SWAP2 SUB SWAP1 REVERT JUMPDEST DUP6 PUSH1 0x2 PUSH1 0x0 CALLER PUSH20 0xFFFFFFFFFFFFFFFFFFFFFFFFFFFFFFFFFFFFFFFF AND PUSH20 0xFFFFFFFFFFFFFFFFFFFFFFFFFFFFFFFFFFFFFFFF AND DUP2 MSTORE PUSH1 0x20 ADD SWAP1 DUP2 MSTORE PUSH1 0x20 ADD PUSH1 0x0 KECCAK256 PUSH1 0x1A ADD PUSH1 0x0 ADD SWAP1 DUP1 MLOAD SWAP1 PUSH1 0x20 ADD SWAP1 PUSH2 0x1D08 SWAP3 SWAP2 SWAP1 PUSH2 0x4326 JUMP JUMPDEST POP DUP5 PUSH1 0x2 PUSH1 0x0 CALLER PUSH20 0xFFFFFFFFFFFFFFFFFFFFFFFFFFFFFFFFFFFFFFFF AND PUSH20 0xFFFFFFFFFFFFFFFFFFFFFFFFFFFFFFFFFFFFFFFF AND DUP2 MSTORE PUSH1 0x20 ADD SWAP1 DUP2 MSTORE PUSH1 0x20 ADD PUSH1 0x0 KECCAK256 PUSH1 0x1A ADD PUSH1 0x1 ADD DUP2 SWAP1 SSTORE POP DUP4 PUSH1 0x2 PUSH1 0x0 CALLER PUSH20 0xFFFFFFFFFFFFFFFFFFFFFFFFFFFFFFFFFFFFFFFF AND PUSH20 0xFFFFFFFFFFFFFFFFFFFFFFFFFFFFFFFFFFFFFFFF AND DUP2 MSTORE PUSH1 0x20 ADD SWAP1 DUP2 MSTORE PUSH1 0x20 ADD PUSH1 0x0 KECCAK256 PUSH1 0x1A ADD PUSH1 0x2 ADD DUP2 SWAP1 SSTORE POP DUP3 PUSH1 0x2 PUSH1 0x0 CALLER PUSH20 0xFFFFFFFFFFFFFFFFFFFFFFFFFFFFFFFFFFFFFFFF AND PUSH20 0xFFFFFFFFFFFFFFFFFFFFFFFFFFFFFFFFFFFFFFFF AND DUP2 MSTORE PUSH1 0x20 ADD SWAP1 DUP2 MSTORE PUSH1 0x20 ADD PUSH1 0x0 KECCAK256 PUSH1 0x1A ADD PUSH1 0x3 ADD SWAP1 DUP1 MLOAD SWAP1 PUSH1 0x20 ADD SWAP1 PUSH2 0x1DF6 SWAP3 SWAP2 SWAP1 PUSH2 0x4326 JUMP JUMPDEST POP DUP2 PUSH1 0x2 PUSH1 0x0 CALLER PUSH20 0xFFFFFFFFFFFFFFFFFFFFFFFFFFFFFFFFFFFFFFFF AND PUSH20 0xFFFFFFFFFFFFFFFFFFFFFFFFFFFFFFFFFFFFFFFF AND DUP2 MSTORE PUSH1 0x20 ADD SWAP1 DUP2 MSTORE PUSH1 0x20 ADD PUSH1 0x0 KECCAK256 PUSH1 0x1A ADD PUSH1 0x4 ADD DUP2 SWAP1 SSTORE POP DUP1 PUSH1 0x2 PUSH1 0x0 CALLER PUSH20 0xFFFFFFFFFFFFFFFFFFFFFFFFFFFFFFFFFFFFFFFF AND PUSH20 0xFFFFFFFFFFFFFFFFFFFFFFFFFFFFFFFFFFFFFFFF AND DUP2 MSTORE PUSH1 0x20 ADD SWAP1 DUP2 MSTORE PUSH1 0x20 ADD PUSH1 0x0 KECCAK256 PUSH1 0x1A ADD PUSH1 0x5 ADD DUP2 SWAP1 SSTORE POP PUSH1 0x1 PUSH1 0x2 PUSH1 0x0 CALLER PUSH20 0xFFFFFFFFFFFFFFFFFFFFFFFFFFFFFFFFFFFFFFFF AND PUSH20 0xFFFFFFFFFFFFFFFFFFFFFFFFFFFFFFFFFFFFFFFF AND DUP2 MSTORE PUSH1 0x20 ADD SWAP1 DUP2 MSTORE PUSH1 0x20 ADD PUSH1 0x0 KECCAK256 PUSH1 0x1A ADD PUSH1 0x6 ADD PUSH1 0x0 PUSH2 0x100 EXP DUP2 SLOAD DUP2 PUSH1 0xFF MUL NOT AND SWAP1 DUP4 ISZERO ISZERO MUL OR SWAP1 SSTORE POP POP POP POP POP POP POP JUMP JUMPDEST PUSH1 0x0 DUP1 SLOAD SWAP1 PUSH2 0x100 EXP SWAP1 DIV PUSH20 0xFFFFFFFFFFFFFFFFFFFFFFFFFFFFFFFFFFFFFFFF AND PUSH20 0xFFFFFFFFFFFFFFFFFFFFFFFFFFFFFFFFFFFFFFFF AND PUSH4 0x9026DEE8 CALLER PUSH1 0x40 MLOAD DUP3 PUSH4 0xFFFFFFFF AND PUSH1 0xE0 SHL DUP2 MSTORE PUSH1 0x4 ADD PUSH2 0x1F4A SWAP2 SWAP1 PUSH2 0x5B7E JUMP JUMPDEST PUSH1 0x20 PUSH1 0x40 MLOAD DUP1 DUP4 SUB DUP2 DUP7 DUP1 EXTCODESIZE ISZERO DUP1 ISZERO PUSH2 0x1F62 JUMPI PUSH1 0x0 DUP1 REVERT JUMPDEST POP GAS STATICCALL ISZERO DUP1 ISZERO PUSH2 0x1F76 JUMPI RETURNDATASIZE PUSH1 0x0 DUP1 RETURNDATACOPY RETURNDATASIZE PUSH1 0x0 REVERT JUMPDEST POP POP POP POP PUSH1 0x40 MLOAD RETURNDATASIZE PUSH1 0x1F NOT PUSH1 0x1F DUP3 ADD AND DUP3 ADD DUP1 PUSH1 0x40 MSTORE POP DUP2 ADD SWAP1 PUSH2 0x1F9A SWAP2 SWAP1 PUSH2 0x5BAE JUMP JUMPDEST PUSH2 0x1FD9 JUMPI PUSH1 0x40 MLOAD PUSH32 0x8C379A000000000000000000000000000000000000000000000000000000000 DUP2 MSTORE PUSH1 0x4 ADD PUSH2 0x1FD0 SWAP1 PUSH2 0x5C38 JUMP JUMPDEST PUSH1 0x40 MLOAD DUP1 SWAP2 SUB SWAP1 REVERT JUMPDEST PUSH1 0x2 PUSH1 0x0 PUSH1 0x3 DUP6 PUSH1 0x40 MLOAD PUSH2 0x1FED SWAP2 SWAP1 PUSH2 0x5E08 JUMP JUMPDEST SWAP1 DUP2 MSTORE PUSH1 0x20 ADD PUSH1 0x40 MLOAD DUP1 SWAP2 SUB SWAP1 KECCAK256 PUSH1 0x0 SWAP1 SLOAD SWAP1 PUSH2 0x100 EXP SWAP1 DIV PUSH20 0xFFFFFFFFFFFFFFFFFFFFFFFFFFFFFFFFFFFFFFFF AND PUSH20 0xFFFFFFFFFFFFFFFFFFFFFFFFFFFFFFFFFFFFFFFF AND PUSH20 0xFFFFFFFFFFFFFFFFFFFFFFFFFFFFFFFFFFFFFFFF AND DUP2 MSTORE PUSH1 0x20 ADD SWAP1 DUP2 MSTORE PUSH1 0x20 ADD PUSH1 0x0 KECCAK256 PUSH1 0x21 ADD PUSH1 0x0 SWAP1 SLOAD SWAP1 PUSH2 0x100 EXP SWAP1 DIV PUSH1 0xFF AND ISZERO PUSH2 0x20A7 JUMPI PUSH1 0x40 MLOAD PUSH32 0x8C379A000000000000000000000000000000000000000000000000000000000 DUP2 MSTORE PUSH1 0x4 ADD PUSH2 0x209E SWAP1 PUSH2 0x5E6B JUMP JUMPDEST PUSH1 0x40 MLOAD DUP1 SWAP2 SUB SWAP1 REVERT JUMPDEST PUSH1 0x2 PUSH1 0x0 DUP4 PUSH20 0xFFFFFFFFFFFFFFFFFFFFFFFFFFFFFFFFFFFFFFFF AND PUSH20 0xFFFFFFFFFFFFFFFFFFFFFFFFFFFFFFFFFFFFFFFF AND DUP2 MSTORE PUSH1 0x20 ADD SWAP1 DUP2 MSTORE PUSH1 0x20 ADD PUSH1 0x0 KECCAK256 PUSH1 0x21 ADD PUSH1 0x0 SWAP1 SLOAD SWAP1 PUSH2 0x100 EXP SWAP1 DIV PUSH1 0xFF AND ISZERO PUSH2 0x2137 JUMPI PUSH1 0x40 MLOAD PUSH32 0x8C379A000000000000000000000000000000000000000000000000000000000 DUP2 MSTORE PUSH1 0x4 ADD PUSH2 0x212E SWAP1 PUSH2 0x5ED7 JUMP JUMPDEST PUSH1 0x40 MLOAD DUP1 SWAP2 SUB SWAP1 REVERT JUMPDEST PUSH1 0x1 PUSH1 0x0 SWAP1 SLOAD SWAP1 PUSH2 0x100 EXP SWAP1 DIV PUSH20 0xFFFFFFFFFFFFFFFFFFFFFFFFFFFFFFFFFFFFFFFF AND PUSH20 0xFFFFFFFFFFFFFFFFFFFFFFFFFFFFFFFFFFFFFFFF AND PUSH4 0xF67125DC DUP3 PUSH1 0x40 MLOAD DUP3 PUSH4 0xFFFFFFFF AND PUSH1 0xE0 SHL DUP2 MSTORE PUSH1 0x4 ADD PUSH2 0x2192 SWAP2 SWAP1 PUSH2 0x5F30 JUMP JUMPDEST PUSH1 0x20 PUSH1 0x40 MLOAD DUP1 DUP4 SUB DUP2 DUP7 DUP1 EXTCODESIZE ISZERO DUP1 ISZERO PUSH2 0x21AA JUMPI PUSH1 0x0 DUP1 REVERT JUMPDEST POP GAS STATICCALL ISZERO DUP1 ISZERO PUSH2 0x21BE JUMPI RETURNDATASIZE PUSH1 0x0 DUP1 RETURNDATACOPY RETURNDATASIZE PUSH1 0x0 REVERT JUMPDEST POP POP POP POP PUSH1 0x40 MLOAD RETURNDATASIZE PUSH1 0x1F NOT PUSH1 0x1F DUP3 ADD AND DUP3 ADD DUP1 PUSH1 0x40 MSTORE POP DUP2 ADD SWAP1 PUSH2 0x21E2 SWAP2 SWAP1 PUSH2 0x5BAE JUMP JUMPDEST PUSH2 0x2221 JUMPI PUSH1 0x40 MLOAD PUSH32 0x8C379A000000000000000000000000000000000000000000000000000000000 DUP2 MSTORE PUSH1 0x4 ADD PUSH2 0x2218 SWAP1 PUSH2 0x5F9E JUMP JUMPDEST PUSH1 0x40 MLOAD DUP1 SWAP2 SUB SWAP1 REVERT JUMPDEST DUP2 PUSH1 0x2 PUSH1 0x0 DUP5 PUSH20 0xFFFFFFFFFFFFFFFFFFFFFFFFFFFFFFFFFFFFFFFF AND PUSH20 0xFFFFFFFFFFFFFFFFFFFFFFFFFFFFFFFFFFFFFFFF AND DUP2 MSTORE PUSH1 0x20 ADD SWAP1 DUP2 MSTORE PUSH1 0x20 ADD PUSH1 0x0 KECCAK256 PUSH1 0x1 ADD PUSH1 0x0 PUSH2 0x100 EXP DUP2 SLOAD DUP2 PUSH20 0xFFFFFFFFFFFFFFFFFFFFFFFFFFFFFFFFFFFFFFFF MUL NOT AND SWAP1 DUP4 PUSH20 0xFFFFFFFFFFFFFFFFFFFFFFFFFFFFFFFFFFFFFFFF AND MUL OR SWAP1 SSTORE POP DUP3 PUSH1 0x2 PUSH1 0x0 DUP5 PUSH20 0xFFFFFFFFFFFFFFFFFFFFFFFFFFFFFFFFFFFFFFFF AND PUSH20 0xFFFFFFFFFFFFFFFFFFFFFFFFFFFFFFFFFFFFFFFF AND DUP2 MSTORE PUSH1 0x20 ADD SWAP1 DUP2 MSTORE PUSH1 0x20 ADD PUSH1 0x0 KECCAK256 PUSH1 0x0 ADD SWAP1 DUP1 MLOAD SWAP1 PUSH1 0x20 ADD SWAP1 PUSH2 0x22F8 SWAP3 SWAP2 SWAP1 PUSH2 0x4326 JUMP JUMPDEST POP DUP1 PUSH1 0x2 PUSH1 0x0 DUP5 PUSH20 0xFFFFFFFFFFFFFFFFFFFFFFFFFFFFFFFFFFFFFFFF AND PUSH20 0xFFFFFFFFFFFFFFFFFFFFFFFFFFFFFFFFFFFFFFFF AND DUP2 MSTORE PUSH1 0x20 ADD SWAP1 DUP2 MSTORE PUSH1 0x20 ADD PUSH1 0x0 KECCAK256 PUSH1 0x2 ADD SWAP1 DUP1 MLOAD SWAP1 PUSH1 0x20 ADD SWAP1 PUSH2 0x234F SWAP3 SWAP2 SWAP1 PUSH2 0x4326 JUMP JUMPDEST POP TIMESTAMP PUSH1 0x2 PUSH1 0x0 DUP5 PUSH20 0xFFFFFFFFFFFFFFFFFFFFFFFFFFFFFFFFFFFFFFFF AND PUSH20 0xFFFFFFFFFFFFFFFFFFFFFFFFFFFFFFFFFFFFFFFF AND DUP2 MSTORE PUSH1 0x20 ADD SWAP1 DUP2 MSTORE PUSH1 0x20 ADD PUSH1 0x0 KECCAK256 PUSH1 0x3 ADD DUP2 SWAP1 SSTORE POP PUSH1 0x1 PUSH1 0x2 PUSH1 0x0 DUP5 PUSH20 0xFFFFFFFFFFFFFFFFFFFFFFFFFFFFFFFFFFFFFFFF AND PUSH20 0xFFFFFFFFFFFFFFFFFFFFFFFFFFFFFFFFFFFFFFFF AND DUP2 MSTORE PUSH1 0x20 ADD SWAP1 DUP2 MSTORE PUSH1 0x20 ADD PUSH1 0x0 KECCAK256 PUSH1 0x21 ADD PUSH1 0x0 PUSH2 0x100 EXP DUP2 SLOAD DUP2 PUSH1 0xFF MUL NOT AND SWAP1 DUP4 ISZERO ISZERO MUL OR SWAP1 SSTORE POP DUP2 PUSH1 0x3 DUP5 PUSH1 0x40 MLOAD PUSH2 0x2403 SWAP2 SWAP1 PUSH2 0x5E08 JUMP JUMPDEST SWAP1 DUP2 MSTORE PUSH1 0x20 ADD PUSH1 0x40 MLOAD DUP1 SWAP2 SUB SWAP1 KECCAK256 PUSH1 0x0 PUSH2 0x100 EXP DUP2 SLOAD DUP2 PUSH20 0xFFFFFFFFFFFFFFFFFFFFFFFFFFFFFFFFFFFFFFFF MUL NOT AND SWAP1 DUP4 PUSH20 0xFFFFFFFFFFFFFFFFFFFFFFFFFFFFFFFFFFFFFFFF AND MUL OR SWAP1 SSTORE POP POP POP POP JUMP JUMPDEST PUSH1 0x2 PUSH1 0x0 CALLER PUSH20 0xFFFFFFFFFFFFFFFFFFFFFFFFFFFFFFFFFFFFFFFF AND PUSH20 0xFFFFFFFFFFFFFFFFFFFFFFFFFFFFFFFFFFFFFFFF AND DUP2 MSTORE PUSH1 0x20 ADD SWAP1 DUP2 MSTORE PUSH1 0x20 ADD PUSH1 0x0 KECCAK256 PUSH1 0x21 ADD PUSH1 0x0 SWAP1 SLOAD SWAP1 PUSH2 0x100 EXP SWAP1 DIV PUSH1 0xFF AND PUSH2 0x24E3 JUMPI PUSH1 0x40 MLOAD PUSH32 0x8C379A000000000000000000000000000000000000000000000000000000000 DUP2 MSTORE PUSH1 0x4 ADD PUSH2 0x24DA SWAP1 PUSH2 0x5DAC JUMP JUMPDEST PUSH1 0x40 MLOAD DUP1 SWAP2 SUB SWAP1 REVERT JUMPDEST DUP5 PUSH1 0x2 PUSH1 0x0 CALLER PUSH20 0xFFFFFFFFFFFFFFFFFFFFFFFFFFFFFFFFFFFFFFFF AND PUSH20 0xFFFFFFFFFFFFFFFFFFFFFFFFFFFFFFFFFFFFFFFF AND DUP2 MSTORE PUSH1 0x20 ADD SWAP1 DUP2 MSTORE PUSH1 0x20 ADD PUSH1 0x0 KECCAK256 PUSH1 0x14 ADD PUSH1 0x0 ADD SWAP1 DUP1 MLOAD SWAP1 PUSH1 0x20 ADD SWAP1 PUSH2 0x253C SWAP3 SWAP2 SWAP1 PUSH2 0x4326 JUMP JUMPDEST POP DUP4 PUSH1 0x2 PUSH1 0x0 CALLER PUSH20 0xFFFFFFFFFFFFFFFFFFFFFFFFFFFFFFFFFFFFFFFF AND PUSH20 0xFFFFFFFFFFFFFFFFFFFFFFFFFFFFFFFFFFFFFFFF AND DUP2 MSTORE PUSH1 0x20 ADD SWAP1 DUP2 MSTORE PUSH1 0x20 ADD PUSH1 0x0 KECCAK256 PUSH1 0x14 ADD PUSH1 0x1 ADD SWAP1 DUP1 MLOAD SWAP1 PUSH1 0x20 ADD SWAP1 PUSH2 0x2596 SWAP3 SWAP2 SWAP1 PUSH2 0x4326 JUMP JUMPDEST POP DUP3 PUSH1 0x2 PUSH1 0x0 CALLER PUSH20 0xFFFFFFFFFFFFFFFFFFFFFFFFFFFFFFFFFFFFFFFF AND PUSH20 0xFFFFFFFFFFFFFFFFFFFFFFFFFFFFFFFFFFFFFFFF AND DUP2 MSTORE PUSH1 0x20 ADD SWAP1 DUP2 MSTORE PUSH1 0x20 ADD PUSH1 0x0 KECCAK256 PUSH1 0x14 ADD PUSH1 0x2 ADD SWAP1 DUP1 MLOAD SWAP1 PUSH1 0x20 ADD SWAP1 PUSH2 0x25F0 SWAP3 SWAP2 SWAP1 PUSH2 0x4326 JUMP JUMPDEST POP DUP2 PUSH1 0x2 PUSH1 0x0 CALLER PUSH20 0xFFFFFFFFFFFFFFFFFFFFFFFFFFFFFFFFFFFFFFFF AND PUSH20 0xFFFFFFFFFFFFFFFFFFFFFFFFFFFFFFFFFFFFFFFF AND DUP2 MSTORE PUSH1 0x20 ADD SWAP1 DUP2 MSTORE PUSH1 0x20 ADD PUSH1 0x0 KECCAK256 PUSH1 0x14 ADD PUSH1 0x3 ADD SWAP1 DUP1 MLOAD SWAP1 PUSH1 0x20 ADD SWAP1 PUSH2 0x264A SWAP3 SWAP2 SWAP1 PUSH2 0x4326 JUMP JUMPDEST POP DUP1 PUSH1 0x2 PUSH1 0x0 CALLER PUSH20 0xFFFFFFFFFFFFFFFFFFFFFFFFFFFFFFFFFFFFFFFF AND PUSH20 0xFFFFFFFFFFFFFFFFFFFFFFFFFFFFFFFFFFFFFFFF AND DUP2 MSTORE PUSH1 0x20 ADD SWAP1 DUP2 MSTORE PUSH1 0x20 ADD PUSH1 0x0 KECCAK256 PUSH1 0x14 ADD PUSH1 0x4 ADD SWAP1 DUP1 MLOAD SWAP1 PUSH1 0x20 ADD SWAP1 PUSH2 0x26A4 SWAP3 SWAP2 SWAP1 PUSH2 0x4326 JUMP JUMPDEST POP PUSH1 0x1 PUSH1 0x2 PUSH1 0x0 CALLER PUSH20 0xFFFFFFFFFFFFFFFFFFFFFFFFFFFFFFFFFFFFFFFF AND PUSH20 0xFFFFFFFFFFFFFFFFFFFFFFFFFFFFFFFFFFFFFFFF AND DUP2 MSTORE PUSH1 0x20 ADD SWAP1 DUP2 MSTORE PUSH1 0x20 ADD PUSH1 0x0 KECCAK256 PUSH1 0x14 ADD PUSH1 0x5 ADD PUSH1 0x0 PUSH2 0x100 EXP DUP2 SLOAD DUP2 PUSH1 0xFF MUL NOT AND SWAP1 DUP4 ISZERO ISZERO MUL OR SWAP1 SSTORE POP POP POP POP POP POP JUMP JUMPDEST PUSH1 0x2 PUSH1 0x0 CALLER PUSH20 0xFFFFFFFFFFFFFFFFFFFFFFFFFFFFFFFFFFFFFFFF AND PUSH20 0xFFFFFFFFFFFFFFFFFFFFFFFFFFFFFFFFFFFFFFFF AND DUP2 MSTORE PUSH1 0x20 ADD SWAP1 DUP2 MSTORE PUSH1 0x20 ADD PUSH1 0x0 KECCAK256 PUSH1 0x21 ADD PUSH1 0x0 SWAP1 SLOAD SWAP1 PUSH2 0x100 EXP SWAP1 DIV PUSH1 0xFF AND PUSH2 0x2799 JUMPI PUSH1 0x40 MLOAD PUSH32 0x8C379A000000000000000000000000000000000000000000000000000000000 DUP2 MSTORE PUSH1 0x4 ADD PUSH2 0x2790 SWAP1 PUSH2 0x5DAC JUMP JUMPDEST PUSH1 0x40 MLOAD DUP1 SWAP2 SUB SWAP1 REVERT JUMPDEST DUP10 PUSH1 0x2 PUSH1 0x0 CALLER PUSH20 0xFFFFFFFFFFFFFFFFFFFFFFFFFFFFFFFFFFFFFFFF AND PUSH20 0xFFFFFFFFFFFFFFFFFFFFFFFFFFFFFFFFFFFFFFFF AND DUP2 MSTORE PUSH1 0x20 ADD SWAP1 DUP2 MSTORE PUSH1 0x20 ADD PUSH1 0x0 KECCAK256 PUSH1 0x9 ADD PUSH1 0x0 ADD SWAP1 DUP1 MLOAD SWAP1 PUSH1 0x20 ADD SWAP1 PUSH2 0x27F2 SWAP3 SWAP2 SWAP1 PUSH2 0x4326 JUMP JUMPDEST POP DUP9 PUSH1 0x2 PUSH1 0x0 CALLER PUSH20 0xFFFFFFFFFFFFFFFFFFFFFFFFFFFFFFFFFFFFFFFF AND PUSH20 0xFFFFFFFFFFFFFFFFFFFFFFFFFFFFFFFFFFFFFFFF AND DUP2 MSTORE PUSH1 0x20 ADD SWAP1 DUP2 MSTORE PUSH1 0x20 ADD PUSH1 0x0 KECCAK256 PUSH1 0x9 ADD PUSH1 0x1 ADD SWAP1 DUP1 MLOAD SWAP1 PUSH1 0x20 ADD SWAP1 PUSH2 0x284C SWAP3 SWAP2 SWAP1 PUSH2 0x4326 JUMP JUMPDEST POP DUP8 PUSH1 0x2 PUSH1 0x0 CALLER PUSH20 0xFFFFFFFFFFFFFFFFFFFFFFFFFFFFFFFFFFFFFFFF AND PUSH20 0xFFFFFFFFFFFFFFFFFFFFFFFFFFFFFFFFFFFFFFFF AND DUP2 MSTORE PUSH1 0x20 ADD SWAP1 DUP2 MSTORE PUSH1 0x20 ADD PUSH1 0x0 KECCAK256 PUSH1 0x9 ADD PUSH1 0x2 ADD SWAP1 DUP1 MLOAD SWAP1 PUSH1 0x20 ADD SWAP1 PUSH2 0x28A6 SWAP3 SWAP2 SWAP1 PUSH2 0x4326 JUMP JUMPDEST POP DUP7 PUSH1 0x2 PUSH1 0x0 CALLER PUSH20 0xFFFFFFFFFFFFFFFFFFFFFFFFFFFFFFFFFFFFFFFF AND PUSH20 0xFFFFFFFFFFFFFFFFFFFFFFFFFFFFFFFFFFFFFFFF AND DUP2 MSTORE PUSH1 0x20 ADD SWAP1 DUP2 MSTORE PUSH1 0x20 ADD PUSH1 0x0 KECCAK256 PUSH1 0x9 ADD PUSH1 0x3 ADD SWAP1 DUP1 MLOAD SWAP1 PUSH1 0x20 ADD SWAP1 PUSH2 0x2900 SWAP3 SWAP2 SWAP1 PUSH2 0x4326 JUMP JUMPDEST POP DUP6 PUSH1 0x2 PUSH1 0x0 CALLER PUSH20 0xFFFFFFFFFFFFFFFFFFFFFFFFFFFFFFFFFFFFFFFF AND PUSH20 0xFFFFFFFFFFFFFFFFFFFFFFFFFFFFFFFFFFFFFFFF AND DUP2 MSTORE PUSH1 0x20 ADD SWAP1 DUP2 MSTORE PUSH1 0x20 ADD PUSH1 0x0 KECCAK256 PUSH1 0x9 ADD PUSH1 0x4 ADD SWAP1 DUP1 MLOAD SWAP1 PUSH1 0x20 ADD SWAP1 PUSH2 0x295A SWAP3 SWAP2 SWAP1 PUSH2 0x4326 JUMP JUMPDEST POP DUP5 PUSH1 0x2 PUSH1 0x0 CALLER PUSH20 0xFFFFFFFFFFFFFFFFFFFFFFFFFFFFFFFFFFFFFFFF AND PUSH20 0xFFFFFFFFFFFFFFFFFFFFFFFFFFFFFFFFFFFFFFFF AND DUP2 MSTORE PUSH1 0x20 ADD SWAP1 DUP2 MSTORE PUSH1 0x20 ADD PUSH1 0x0 KECCAK256 PUSH1 0x9 ADD PUSH1 0x5 ADD SWAP1 DUP1 MLOAD SWAP1 PUSH1 0x20 ADD SWAP1 PUSH2 0x29B4 SWAP3 SWAP2 SWAP1 PUSH2 0x4326 JUMP JUMPDEST POP DUP4 PUSH1 0x2 PUSH1 0x0 CALLER PUSH20 0xFFFFFFFFFFFFFFFFFFFFFFFFFFFFFFFFFFFFFFFF AND PUSH20 0xFFFFFFFFFFFFFFFFFFFFFFFFFFFFFFFFFFFFFFFF AND DUP2 MSTORE PUSH1 0x20 ADD SWAP1 DUP2 MSTORE PUSH1 0x20 ADD PUSH1 0x0 KECCAK256 PUSH1 0x9 ADD PUSH1 0x6 ADD SWAP1 DUP1 MLOAD SWAP1 PUSH1 0x20 ADD SWAP1 PUSH2 0x2A0E SWAP3 SWAP2 SWAP1 PUSH2 0x4326 JUMP JUMPDEST POP DUP3 PUSH1 0x2 PUSH1 0x0 CALLER PUSH20 0xFFFFFFFFFFFFFFFFFFFFFFFFFFFFFFFFFFFFFFFF AND PUSH20 0xFFFFFFFFFFFFFFFFFFFFFFFFFFFFFFFFFFFFFFFF AND DUP2 MSTORE PUSH1 0x20 ADD SWAP1 DUP2 MSTORE PUSH1 0x20 ADD PUSH1 0x0 KECCAK256 PUSH1 0x9 ADD PUSH1 0x7 ADD SWAP1 DUP1 MLOAD SWAP1 PUSH1 0x20 ADD SWAP1 PUSH2 0x2A68 SWAP3 SWAP2 SWAP1 PUSH2 0x4326 JUMP JUMPDEST POP DUP2 PUSH1 0x2 PUSH1 0x0 CALLER PUSH20 0xFFFFFFFFFFFFFFFFFFFFFFFFFFFFFFFFFFFFFFFF AND PUSH20 0xFFFFFFFFFFFFFFFFFFFFFFFFFFFFFFFFFFFFFFFF AND DUP2 MSTORE PUSH1 0x20 ADD SWAP1 DUP2 MSTORE PUSH1 0x20 ADD PUSH1 0x0 KECCAK256 PUSH1 0x9 ADD PUSH1 0x8 ADD SWAP1 DUP1 MLOAD SWAP1 PUSH1 0x20 ADD SWAP1 PUSH2 0x2AC2 SWAP3 SWAP2 SWAP1 PUSH2 0x4326 JUMP JUMPDEST POP DUP1 PUSH1 0x2 PUSH1 0x0 CALLER PUSH20 0xFFFFFFFFFFFFFFFFFFFFFFFFFFFFFFFFFFFFFFFF AND PUSH20 0xFFFFFFFFFFFFFFFFFFFFFFFFFFFFFFFFFFFFFFFF AND DUP2 MSTORE PUSH1 0x20 ADD SWAP1 DUP2 MSTORE PUSH1 0x20 ADD PUSH1 0x0 KECCAK256 PUSH1 0x9 ADD PUSH1 0x9 ADD SWAP1 DUP1 MLOAD SWAP1 PUSH1 0x20 ADD SWAP1 PUSH2 0x2B1C SWAP3 SWAP2 SWAP1 PUSH2 0x4326 JUMP JUMPDEST POP PUSH1 0x1 PUSH1 0x2 PUSH1 0x0 CALLER PUSH20 0xFFFFFFFFFFFFFFFFFFFFFFFFFFFFFFFFFFFFFFFF AND PUSH20 0xFFFFFFFFFFFFFFFFFFFFFFFFFFFFFFFFFFFFFFFF AND DUP2 MSTORE PUSH1 0x20 ADD SWAP1 DUP2 MSTORE PUSH1 0x20 ADD PUSH1 0x0 KECCAK256 PUSH1 0x9 ADD PUSH1 0xA ADD PUSH1 0x0 PUSH2 0x100 EXP DUP2 SLOAD DUP2 PUSH1 0xFF MUL NOT AND SWAP1 DUP4 ISZERO ISZERO MUL OR SWAP1 SSTORE POP POP POP POP POP POP POP POP POP POP POP JUMP JUMPDEST PUSH2 0x2B8F PUSH2 0x43AC JUMP JUMPDEST PUSH1 0x2 PUSH1 0x0 DUP4 PUSH20 0xFFFFFFFFFFFFFFFFFFFFFFFFFFFFFFFFFFFFFFFF AND PUSH20 0xFFFFFFFFFFFFFFFFFFFFFFFFFFFFFFFFFFFFFFFF AND DUP2 MSTORE PUSH1 0x20 ADD SWAP1 DUP2 MSTORE PUSH1 0x20 ADD PUSH1 0x0 KECCAK256 PUSH1 0x40 MLOAD DUP1 PUSH2 0x120 ADD PUSH1 0x40 MSTORE SWAP1 DUP2 PUSH1 0x0 DUP3 ADD DUP1 SLOAD PUSH2 0x2BEA SWAP1 PUSH2 0x5D2E JUMP JUMPDEST DUP1 PUSH1 0x1F ADD PUSH1 0x20 DUP1 SWAP2 DIV MUL PUSH1 0x20 ADD PUSH1 0x40 MLOAD SWAP1 DUP2 ADD PUSH1 0x40 MSTORE DUP1 SWAP3 SWAP2 SWAP1 DUP2 DUP2 MSTORE PUSH1 0x20 ADD DUP3 DUP1 SLOAD PUSH2 0x2C16 SWAP1 PUSH2 0x5D2E JUMP JUMPDEST DUP1 ISZERO PUSH2 0x2C63 JUMPI DUP1 PUSH1 0x1F LT PUSH2 0x2C38 JUMPI PUSH2 0x100 DUP1 DUP4 SLOAD DIV MUL DUP4 MSTORE SWAP2 PUSH1 0x20 ADD SWAP2 PUSH2 0x2C63 JUMP JUMPDEST DUP3 ADD SWAP2 SWAP1 PUSH1 0x0 MSTORE PUSH1 0x20 PUSH1 0x0 KECCAK256 SWAP1 JUMPDEST DUP2 SLOAD DUP2 MSTORE SWAP1 PUSH1 0x1 ADD SWAP1 PUSH1 0x20 ADD DUP1 DUP4 GT PUSH2 0x2C46 JUMPI DUP3 SWAP1 SUB PUSH1 0x1F AND DUP3 ADD SWAP2 JUMPDEST POP POP POP POP POP DUP2 MSTORE PUSH1 0x20 ADD PUSH1 0x1 DUP3 ADD PUSH1 0x0 SWAP1 SLOAD SWAP1 PUSH2 0x100 EXP SWAP1 DIV PUSH20 0xFFFFFFFFFFFFFFFFFFFFFFFFFFFFFFFFFFFFFFFF AND PUSH20 0xFFFFFFFFFFFFFFFFFFFFFFFFFFFFFFFFFFFFFFFF AND PUSH20 0xFFFFFFFFFFFFFFFFFFFFFFFFFFFFFFFFFFFFFFFF AND DUP2 MSTORE PUSH1 0x20 ADD PUSH1 0x2 DUP3 ADD DUP1 SLOAD PUSH2 0x2CD2 SWAP1 PUSH2 0x5D2E JUMP JUMPDEST DUP1 PUSH1 0x1F ADD PUSH1 0x20 DUP1 SWAP2 DIV MUL PUSH1 0x20 ADD PUSH1 0x40 MLOAD SWAP1 DUP2 ADD PUSH1 0x40 MSTORE DUP1 SWAP3 SWAP2 SWAP1 DUP2 DUP2 MSTORE PUSH1 0x20 ADD DUP3 DUP1 SLOAD PUSH2 0x2CFE SWAP1 PUSH2 0x5D2E JUMP JUMPDEST DUP1 ISZERO PUSH2 0x2D4B JUMPI DUP1 PUSH1 0x1F LT PUSH2 0x2D20 JUMPI PUSH2 0x100 DUP1 DUP4 SLOAD DIV MUL DUP4 MSTORE SWAP2 PUSH1 0x20 ADD SWAP2 PUSH2 0x2D4B JUMP JUMPDEST DUP3 ADD SWAP2 SWAP1 PUSH1 0x0 MSTORE PUSH1 0x20 PUSH1 0x0 KECCAK256 SWAP1 JUMPDEST DUP2 SLOAD DUP2 MSTORE SWAP1 PUSH1 0x1 ADD SWAP1 PUSH1 0x20 ADD DUP1 DUP4 GT PUSH2 0x2D2E JUMPI DUP3 SWAP1 SUB PUSH1 0x1F AND DUP3 ADD SWAP2 JUMPDEST POP POP POP POP POP DUP2 MSTORE PUSH1 0x20 ADD PUSH1 0x3 DUP3 ADD SLOAD DUP2 MSTORE PUSH1 0x20 ADD PUSH1 0x4 DUP3 ADD PUSH1 0x40 MLOAD DUP1 PUSH1 0xA0 ADD PUSH1 0x40 MSTORE SWAP1 DUP2 PUSH1 0x0 DUP3 ADD DUP1 SLOAD PUSH2 0x2D7E SWAP1 PUSH2 0x5D2E JUMP JUMPDEST DUP1 PUSH1 0x1F ADD PUSH1 0x20 DUP1 SWAP2 DIV MUL PUSH1 0x20 ADD PUSH1 0x40 MLOAD SWAP1 DUP2 ADD PUSH1 0x40 MSTORE DUP1 SWAP3 SWAP2 SWAP1 DUP2 DUP2 MSTORE PUSH1 0x20 ADD DUP3 DUP1 SLOAD PUSH2 0x2DAA SWAP1 PUSH2 0x5D2E JUMP JUMPDEST DUP1 ISZERO PUSH2 0x2DF7 JUMPI DUP1 PUSH1 0x1F LT PUSH2 0x2DCC JUMPI PUSH2 0x100 DUP1 DUP4 SLOAD DIV MUL DUP4 MSTORE SWAP2 PUSH1 0x20 ADD SWAP2 PUSH2 0x2DF7 JUMP JUMPDEST DUP3 ADD SWAP2 SWAP1 PUSH1 0x0 MSTORE PUSH1 0x20 PUSH1 0x0 KECCAK256 SWAP1 JUMPDEST DUP2 SLOAD DUP2 MSTORE SWAP1 PUSH1 0x1 ADD SWAP1 PUSH1 0x20 ADD DUP1 DUP4 GT PUSH2 0x2DDA JUMPI DUP3 SWAP1 SUB PUSH1 0x1F AND DUP3 ADD SWAP2 JUMPDEST POP POP POP POP POP DUP2 MSTORE PUSH1 0x20 ADD PUSH1 0x1 DUP3 ADD DUP1 SLOAD PUSH2 0x2E10 SWAP1 PUSH2 0x5D2E JUMP JUMPDEST DUP1 PUSH1 0x1F ADD PUSH1 0x20 DUP1 SWAP2 DIV MUL PUSH1 0x20 ADD PUSH1 0x40 MLOAD SWAP1 DUP2 ADD PUSH1 0x40 MSTORE DUP1 SWAP3 SWAP2 SWAP1 DUP2 DUP2 MSTORE PUSH1 0x20 ADD DUP3 DUP1 SLOAD PUSH2 0x2E3C SWAP1 PUSH2 0x5D2E JUMP JUMPDEST DUP1 ISZERO PUSH2 0x2E89 JUMPI DUP1 PUSH1 0x1F LT PUSH2 0x2E5E JUMPI PUSH2 0x100 DUP1 DUP4 SLOAD DIV MUL DUP4 MSTORE SWAP2 PUSH1 0x20 ADD SWAP2 PUSH2 0x2E89 JUMP JUMPDEST DUP3 ADD SWAP2 SWAP1 PUSH1 0x0 MSTORE PUSH1 0x20 PUSH1 0x0 KECCAK256 SWAP1 JUMPDEST DUP2 SLOAD DUP2 MSTORE SWAP1 PUSH1 0x1 ADD SWAP1 PUSH1 0x20 ADD DUP1 DUP4 GT PUSH2 0x2E6C JUMPI DUP3 SWAP1 SUB PUSH1 0x1F AND DUP3 ADD SWAP2 JUMPDEST POP POP POP POP POP DUP2 MSTORE PUSH1 0x20 ADD PUSH1 0x2 DUP3 ADD DUP1 SLOAD PUSH2 0x2EA2 SWAP1 PUSH2 0x5D2E JUMP JUMPDEST DUP1 PUSH1 0x1F ADD PUSH1 0x20 DUP1 SWAP2 DIV MUL PUSH1 0x20 ADD PUSH1 0x40 MLOAD SWAP1 DUP2 ADD PUSH1 0x40 MSTORE DUP1 SWAP3 SWAP2 SWAP1 DUP2 DUP2 MSTORE PUSH1 0x20 ADD DUP3 DUP1 SLOAD PUSH2 0x2ECE SWAP1 PUSH2 0x5D2E JUMP JUMPDEST DUP1 ISZERO PUSH2 0x2F1B JUMPI DUP1 PUSH1 0x1F LT PUSH2 0x2EF0 JUMPI PUSH2 0x100 DUP1 DUP4 SLOAD DIV MUL DUP4 MSTORE SWAP2 PUSH1 0x20 ADD SWAP2 PUSH2 0x2F1B JUMP JUMPDEST DUP3 ADD SWAP2 SWAP1 PUSH1 0x0 MSTORE PUSH1 0x20 PUSH1 0x0 KECCAK256 SWAP1 JUMPDEST DUP2 SLOAD DUP2 MSTORE SWAP1 PUSH1 0x1 ADD SWAP1 PUSH1 0x20 ADD DUP1 DUP4 GT PUSH2 0x2EFE JUMPI DUP3 SWAP1 SUB PUSH1 0x1F AND DUP3 ADD SWAP2 JUMPDEST POP POP POP POP POP DUP2 MSTORE PUSH1 0x20 ADD PUSH1 0x3 DUP3 ADD DUP1 SLOAD PUSH2 0x2F34 SWAP1 PUSH2 0x5D2E JUMP JUMPDEST DUP1 PUSH1 0x1F ADD PUSH1 0x20 DUP1 SWAP2 DIV MUL PUSH1 0x20 ADD PUSH1 0x40 MLOAD SWAP1 DUP2 ADD PUSH1 0x40 MSTORE DUP1 SWAP3 SWAP2 SWAP1 DUP2 DUP2 MSTORE PUSH1 0x20 ADD DUP3 DUP1 SLOAD PUSH2 0x2F60 SWAP1 PUSH2 0x5D2E JUMP JUMPDEST DUP1 ISZERO PUSH2 0x2FAD JUMPI DUP1 PUSH1 0x1F LT PUSH2 0x2F82 JUMPI PUSH2 0x100 DUP1 DUP4 SLOAD DIV MUL DUP4 MSTORE SWAP2 PUSH1 0x20 ADD SWAP2 PUSH2 0x2FAD JUMP JUMPDEST DUP3 ADD SWAP2 SWAP1 PUSH1 0x0 MSTORE PUSH1 0x20 PUSH1 0x0 KECCAK256 SWAP1 JUMPDEST DUP2 SLOAD DUP2 MSTORE SWAP1 PUSH1 0x1 ADD SWAP1 PUSH1 0x20 ADD DUP1 DUP4 GT PUSH2 0x2F90 JUMPI DUP3 SWAP1 SUB PUSH1 0x1F AND DUP3 ADD SWAP2 JUMPDEST POP POP POP POP POP DUP2 MSTORE PUSH1 0x20 ADD PUSH1 0x4 DUP3 ADD PUSH1 0x0 SWAP1 SLOAD SWAP1 PUSH2 0x100 EXP SWAP1 DIV PUSH1 0xFF AND ISZERO ISZERO ISZERO ISZERO DUP2 MSTORE POP POP DUP2 MSTORE PUSH1 0x20 ADD PUSH1 0x9 DUP3 ADD PUSH1 0x40 MLOAD DUP1 PUSH2 0x160 ADD PUSH1 0x40 MSTORE SWAP1 DUP2 PUSH1 0x0 DUP3 ADD DUP1 SLOAD PUSH2 0x2FF6 SWAP1 PUSH2 0x5D2E JUMP JUMPDEST DUP1 PUSH1 0x1F ADD PUSH1 0x20 DUP1 SWAP2 DIV MUL PUSH1 0x20 ADD PUSH1 0x40 MLOAD SWAP1 DUP2 ADD PUSH1 0x40 MSTORE DUP1 SWAP3 SWAP2 SWAP1 DUP2 DUP2 MSTORE PUSH1 0x20 ADD DUP3 DUP1 SLOAD PUSH2 0x3022 SWAP1 PUSH2 0x5D2E JUMP JUMPDEST DUP1 ISZERO PUSH2 0x306F JUMPI DUP1 PUSH1 0x1F LT PUSH2 0x3044 JUMPI PUSH2 0x100 DUP1 DUP4 SLOAD DIV MUL DUP4 MSTORE SWAP2 PUSH1 0x20 ADD SWAP2 PUSH2 0x306F JUMP JUMPDEST DUP3 ADD SWAP2 SWAP1 PUSH1 0x0 MSTORE PUSH1 0x20 PUSH1 0x0 KECCAK256 SWAP1 JUMPDEST DUP2 SLOAD DUP2 MSTORE SWAP1 PUSH1 0x1 ADD SWAP1 PUSH1 0x20 ADD DUP1 DUP4 GT PUSH2 0x3052 JUMPI DUP3 SWAP1 SUB PUSH1 0x1F AND DUP3 ADD SWAP2 JUMPDEST POP POP POP POP POP DUP2 MSTORE PUSH1 0x20 ADD PUSH1 0x1 DUP3 ADD DUP1 SLOAD PUSH2 0x3088 SWAP1 PUSH2 0x5D2E JUMP JUMPDEST DUP1 PUSH1 0x1F ADD PUSH1 0x20 DUP1 SWAP2 DIV MUL PUSH1 0x20 ADD PUSH1 0x40 MLOAD SWAP1 DUP2 ADD PUSH1 0x40 MSTORE DUP1 SWAP3 SWAP2 SWAP1 DUP2 DUP2 MSTORE PUSH1 0x20 ADD DUP3 DUP1 SLOAD PUSH2 0x30B4 SWAP1 PUSH2 0x5D2E JUMP JUMPDEST DUP1 ISZERO PUSH2 0x3101 JUMPI DUP1 PUSH1 0x1F LT PUSH2 0x30D6 JUMPI PUSH2 0x100 DUP1 DUP4 SLOAD DIV MUL DUP4 MSTORE SWAP2 PUSH1 0x20 ADD SWAP2 PUSH2 0x3101 JUMP JUMPDEST DUP3 ADD SWAP2 SWAP1 PUSH1 0x0 MSTORE PUSH1 0x20 PUSH1 0x0 KECCAK256 SWAP1 JUMPDEST DUP2 SLOAD DUP2 MSTORE SWAP1 PUSH1 0x1 ADD SWAP1 PUSH1 0x20 ADD DUP1 DUP4 GT PUSH2 0x30E4 JUMPI DUP3 SWAP1 SUB PUSH1 0x1F AND DUP3 ADD SWAP2 JUMPDEST POP POP POP POP POP DUP2 MSTORE PUSH1 0x20 ADD PUSH1 0x2 DUP3 ADD DUP1 SLOAD PUSH2 0x311A SWAP1 PUSH2 0x5D2E JUMP JUMPDEST DUP1 PUSH1 0x1F ADD PUSH1 0x20 DUP1 SWAP2 DIV MUL PUSH1 0x20 ADD PUSH1 0x40 MLOAD SWAP1 DUP2 ADD PUSH1 0x40 MSTORE DUP1 SWAP3 SWAP2 SWAP1 DUP2 DUP2 MSTORE PUSH1 0x20 ADD DUP3 DUP1 SLOAD PUSH2 0x3146 SWAP1 PUSH2 0x5D2E JUMP JUMPDEST DUP1 ISZERO PUSH2 0x3193 JUMPI DUP1 PUSH1 0x1F LT PUSH2 0x3168 JUMPI PUSH2 0x100 DUP1 DUP4 SLOAD DIV MUL DUP4 MSTORE SWAP2 PUSH1 0x20 ADD SWAP2 PUSH2 0x3193 JUMP JUMPDEST DUP3 ADD SWAP2 SWAP1 PUSH1 0x0 MSTORE PUSH1 0x20 PUSH1 0x0 KECCAK256 SWAP1 JUMPDEST DUP2 SLOAD DUP2 MSTORE SWAP1 PUSH1 0x1 ADD SWAP1 PUSH1 0x20 ADD DUP1 DUP4 GT PUSH2 0x3176 JUMPI DUP3 SWAP1 SUB PUSH1 0x1F AND DUP3 ADD SWAP2 JUMPDEST POP POP POP POP POP DUP2 MSTORE PUSH1 0x20 ADD PUSH1 0x3 DUP3 ADD DUP1 SLOAD PUSH2 0x31AC SWAP1 PUSH2 0x5D2E JUMP JUMPDEST DUP1 PUSH1 0x1F ADD PUSH1 0x20 DUP1 SWAP2 DIV MUL PUSH1 0x20 ADD PUSH1 0x40 MLOAD SWAP1 DUP2 ADD PUSH1 0x40 MSTORE DUP1 SWAP3 SWAP2 SWAP1 DUP2 DUP2 MSTORE PUSH1 0x20 ADD DUP3 DUP1 SLOAD PUSH2 0x31D8 SWAP1 PUSH2 0x5D2E JUMP JUMPDEST DUP1 ISZERO PUSH2 0x3225 JUMPI DUP1 PUSH1 0x1F LT PUSH2 0x31FA JUMPI PUSH2 0x100 DUP1 DUP4 SLOAD DIV MUL DUP4 MSTORE SWAP2 PUSH1 0x20 ADD SWAP2 PUSH2 0x3225 JUMP JUMPDEST DUP3 ADD SWAP2 SWAP1 PUSH1 0x0 MSTORE PUSH1 0x20 PUSH1 0x0 KECCAK256 SWAP1 JUMPDEST DUP2 SLOAD DUP2 MSTORE SWAP1 PUSH1 0x1 ADD SWAP1 PUSH1 0x20 ADD DUP1 DUP4 GT PUSH2 0x3208 JUMPI DUP3 SWAP1 SUB PUSH1 0x1F AND DUP3 ADD SWAP2 JUMPDEST POP POP POP POP POP DUP2 MSTORE PUSH1 0x20 ADD PUSH1 0x4 DUP3 ADD DUP1 SLOAD PUSH2 0x323E SWAP1 PUSH2 0x5D2E JUMP JUMPDEST DUP1 PUSH1 0x1F ADD PUSH1 0x20 DUP1 SWAP2 DIV MUL PUSH1 0x20 ADD PUSH1 0x40 MLOAD SWAP1 DUP2 ADD PUSH1 0x40 MSTORE DUP1 SWAP3 SWAP2 SWAP1 DUP2 DUP2 MSTORE PUSH1 0x20 ADD DUP3 DUP1 SLOAD PUSH2 0x326A SWAP1 PUSH2 0x5D2E JUMP JUMPDEST DUP1 ISZERO PUSH2 0x32B7 JUMPI DUP1 PUSH1 0x1F LT PUSH2 0x328C JUMPI PUSH2 0x100 DUP1 DUP4 SLOAD DIV MUL DUP4 MSTORE SWAP2 PUSH1 0x20 ADD SWAP2 PUSH2 0x32B7 JUMP JUMPDEST DUP3 ADD SWAP2 SWAP1 PUSH1 0x0 MSTORE PUSH1 0x20 PUSH1 0x0 KECCAK256 SWAP1 JUMPDEST DUP2 SLOAD DUP2 MSTORE SWAP1 PUSH1 0x1 ADD SWAP1 PUSH1 0x20 ADD DUP1 DUP4 GT PUSH2 0x329A JUMPI DUP3 SWAP1 SUB PUSH1 0x1F AND DUP3 ADD SWAP2 JUMPDEST POP POP POP POP POP DUP2 MSTORE PUSH1 0x20 ADD PUSH1 0x5 DUP3 ADD DUP1 SLOAD PUSH2 0x32D0 SWAP1 PUSH2 0x5D2E JUMP JUMPDEST DUP1 PUSH1 0x1F ADD PUSH1 0x20 DUP1 SWAP2 DIV MUL PUSH1 0x20 ADD PUSH1 0x40 MLOAD SWAP1 DUP2 ADD PUSH1 0x40 MSTORE DUP1 SWAP3 SWAP2 SWAP1 DUP2 DUP2 MSTORE PUSH1 0x20 ADD DUP3 DUP1 SLOAD PUSH2 0x32FC SWAP1 PUSH2 0x5D2E JUMP JUMPDEST DUP1 ISZERO PUSH2 0x3349 JUMPI DUP1 PUSH1 0x1F LT PUSH2 0x331E JUMPI PUSH2 0x100 DUP1 DUP4 SLOAD DIV MUL DUP4 MSTORE SWAP2 PUSH1 0x20 ADD SWAP2 PUSH2 0x3349 JUMP JUMPDEST DUP3 ADD SWAP2 SWAP1 PUSH1 0x0 MSTORE PUSH1 0x20 PUSH1 0x0 KECCAK256 SWAP1 JUMPDEST DUP2 SLOAD DUP2 MSTORE SWAP1 PUSH1 0x1 ADD SWAP1 PUSH1 0x20 ADD DUP1 DUP4 GT PUSH2 0x332C JUMPI DUP3 SWAP1 SUB PUSH1 0x1F AND DUP3 ADD SWAP2 JUMPDEST POP POP POP POP POP DUP2 MSTORE PUSH1 0x20 ADD PUSH1 0x6 DUP3 ADD DUP1 SLOAD PUSH2 0x3362 SWAP1 PUSH2 0x5D2E JUMP JUMPDEST DUP1 PUSH1 0x1F ADD PUSH1 0x20 DUP1 SWAP2 DIV MUL PUSH1 0x20 ADD PUSH1 0x40 MLOAD SWAP1 DUP2 ADD PUSH1 0x40 MSTORE DUP1 SWAP3 SWAP2 SWAP1 DUP2 DUP2 MSTORE PUSH1 0x20 ADD DUP3 DUP1 SLOAD PUSH2 0x338E SWAP1 PUSH2 0x5D2E JUMP JUMPDEST DUP1 ISZERO PUSH2 0x33DB JUMPI DUP1 PUSH1 0x1F LT PUSH2 0x33B0 JUMPI PUSH2 0x100 DUP1 DUP4 SLOAD DIV MUL DUP4 MSTORE SWAP2 PUSH1 0x20 ADD SWAP2 PUSH2 0x33DB JUMP JUMPDEST DUP3 ADD SWAP2 SWAP1 PUSH1 0x0 MSTORE PUSH1 0x20 PUSH1 0x0 KECCAK256 SWAP1 JUMPDEST DUP2 SLOAD DUP2 MSTORE SWAP1 PUSH1 0x1 ADD SWAP1 PUSH1 0x20 ADD DUP1 DUP4 GT PUSH2 0x33BE JUMPI DUP3 SWAP1 SUB PUSH1 0x1F AND DUP3 ADD SWAP2 JUMPDEST POP POP POP POP POP DUP2 MSTORE PUSH1 0x20 ADD PUSH1 0x7 DUP3 ADD DUP1 SLOAD PUSH2 0x33F4 SWAP1 PUSH2 0x5D2E JUMP JUMPDEST DUP1 PUSH1 0x1F ADD PUSH1 0x20 DUP1 SWAP2 DIV MUL PUSH1 0x20 ADD PUSH1 0x40 MLOAD SWAP1 DUP2 ADD PUSH1 0x40 MSTORE DUP1 SWAP3 SWAP2 SWAP1 DUP2 DUP2 MSTORE PUSH1 0x20 ADD DUP3 DUP1 SLOAD PUSH2 0x3420 SWAP1 PUSH2 0x5D2E JUMP JUMPDEST DUP1 ISZERO PUSH2 0x346D JUMPI DUP1 PUSH1 0x1F LT PUSH2 0x3442 JUMPI PUSH2 0x100 DUP1 DUP4 SLOAD DIV MUL DUP4 MSTORE SWAP2 PUSH1 0x20 ADD SWAP2 PUSH2 0x346D JUMP JUMPDEST DUP3 ADD SWAP2 SWAP1 PUSH1 0x0 MSTORE PUSH1 0x20 PUSH1 0x0 KECCAK256 SWAP1 JUMPDEST DUP2 SLOAD DUP2 MSTORE SWAP1 PUSH1 0x1 ADD SWAP1 PUSH1 0x20 ADD DUP1 DUP4 GT PUSH2 0x3450 JUMPI DUP3 SWAP1 SUB PUSH1 0x1F AND DUP3 ADD SWAP2 JUMPDEST POP POP POP POP POP DUP2 MSTORE PUSH1 0x20 ADD PUSH1 0x8 DUP3 ADD DUP1 SLOAD PUSH2 0x3486 SWAP1 PUSH2 0x5D2E JUMP JUMPDEST DUP1 PUSH1 0x1F ADD PUSH1 0x20 DUP1 SWAP2 DIV MUL PUSH1 0x20 ADD PUSH1 0x40 MLOAD SWAP1 DUP2 ADD PUSH1 0x40 MSTORE DUP1 SWAP3 SWAP2 SWAP1 DUP2 DUP2 MSTORE PUSH1 0x20 ADD DUP3 DUP1 SLOAD PUSH2 0x34B2 SWAP1 PUSH2 0x5D2E JUMP JUMPDEST DUP1 ISZERO PUSH2 0x34FF JUMPI DUP1 PUSH1 0x1F LT PUSH2 0x34D4 JUMPI PUSH2 0x100 DUP1 DUP4 SLOAD DIV MUL DUP4 MSTORE SWAP2 PUSH1 0x20 ADD SWAP2 PUSH2 0x34FF JUMP JUMPDEST DUP3 ADD SWAP2 SWAP1 PUSH1 0x0 MSTORE PUSH1 0x20 PUSH1 0x0 KECCAK256 SWAP1 JUMPDEST DUP2 SLOAD DUP2 MSTORE SWAP1 PUSH1 0x1 ADD SWAP1 PUSH1 0x20 ADD DUP1 DUP4 GT PUSH2 0x34E2 JUMPI DUP3 SWAP1 SUB PUSH1 0x1F AND DUP3 ADD SWAP2 JUMPDEST POP POP POP POP POP DUP2 MSTORE PUSH1 0x20 ADD PUSH1 0x9 DUP3 ADD DUP1 SLOAD PUSH2 0x3518 SWAP1 PUSH2 0x5D2E JUMP JUMPDEST DUP1 PUSH1 0x1F ADD PUSH1 0x20 DUP1 SWAP2 DIV MUL PUSH1 0x20 ADD PUSH1 0x40 MLOAD SWAP1 DUP2 ADD PUSH1 0x40 MSTORE DUP1 SWAP3 SWAP2 SWAP1 DUP2 DUP2 MSTORE PUSH1 0x20 ADD DUP3 DUP1 SLOAD PUSH2 0x3544 SWAP1 PUSH2 0x5D2E JUMP JUMPDEST DUP1 ISZERO PUSH2 0x3591 JUMPI DUP1 PUSH1 0x1F LT PUSH2 0x3566 JUMPI PUSH2 0x100 DUP1 DUP4 SLOAD DIV MUL DUP4 MSTORE SWAP2 PUSH1 0x20 ADD SWAP2 PUSH2 0x3591 JUMP JUMPDEST DUP3 ADD SWAP2 SWAP1 PUSH1 0x0 MSTORE PUSH1 0x20 PUSH1 0x0 KECCAK256 SWAP1 JUMPDEST DUP2 SLOAD DUP2 MSTORE SWAP1 PUSH1 0x1 ADD SWAP1 PUSH1 0x20 ADD DUP1 DUP4 GT PUSH2 0x3574 JUMPI DUP3 SWAP1 SUB PUSH1 0x1F AND DUP3 ADD SWAP2 JUMPDEST POP POP POP POP POP DUP2 MSTORE PUSH1 0x20 ADD PUSH1 0xA DUP3 ADD PUSH1 0x0 SWAP1 SLOAD SWAP1 PUSH2 0x100 EXP SWAP1 DIV PUSH1 0xFF AND ISZERO ISZERO ISZERO ISZERO DUP2 MSTORE POP POP DUP2 MSTORE PUSH1 0x20 ADD PUSH1 0x14 DUP3 ADD PUSH1 0x40 MLOAD DUP1 PUSH1 0xC0 ADD PUSH1 0x40 MSTORE SWAP1 DUP2 PUSH1 0x0 DUP3 ADD DUP1 SLOAD PUSH2 0x35D9 SWAP1 PUSH2 0x5D2E JUMP JUMPDEST DUP1 PUSH1 0x1F ADD PUSH1 0x20 DUP1 SWAP2 DIV MUL PUSH1 0x20 ADD PUSH1 0x40 MLOAD SWAP1 DUP2 ADD PUSH1 0x40 MSTORE DUP1 SWAP3 SWAP2 SWAP1 DUP2 DUP2 MSTORE PUSH1 0x20 ADD DUP3 DUP1 SLOAD PUSH2 0x3605 SWAP1 PUSH2 0x5D2E JUMP JUMPDEST DUP1 ISZERO PUSH2 0x3652 JUMPI DUP1 PUSH1 0x1F LT PUSH2 0x3627 JUMPI PUSH2 0x100 DUP1 DUP4 SLOAD DIV MUL DUP4 MSTORE SWAP2 PUSH1 0x20 ADD SWAP2 PUSH2 0x3652 JUMP JUMPDEST DUP3 ADD SWAP2 SWAP1 PUSH1 0x0 MSTORE PUSH1 0x20 PUSH1 0x0 KECCAK256 SWAP1 JUMPDEST DUP2 SLOAD DUP2 MSTORE SWAP1 PUSH1 0x1 ADD SWAP1 PUSH1 0x20 ADD DUP1 DUP4 GT PUSH2 0x3635 JUMPI DUP3 SWAP1 SUB PUSH1 0x1F AND DUP3 ADD SWAP2 JUMPDEST POP POP POP POP POP DUP2 MSTORE PUSH1 0x20 ADD PUSH1 0x1 DUP3 ADD DUP1 SLOAD PUSH2 0x366B SWAP1 PUSH2 0x5D2E JUMP JUMPDEST DUP1 PUSH1 0x1F ADD PUSH1 0x20 DUP1 SWAP2 DIV MUL PUSH1 0x20 ADD PUSH1 0x40 MLOAD SWAP1 DUP2 ADD PUSH1 0x40 MSTORE DUP1 SWAP3 SWAP2 SWAP1 DUP2 DUP2 MSTORE PUSH1 0x20 ADD DUP3 DUP1 SLOAD PUSH2 0x3697 SWAP1 PUSH2 0x5D2E JUMP JUMPDEST DUP1 ISZERO PUSH2 0x36E4 JUMPI DUP1 PUSH1 0x1F LT PUSH2 0x36B9 JUMPI PUSH2 0x100 DUP1 DUP4 SLOAD DIV MUL DUP4 MSTORE SWAP2 PUSH1 0x20 ADD SWAP2 PUSH2 0x36E4 JUMP JUMPDEST DUP3 ADD SWAP2 SWAP1 PUSH1 0x0 MSTORE PUSH1 0x20 PUSH1 0x0 KECCAK256 SWAP1 JUMPDEST DUP2 SLOAD DUP2 MSTORE SWAP1 PUSH1 0x1 ADD SWAP1 PUSH1 0x20 ADD DUP1 DUP4 GT PUSH2 0x36C7 JUMPI DUP3 SWAP1 SUB PUSH1 0x1F AND DUP3 ADD SWAP2 JUMPDEST POP POP POP POP POP DUP2 MSTORE PUSH1 0x20 ADD PUSH1 0x2 DUP3 ADD DUP1 SLOAD PUSH2 0x36FD SWAP1 PUSH2 0x5D2E JUMP JUMPDEST DUP1 PUSH1 0x1F ADD PUSH1 0x20 DUP1 SWAP2 DIV MUL PUSH1 0x20 ADD PUSH1 0x40 MLOAD SWAP1 DUP2 ADD PUSH1 0x40 MSTORE DUP1 SWAP3 SWAP2 SWAP1 DUP2 DUP2 MSTORE PUSH1 0x20 ADD DUP3 DUP1 SLOAD PUSH2 0x3729 SWAP1 PUSH2 0x5D2E JUMP JUMPDEST DUP1 ISZERO PUSH2 0x3776 JUMPI DUP1 PUSH1 0x1F LT PUSH2 0x374B JUMPI PUSH2 0x100 DUP1 DUP4 SLOAD DIV MUL DUP4 MSTORE SWAP2 PUSH1 0x20 ADD SWAP2 PUSH2 0x3776 JUMP JUMPDEST DUP3 ADD SWAP2 SWAP1 PUSH1 0x0 MSTORE PUSH1 0x20 PUSH1 0x0 KECCAK256 SWAP1 JUMPDEST DUP2 SLOAD DUP2 MSTORE SWAP1 PUSH1 0x1 ADD SWAP1 PUSH1 0x20 ADD DUP1 DUP4 GT PUSH2 0x3759 JUMPI DUP3 SWAP1 SUB PUSH1 0x1F AND DUP3 ADD SWAP2 JUMPDEST POP POP POP POP POP DUP2 MSTORE PUSH1 0x20 ADD PUSH1 0x3 DUP3 ADD DUP1 SLOAD PUSH2 0x378F SWAP1 PUSH2 0x5D2E JUMP JUMPDEST DUP1 PUSH1 0x1F ADD PUSH1 0x20 DUP1 SWAP2 DIV MUL PUSH1 0x20 ADD PUSH1 0x40 MLOAD SWAP1 DUP2 ADD PUSH1 0x40 MSTORE DUP1 SWAP3 SWAP2 SWAP1 DUP2 DUP2 MSTORE PUSH1 0x20 ADD DUP3 DUP1 SLOAD PUSH2 0x37BB SWAP1 PUSH2 0x5D2E JUMP JUMPDEST DUP1 ISZERO PUSH2 0x3808 JUMPI DUP1 PUSH1 0x1F LT PUSH2 0x37DD JUMPI PUSH2 0x100 DUP1 DUP4 SLOAD DIV MUL DUP4 MSTORE SWAP2 PUSH1 0x20 ADD SWAP2 PUSH2 0x3808 JUMP JUMPDEST DUP3 ADD SWAP2 SWAP1 PUSH1 0x0 MSTORE PUSH1 0x20 PUSH1 0x0 KECCAK256 SWAP1 JUMPDEST DUP2 SLOAD DUP2 MSTORE SWAP1 PUSH1 0x1 ADD SWAP1 PUSH1 0x20 ADD DUP1 DUP4 GT PUSH2 0x37EB JUMPI DUP3 SWAP1 SUB PUSH1 0x1F AND DUP3 ADD SWAP2 JUMPDEST POP POP POP POP POP DUP2 MSTORE PUSH1 0x20 ADD PUSH1 0x4 DUP3 ADD DUP1 SLOAD PUSH2 0x3821 SWAP1 PUSH2 0x5D2E JUMP JUMPDEST DUP1 PUSH1 0x1F ADD PUSH1 0x20 DUP1 SWAP2 DIV MUL PUSH1 0x20 ADD PUSH1 0x40 MLOAD SWAP1 DUP2 ADD PUSH1 0x40 MSTORE DUP1 SWAP3 SWAP2 SWAP1 DUP2 DUP2 MSTORE PUSH1 0x20 ADD DUP3 DUP1 SLOAD PUSH2 0x384D SWAP1 PUSH2 0x5D2E JUMP JUMPDEST DUP1 ISZERO PUSH2 0x389A JUMPI DUP1 PUSH1 0x1F LT PUSH2 0x386F JUMPI PUSH2 0x100 DUP1 DUP4 SLOAD DIV MUL DUP4 MSTORE SWAP2 PUSH1 0x20 ADD SWAP2 PUSH2 0x389A JUMP JUMPDEST DUP3 ADD SWAP2 SWAP1 PUSH1 0x0 MSTORE PUSH1 0x20 PUSH1 0x0 KECCAK256 SWAP1 JUMPDEST DUP2 SLOAD DUP2 MSTORE SWAP1 PUSH1 0x1 ADD SWAP1 PUSH1 0x20 ADD DUP1 DUP4 GT PUSH2 0x387D JUMPI DUP3 SWAP1 SUB PUSH1 0x1F AND DUP3 ADD SWAP2 JUMPDEST POP POP POP POP POP DUP2 MSTORE PUSH1 0x20 ADD PUSH1 0x5 DUP3 ADD PUSH1 0x0 SWAP1 SLOAD SWAP1 PUSH2 0x100 EXP SWAP1 DIV PUSH1 0xFF AND ISZERO ISZERO ISZERO ISZERO DUP2 MSTORE POP POP DUP2 MSTORE PUSH1 0x20 ADD PUSH1 0x1A DUP3 ADD PUSH1 0x40 MLOAD DUP1 PUSH1 0xE0 ADD PUSH1 0x40 MSTORE SWAP1 DUP2 PUSH1 0x0 DUP3 ADD DUP1 SLOAD PUSH2 0x38E2 SWAP1 PUSH2 0x5D2E JUMP JUMPDEST DUP1 PUSH1 0x1F ADD PUSH1 0x20 DUP1 SWAP2 DIV MUL PUSH1 0x20 ADD PUSH1 0x40 MLOAD SWAP1 DUP2 ADD PUSH1 0x40 MSTORE DUP1 SWAP3 SWAP2 SWAP1 DUP2 DUP2 MSTORE PUSH1 0x20 ADD DUP3 DUP1 SLOAD PUSH2 0x390E SWAP1 PUSH2 0x5D2E JUMP JUMPDEST DUP1 ISZERO PUSH2 0x395B JUMPI DUP1 PUSH1 0x1F LT PUSH2 0x3930 JUMPI PUSH2 0x100 DUP1 DUP4 SLOAD DIV MUL DUP4 MSTORE SWAP2 PUSH1 0x20 ADD SWAP2 PUSH2 0x395B JUMP JUMPDEST DUP3 ADD SWAP2 SWAP1 PUSH1 0x0 MSTORE PUSH1 0x20 PUSH1 0x0 KECCAK256 SWAP1 JUMPDEST DUP2 SLOAD DUP2 MSTORE SWAP1 PUSH1 0x1 ADD SWAP1 PUSH1 0x20 ADD DUP1 DUP4 GT PUSH2 0x393E JUMPI DUP3 SWAP1 SUB PUSH1 0x1F AND DUP3 ADD SWAP2 JUMPDEST POP POP POP POP POP DUP2 MSTORE PUSH1 0x20 ADD PUSH1 0x1 DUP3 ADD SLOAD DUP2 MSTORE PUSH1 0x20 ADD PUSH1 0x2 DUP3 ADD SLOAD DUP2 MSTORE PUSH1 0x20 ADD PUSH1 0x3 DUP3 ADD DUP1 SLOAD PUSH2 0x3988 SWAP1 PUSH2 0x5D2E JUMP JUMPDEST DUP1 PUSH1 0x1F ADD PUSH1 0x20 DUP1 SWAP2 DIV MUL PUSH1 0x20 ADD PUSH1 0x40 MLOAD SWAP1 DUP2 ADD PUSH1 0x40 MSTORE DUP1 SWAP3 SWAP2 SWAP1 DUP2 DUP2 MSTORE PUSH1 0x20 ADD DUP3 DUP1 SLOAD PUSH2 0x39B4 SWAP1 PUSH2 0x5D2E JUMP JUMPDEST DUP1 ISZERO PUSH2 0x3A01 JUMPI DUP1 PUSH1 0x1F LT PUSH2 0x39D6 JUMPI PUSH2 0x100 DUP1 DUP4 SLOAD DIV MUL DUP4 MSTORE SWAP2 PUSH1 0x20 ADD SWAP2 PUSH2 0x3A01 JUMP JUMPDEST DUP3 ADD SWAP2 SWAP1 PUSH1 0x0 MSTORE PUSH1 0x20 PUSH1 0x0 KECCAK256 SWAP1 JUMPDEST DUP2 SLOAD DUP2 MSTORE SWAP1 PUSH1 0x1 ADD SWAP1 PUSH1 0x20 ADD DUP1 DUP4 GT PUSH2 0x39E4 JUMPI DUP3 SWAP1 SUB PUSH1 0x1F AND DUP3 ADD SWAP2 JUMPDEST POP POP POP POP POP DUP2 MSTORE PUSH1 0x20 ADD PUSH1 0x4 DUP3 ADD SLOAD DUP2 MSTORE PUSH1 0x20 ADD PUSH1 0x5 DUP3 ADD SLOAD DUP2 MSTORE PUSH1 0x20 ADD PUSH1 0x6 DUP3 ADD PUSH1 0x0 SWAP1 SLOAD SWAP1 PUSH2 0x100 EXP SWAP1 DIV PUSH1 0xFF AND ISZERO ISZERO ISZERO ISZERO DUP2 MSTORE POP POP DUP2 MSTORE PUSH1 0x20 ADD PUSH1 0x21 DUP3 ADD PUSH1 0x0 SWAP1 SLOAD SWAP1 PUSH2 0x100 EXP SWAP1 DIV PUSH1 0xFF AND ISZERO ISZERO ISZERO ISZERO DUP2 MSTORE POP POP SWAP1 POP SWAP2 SWAP1 POP JUMP JUMPDEST PUSH1 0x2 PUSH1 0x0 CALLER PUSH20 0xFFFFFFFFFFFFFFFFFFFFFFFFFFFFFFFFFFFFFFFF AND PUSH20 0xFFFFFFFFFFFFFFFFFFFFFFFFFFFFFFFFFFFFFFFF AND DUP2 MSTORE PUSH1 0x20 ADD SWAP1 DUP2 MSTORE PUSH1 0x20 ADD PUSH1 0x0 KECCAK256 PUSH1 0x21 ADD PUSH1 0x0 SWAP1 SLOAD SWAP1 PUSH2 0x100 EXP SWAP1 DIV PUSH1 0xFF AND PUSH2 0x3AEE JUMPI PUSH1 0x40 MLOAD PUSH32 0x8C379A000000000000000000000000000000000000000000000000000000000 DUP2 MSTORE PUSH1 0x4 ADD PUSH2 0x3AE5 SWAP1 PUSH2 0x5DAC JUMP JUMPDEST PUSH1 0x40 MLOAD DUP1 SWAP2 SUB SWAP1 REVERT JUMPDEST DUP4 PUSH1 0x2 PUSH1 0x0 CALLER PUSH20 0xFFFFFFFFFFFFFFFFFFFFFFFFFFFFFFFFFFFFFFFF AND PUSH20 0xFFFFFFFFFFFFFFFFFFFFFFFFFFFFFFFFFFFFFFFF AND DUP2 MSTORE PUSH1 0x20 ADD SWAP1 DUP2 MSTORE PUSH1 0x20 ADD PUSH1 0x0 KECCAK256 PUSH1 0x4 ADD PUSH1 0x0 ADD SWAP1 DUP1 MLOAD SWAP1 PUSH1 0x20 ADD SWAP1 PUSH2 0x3B47 SWAP3 SWAP2 SWAP1 PUSH2 0x4326 JUMP JUMPDEST POP DUP3 PUSH1 0x2 PUSH1 0x0 CALLER PUSH20 0xFFFFFFFFFFFFFFFFFFFFFFFFFFFFFFFFFFFFFFFF AND PUSH20 0xFFFFFFFFFFFFFFFFFFFFFFFFFFFFFFFFFFFFFFFF AND DUP2 MSTORE PUSH1 0x20 ADD SWAP1 DUP2 MSTORE PUSH1 0x20 ADD PUSH1 0x0 KECCAK256 PUSH1 0x4 ADD PUSH1 0x1 ADD SWAP1 DUP1 MLOAD SWAP1 PUSH1 0x20 ADD SWAP1 PUSH2 0x3BA1 SWAP3 SWAP2 SWAP1 PUSH2 0x4326 JUMP JUMPDEST POP DUP2 PUSH1 0x2 PUSH1 0x0 CALLER PUSH20 0xFFFFFFFFFFFFFFFFFFFFFFFFFFFFFFFFFFFFFFFF AND PUSH20 0xFFFFFFFFFFFFFFFFFFFFFFFFFFFFFFFFFFFFFFFF AND DUP2 MSTORE PUSH1 0x20 ADD SWAP1 DUP2 MSTORE PUSH1 0x20 ADD PUSH1 0x0 KECCAK256 PUSH1 0x4 ADD PUSH1 0x2 ADD SWAP1 DUP1 MLOAD SWAP1 PUSH1 0x20 ADD SWAP1 PUSH2 0x3BFB SWAP3 SWAP2 SWAP1 PUSH2 0x4326 JUMP JUMPDEST POP DUP1 PUSH1 0x2 PUSH1 0x0 CALLER PUSH20 0xFFFFFFFFFFFFFFFFFFFFFFFFFFFFFFFFFFFFFFFF AND PUSH20 0xFFFFFFFFFFFFFFFFFFFFFFFFFFFFFFFFFFFFFFFF AND DUP2 MSTORE PUSH1 0x20 ADD SWAP1 DUP2 MSTORE PUSH1 0x20 ADD PUSH1 0x0 KECCAK256 PUSH1 0x4 ADD PUSH1 0x3 ADD SWAP1 DUP1 MLOAD SWAP1 PUSH1 0x20 ADD SWAP1 PUSH2 0x3C55 SWAP3 SWAP2 SWAP1 PUSH2 0x4326 JUMP JUMPDEST POP PUSH1 0x1 PUSH1 0x2 PUSH1 0x0 CALLER PUSH20 0xFFFFFFFFFFFFFFFFFFFFFFFFFFFFFFFFFFFFFFFF AND PUSH20 0xFFFFFFFFFFFFFFFFFFFFFFFFFFFFFFFFFFFFFFFF AND DUP2 MSTORE PUSH1 0x20 ADD SWAP1 DUP2 MSTORE PUSH1 0x20 ADD PUSH1 0x0 KECCAK256 PUSH1 0x4 ADD PUSH1 0x4 ADD PUSH1 0x0 PUSH2 0x100 EXP DUP2 SLOAD DUP2 PUSH1 0xFF MUL NOT AND SWAP1 DUP4 ISZERO ISZERO MUL OR SWAP1 SSTORE POP PUSH1 0x4 PUSH1 0x2 PUSH1 0x0 CALLER PUSH20 0xFFFFFFFFFFFFFFFFFFFFFFFFFFFFFFFFFFFFFFFF AND PUSH20 0xFFFFFFFFFFFFFFFFFFFFFFFFFFFFFFFFFFFFFFFF AND DUP2 MSTORE PUSH1 0x20 ADD SWAP1 DUP2 MSTORE PUSH1 0x20 ADD PUSH1 0x0 KECCAK256 SWAP1 DUP1 PUSH1 0x1 DUP2 SLOAD ADD DUP1 DUP3 SSTORE DUP1 SWAP2 POP POP PUSH1 0x1 SWAP1 SUB SWAP1 PUSH1 0x0 MSTORE PUSH1 0x20 PUSH1 0x0 KECCAK256 SWAP1 PUSH1 0x22 MUL ADD PUSH1 0x0 SWAP1 SWAP2 SWAP1 SWAP2 SWAP1 SWAP2 POP PUSH1 0x0 DUP3 ADD DUP2 PUSH1 0x0 ADD SWAP1 DUP1 SLOAD PUSH2 0x3D32 SWAP1 PUSH2 0x5D2E JUMP JUMPDEST PUSH2 0x3D3D SWAP3 SWAP2 SWAP1 PUSH2 0x4428 JUMP JUMPDEST POP PUSH1 0x1 DUP3 ADD PUSH1 0x0 SWAP1 SLOAD SWAP1 PUSH2 0x100 EXP SWAP1 DIV PUSH20 0xFFFFFFFFFFFFFFFFFFFFFFFFFFFFFFFFFFFFFFFF AND DUP2 PUSH1 0x1 ADD PUSH1 0x0 PUSH2 0x100 EXP DUP2 SLOAD DUP2 PUSH20 0xFFFFFFFFFFFFFFFFFFFFFFFFFFFFFFFFFFFFFFFF MUL NOT AND SWAP1 DUP4 PUSH20 0xFFFFFFFFFFFFFFFFFFFFFFFFFFFFFFFFFFFFFFFF AND MUL OR SWAP1 SSTORE POP PUSH1 0x2 DUP3 ADD DUP2 PUSH1 0x2 ADD SWAP1 DUP1 SLOAD PUSH2 0x3DB9 SWAP1 PUSH2 0x5D2E JUMP JUMPDEST PUSH2 0x3DC4 SWAP3 SWAP2 SWAP1 PUSH2 0x4428 JUMP JUMPDEST POP PUSH1 0x3 DUP3 ADD SLOAD DUP2 PUSH1 0x3 ADD SSTORE PUSH1 0x4 DUP3 ADD DUP2 PUSH1 0x4 ADD PUSH1 0x0 DUP3 ADD DUP2 PUSH1 0x0 ADD SWAP1 DUP1 SLOAD PUSH2 0x3DEB SWAP1 PUSH2 0x5D2E JUMP JUMPDEST PUSH2 0x3DF6 SWAP3 SWAP2 SWAP1 PUSH2 0x4428 JUMP JUMPDEST POP PUSH1 0x1 DUP3 ADD DUP2 PUSH1 0x1 ADD SWAP1 DUP1 SLOAD PUSH2 0x3E0B SWAP1 PUSH2 0x5D2E JUMP JUMPDEST PUSH2 0x3E16 SWAP3 SWAP2 SWAP1 PUSH2 0x4428 JUMP JUMPDEST POP PUSH1 0x2 DUP3 ADD DUP2 PUSH1 0x2 ADD SWAP1 DUP1 SLOAD PUSH2 0x3E2B SWAP1 PUSH2 0x5D2E JUMP JUMPDEST PUSH2 0x3E36 SWAP3 SWAP2 SWAP1 PUSH2 0x4428 JUMP JUMPDEST POP PUSH1 0x3 DUP3 ADD DUP2 PUSH1 0x3 ADD SWAP1 DUP1 SLOAD PUSH2 0x3E4B SWAP1 PUSH2 0x5D2E JUMP JUMPDEST PUSH2 0x3E56 SWAP3 SWAP2 SWAP1 PUSH2 0x4428 JUMP JUMPDEST POP PUSH1 0x4 DUP3 ADD PUSH1 0x0 SWAP1 SLOAD SWAP1 PUSH2 0x100 EXP SWAP1 DIV PUSH1 0xFF AND DUP2 PUSH1 0x4 ADD PUSH1 0x0 PUSH2 0x100 EXP DUP2 SLOAD DUP2 PUSH1 0xFF MUL NOT AND SWAP1 DUP4 ISZERO ISZERO MUL OR SWAP1 SSTORE POP POP POP PUSH1 0x9 DUP3 ADD DUP2 PUSH1 0x9 ADD PUSH1 0x0 DUP3 ADD DUP2 PUSH1 0x0 ADD SWAP1 DUP1 SLOAD PUSH2 0x3EA2 SWAP1 PUSH2 0x5D2E JUMP JUMPDEST PUSH2 0x3EAD SWAP3 SWAP2 SWAP1 PUSH2 0x4428 JUMP JUMPDEST POP PUSH1 0x1 DUP3 ADD DUP2 PUSH1 0x1 ADD SWAP1 DUP1 SLOAD PUSH2 0x3EC2 SWAP1 PUSH2 0x5D2E JUMP JUMPDEST PUSH2 0x3ECD SWAP3 SWAP2 SWAP1 PUSH2 0x4428 JUMP JUMPDEST POP PUSH1 0x2 DUP3 ADD DUP2 PUSH1 0x2 ADD SWAP1 DUP1 SLOAD PUSH2 0x3EE2 SWAP1 PUSH2 0x5D2E JUMP JUMPDEST PUSH2 0x3EED SWAP3 SWAP2 SWAP1 PUSH2 0x4428 JUMP JUMPDEST POP PUSH1 0x3 DUP3 ADD DUP2 PUSH1 0x3 ADD SWAP1 DUP1 SLOAD PUSH2 0x3F02 SWAP1 PUSH2 0x5D2E JUMP JUMPDEST PUSH2 0x3F0D SWAP3 SWAP2 SWAP1 PUSH2 0x4428 JUMP JUMPDEST POP PUSH1 0x4 DUP3 ADD DUP2 PUSH1 0x4 ADD SWAP1 DUP1 SLOAD PUSH2 0x3F22 SWAP1 PUSH2 0x5D2E JUMP JUMPDEST PUSH2 0x3F2D SWAP3 SWAP2 SWAP1 PUSH2 0x4428 JUMP JUMPDEST POP PUSH1 0x5 DUP3 ADD DUP2 PUSH1 0x5 ADD SWAP1 DUP1 SLOAD PUSH2 0x3F42 SWAP1 PUSH2 0x5D2E JUMP JUMPDEST PUSH2 0x3F4D SWAP3 SWAP2 SWAP1 PUSH2 0x4428 JUMP JUMPDEST POP PUSH1 0x6 DUP3 ADD DUP2 PUSH1 0x6 ADD SWAP1 DUP1 SLOAD PUSH2 0x3F62 SWAP1 PUSH2 0x5D2E JUMP JUMPDEST PUSH2 0x3F6D SWAP3 SWAP2 SWAP1 PUSH2 0x4428 JUMP JUMPDEST POP PUSH1 0x7 DUP3 ADD DUP2 PUSH1 0x7 ADD SWAP1 DUP1 SLOAD PUSH2 0x3F82 SWAP1 PUSH2 0x5D2E JUMP JUMPDEST PUSH2 0x3F8D SWAP3 SWAP2 SWAP1 PUSH2 0x4428 JUMP JUMPDEST POP PUSH1 0x8 DUP3 ADD DUP2 PUSH1 0x8 ADD SWAP1 DUP1 SLOAD PUSH2 0x3FA2 SWAP1 PUSH2 0x5D2E JUMP JUMPDEST PUSH2 0x3FAD SWAP3 SWAP2 SWAP1 PUSH2 0x4428 JUMP JUMPDEST POP PUSH1 0x9 DUP3 ADD DUP2 PUSH1 0x9 ADD SWAP1 DUP1 SLOAD PUSH2 0x3FC2 SWAP1 PUSH2 0x5D2E JUMP JUMPDEST PUSH2 0x3FCD SWAP3 SWAP2 SWAP1 PUSH2 0x4428 JUMP JUMPDEST POP PUSH1 0xA DUP3 ADD PUSH1 0x0 SWAP1 SLOAD SWAP1 PUSH2 0x100 EXP SWAP1 DIV PUSH1 0xFF AND DUP2 PUSH1 0xA ADD PUSH1 0x0 PUSH2 0x100 EXP DUP2 SLOAD DUP2 PUSH1 0xFF MUL NOT AND SWAP1 DUP4 ISZERO ISZERO MUL OR SWAP1 SSTORE POP POP POP PUSH1 0x14 DUP3 ADD DUP2 PUSH1 0x14 ADD PUSH1 0x0 DUP3 ADD DUP2 PUSH1 0x0 ADD SWAP1 DUP1 SLOAD PUSH2 0x4019 SWAP1 PUSH2 0x5D2E JUMP JUMPDEST PUSH2 0x4024 SWAP3 SWAP2 SWAP1 PUSH2 0x4428 JUMP JUMPDEST POP PUSH1 0x1 DUP3 ADD DUP2 PUSH1 0x1 ADD SWAP1 DUP1 SLOAD PUSH2 0x4039 SWAP1 PUSH2 0x5D2E JUMP JUMPDEST PUSH2 0x4044 SWAP3 SWAP2 SWAP1 PUSH2 0x4428 JUMP JUMPDEST POP PUSH1 0x2 DUP3 ADD DUP2 PUSH1 0x2 ADD SWAP1 DUP1 SLOAD PUSH2 0x4059 SWAP1 PUSH2 0x5D2E JUMP JUMPDEST PUSH2 0x4064 SWAP3 SWAP2 SWAP1 PUSH2 0x4428 JUMP JUMPDEST POP PUSH1 0x3 DUP3 ADD DUP2 PUSH1 0x3 ADD SWAP1 DUP1 SLOAD PUSH2 0x4079 SWAP1 PUSH2 0x5D2E JUMP JUMPDEST PUSH2 0x4084 SWAP3 SWAP2 SWAP1 PUSH2 0x4428 JUMP JUMPDEST POP PUSH1 0x4 DUP3 ADD DUP2 PUSH1 0x4 ADD SWAP1 DUP1 SLOAD PUSH2 0x4099 SWAP1 PUSH2 0x5D2E JUMP JUMPDEST PUSH2 0x40A4 SWAP3 SWAP2 SWAP1 PUSH2 0x4428 JUMP JUMPDEST POP PUSH1 0x5 DUP3 ADD PUSH1 0x0 SWAP1 SLOAD SWAP1 PUSH2 0x100 EXP SWAP1 DIV PUSH1 0xFF AND DUP2 PUSH1 0x5 ADD PUSH1 0x0 PUSH2 0x100 EXP DUP2 SLOAD DUP2 PUSH1 0xFF MUL NOT AND SWAP1 DUP4 ISZERO ISZERO MUL OR SWAP1 SSTORE POP POP POP PUSH1 0x1A DUP3 ADD DUP2 PUSH1 0x1A ADD PUSH1 0x0 DUP3 ADD DUP2 PUSH1 0x0 ADD SWAP1 DUP1 SLOAD PUSH2 0x40F0 SWAP1 PUSH2 0x5D2E JUMP JUMPDEST PUSH2 0x40FB SWAP3 SWAP2 SWAP1 PUSH2 0x4428 JUMP JUMPDEST POP PUSH1 0x1 DUP3 ADD SLOAD DUP2 PUSH1 0x1 ADD SSTORE PUSH1 0x2 DUP3 ADD SLOAD DUP2 PUSH1 0x2 ADD SSTORE PUSH1 0x3 DUP3 ADD DUP2 PUSH1 0x3 ADD SWAP1 DUP1 SLOAD PUSH2 0x4124 SWAP1 PUSH2 0x5D2E JUMP JUMPDEST PUSH2 0x412F SWAP3 SWAP2 SWAP1 PUSH2 0x4428 JUMP JUMPDEST POP PUSH1 0x4 DUP3 ADD SLOAD DUP2 PUSH1 0x4 ADD SSTORE PUSH1 0x5 DUP3 ADD SLOAD DUP2 PUSH1 0x5 ADD SSTORE PUSH1 0x6 DUP3 ADD PUSH1 0x0 SWAP1 SLOAD SWAP1 PUSH2 0x100 EXP SWAP1 DIV PUSH1 0xFF AND DUP2 PUSH1 0x6 ADD PUSH1 0x0 PUSH2 0x100 EXP DUP2 SLOAD DUP2 PUSH1 0xFF MUL NOT AND SWAP1 DUP4 ISZERO ISZERO MUL OR SWAP1 SSTORE POP POP POP PUSH1 0x21 DUP3 ADD PUSH1 0x0 SWAP1 SLOAD SWAP1 PUSH2 0x100 EXP SWAP1 DIV PUSH1 0xFF AND DUP2 PUSH1 0x21 ADD PUSH1 0x0 PUSH2 0x100 EXP DUP2 SLOAD DUP2 PUSH1 0xFF MUL NOT AND SWAP1 DUP4 ISZERO ISZERO MUL OR SWAP1 SSTORE POP POP POP POP POP POP POP JUMP JUMPDEST PUSH1 0x0 PUSH1 0x2 PUSH1 0x0 DUP4 PUSH20 0xFFFFFFFFFFFFFFFFFFFFFFFFFFFFFFFFFFFFFFFF AND PUSH20 0xFFFFFFFFFFFFFFFFFFFFFFFFFFFFFFFFFFFFFFFF AND DUP2 MSTORE PUSH1 0x20 ADD SWAP1 DUP2 MSTORE PUSH1 0x20 ADD PUSH1 0x0 KECCAK256 PUSH1 0x9 ADD PUSH1 0xA ADD PUSH1 0x0 SWAP1 SLOAD SWAP1 PUSH2 0x100 EXP SWAP1 DIV PUSH1 0xFF AND DUP1 ISZERO PUSH2 0x4258 JUMPI POP PUSH1 0x2 PUSH1 0x0 DUP4 PUSH20 0xFFFFFFFFFFFFFFFFFFFFFFFFFFFFFFFFFFFFFFFF AND PUSH20 0xFFFFFFFFFFFFFFFFFFFFFFFFFFFFFFFFFFFFFFFF AND DUP2 MSTORE PUSH1 0x20 ADD SWAP1 DUP2 MSTORE PUSH1 0x20 ADD PUSH1 0x0 KECCAK256 PUSH1 0x14 ADD PUSH1 0x5 ADD PUSH1 0x0 SWAP1 SLOAD SWAP1 PUSH2 0x100 EXP SWAP1 DIV PUSH1 0xFF AND JUMPDEST DUP1 ISZERO PUSH2 0x42B3 JUMPI POP PUSH1 0x2 PUSH1 0x0 DUP4 PUSH20 0xFFFFFFFFFFFFFFFFFFFFFFFFFFFFFFFFFFFFFFFF AND PUSH20 0xFFFFFFFFFFFFFFFFFFFFFFFFFFFFFFFFFFFFFFFF AND DUP2 MSTORE PUSH1 0x20 ADD SWAP1 DUP2 MSTORE PUSH1 0x20 ADD PUSH1 0x0 KECCAK256 PUSH1 0x1A ADD PUSH1 0x6 ADD PUSH1 0x0 SWAP1 SLOAD SWAP1 PUSH2 0x100 EXP SWAP1 DIV PUSH1 0xFF AND JUMPDEST DUP1 ISZERO PUSH2 0x430E JUMPI POP PUSH1 0x2 PUSH1 0x0 DUP4 PUSH20 0xFFFFFFFFFFFFFFFFFFFFFFFFFFFFFFFFFFFFFFFF AND PUSH20 0xFFFFFFFFFFFFFFFFFFFFFFFFFFFFFFFFFFFFFFFF AND DUP2 MSTORE PUSH1 0x20 ADD SWAP1 DUP2 MSTORE PUSH1 0x20 ADD PUSH1 0x0 KECCAK256 PUSH1 0x4 ADD PUSH1 0x4 ADD PUSH1 0x0 SWAP1 SLOAD SWAP1 PUSH2 0x100 EXP SWAP1 DIV PUSH1 0xFF AND JUMPDEST ISZERO PUSH2 0x431C JUMPI PUSH1 0x1 SWAP1 POP PUSH2 0x4321 JUMP JUMPDEST PUSH1 0x0 SWAP1 POP JUMPDEST SWAP2 SWAP1 POP JUMP JUMPDEST DUP3 DUP1 SLOAD PUSH2 0x4332 SWAP1 PUSH2 0x5D2E JUMP JUMPDEST SWAP1 PUSH1 0x0 MSTORE PUSH1 0x20 PUSH1 0x0 KECCAK256 SWAP1 PUSH1 0x1F ADD PUSH1 0x20 SWAP1 DIV DUP2 ADD SWAP3 DUP3 PUSH2 0x4354 JUMPI PUSH1 0x0 DUP6 SSTORE PUSH2 0x439B JUMP JUMPDEST DUP3 PUSH1 0x1F LT PUSH2 0x436D JUMPI DUP1 MLOAD PUSH1 0xFF NOT AND DUP4 DUP1 ADD OR DUP6 SSTORE PUSH2 0x439B JUMP JUMPDEST DUP3 DUP1 ADD PUSH1 0x1 ADD DUP6 SSTORE DUP3 ISZERO PUSH2 0x439B JUMPI SWAP2 DUP3 ADD JUMPDEST DUP3 DUP2 GT ISZERO PUSH2 0x439A JUMPI DUP3 MLOAD DUP3 SSTORE SWAP2 PUSH1 0x20 ADD SWAP2 SWAP1 PUSH1 0x1 ADD SWAP1 PUSH2 0x437F JUMP JUMPDEST JUMPDEST POP SWAP1 POP PUSH2 0x43A8 SWAP2 SWAP1 PUSH2 0x44B5 JUMP JUMPDEST POP SWAP1 JUMP JUMPDEST PUSH1 0x40 MLOAD DUP1 PUSH2 0x120 ADD PUSH1 0x40 MSTORE DUP1 PUSH1 0x60 DUP2 MSTORE PUSH1 0x20 ADD PUSH1 0x0 PUSH20 0xFFFFFFFFFFFFFFFFFFFFFFFFFFFFFFFFFFFFFFFF AND DUP2 MSTORE PUSH1 0x20 ADD PUSH1 0x60 DUP2 MSTORE PUSH1 0x20 ADD PUSH1 0x0 DUP2 MSTORE PUSH1 0x20 ADD PUSH2 0x43F2 PUSH2 0x44D2 JUMP JUMPDEST DUP2 MSTORE PUSH1 0x20 ADD PUSH2 0x43FF PUSH2 0x4503 JUMP JUMPDEST DUP2 MSTORE PUSH1 0x20 ADD PUSH2 0x440C PUSH2 0x455F JUMP JUMPDEST DUP2 MSTORE PUSH1 0x20 ADD PUSH2 0x4419 PUSH2 0x4597 JUMP JUMPDEST DUP2 MSTORE PUSH1 0x20 ADD PUSH1 0x0 ISZERO ISZERO DUP2 MSTORE POP SWAP1 JUMP JUMPDEST DUP3 DUP1 SLOAD PUSH2 0x4434 SWAP1 PUSH2 0x5D2E JUMP JUMPDEST SWAP1 PUSH1 0x0 MSTORE PUSH1 0x20 PUSH1 0x0 KECCAK256 SWAP1 PUSH1 0x1F ADD PUSH1 0x20 SWAP1 DIV DUP2 ADD SWAP3 DUP3 PUSH2 0x4456 JUMPI PUSH1 0x0 DUP6 SSTORE PUSH2 0x44A4 JUMP JUMPDEST DUP3 PUSH1 0x1F LT PUSH2 0x4467 JUMPI DUP1 SLOAD DUP6 SSTORE PUSH2 0x44A4 JUMP JUMPDEST DUP3 DUP1 ADD PUSH1 0x1 ADD DUP6 SSTORE DUP3 ISZERO PUSH2 0x44A4 JUMPI PUSH1 0x0 MSTORE PUSH1 0x20 PUSH1 0x0 KECCAK256 SWAP2 PUSH1 0x1F ADD PUSH1 0x20 SWAP1 DIV DUP3 ADD JUMPDEST DUP3 DUP2 GT ISZERO PUSH2 0x44A3 JUMPI DUP3 SLOAD DUP3 SSTORE SWAP2 PUSH1 0x1 ADD SWAP2 SWAP1 PUSH1 0x1 ADD SWAP1 PUSH2 0x4488 JUMP JUMPDEST JUMPDEST POP SWAP1 POP PUSH2 0x44B1 SWAP2 SWAP1 PUSH2 0x44B5 JUMP JUMPDEST POP SWAP1 JUMP JUMPDEST JUMPDEST DUP1 DUP3 GT ISZERO PUSH2 0x44CE JUMPI PUSH1 0x0 DUP2 PUSH1 0x0 SWAP1 SSTORE POP PUSH1 0x1 ADD PUSH2 0x44B6 JUMP JUMPDEST POP SWAP1 JUMP JUMPDEST PUSH1 0x40 MLOAD DUP1 PUSH1 0xA0 ADD PUSH1 0x40 MSTORE DUP1 PUSH1 0x60 DUP2 MSTORE PUSH1 0x20 ADD PUSH1 0x60 DUP2 MSTORE PUSH1 0x20 ADD PUSH1 0x60 DUP2 MSTORE PUSH1 0x20 ADD PUSH1 0x60 DUP2 MSTORE PUSH1 0x20 ADD PUSH1 0x0 ISZERO ISZERO DUP2 MSTORE POP SWAP1 JUMP JUMPDEST PUSH1 0x40 MLOAD DUP1 PUSH2 0x160 ADD PUSH1 0x40 MSTORE DUP1 PUSH1 0x60 DUP2 MSTORE PUSH1 0x20 ADD PUSH1 0x60 DUP2 MSTORE PUSH1 0x20 ADD PUSH1 0x60 DUP2 MSTORE PUSH1 0x20 ADD PUSH1 0x60 DUP2 MSTORE PUSH1 0x20 ADD PUSH1 0x60 DUP2 MSTORE PUSH1 0x20 ADD PUSH1 0x60 DUP2 MSTORE PUSH1 0x20 ADD PUSH1 0x60 DUP2 MSTORE PUSH1 0x20 ADD PUSH1 0x60 DUP2 MSTORE PUSH1 0x20 ADD PUSH1 0x60 DUP2 MSTORE PUSH1 0x20 ADD PUSH1 0x60 DUP2 MSTORE PUSH1 0x20 ADD PUSH1 0x0 ISZERO ISZERO DUP2 MSTORE POP SWAP1 JUMP JUMPDEST PUSH1 0x40 MLOAD DUP1 PUSH1 0xC0 ADD PUSH1 0x40 MSTORE DUP1 PUSH1 0x60 DUP2 MSTORE PUSH1 0x20 ADD PUSH1 0x60 DUP2 MSTORE PUSH1 0x20 ADD PUSH1 0x60 DUP2 MSTORE PUSH1 0x20 ADD PUSH1 0x60 DUP2 MSTORE PUSH1 0x20 ADD PUSH1 0x60 DUP2 MSTORE PUSH1 0x20 ADD PUSH1 0x0 ISZERO ISZERO DUP2 MSTORE POP SWAP1 JUMP JUMPDEST PUSH1 0x40 MLOAD DUP1 PUSH1 0xE0 ADD PUSH1 0x40 MSTORE DUP1 PUSH1 0x60 DUP2 MSTORE PUSH1 0x20 ADD PUSH1 0x0 DUP2 MSTORE PUSH1 0x20 ADD PUSH1 0x0 DUP2 MSTORE PUSH1 0x20 ADD PUSH1 0x60 DUP2 MSTORE PUSH1 0x20 ADD PUSH1 0x0 DUP2 MSTORE PUSH1 0x20 ADD PUSH1 0x0 DUP2 MSTORE PUSH1 0x20 ADD PUSH1 0x0 ISZERO ISZERO DUP2 MSTORE POP SWAP1 JUMP JUMPDEST PUSH1 0x0 PUSH1 0x40 MLOAD SWAP1 POP SWAP1 JUMP JUMPDEST PUSH1 0x0 DUP1 REVERT JUMPDEST PUSH1 0x0 DUP1 REVERT JUMPDEST PUSH1 0x0 DUP1 REVERT JUMPDEST PUSH1 0x0 PUSH1 0x1F NOT PUSH1 0x1F DUP4 ADD AND SWAP1 POP SWAP2 SWAP1 POP JUMP JUMPDEST PUSH32 0x4E487B7100000000000000000000000000000000000000000000000000000000 PUSH1 0x0 MSTORE PUSH1 0x41 PUSH1 0x4 MSTORE PUSH1 0x24 PUSH1 0x0 REVERT JUMPDEST PUSH2 0x4638 DUP3 PUSH2 0x45EF JUMP JUMPDEST DUP2 ADD DUP2 DUP2 LT PUSH8 0xFFFFFFFFFFFFFFFF DUP3 GT OR ISZERO PUSH2 0x4657 JUMPI PUSH2 0x4656 PUSH2 0x4600 JUMP JUMPDEST JUMPDEST DUP1 PUSH1 0x40 MSTORE POP POP POP JUMP JUMPDEST PUSH1 0x0 PUSH2 0x466A PUSH2 0x45D6 JUMP JUMPDEST SWAP1 POP PUSH2 0x4676 DUP3 DUP3 PUSH2 0x462F JUMP JUMPDEST SWAP2 SWAP1 POP JUMP JUMPDEST PUSH1 0x0 DUP1 REVERT JUMPDEST PUSH1 0x0 DUP1 REVERT JUMPDEST PUSH1 0x0 DUP1 REVERT JUMPDEST PUSH1 0x0 PUSH8 0xFFFFFFFFFFFFFFFF DUP3 GT ISZERO PUSH2 0x46A5 JUMPI PUSH2 0x46A4 PUSH2 0x4600 JUMP JUMPDEST JUMPDEST PUSH2 0x46AE DUP3 PUSH2 0x45EF JUMP JUMPDEST SWAP1 POP PUSH1 0x20 DUP2 ADD SWAP1 POP SWAP2 SWAP1 POP JUMP JUMPDEST DUP3 DUP2 DUP4 CALLDATACOPY PUSH1 0x0 DUP4 DUP4 ADD MSTORE POP POP POP JUMP JUMPDEST PUSH1 0x0 PUSH2 0x46DD PUSH2 0x46D8 DUP5 PUSH2 0x468A JUMP JUMPDEST PUSH2 0x4660 JUMP JUMPDEST SWAP1 POP DUP3 DUP2 MSTORE PUSH1 0x20 DUP2 ADD DUP5 DUP5 DUP5 ADD GT ISZERO PUSH2 0x46F9 JUMPI PUSH2 0x46F8 PUSH2 0x4685 JUMP JUMPDEST JUMPDEST PUSH2 0x4704 DUP5 DUP3 DUP6 PUSH2 0x46BB JUMP JUMPDEST POP SWAP4 SWAP3 POP POP POP JUMP JUMPDEST PUSH1 0x0 DUP3 PUSH1 0x1F DUP4 ADD SLT PUSH2 0x4721 JUMPI PUSH2 0x4720 PUSH2 0x4680 JUMP JUMPDEST JUMPDEST DUP2 CALLDATALOAD PUSH2 0x4731 DUP5 DUP3 PUSH1 0x20 DUP7 ADD PUSH2 0x46CA JUMP JUMPDEST SWAP2 POP POP SWAP3 SWAP2 POP POP JUMP JUMPDEST PUSH1 0x0 PUSH20 0xFFFFFFFFFFFFFFFFFFFFFFFFFFFFFFFFFFFFFFFF DUP3 AND SWAP1 POP SWAP2 SWAP1 POP JUMP JUMPDEST PUSH1 0x0 PUSH2 0x4765 DUP3 PUSH2 0x473A JUMP JUMPDEST SWAP1 POP SWAP2 SWAP1 POP JUMP JUMPDEST PUSH2 0x4775 DUP2 PUSH2 0x475A JUMP JUMPDEST DUP2 EQ PUSH2 0x4780 JUMPI PUSH1 0x0 DUP1 REVERT JUMPDEST POP JUMP JUMPDEST PUSH1 0x0 DUP2 CALLDATALOAD SWAP1 POP PUSH2 0x4792 DUP2 PUSH2 0x476C JUMP JUMPDEST SWAP3 SWAP2 POP POP JUMP JUMPDEST PUSH1 0x0 DUP2 SWAP1 POP SWAP2 SWAP1 POP JUMP JUMPDEST PUSH2 0x47AB DUP2 PUSH2 0x4798 JUMP JUMPDEST DUP2 EQ PUSH2 0x47B6 JUMPI PUSH1 0x0 DUP1 REVERT JUMPDEST POP JUMP JUMPDEST PUSH1 0x0 DUP2 CALLDATALOAD SWAP1 POP PUSH2 0x47C8 DUP2 PUSH2 0x47A2 JUMP JUMPDEST SWAP3 SWAP2 POP POP JUMP JUMPDEST PUSH1 0x0 DUP2 ISZERO ISZERO SWAP1 POP SWAP2 SWAP1 POP JUMP JUMPDEST PUSH2 0x47E3 DUP2 PUSH2 0x47CE JUMP JUMPDEST DUP2 EQ PUSH2 0x47EE JUMPI PUSH1 0x0 DUP1 REVERT JUMPDEST POP JUMP JUMPDEST PUSH1 0x0 DUP2 CALLDATALOAD SWAP1 POP PUSH2 0x4800 DUP2 PUSH2 0x47DA JUMP JUMPDEST SWAP3 SWAP2 POP POP JUMP JUMPDEST PUSH1 0x0 PUSH1 0xA0 DUP3 DUP5 SUB SLT ISZERO PUSH2 0x481C JUMPI PUSH2 0x481B PUSH2 0x45EA JUMP JUMPDEST JUMPDEST PUSH2 0x4826 PUSH1 0xA0 PUSH2 0x4660 JUMP JUMPDEST SWAP1 POP PUSH1 0x0 DUP3 ADD CALLDATALOAD PUSH8 0xFFFFFFFFFFFFFFFF DUP2 GT ISZERO PUSH2 0x4846 JUMPI PUSH2 0x4845 PUSH2 0x467B JUMP JUMPDEST JUMPDEST PUSH2 0x4852 DUP5 DUP3 DUP6 ADD PUSH2 0x470C JUMP JUMPDEST PUSH1 0x0 DUP4 ADD MSTORE POP PUSH1 0x20 DUP3 ADD CALLDATALOAD PUSH8 0xFFFFFFFFFFFFFFFF DUP2 GT ISZERO PUSH2 0x4876 JUMPI PUSH2 0x4875 PUSH2 0x467B JUMP JUMPDEST JUMPDEST PUSH2 0x4882 DUP5 DUP3 DUP6 ADD PUSH2 0x470C JUMP JUMPDEST PUSH1 0x20 DUP4 ADD MSTORE POP PUSH1 0x40 DUP3 ADD CALLDATALOAD PUSH8 0xFFFFFFFFFFFFFFFF DUP2 GT ISZERO PUSH2 0x48A6 JUMPI PUSH2 0x48A5 PUSH2 0x467B JUMP JUMPDEST JUMPDEST PUSH2 0x48B2 DUP5 DUP3 DUP6 ADD PUSH2 0x470C JUMP JUMPDEST PUSH1 0x40 DUP4 ADD MSTORE POP PUSH1 0x60 DUP3 ADD CALLDATALOAD PUSH8 0xFFFFFFFFFFFFFFFF DUP2 GT ISZERO PUSH2 0x48D6 JUMPI PUSH2 0x48D5 PUSH2 0x467B JUMP JUMPDEST JUMPDEST PUSH2 0x48E2 DUP5 DUP3 DUP6 ADD PUSH2 0x470C JUMP JUMPDEST PUSH1 0x60 DUP4 ADD MSTORE POP PUSH1 0x80 PUSH2 0x48F6 DUP5 DUP3 DUP6 ADD PUSH2 0x47F1 JUMP JUMPDEST PUSH1 0x80 DUP4 ADD MSTORE POP SWAP3 SWAP2 POP POP JUMP JUMPDEST PUSH1 0x0 PUSH2 0x160 DUP3 DUP5 SUB SLT ISZERO PUSH2 0x4919 JUMPI PUSH2 0x4918 PUSH2 0x45EA JUMP JUMPDEST JUMPDEST PUSH2 0x4924 PUSH2 0x160 PUSH2 0x4660 JUMP JUMPDEST SWAP1 POP PUSH1 0x0 DUP3 ADD CALLDATALOAD PUSH8 0xFFFFFFFFFFFFFFFF DUP2 GT ISZERO PUSH2 0x4944 JUMPI PUSH2 0x4943 PUSH2 0x467B JUMP JUMPDEST JUMPDEST PUSH2 0x4950 DUP5 DUP3 DUP6 ADD PUSH2 0x470C JUMP JUMPDEST PUSH1 0x0 DUP4 ADD MSTORE POP PUSH1 0x20 DUP3 ADD CALLDATALOAD PUSH8 0xFFFFFFFFFFFFFFFF DUP2 GT ISZERO PUSH2 0x4974 JUMPI PUSH2 0x4973 PUSH2 0x467B JUMP JUMPDEST JUMPDEST PUSH2 0x4980 DUP5 DUP3 DUP6 ADD PUSH2 0x470C JUMP JUMPDEST PUSH1 0x20 DUP4 ADD MSTORE POP PUSH1 0x40 DUP3 ADD CALLDATALOAD PUSH8 0xFFFFFFFFFFFFFFFF DUP2 GT ISZERO PUSH2 0x49A4 JUMPI PUSH2 0x49A3 PUSH2 0x467B JUMP JUMPDEST JUMPDEST PUSH2 0x49B0 DUP5 DUP3 DUP6 ADD PUSH2 0x470C JUMP JUMPDEST PUSH1 0x40 DUP4 ADD MSTORE POP PUSH1 0x60 DUP3 ADD CALLDATALOAD PUSH8 0xFFFFFFFFFFFFFFFF DUP2 GT ISZERO PUSH2 0x49D4 JUMPI PUSH2 0x49D3 PUSH2 0x467B JUMP JUMPDEST JUMPDEST PUSH2 0x49E0 DUP5 DUP3 DUP6 ADD PUSH2 0x470C JUMP JUMPDEST PUSH1 0x60 DUP4 ADD MSTORE POP PUSH1 0x80 DUP3 ADD CALLDATALOAD PUSH8 0xFFFFFFFFFFFFFFFF DUP2 GT ISZERO PUSH2 0x4A04 JUMPI PUSH2 0x4A03 PUSH2 0x467B JUMP JUMPDEST JUMPDEST PUSH2 0x4A10 DUP5 DUP3 DUP6 ADD PUSH2 0x470C JUMP JUMPDEST PUSH1 0x80 DUP4 ADD MSTORE POP PUSH1 0xA0 DUP3 ADD CALLDATALOAD PUSH8 0xFFFFFFFFFFFFFFFF DUP2 GT ISZERO PUSH2 0x4A34 JUMPI PUSH2 0x4A33 PUSH2 0x467B JUMP JUMPDEST JUMPDEST PUSH2 0x4A40 DUP5 DUP3 DUP6 ADD PUSH2 0x470C JUMP JUMPDEST PUSH1 0xA0 DUP4 ADD MSTORE POP PUSH1 0xC0 DUP3 ADD CALLDATALOAD PUSH8 0xFFFFFFFFFFFFFFFF DUP2 GT ISZERO PUSH2 0x4A64 JUMPI PUSH2 0x4A63 PUSH2 0x467B JUMP JUMPDEST JUMPDEST PUSH2 0x4A70 DUP5 DUP3 DUP6 ADD PUSH2 0x470C JUMP JUMPDEST PUSH1 0xC0 DUP4 ADD MSTORE POP PUSH1 0xE0 DUP3 ADD CALLDATALOAD PUSH8 0xFFFFFFFFFFFFFFFF DUP2 GT ISZERO PUSH2 0x4A94 JUMPI PUSH2 0x4A93 PUSH2 0x467B JUMP JUMPDEST JUMPDEST PUSH2 0x4AA0 DUP5 DUP3 DUP6 ADD PUSH2 0x470C JUMP JUMPDEST PUSH1 0xE0 DUP4 ADD MSTORE POP PUSH2 0x100 DUP3 ADD CALLDATALOAD PUSH8 0xFFFFFFFFFFFFFFFF DUP2 GT ISZERO PUSH2 0x4AC5 JUMPI PUSH2 0x4AC4 PUSH2 0x467B JUMP JUMPDEST JUMPDEST PUSH2 0x4AD1 DUP5 DUP3 DUP6 ADD PUSH2 0x470C JUMP JUMPDEST PUSH2 0x100 DUP4 ADD MSTORE POP PUSH2 0x120 DUP3 ADD CALLDATALOAD PUSH8 0xFFFFFFFFFFFFFFFF DUP2 GT ISZERO PUSH2 0x4AF7 JUMPI PUSH2 0x4AF6 PUSH2 0x467B JUMP JUMPDEST JUMPDEST PUSH2 0x4B03 DUP5 DUP3 DUP6 ADD PUSH2 0x470C JUMP JUMPDEST PUSH2 0x120 DUP4 ADD MSTORE POP PUSH2 0x140 PUSH2 0x4B19 DUP5 DUP3 DUP6 ADD PUSH2 0x47F1 JUMP JUMPDEST PUSH2 0x140 DUP4 ADD MSTORE POP SWAP3 SWAP2 POP POP JUMP JUMPDEST PUSH1 0x0 PUSH1 0xC0 DUP3 DUP5 SUB SLT ISZERO PUSH2 0x4B3C JUMPI PUSH2 0x4B3B PUSH2 0x45EA JUMP JUMPDEST JUMPDEST PUSH2 0x4B46 PUSH1 0xC0 PUSH2 0x4660 JUMP JUMPDEST SWAP1 POP PUSH1 0x0 DUP3 ADD CALLDATALOAD PUSH8 0xFFFFFFFFFFFFFFFF DUP2 GT ISZERO PUSH2 0x4B66 JUMPI PUSH2 0x4B65 PUSH2 0x467B JUMP JUMPDEST JUMPDEST PUSH2 0x4B72 DUP5 DUP3 DUP6 ADD PUSH2 0x470C JUMP JUMPDEST PUSH1 0x0 DUP4 ADD MSTORE POP PUSH1 0x20 DUP3 ADD CALLDATALOAD PUSH8 0xFFFFFFFFFFFFFFFF DUP2 GT ISZERO PUSH2 0x4B96 JUMPI PUSH2 0x4B95 PUSH2 0x467B JUMP JUMPDEST JUMPDEST PUSH2 0x4BA2 DUP5 DUP3 DUP6 ADD PUSH2 0x470C JUMP JUMPDEST PUSH1 0x20 DUP4 ADD MSTORE POP PUSH1 0x40 DUP3 ADD CALLDATALOAD PUSH8 0xFFFFFFFFFFFFFFFF DUP2 GT ISZERO PUSH2 0x4BC6 JUMPI PUSH2 0x4BC5 PUSH2 0x467B JUMP JUMPDEST JUMPDEST PUSH2 0x4BD2 DUP5 DUP3 DUP6 ADD PUSH2 0x470C JUMP JUMPDEST PUSH1 0x40 DUP4 ADD MSTORE POP PUSH1 0x60 DUP3 ADD CALLDATALOAD PUSH8 0xFFFFFFFFFFFFFFFF DUP2 GT ISZERO PUSH2 0x4BF6 JUMPI PUSH2 0x4BF5 PUSH2 0x467B JUMP JUMPDEST JUMPDEST PUSH2 0x4C02 DUP5 DUP3 DUP6 ADD PUSH2 0x470C JUMP JUMPDEST PUSH1 0x60 DUP4 ADD MSTORE POP PUSH1 0x80 DUP3 ADD CALLDATALOAD PUSH8 0xFFFFFFFFFFFFFFFF DUP2 GT ISZERO PUSH2 0x4C26 JUMPI PUSH2 0x4C25 PUSH2 0x467B JUMP JUMPDEST JUMPDEST PUSH2 0x4C32 DUP5 DUP3 DUP6 ADD PUSH2 0x470C JUMP JUMPDEST PUSH1 0x80 DUP4 ADD MSTORE POP PUSH1 0xA0 PUSH2 0x4C46 DUP5 DUP3 DUP6 ADD PUSH2 0x47F1 JUMP JUMPDEST PUSH1 0xA0 DUP4 ADD MSTORE POP SWAP3 SWAP2 POP POP JUMP JUMPDEST PUSH1 0x0 DUP2 SWAP1 POP SWAP2 SWAP1 POP JUMP JUMPDEST PUSH2 0x4C65 DUP2 PUSH2 0x4C52 JUMP JUMPDEST DUP2 EQ PUSH2 0x4C70 JUMPI PUSH1 0x0 DUP1 REVERT JUMPDEST POP JUMP JUMPDEST PUSH1 0x0 DUP2 CALLDATALOAD SWAP1 POP PUSH2 0x4C82 DUP2 PUSH2 0x4C5C JUMP JUMPDEST SWAP3 SWAP2 POP POP JUMP JUMPDEST PUSH1 0x0 PUSH1 0xE0 DUP3 DUP5 SUB SLT ISZERO PUSH2 0x4C9E JUMPI PUSH2 0x4C9D PUSH2 0x45EA JUMP JUMPDEST JUMPDEST PUSH2 0x4CA8 PUSH1 0xE0 PUSH2 0x4660 JUMP JUMPDEST SWAP1 POP PUSH1 0x0 DUP3 ADD CALLDATALOAD PUSH8 0xFFFFFFFFFFFFFFFF DUP2 GT ISZERO PUSH2 0x4CC8 JUMPI PUSH2 0x4CC7 PUSH2 0x467B JUMP JUMPDEST JUMPDEST PUSH2 0x4CD4 DUP5 DUP3 DUP6 ADD PUSH2 0x470C JUMP JUMPDEST PUSH1 0x0 DUP4 ADD MSTORE POP PUSH1 0x20 PUSH2 0x4CE8 DUP5 DUP3 DUP6 ADD PUSH2 0x4C73 JUMP JUMPDEST PUSH1 0x20 DUP4 ADD MSTORE POP PUSH1 0x40 PUSH2 0x4CFC DUP5 DUP3 DUP6 ADD PUSH2 0x4C73 JUMP JUMPDEST PUSH1 0x40 DUP4 ADD MSTORE POP PUSH1 0x60 DUP3 ADD CALLDATALOAD PUSH8 0xFFFFFFFFFFFFFFFF DUP2 GT ISZERO PUSH2 0x4D20 JUMPI PUSH2 0x4D1F PUSH2 0x467B JUMP JUMPDEST JUMPDEST PUSH2 0x4D2C DUP5 DUP3 DUP6 ADD PUSH2 0x470C JUMP JUMPDEST PUSH1 0x60 DUP4 ADD MSTORE POP PUSH1 0x80 PUSH2 0x4D40 DUP5 DUP3 DUP6 ADD PUSH2 0x4C73 JUMP JUMPDEST PUSH1 0x80 DUP4 ADD MSTORE POP PUSH1 0xA0 PUSH2 0x4D54 DUP5 DUP3 DUP6 ADD PUSH2 0x4C73 JUMP JUMPDEST PUSH1 0xA0 DUP4 ADD MSTORE POP PUSH1 0xC0 PUSH2 0x4D68 DUP5 DUP3 DUP6 ADD PUSH2 0x47F1 JUMP JUMPDEST PUSH1 0xC0 DUP4 ADD MSTORE POP SWAP3 SWAP2 POP POP JUMP JUMPDEST PUSH1 0x0 PUSH2 0x120 DUP3 DUP5 SUB SLT ISZERO PUSH2 0x4D8B JUMPI PUSH2 0x4D8A PUSH2 0x45EA JUMP JUMPDEST JUMPDEST PUSH2 0x4D96 PUSH2 0x120 PUSH2 0x4660 JUMP JUMPDEST SWAP1 POP PUSH1 0x0 DUP3 ADD CALLDATALOAD PUSH8 0xFFFFFFFFFFFFFFFF DUP2 GT ISZERO PUSH2 0x4DB6 JUMPI PUSH2 0x4DB5 PUSH2 0x467B JUMP JUMPDEST JUMPDEST PUSH2 0x4DC2 DUP5 DUP3 DUP6 ADD PUSH2 0x470C JUMP JUMPDEST PUSH1 0x0 DUP4 ADD MSTORE POP PUSH1 0x20 PUSH2 0x4DD6 DUP5 DUP3 DUP6 ADD PUSH2 0x4783 JUMP JUMPDEST PUSH1 0x20 DUP4 ADD MSTORE POP PUSH1 0x40 DUP3 ADD CALLDATALOAD PUSH8 0xFFFFFFFFFFFFFFFF DUP2 GT ISZERO PUSH2 0x4DFA JUMPI PUSH2 0x4DF9 PUSH2 0x467B JUMP JUMPDEST JUMPDEST PUSH2 0x4E06 DUP5 DUP3 DUP6 ADD PUSH2 0x470C JUMP JUMPDEST PUSH1 0x40 DUP4 ADD MSTORE POP PUSH1 0x60 PUSH2 0x4E1A DUP5 DUP3 DUP6 ADD PUSH2 0x47B9 JUMP JUMPDEST PUSH1 0x60 DUP4 ADD MSTORE POP PUSH1 0x80 DUP3 ADD CALLDATALOAD PUSH8 0xFFFFFFFFFFFFFFFF DUP2 GT ISZERO PUSH2 0x4E3E JUMPI PUSH2 0x4E3D PUSH2 0x467B JUMP JUMPDEST JUMPDEST PUSH2 0x4E4A DUP5 DUP3 DUP6 ADD PUSH2 0x4806 JUMP JUMPDEST PUSH1 0x80 DUP4 ADD MSTORE POP PUSH1 0xA0 DUP3 ADD CALLDATALOAD PUSH8 0xFFFFFFFFFFFFFFFF DUP2 GT ISZERO PUSH2 0x4E6E JUMPI PUSH2 0x4E6D PUSH2 0x467B JUMP JUMPDEST JUMPDEST PUSH2 0x4E7A DUP5 DUP3 DUP6 ADD PUSH2 0x4902 JUMP JUMPDEST PUSH1 0xA0 DUP4 ADD MSTORE POP PUSH1 0xC0 DUP3 ADD CALLDATALOAD PUSH8 0xFFFFFFFFFFFFFFFF DUP2 GT ISZERO PUSH2 0x4E9E JUMPI PUSH2 0x4E9D PUSH2 0x467B JUMP JUMPDEST JUMPDEST PUSH2 0x4EAA DUP5 DUP3 DUP6 ADD PUSH2 0x4B26 JUMP JUMPDEST PUSH1 0xC0 DUP4 ADD MSTORE POP PUSH1 0xE0 DUP3 ADD CALLDATALOAD PUSH8 0xFFFFFFFFFFFFFFFF DUP2 GT ISZERO PUSH2 0x4ECE JUMPI PUSH2 0x4ECD PUSH2 0x467B JUMP JUMPDEST JUMPDEST PUSH2 0x4EDA DUP5 DUP3 DUP6 ADD PUSH2 0x4C88 JUMP JUMPDEST PUSH1 0xE0 DUP4 ADD MSTORE POP PUSH2 0x100 PUSH2 0x4EEF DUP5 DUP3 DUP6 ADD PUSH2 0x47F1 JUMP JUMPDEST PUSH2 0x100 DUP4 ADD MSTORE POP SWAP3 SWAP2 POP POP JUMP JUMPDEST PUSH1 0x0 DUP1 PUSH1 0x40 DUP4 DUP6 SUB SLT ISZERO PUSH2 0x4F13 JUMPI PUSH2 0x4F12 PUSH2 0x45E0 JUMP JUMPDEST JUMPDEST PUSH1 0x0 DUP4 ADD CALLDATALOAD PUSH8 0xFFFFFFFFFFFFFFFF DUP2 GT ISZERO PUSH2 0x4F31 JUMPI PUSH2 0x4F30 PUSH2 0x45E5 JUMP JUMPDEST JUMPDEST PUSH2 0x4F3D DUP6 DUP3 DUP7 ADD PUSH2 0x4D74 JUMP JUMPDEST SWAP3 POP POP PUSH1 0x20 PUSH2 0x4F4E DUP6 DUP3 DUP7 ADD PUSH2 0x4783 JUMP JUMPDEST SWAP2 POP POP SWAP3 POP SWAP3 SWAP1 POP JUMP JUMPDEST PUSH1 0x0 PUSH1 0x20 DUP3 DUP5 SUB SLT ISZERO PUSH2 0x4F6E JUMPI PUSH2 0x4F6D PUSH2 0x45E0 JUMP JUMPDEST JUMPDEST PUSH1 0x0 PUSH2 0x4F7C DUP5 DUP3 DUP6 ADD PUSH2 0x4783 JUMP JUMPDEST SWAP2 POP POP SWAP3 SWAP2 POP POP JUMP JUMPDEST PUSH1 0x0 DUP2 MLOAD SWAP1 POP SWAP2 SWAP1 POP JUMP JUMPDEST PUSH1 0x0 DUP3 DUP3 MSTORE PUSH1 0x20 DUP3 ADD SWAP1 POP SWAP3 SWAP2 POP POP JUMP JUMPDEST PUSH1 0x0 DUP2 SWAP1 POP PUSH1 0x20 DUP3 ADD SWAP1 POP SWAP2 SWAP1 POP JUMP JUMPDEST PUSH1 0x0 DUP2 MLOAD SWAP1 POP SWAP2 SWAP1 POP JUMP JUMPDEST PUSH1 0x0 DUP3 DUP3 MSTORE PUSH1 0x20 DUP3 ADD SWAP1 POP SWAP3 SWAP2 POP POP JUMP JUMPDEST PUSH1 0x0 JUMPDEST DUP4 DUP2 LT ISZERO PUSH2 0x4FEB JUMPI DUP1 DUP3 ADD MLOAD DUP2 DUP5 ADD MSTORE PUSH1 0x20 DUP2 ADD SWAP1 POP PUSH2 0x4FD0 JUMP JUMPDEST DUP4 DUP2 GT ISZERO PUSH2 0x4FFA JUMPI PUSH1 0x0 DUP5 DUP5 ADD MSTORE JUMPDEST POP POP POP POP JUMP JUMPDEST PUSH1 0x0 PUSH2 0x500B DUP3 PUSH2 0x4FB1 JUMP JUMPDEST PUSH2 0x5015 DUP2 DUP6 PUSH2 0x4FBC JUMP JUMPDEST SWAP4 POP PUSH2 0x5025 DUP2 DUP6 PUSH1 0x20 DUP7 ADD PUSH2 0x4FCD JUMP JUMPDEST PUSH2 0x502E DUP2 PUSH2 0x45EF JUMP JUMPDEST DUP5 ADD SWAP2 POP POP SWAP3 SWAP2 POP POP JUMP JUMPDEST PUSH2 0x5042 DUP2 PUSH2 0x475A JUMP JUMPDEST DUP3 MSTORE POP POP JUMP JUMPDEST PUSH2 0x5051 DUP2 PUSH2 0x4798 JUMP JUMPDEST DUP3 MSTORE POP POP JUMP JUMPDEST PUSH2 0x5060 DUP2 PUSH2 0x47CE JUMP JUMPDEST DUP3 MSTORE POP POP JUMP JUMPDEST PUSH1 0x0 PUSH1 0xA0 DUP4 ADD PUSH1 0x0 DUP4 ADD MLOAD DUP5 DUP3 SUB PUSH1 0x0 DUP7 ADD MSTORE PUSH2 0x5083 DUP3 DUP3 PUSH2 0x5000 JUMP JUMPDEST SWAP2 POP POP PUSH1 0x20 DUP4 ADD MLOAD DUP5 DUP3 SUB PUSH1 0x20 DUP7 ADD MSTORE PUSH2 0x509D DUP3 DUP3 PUSH2 0x5000 JUMP JUMPDEST SWAP2 POP POP PUSH1 0x40 DUP4 ADD MLOAD DUP5 DUP3 SUB PUSH1 0x40 DUP7 ADD MSTORE PUSH2 0x50B7 DUP3 DUP3 PUSH2 0x5000 JUMP JUMPDEST SWAP2 POP POP PUSH1 0x60 DUP4 ADD MLOAD DUP5 DUP3 SUB PUSH1 0x60 DUP7 ADD MSTORE PUSH2 0x50D1 DUP3 DUP3 PUSH2 0x5000 JUMP JUMPDEST SWAP2 POP POP PUSH1 0x80 DUP4 ADD MLOAD PUSH2 0x50E6 PUSH1 0x80 DUP7 ADD DUP3 PUSH2 0x5057 JUMP JUMPDEST POP DUP1 SWAP2 POP POP SWAP3 SWAP2 POP POP JUMP JUMPDEST PUSH1 0x0 PUSH2 0x160 DUP4 ADD PUSH1 0x0 DUP4 ADD MLOAD DUP5 DUP3 SUB PUSH1 0x0 DUP7 ADD MSTORE PUSH2 0x510F DUP3 DUP3 PUSH2 0x5000 JUMP JUMPDEST SWAP2 POP POP PUSH1 0x20 DUP4 ADD MLOAD DUP5 DUP3 SUB PUSH1 0x20 DUP7 ADD MSTORE PUSH2 0x5129 DUP3 DUP3 PUSH2 0x5000 JUMP JUMPDEST SWAP2 POP POP PUSH1 0x40 DUP4 ADD MLOAD DUP5 DUP3 SUB PUSH1 0x40 DUP7 ADD MSTORE PUSH2 0x5143 DUP3 DUP3 PUSH2 0x5000 JUMP JUMPDEST SWAP2 POP POP PUSH1 0x60 DUP4 ADD MLOAD DUP5 DUP3 SUB PUSH1 0x60 DUP7 ADD MSTORE PUSH2 0x515D DUP3 DUP3 PUSH2 0x5000 JUMP JUMPDEST SWAP2 POP POP PUSH1 0x80 DUP4 ADD MLOAD DUP5 DUP3 SUB PUSH1 0x80 DUP7 ADD MSTORE PUSH2 0x5177 DUP3 DUP3 PUSH2 0x5000 JUMP JUMPDEST SWAP2 POP POP PUSH1 0xA0 DUP4 ADD MLOAD DUP5 DUP3 SUB PUSH1 0xA0 DUP7 ADD MSTORE PUSH2 0x5191 DUP3 DUP3 PUSH2 0x5000 JUMP JUMPDEST SWAP2 POP POP PUSH1 0xC0 DUP4 ADD MLOAD DUP5 DUP3 SUB PUSH1 0xC0 DUP7 ADD MSTORE PUSH2 0x51AB DUP3 DUP3 PUSH2 0x5000 JUMP JUMPDEST SWAP2 POP POP PUSH1 0xE0 DUP4 ADD MLOAD DUP5 DUP3 SUB PUSH1 0xE0 DUP7 ADD MSTORE PUSH2 0x51C5 DUP3 DUP3 PUSH2 0x5000 JUMP JUMPDEST SWAP2 POP POP PUSH2 0x100 DUP4 ADD MLOAD DUP5 DUP3 SUB PUSH2 0x100 DUP7 ADD MSTORE PUSH2 0x51E1 DUP3 DUP3 PUSH2 0x5000 JUMP JUMPDEST SWAP2 POP POP PUSH2 0x120 DUP4 ADD MLOAD DUP5 DUP3 SUB PUSH2 0x120 DUP7 ADD MSTORE PUSH2 0x51FD DUP3 DUP3 PUSH2 0x5000 JUMP JUMPDEST SWAP2 POP POP PUSH2 0x140 DUP4 ADD MLOAD PUSH2 0x5214 PUSH2 0x140 DUP7 ADD DUP3 PUSH2 0x5057 JUMP JUMPDEST POP DUP1 SWAP2 POP POP SWAP3 SWAP2 POP POP JUMP JUMPDEST PUSH1 0x0 PUSH1 0xC0 DUP4 ADD PUSH1 0x0 DUP4 ADD MLOAD DUP5 DUP3 SUB PUSH1 0x0 DUP7 ADD MSTORE PUSH2 0x523C DUP3 DUP3 PUSH2 0x5000 JUMP JUMPDEST SWAP2 POP POP PUSH1 0x20 DUP4 ADD MLOAD DUP5 DUP3 SUB PUSH1 0x20 DUP7 ADD MSTORE PUSH2 0x5256 DUP3 DUP3 PUSH2 0x5000 JUMP JUMPDEST SWAP2 POP POP PUSH1 0x40 DUP4 ADD MLOAD DUP5 DUP3 SUB PUSH1 0x40 DUP7 ADD MSTORE PUSH2 0x5270 DUP3 DUP3 PUSH2 0x5000 JUMP JUMPDEST SWAP2 POP POP PUSH1 0x60 DUP4 ADD MLOAD DUP5 DUP3 SUB PUSH1 0x60 DUP7 ADD MSTORE PUSH2 0x528A DUP3 DUP3 PUSH2 0x5000 JUMP JUMPDEST SWAP2 POP POP PUSH1 0x80 DUP4 ADD MLOAD DUP5 DUP3 SUB PUSH1 0x80 DUP7 ADD MSTORE PUSH2 0x52A4 DUP3 DUP3 PUSH2 0x5000 JUMP JUMPDEST SWAP2 POP POP PUSH1 0xA0 DUP4 ADD MLOAD PUSH2 0x52B9 PUSH1 0xA0 DUP7 ADD DUP3 PUSH2 0x5057 JUMP JUMPDEST POP DUP1 SWAP2 POP POP SWAP3 SWAP2 POP POP JUMP JUMPDEST PUSH2 0x52CD DUP2 PUSH2 0x4C52 JUMP JUMPDEST DUP3 MSTORE POP POP JUMP JUMPDEST PUSH1 0x0 PUSH1 0xE0 DUP4 ADD PUSH1 0x0 DUP4 ADD MLOAD DUP5 DUP3 SUB PUSH1 0x0 DUP7 ADD MSTORE PUSH2 0x52F0 DUP3 DUP3 PUSH2 0x5000 JUMP JUMPDEST SWAP2 POP POP PUSH1 0x20 DUP4 ADD MLOAD PUSH2 0x5305 PUSH1 0x20 DUP7 ADD DUP3 PUSH2 0x52C4 JUMP JUMPDEST POP PUSH1 0x40 DUP4 ADD MLOAD PUSH2 0x5318 PUSH1 0x40 DUP7 ADD DUP3 PUSH2 0x52C4 JUMP JUMPDEST POP PUSH1 0x60 DUP4 ADD MLOAD DUP5 DUP3 SUB PUSH1 0x60 DUP7 ADD MSTORE PUSH2 0x5330 DUP3 DUP3 PUSH2 0x5000 JUMP JUMPDEST SWAP2 POP POP PUSH1 0x80 DUP4 ADD MLOAD PUSH2 0x5345 PUSH1 0x80 DUP7 ADD DUP3 PUSH2 0x52C4 JUMP JUMPDEST POP PUSH1 0xA0 DUP4 ADD MLOAD PUSH2 0x5358 PUSH1 0xA0 DUP7 ADD DUP3 PUSH2 0x52C4 JUMP JUMPDEST POP PUSH1 0xC0 DUP4 ADD MLOAD PUSH2 0x536B PUSH1 0xC0 DUP7 ADD DUP3 PUSH2 0x5057 JUMP JUMPDEST POP DUP1 SWAP2 POP POP SWAP3 SWAP2 POP POP JUMP JUMPDEST PUSH1 0x0 PUSH2 0x120 DUP4 ADD PUSH1 0x0 DUP4 ADD MLOAD DUP5 DUP3 SUB PUSH1 0x0 DUP7 ADD MSTORE PUSH2 0x5394 DUP3 DUP3 PUSH2 0x5000 JUMP JUMPDEST SWAP2 POP POP PUSH1 0x20 DUP4 ADD MLOAD PUSH2 0x53A9 PUSH1 0x20 DUP7 ADD DUP3 PUSH2 0x5039 JUMP JUMPDEST POP PUSH1 0x40 DUP4 ADD MLOAD DUP5 DUP3 SUB PUSH1 0x40 DUP7 ADD MSTORE PUSH2 0x53C1 DUP3 DUP3 PUSH2 0x5000 JUMP JUMPDEST SWAP2 POP POP PUSH1 0x60 DUP4 ADD MLOAD PUSH2 0x53D6 PUSH1 0x60 DUP7 ADD DUP3 PUSH2 0x5048 JUMP JUMPDEST POP PUSH1 0x80 DUP4 ADD MLOAD DUP5 DUP3 SUB PUSH1 0x80 DUP7 ADD MSTORE PUSH2 0x53EE DUP3 DUP3 PUSH2 0x5066 JUMP JUMPDEST SWAP2 POP POP PUSH1 0xA0 DUP4 ADD MLOAD DUP5 DUP3 SUB PUSH1 0xA0 DUP7 ADD MSTORE PUSH2 0x5408 DUP3 DUP3 PUSH2 0x50F1 JUMP JUMPDEST SWAP2 POP POP PUSH1 0xC0 DUP4 ADD MLOAD DUP5 DUP3 SUB PUSH1 0xC0 DUP7 ADD MSTORE PUSH2 0x5422 DUP3 DUP3 PUSH2 0x521F JUMP JUMPDEST SWAP2 POP POP PUSH1 0xE0 DUP4 ADD MLOAD DUP5 DUP3 SUB PUSH1 0xE0 DUP7 ADD MSTORE PUSH2 0x543C DUP3 DUP3 PUSH2 0x52D3 JUMP JUMPDEST SWAP2 POP POP PUSH2 0x100 DUP4 ADD MLOAD PUSH2 0x5453 PUSH2 0x100 DUP7 ADD DUP3 PUSH2 0x5057 JUMP JUMPDEST POP DUP1 SWAP2 POP POP SWAP3 SWAP2 POP POP JUMP JUMPDEST PUSH1 0x0 PUSH2 0x546A DUP4 DUP4 PUSH2 0x5376 JUMP JUMPDEST SWAP1 POP SWAP3 SWAP2 POP POP JUMP JUMPDEST PUSH1 0x0 PUSH1 0x20 DUP3 ADD SWAP1 POP SWAP2 SWAP1 POP JUMP JUMPDEST PUSH1 0x0 PUSH2 0x548A DUP3 PUSH2 0x4F85 JUMP JUMPDEST PUSH2 0x5494 DUP2 DUP6 PUSH2 0x4F90 JUMP JUMPDEST SWAP4 POP DUP4 PUSH1 0x20 DUP3 MUL DUP6 ADD PUSH2 0x54A6 DUP6 PUSH2 0x4FA1 JUMP JUMPDEST DUP1 PUSH1 0x0 JUMPDEST DUP6 DUP2 LT ISZERO PUSH2 0x54E2 JUMPI DUP5 DUP5 SUB DUP10 MSTORE DUP2 MLOAD PUSH2 0x54C3 DUP6 DUP3 PUSH2 0x545E JUMP JUMPDEST SWAP5 POP PUSH2 0x54CE DUP4 PUSH2 0x5472 JUMP JUMPDEST SWAP3 POP PUSH1 0x20 DUP11 ADD SWAP10 POP POP PUSH1 0x1 DUP2 ADD SWAP1 POP PUSH2 0x54AA JUMP JUMPDEST POP DUP3 SWAP8 POP DUP8 SWAP6 POP POP POP POP POP POP SWAP3 SWAP2 POP POP JUMP JUMPDEST PUSH1 0x0 PUSH1 0x20 DUP3 ADD SWAP1 POP DUP2 DUP2 SUB PUSH1 0x0 DUP4 ADD MSTORE PUSH2 0x550E DUP2 DUP5 PUSH2 0x547F JUMP JUMPDEST SWAP1 POP SWAP3 SWAP2 POP POP JUMP JUMPDEST PUSH1 0x0 DUP1 PUSH1 0x0 DUP1 PUSH1 0x0 DUP1 PUSH1 0xC0 DUP8 DUP10 SUB SLT ISZERO PUSH2 0x5533 JUMPI PUSH2 0x5532 PUSH2 0x45E0 JUMP JUMPDEST JUMPDEST PUSH1 0x0 DUP8 ADD CALLDATALOAD PUSH8 0xFFFFFFFFFFFFFFFF DUP2 GT ISZERO PUSH2 0x5551 JUMPI PUSH2 0x5550 PUSH2 0x45E5 JUMP JUMPDEST JUMPDEST PUSH2 0x555D DUP10 DUP3 DUP11 ADD PUSH2 0x470C JUMP JUMPDEST SWAP7 POP POP PUSH1 0x20 PUSH2 0x556E DUP10 DUP3 DUP11 ADD PUSH2 0x4C73 JUMP JUMPDEST SWAP6 POP POP PUSH1 0x40 PUSH2 0x557F DUP10 DUP3 DUP11 ADD PUSH2 0x4C73 JUMP JUMPDEST SWAP5 POP POP PUSH1 0x60 DUP8 ADD CALLDATALOAD PUSH8 0xFFFFFFFFFFFFFFFF DUP2 GT ISZERO PUSH2 0x55A0 JUMPI PUSH2 0x559F PUSH2 0x45E5 JUMP JUMPDEST JUMPDEST PUSH2 0x55AC DUP10 DUP3 DUP11 ADD PUSH2 0x470C JUMP JUMPDEST SWAP4 POP POP PUSH1 0x80 PUSH2 0x55BD DUP10 DUP3 DUP11 ADD PUSH2 0x4C73 JUMP JUMPDEST SWAP3 POP POP PUSH1 0xA0 PUSH2 0x55CE DUP10 DUP3 DUP11 ADD PUSH2 0x4C73 JUMP JUMPDEST SWAP2 POP POP SWAP3 SWAP6 POP SWAP3 SWAP6 POP SWAP3 SWAP6 JUMP JUMPDEST PUSH1 0x0 DUP1 PUSH1 0x0 PUSH1 0x60 DUP5 DUP7 SUB SLT ISZERO PUSH2 0x55F4 JUMPI PUSH2 0x55F3 PUSH2 0x45E0 JUMP JUMPDEST JUMPDEST PUSH1 0x0 DUP5 ADD CALLDATALOAD PUSH8 0xFFFFFFFFFFFFFFFF DUP2 GT ISZERO PUSH2 0x5612 JUMPI PUSH2 0x5611 PUSH2 0x45E5 JUMP JUMPDEST JUMPDEST PUSH2 0x561E DUP7 DUP3 DUP8 ADD PUSH2 0x470C JUMP JUMPDEST SWAP4 POP POP PUSH1 0x20 PUSH2 0x562F DUP7 DUP3 DUP8 ADD PUSH2 0x4783 JUMP JUMPDEST SWAP3 POP POP PUSH1 0x40 DUP5 ADD CALLDATALOAD PUSH8 0xFFFFFFFFFFFFFFFF DUP2 GT ISZERO PUSH2 0x5650 JUMPI PUSH2 0x564F PUSH2 0x45E5 JUMP JUMPDEST JUMPDEST PUSH2 0x565C DUP7 DUP3 DUP8 ADD PUSH2 0x470C JUMP JUMPDEST SWAP2 POP POP SWAP3 POP SWAP3 POP SWAP3 JUMP JUMPDEST PUSH1 0x0 DUP1 PUSH1 0x0 DUP1 PUSH1 0x0 PUSH1 0xA0 DUP7 DUP9 SUB SLT ISZERO PUSH2 0x5682 JUMPI PUSH2 0x5681 PUSH2 0x45E0 JUMP JUMPDEST JUMPDEST PUSH1 0x0 DUP7 ADD CALLDATALOAD PUSH8 0xFFFFFFFFFFFFFFFF DUP2 GT ISZERO PUSH2 0x56A0 JUMPI PUSH2 0x569F PUSH2 0x45E5 JUMP JUMPDEST JUMPDEST PUSH2 0x56AC DUP9 DUP3 DUP10 ADD PUSH2 0x470C JUMP JUMPDEST SWAP6 POP POP PUSH1 0x20 DUP7 ADD CALLDATALOAD PUSH8 0xFFFFFFFFFFFFFFFF DUP2 GT ISZERO PUSH2 0x56CD JUMPI PUSH2 0x56CC PUSH2 0x45E5 JUMP JUMPDEST JUMPDEST PUSH2 0x56D9 DUP9 DUP3 DUP10 ADD PUSH2 0x470C JUMP JUMPDEST SWAP5 POP POP PUSH1 0x40 DUP7 ADD CALLDATALOAD PUSH8 0xFFFFFFFFFFFFFFFF DUP2 GT ISZERO PUSH2 0x56FA JUMPI PUSH2 0x56F9 PUSH2 0x45E5 JUMP JUMPDEST JUMPDEST PUSH2 0x5706 DUP9 DUP3 DUP10 ADD PUSH2 0x470C JUMP JUMPDEST SWAP4 POP POP PUSH1 0x60 DUP7 ADD CALLDATALOAD PUSH8 0xFFFFFFFFFFFFFFFF DUP2 GT ISZERO PUSH2 0x5727 JUMPI PUSH2 0x5726 PUSH2 0x45E5 JUMP JUMPDEST JUMPDEST PUSH2 0x5733 DUP9 DUP3 DUP10 ADD PUSH2 0x470C JUMP JUMPDEST SWAP3 POP POP PUSH1 0x80 DUP7 ADD CALLDATALOAD PUSH8 0xFFFFFFFFFFFFFFFF DUP2 GT ISZERO PUSH2 0x5754 JUMPI PUSH2 0x5753 PUSH2 0x45E5 JUMP JUMPDEST JUMPDEST PUSH2 0x5760 DUP9 DUP3 DUP10 ADD PUSH2 0x470C JUMP JUMPDEST SWAP2 POP POP SWAP3 SWAP6 POP SWAP3 SWAP6 SWAP1 SWAP4 POP JUMP JUMPDEST PUSH1 0x0 DUP1 PUSH1 0x0 DUP1 PUSH1 0x0 DUP1 PUSH1 0x0 DUP1 PUSH1 0x0 DUP1 PUSH2 0x140 DUP12 DUP14 SUB SLT ISZERO PUSH2 0x5791 JUMPI PUSH2 0x5790 PUSH2 0x45E0 JUMP JUMPDEST JUMPDEST PUSH1 0x0 DUP12 ADD CALLDATALOAD PUSH8 0xFFFFFFFFFFFFFFFF DUP2 GT ISZERO PUSH2 0x57AF JUMPI PUSH2 0x57AE PUSH2 0x45E5 JUMP JUMPDEST JUMPDEST PUSH2 0x57BB DUP14 DUP3 DUP15 ADD PUSH2 0x470C JUMP JUMPDEST SWAP11 POP POP PUSH1 0x20 DUP12 ADD CALLDATALOAD PUSH8 0xFFFFFFFFFFFFFFFF DUP2 GT ISZERO PUSH2 0x57DC JUMPI PUSH2 0x57DB PUSH2 0x45E5 JUMP JUMPDEST JUMPDEST PUSH2 0x57E8 DUP14 DUP3 DUP15 ADD PUSH2 0x470C JUMP JUMPDEST SWAP10 POP POP PUSH1 0x40 DUP12 ADD CALLDATALOAD PUSH8 0xFFFFFFFFFFFFFFFF DUP2 GT ISZERO PUSH2 0x5809 JUMPI PUSH2 0x5808 PUSH2 0x45E5 JUMP JUMPDEST JUMPDEST PUSH2 0x5815 DUP14 DUP3 DUP15 ADD PUSH2 0x470C JUMP JUMPDEST SWAP9 POP POP PUSH1 0x60 DUP12 ADD CALLDATALOAD PUSH8 0xFFFFFFFFFFFFFFFF DUP2 GT ISZERO PUSH2 0x5836 JUMPI PUSH2 0x5835 PUSH2 0x45E5 JUMP JUMPDEST JUMPDEST PUSH2 0x5842 DUP14 DUP3 DUP15 ADD PUSH2 0x470C JUMP JUMPDEST SWAP8 POP POP PUSH1 0x80 DUP12 ADD CALLDATALOAD PUSH8 0xFFFFFFFFFFFFFFFF DUP2 GT ISZERO PUSH2 0x5863 JUMPI PUSH2 0x5862 PUSH2 0x45E5 JUMP JUMPDEST JUMPDEST PUSH2 0x586F DUP14 DUP3 DUP15 ADD PUSH2 0x470C JUMP JUMPDEST SWAP7 POP POP PUSH1 0xA0 DUP12 ADD CALLDATALOAD PUSH8 0xFFFFFFFFFFFFFFFF DUP2 GT ISZERO PUSH2 0x5890 JUMPI PUSH2 0x588F PUSH2 0x45E5 JUMP JUMPDEST JUMPDEST PUSH2 0x589C DUP14 DUP3 DUP15 ADD PUSH2 0x470C JUMP JUMPDEST SWAP6 POP POP PUSH1 0xC0 DUP12 ADD CALLDATALOAD PUSH8 0xFFFFFFFFFFFFFFFF DUP2 GT ISZERO PUSH2 0x58BD JUMPI PUSH2 0x58BC PUSH2 0x45E5 JUMP JUMPDEST JUMPDEST PUSH2 0x58C9 DUP14 DUP3 DUP15 ADD PUSH2 0x470C JUMP JUMPDEST SWAP5 POP POP PUSH1 0xE0 DUP12 ADD CALLDATALOAD PUSH8 0xFFFFFFFFFFFFFFFF DUP2 GT ISZERO PUSH2 0x58EA JUMPI PUSH2 0x58E9 PUSH2 0x45E5 JUMP JUMPDEST JUMPDEST PUSH2 0x58F6 DUP14 DUP3 DUP15 ADD PUSH2 0x470C JUMP JUMPDEST SWAP4 POP POP PUSH2 0x100 DUP12 ADD CALLDATALOAD PUSH8 0xFFFFFFFFFFFFFFFF DUP2 GT ISZERO PUSH2 0x5918 JUMPI PUSH2 0x5917 PUSH2 0x45E5 JUMP JUMPDEST JUMPDEST PUSH2 0x5924 DUP14 DUP3 DUP15 ADD PUSH2 0x470C JUMP JUMPDEST SWAP3 POP POP PUSH2 0x120 DUP12 ADD CALLDATALOAD PUSH8 0xFFFFFFFFFFFFFFFF DUP2 GT ISZERO PUSH2 0x5946 JUMPI PUSH2 0x5945 PUSH2 0x45E5 JUMP JUMPDEST JUMPDEST PUSH2 0x5952 DUP14 DUP3 DUP15 ADD PUSH2 0x470C JUMP JUMPDEST SWAP2 POP POP SWAP3 SWAP6 SWAP9 SWAP12 SWAP2 SWAP5 SWAP8 SWAP11 POP SWAP3 SWAP6 SWAP9 POP JUMP JUMPDEST PUSH1 0x0 PUSH2 0x120 DUP4 ADD PUSH1 0x0 DUP4 ADD MLOAD DUP5 DUP3 SUB PUSH1 0x0 DUP7 ADD MSTORE PUSH2 0x5982 DUP3 DUP3 PUSH2 0x5000 JUMP JUMPDEST SWAP2 POP POP PUSH1 0x20 DUP4 ADD MLOAD PUSH2 0x5997 PUSH1 0x20 DUP7 ADD DUP3 PUSH2 0x5039 JUMP JUMPDEST POP PUSH1 0x40 DUP4 ADD MLOAD DUP5 DUP3 SUB PUSH1 0x40 DUP7 ADD MSTORE PUSH2 0x59AF DUP3 DUP3 PUSH2 0x5000 JUMP JUMPDEST SWAP2 POP POP PUSH1 0x60 DUP4 ADD MLOAD PUSH2 0x59C4 PUSH1 0x60 DUP7 ADD DUP3 PUSH2 0x5048 JUMP JUMPDEST POP PUSH1 0x80 DUP4 ADD MLOAD DUP5 DUP3 SUB PUSH1 0x80 DUP7 ADD MSTORE PUSH2 0x59DC DUP3 DUP3 PUSH2 0x5066 JUMP JUMPDEST SWAP2 POP POP PUSH1 0xA0 DUP4 ADD MLOAD DUP5 DUP3 SUB PUSH1 0xA0 DUP7 ADD MSTORE PUSH2 0x59F6 DUP3 DUP3 PUSH2 0x50F1 JUMP JUMPDEST SWAP2 POP POP PUSH1 0xC0 DUP4 ADD MLOAD DUP5 DUP3 SUB PUSH1 0xC0 DUP7 ADD MSTORE PUSH2 0x5A10 DUP3 DUP3 PUSH2 0x521F JUMP JUMPDEST SWAP2 POP POP PUSH1 0xE0 DUP4 ADD MLOAD DUP5 DUP3 SUB PUSH1 0xE0 DUP7 ADD MSTORE PUSH2 0x5A2A DUP3 DUP3 PUSH2 0x52D3 JUMP JUMPDEST SWAP2 POP POP PUSH2 0x100 DUP4 ADD MLOAD PUSH2 0x5A41 PUSH2 0x100 DUP7 ADD DUP3 PUSH2 0x5057 JUMP JUMPDEST POP DUP1 SWAP2 POP POP SWAP3 SWAP2 POP POP JUMP JUMPDEST PUSH1 0x0 PUSH1 0x20 DUP3 ADD SWAP1 POP DUP2 DUP2 SUB PUSH1 0x0 DUP4 ADD MSTORE PUSH2 0x5A66 DUP2 DUP5 PUSH2 0x5964 JUMP JUMPDEST SWAP1 POP SWAP3 SWAP2 POP POP JUMP JUMPDEST PUSH1 0x0 DUP1 PUSH1 0x0 DUP1 PUSH1 0x80 DUP6 DUP8 SUB SLT ISZERO PUSH2 0x5A88 JUMPI PUSH2 0x5A87 PUSH2 0x45E0 JUMP JUMPDEST JUMPDEST PUSH1 0x0 DUP6 ADD CALLDATALOAD PUSH8 0xFFFFFFFFFFFFFFFF DUP2 GT ISZERO PUSH2 0x5AA6 JUMPI PUSH2 0x5AA5 PUSH2 0x45E5 JUMP JUMPDEST JUMPDEST PUSH2 0x5AB2 DUP8 DUP3 DUP9 ADD PUSH2 0x470C JUMP JUMPDEST SWAP5 POP POP PUSH1 0x20 DUP6 ADD CALLDATALOAD PUSH8 0xFFFFFFFFFFFFFFFF DUP2 GT ISZERO PUSH2 0x5AD3 JUMPI PUSH2 0x5AD2 PUSH2 0x45E5 JUMP JUMPDEST JUMPDEST PUSH2 0x5ADF DUP8 DUP3 DUP9 ADD PUSH2 0x470C JUMP JUMPDEST SWAP4 POP POP PUSH1 0x40 DUP6 ADD CALLDATALOAD PUSH8 0xFFFFFFFFFFFFFFFF DUP2 GT ISZERO PUSH2 0x5B00 JUMPI PUSH2 0x5AFF PUSH2 0x45E5 JUMP JUMPDEST JUMPDEST PUSH2 0x5B0C DUP8 DUP3 DUP9 ADD PUSH2 0x470C JUMP JUMPDEST SWAP3 POP POP PUSH1 0x60 DUP6 ADD CALLDATALOAD PUSH8 0xFFFFFFFFFFFFFFFF DUP2 GT ISZERO PUSH2 0x5B2D JUMPI PUSH2 0x5B2C PUSH2 0x45E5 JUMP JUMPDEST JUMPDEST PUSH2 0x5B39 DUP8 DUP3 DUP9 ADD PUSH2 0x470C JUMP JUMPDEST SWAP2 POP POP SWAP3 SWAP6 SWAP2 SWAP5 POP SWAP3 POP JUMP JUMPDEST PUSH2 0x5B4E DUP2 PUSH2 0x47CE JUMP JUMPDEST DUP3 MSTORE POP POP JUMP JUMPDEST PUSH1 0x0 PUSH1 0x20 DUP3 ADD SWAP1 POP PUSH2 0x5B69 PUSH1 0x0 DUP4 ADD DUP5 PUSH2 0x5B45 JUMP JUMPDEST SWAP3 SWAP2 POP POP JUMP JUMPDEST PUSH2 0x5B78 DUP2 PUSH2 0x475A JUMP JUMPDEST DUP3 MSTORE POP POP JUMP JUMPDEST PUSH1 0x0 PUSH1 0x20 DUP3 ADD SWAP1 POP PUSH2 0x5B93 PUSH1 0x0 DUP4 ADD DUP5 PUSH2 0x5B6F JUMP JUMPDEST SWAP3 SWAP2 POP POP JUMP JUMPDEST PUSH1 0x0 DUP2 MLOAD SWAP1 POP PUSH2 0x5BA8 DUP2 PUSH2 0x47DA JUMP JUMPDEST SWAP3 SWAP2 POP POP JUMP JUMPDEST PUSH1 0x0 PUSH1 0x20 DUP3 DUP5 SUB SLT ISZERO PUSH2 0x5BC4 JUMPI PUSH2 0x5BC3 PUSH2 0x45E0 JUMP JUMPDEST JUMPDEST PUSH1 0x0 PUSH2 0x5BD2 DUP5 DUP3 DUP6 ADD PUSH2 0x5B99 JUMP JUMPDEST SWAP2 POP POP SWAP3 SWAP2 POP POP JUMP JUMPDEST PUSH1 0x0 DUP3 DUP3 MSTORE PUSH1 0x20 DUP3 ADD SWAP1 POP SWAP3 SWAP2 POP POP JUMP JUMPDEST PUSH32 0x596F7520617265206E6F742041646D696E000000000000000000000000000000 PUSH1 0x0 DUP3 ADD MSTORE POP JUMP JUMPDEST PUSH1 0x0 PUSH2 0x5C22 PUSH1 0x11 DUP4 PUSH2 0x5BDB JUMP JUMPDEST SWAP2 POP PUSH2 0x5C2D DUP3 PUSH2 0x5BEC JUMP JUMPDEST PUSH1 0x20 DUP3 ADD SWAP1 POP SWAP2 SWAP1 POP JUMP JUMPDEST PUSH1 0x0 PUSH1 0x20 DUP3 ADD SWAP1 POP DUP2 DUP2 SUB PUSH1 0x0 DUP4 ADD MSTORE PUSH2 0x5C51 DUP2 PUSH2 0x5C15 JUMP JUMPDEST SWAP1 POP SWAP2 SWAP1 POP JUMP JUMPDEST PUSH32 0x4E487B7100000000000000000000000000000000000000000000000000000000 PUSH1 0x0 MSTORE PUSH1 0x32 PUSH1 0x4 MSTORE PUSH1 0x24 PUSH1 0x0 REVERT JUMPDEST PUSH32 0x4E487B7100000000000000000000000000000000000000000000000000000000 PUSH1 0x0 MSTORE PUSH1 0x11 PUSH1 0x4 MSTORE PUSH1 0x24 PUSH1 0x0 REVERT JUMPDEST PUSH1 0x0 PUSH2 0x5CC1 DUP3 PUSH2 0x4798 JUMP JUMPDEST SWAP2 POP PUSH32 0xFFFFFFFFFFFFFFFFFFFFFFFFFFFFFFFFFFFFFFFFFFFFFFFFFFFFFFFFFFFFFFFF DUP3 EQ ISZERO PUSH2 0x5CF4 JUMPI PUSH2 0x5CF3 PUSH2 0x5C87 JUMP JUMPDEST JUMPDEST PUSH1 0x1 DUP3 ADD SWAP1 POP SWAP2 SWAP1 POP JUMP JUMPDEST PUSH32 0x4E487B7100000000000000000000000000000000000000000000000000000000 PUSH1 0x0 MSTORE PUSH1 0x22 PUSH1 0x4 MSTORE PUSH1 0x24 PUSH1 0x0 REVERT JUMPDEST PUSH1 0x0 PUSH1 0x2 DUP3 DIV SWAP1 POP PUSH1 0x1 DUP3 AND DUP1 PUSH2 0x5D46 JUMPI PUSH1 0x7F DUP3 AND SWAP2 POP JUMPDEST PUSH1 0x20 DUP3 LT DUP2 EQ ISZERO PUSH2 0x5D5A JUMPI PUSH2 0x5D59 PUSH2 0x5CFF JUMP JUMPDEST JUMPDEST POP SWAP2 SWAP1 POP JUMP JUMPDEST PUSH32 0x496E76616C6964206D6574616D61736B206163636F756E740000000000000000 PUSH1 0x0 DUP3 ADD MSTORE POP JUMP JUMPDEST PUSH1 0x0 PUSH2 0x5D96 PUSH1 0x18 DUP4 PUSH2 0x5BDB JUMP JUMPDEST SWAP2 POP PUSH2 0x5DA1 DUP3 PUSH2 0x5D60 JUMP JUMPDEST PUSH1 0x20 DUP3 ADD SWAP1 POP SWAP2 SWAP1 POP JUMP JUMPDEST PUSH1 0x0 PUSH1 0x20 DUP3 ADD SWAP1 POP DUP2 DUP2 SUB PUSH1 0x0 DUP4 ADD MSTORE PUSH2 0x5DC5 DUP2 PUSH2 0x5D89 JUMP JUMPDEST SWAP1 POP SWAP2 SWAP1 POP JUMP JUMPDEST PUSH1 0x0 DUP2 SWAP1 POP SWAP3 SWAP2 POP POP JUMP JUMPDEST PUSH1 0x0 PUSH2 0x5DE2 DUP3 PUSH2 0x4FB1 JUMP JUMPDEST PUSH2 0x5DEC DUP2 DUP6 PUSH2 0x5DCC JUMP JUMPDEST SWAP4 POP PUSH2 0x5DFC DUP2 DUP6 PUSH1 0x20 DUP7 ADD PUSH2 0x4FCD JUMP JUMPDEST DUP1 DUP5 ADD SWAP2 POP POP SWAP3 SWAP2 POP POP JUMP JUMPDEST PUSH1 0x0 PUSH2 0x5E14 DUP3 DUP5 PUSH2 0x5DD7 JUMP JUMPDEST SWAP2 POP DUP2 SWAP1 POP SWAP3 SWAP2 POP POP JUMP JUMPDEST PUSH32 0x496E76616C696420726567697374726174696F6E204964000000000000000000 PUSH1 0x0 DUP3 ADD MSTORE POP JUMP JUMPDEST PUSH1 0x0 PUSH2 0x5E55 PUSH1 0x17 DUP4 PUSH2 0x5BDB JUMP JUMPDEST SWAP2 POP PUSH2 0x5E60 DUP3 PUSH2 0x5E1F JUMP JUMPDEST PUSH1 0x20 DUP3 ADD SWAP1 POP SWAP2 SWAP1 POP JUMP JUMPDEST PUSH1 0x0 PUSH1 0x20 DUP3 ADD SWAP1 POP DUP2 DUP2 SUB PUSH1 0x0 DUP4 ADD MSTORE PUSH2 0x5E84 DUP2 PUSH2 0x5E48 JUMP JUMPDEST SWAP1 POP SWAP2 SWAP1 POP JUMP JUMPDEST PUSH32 0x53747564656E7420697320616C72656164792072656769737465726564000000 PUSH1 0x0 DUP3 ADD MSTORE POP JUMP JUMPDEST PUSH1 0x0 PUSH2 0x5EC1 PUSH1 0x1D DUP4 PUSH2 0x5BDB JUMP JUMPDEST SWAP2 POP PUSH2 0x5ECC DUP3 PUSH2 0x5E8B JUMP JUMPDEST PUSH1 0x20 DUP3 ADD SWAP1 POP SWAP2 SWAP1 POP JUMP JUMPDEST PUSH1 0x0 PUSH1 0x20 DUP3 ADD SWAP1 POP DUP2 DUP2 SUB PUSH1 0x0 DUP4 ADD MSTORE PUSH2 0x5EF0 DUP2 PUSH2 0x5EB4 JUMP JUMPDEST SWAP1 POP SWAP2 SWAP1 POP JUMP JUMPDEST PUSH1 0x0 PUSH2 0x5F02 DUP3 PUSH2 0x4FB1 JUMP JUMPDEST PUSH2 0x5F0C DUP2 DUP6 PUSH2 0x5BDB JUMP JUMPDEST SWAP4 POP PUSH2 0x5F1C DUP2 DUP6 PUSH1 0x20 DUP7 ADD PUSH2 0x4FCD JUMP JUMPDEST PUSH2 0x5F25 DUP2 PUSH2 0x45EF JUMP JUMPDEST DUP5 ADD SWAP2 POP POP SWAP3 SWAP2 POP POP JUMP JUMPDEST PUSH1 0x0 PUSH1 0x20 DUP3 ADD SWAP1 POP DUP2 DUP2 SUB PUSH1 0x0 DUP4 ADD MSTORE PUSH2 0x5F4A DUP2 DUP5 PUSH2 0x5EF7 JUMP JUMPDEST SWAP1 POP SWAP3 SWAP2 POP POP JUMP JUMPDEST PUSH32 0x50726F6772616D206973206E6F74207265676973746572656400000000000000 PUSH1 0x0 DUP3 ADD MSTORE POP JUMP JUMPDEST PUSH1 0x0 PUSH2 0x5F88 PUSH1 0x19 DUP4 PUSH2 0x5BDB JUMP JUMPDEST SWAP2 POP PUSH2 0x5F93 DUP3 PUSH2 0x5F52 JUMP JUMPDEST PUSH1 0x20 DUP3 ADD SWAP1 POP SWAP2 SWAP1 POP JUMP JUMPDEST PUSH1 0x0 PUSH1 0x20 DUP3 ADD SWAP1 POP DUP2 DUP2 SUB PUSH1 0x0 DUP4 ADD MSTORE PUSH2 0x5FB7 DUP2 PUSH2 0x5F7B JUMP JUMPDEST SWAP1 POP SWAP2 SWAP1 POP JUMP INVALID LOG2 PUSH5 0x6970667358 0x22 SLT KECCAK256 0xB7 0xA8 SSTORE 0x26 DIV 0x4C 0xC9 SLT DUP14 0xFC 0xDC 0xE1 PUSH3 0x3F1F85 NUMBER 0xF 0xC3 LOG0 0xEF DUP1 0xB9 DUP10 0xD DUP3 MLOAD XOR PUSH11 0xBBA8AF64736F6C63430008 MULMOD STOP CALLER "},"methodIdentifiers":{"DocumentDetails(string,string,string,string)":"ec56f4d9","EducationalDetails(string,int256,int256,string,int256,int256)":"70201a0f","FatherDetails(string,string,string,string,string)":"8cc73264","PersonalDetails(string,string,string,string,string,string,string,string,string,string)":"b550b227","UpdateStudentData((string,address,string,uint256,(string,string,string,string,bool),(string,string,string,string,string,string,string,string,string,string,bool),(string,string,string,string,string,bool),(string,int256,int256,string,int256,int256,bool),bool),address)":"04aa5b14","add_student(string,address,string)":"8b2601ef","checkStudent(address)":"f481345a","getStudentsList()":"49fd8dfb","get_student(address)":"e4d1ee61","setAdminContract(address)":"63a812f9","setProgramContract(address)":"1f44ee65"}}}}}