{"contracts/UpdateStudent.sol":{"UpdateStudent":{"abi":[{"inputs":[{"internalType":"address","name":"_stuAddr","type":"address"},{"internalType":"bool","name":"approval","type":"bool"},{"internalType":"string","name":"comments","type":"string"}],"name":"Approval","outputs":[],"stateMutability":"nonpayable","type":"function"},{"inputs":[{"internalType":"address","name":"addr","type":"address"}],"name":"setAdminContract","outputs":[],"stateMutability":"nonpayable","type":"function"},{"inputs":[{"internalType":"address","name":"addr","type":"address"}],"name":"setRegisterStudentContract","outputs":[],"stateMutability":"nonpayable","type":"function"},{"inputs":[{"internalType":"address","name":"addr","type":"address"}],"name":"setRequestUpdateContract","outputs":[],"stateMutability":"nonpayable","type":"function"},{"inputs":[{"internalType":"address","name":"addr","type":"address"}],"name":"setStudentHistoryContract","outputs":[],"stateMutability":"nonpayable","type":"function"}],"evm":{"bytecode":{"linkReferences":{},"object":"608060405234801561001057600080fd5b50611c55806100206000396000f3fe608060405234801561001057600080fd5b50600436106100575760003560e01c80632914683d1461005c5780632acb91051461007857806336e6129b1461009457806363a812f9146100b0578063b0b31a8a146100cc575b600080fd5b610076600480360381019061007191906108c2565b6100e8565b005b610092600480360381019061008d91906108c2565b61012b565b005b6100ae60048036038101906100a99190610a6d565b61016f565b005b6100ca60048036038101906100c591906108c2565b6107c8565b005b6100e660048036038101906100e191906108c2565b61080c565b005b806000806101000a81548173ffffffffffffffffffffffffffffffffffffffff021916908373ffffffffffffffffffffffffffffffffffffffff16021790555050565b80600360006101000a81548173ffffffffffffffffffffffffffffffffffffffff021916908373ffffffffffffffffffffffffffffffffffffffff16021790555050565b600260009054906101000a900473ffffffffffffffffffffffffffffffffffffffff1673ffffffffffffffffffffffffffffffffffffffff16639026dee8336040518263ffffffff1660e01b81526004016101ca9190610aeb565b60206040518083038186803b1580156101e257600080fd5b505afa1580156101f6573d6000803e3d6000fd5b505050506040513d601f19601f8201168201806040525081019061021a9190610b1b565b610259576040517f08c379a000000000000000000000000000000000000000000000000000000000815260040161025090610ba5565b60405180910390fd5b600080600160009054906101000a900473ffffffffffffffffffffffffffffffffffffffff1673ffffffffffffffffffffffffffffffffffffffff166363bf0c256040518163ffffffff1660e01b815260040160006040518083038186803b1580156102c457600080fd5b505afa1580156102d8573d6000803e3d6000fd5b505050506040513d6000823e3d601f19601f820116820180604052508101906103019190611499565b90505b8051821015610377578473ffffffffffffffffffffffffffffffffffffffff16818381518110610337576103366114e2565b5b60200260200101516020015173ffffffffffffffffffffffffffffffffffffffff16141561036457610377565b818061036f90611540565b925050610304565b83156106a45760008060009054906101000a900473ffffffffffffffffffffffffffffffffffffffff1673ffffffffffffffffffffffffffffffffffffffff1663e4d1ee618385815181106103cf576103ce6114e2565b5b6020026020010151602001516040518263ffffffff1660e01b81526004016103f79190610aeb565b60006040518083038186803b15801561040f57600080fd5b505afa158015610423573d6000803e3d6000fd5b505050506040513d6000823e3d601f19601f8201168201806040525081019061044c9190611589565b9050600360009054906101000a900473ffffffffffffffffffffffffffffffffffffffff1673ffffffffffffffffffffffffffffffffffffffff1663b7a170e2826040518263ffffffff1660e01b81526004016104a99190611a4c565b600060405180830381600087803b1580156104c357600080fd5b505af11580156104d7573d6000803e3d6000fd5b5050505060008054906101000a900473ffffffffffffffffffffffffffffffffffffffff1673ffffffffffffffffffffffffffffffffffffffff166304aa5b1483858151811061052a576105296114e2565b5b6020026020010151336040518363ffffffff1660e01b8152600401610550929190611a6e565b600060405180830381600087803b15801561056a57600080fd5b505af115801561057e573d6000803e3d6000fd5b50505050600160009054906101000a900473ffffffffffffffffffffffffffffffffffffffff1673ffffffffffffffffffffffffffffffffffffffff16637f1be357846040518263ffffffff1660e01b81526004016105dd9190611aad565b600060405180830381600087803b1580156105f757600080fd5b505af115801561060b573d6000803e3d6000fd5b50505050600160009054906101000a900473ffffffffffffffffffffffffffffffffffffffff1673ffffffffffffffffffffffffffffffffffffffff16630fd8d3e287866040518363ffffffff1660e01b815260040161066c929190611b4d565b600060405180830381600087803b15801561068657600080fd5b505af115801561069a573d6000803e3d6000fd5b50505050506107c1565b600160009054906101000a900473ffffffffffffffffffffffffffffffffffffffff1673ffffffffffffffffffffffffffffffffffffffff16637f1be357836040518263ffffffff1660e01b81526004016106ff9190611aad565b600060405180830381600087803b15801561071957600080fd5b505af115801561072d573d6000803e3d6000fd5b50505050600160009054906101000a900473ffffffffffffffffffffffffffffffffffffffff1673ffffffffffffffffffffffffffffffffffffffff16630fd8d3e286856040518363ffffffff1660e01b815260040161078e929190611bdc565b600060405180830381600087803b1580156107a857600080fd5b505af11580156107bc573d6000803e3d6000fd5b505050505b5050505050565b80600260006101000a81548173ffffffffffffffffffffffffffffffffffffffff021916908373ffffffffffffffffffffffffffffffffffffffff16021790555050565b80600160006101000a81548173ffffffffffffffffffffffffffffffffffffffff021916908373ffffffffffffffffffffffffffffffffffffffff16021790555050565b6000604051905090565b600080fd5b600080fd5b600073ffffffffffffffffffffffffffffffffffffffff82169050919050565b600061088f82610864565b9050919050565b61089f81610884565b81146108aa57600080fd5b50565b6000813590506108bc81610896565b92915050565b6000602082840312156108d8576108d761085a565b5b60006108e6848285016108ad565b91505092915050565b60008115159050919050565b610904816108ef565b811461090f57600080fd5b50565b600081359050610921816108fb565b92915050565b600080fd5b600080fd5b6000601f19601f8301169050919050565b7f4e487b7100000000000000000000000000000000000000000000000000000000600052604160045260246000fd5b61097a82610931565b810181811067ffffffffffffffff8211171561099957610998610942565b5b80604052505050565b60006109ac610850565b90506109b88282610971565b919050565b600067ffffffffffffffff8211156109d8576109d7610942565b5b6109e182610931565b9050602081019050919050565b82818337600083830152505050565b6000610a10610a0b846109bd565b6109a2565b905082815260208101848484011115610a2c57610a2b61092c565b5b610a378482856109ee565b509392505050565b600082601f830112610a5457610a53610927565b5b8135610a648482602086016109fd565b91505092915050565b600080600060608486031215610a8657610a8561085a565b5b6000610a94868287016108ad565b9350506020610aa586828701610912565b925050604084013567ffffffffffffffff811115610ac657610ac561085f565b5b610ad286828701610a3f565b9150509250925092565b610ae581610884565b82525050565b6000602082019050610b006000830184610adc565b92915050565b600081519050610b15816108fb565b92915050565b600060208284031215610b3157610b3061085a565b5b6000610b3f84828501610b06565b91505092915050565b600082825260208201905092915050565b7f596f7520617265206e6f742041646d696e000000000000000000000000000000600082015250565b6000610b8f601183610b48565b9150610b9a82610b59565b602082019050919050565b60006020820190508181036000830152610bbe81610b82565b9050919050565b600067ffffffffffffffff821115610be057610bdf610942565b5b602082029050602081019050919050565b600080fd5b600080fd5b600080fd5b60005b83811015610c1e578082015181840152602081019050610c03565b83811115610c2d576000848401525b50505050565b6000610c46610c41846109bd565b6109a2565b905082815260208101848484011115610c6257610c6161092c565b5b610c6d848285610c00565b509392505050565b600082601f830112610c8a57610c89610927565b5b8151610c9a848260208601610c33565b91505092915050565b600081519050610cb281610896565b92915050565b6000819050919050565b610ccb81610cb8565b8114610cd657600080fd5b50565b600081519050610ce881610cc2565b92915050565b600060a08284031215610d0457610d03610bf6565b5b610d0e60a06109a2565b9050600082015167ffffffffffffffff811115610d2e57610d2d610bfb565b5b610d3a84828501610c75565b600083015250602082015167ffffffffffffffff811115610d5e57610d5d610bfb565b5b610d6a84828501610c75565b602083015250604082015167ffffffffffffffff811115610d8e57610d8d610bfb565b5b610d9a84828501610c75565b604083015250606082015167ffffffffffffffff811115610dbe57610dbd610bfb565b5b610dca84828501610c75565b6060830152506080610dde84828501610b06565b60808301525092915050565b60006101608284031215610e0157610e00610bf6565b5b610e0c6101606109a2565b9050600082015167ffffffffffffffff811115610e2c57610e2b610bfb565b5b610e3884828501610c75565b600083015250602082015167ffffffffffffffff811115610e5c57610e5b610bfb565b5b610e6884828501610c75565b602083015250604082015167ffffffffffffffff811115610e8c57610e8b610bfb565b5b610e9884828501610c75565b604083015250606082015167ffffffffffffffff811115610ebc57610ebb610bfb565b5b610ec884828501610c75565b606083015250608082015167ffffffffffffffff811115610eec57610eeb610bfb565b5b610ef884828501610c75565b60808301525060a082015167ffffffffffffffff811115610f1c57610f1b610bfb565b5b610f2884828501610c75565b60a08301525060c082015167ffffffffffffffff811115610f4c57610f4b610bfb565b5b610f5884828501610c75565b60c08301525060e082015167ffffffffffffffff811115610f7c57610f7b610bfb565b5b610f8884828501610c75565b60e08301525061010082015167ffffffffffffffff811115610fad57610fac610bfb565b5b610fb984828501610c75565b6101008301525061012082015167ffffffffffffffff811115610fdf57610fde610bfb565b5b610feb84828501610c75565b6101208301525061014061100184828501610b06565b6101408301525092915050565b600060c0828403121561102457611023610bf6565b5b61102e60c06109a2565b9050600082015167ffffffffffffffff81111561104e5761104d610bfb565b5b61105a84828501610c75565b600083015250602082015167ffffffffffffffff81111561107e5761107d610bfb565b5b61108a84828501610c75565b602083015250604082015167ffffffffffffffff8111156110ae576110ad610bfb565b5b6110ba84828501610c75565b604083015250606082015167ffffffffffffffff8111156110de576110dd610bfb565b5b6110ea84828501610c75565b606083015250608082015167ffffffffffffffff81111561110e5761110d610bfb565b5b61111a84828501610c75565b60808301525060a061112e84828501610b06565b60a08301525092915050565b6000819050919050565b61114d8161113a565b811461115857600080fd5b50565b60008151905061116a81611144565b92915050565b600060e0828403121561118657611185610bf6565b5b61119060e06109a2565b9050600082015167ffffffffffffffff8111156111b0576111af610bfb565b5b6111bc84828501610c75565b60008301525060206111d08482850161115b565b60208301525060406111e48482850161115b565b604083015250606082015167ffffffffffffffff81111561120857611207610bfb565b5b61121484828501610c75565b60608301525060806112288482850161115b565b60808301525060a061123c8482850161115b565b60a08301525060c061125084828501610b06565b60c08301525092915050565b6000610120828403121561127357611272610bf6565b5b61127e6101206109a2565b9050600082015167ffffffffffffffff81111561129e5761129d610bfb565b5b6112aa84828501610c75565b60008301525060206112be84828501610ca3565b602083015250604082015167ffffffffffffffff8111156112e2576112e1610bfb565b5b6112ee84828501610c75565b604083015250606061130284828501610cd9565b606083015250608082015167ffffffffffffffff81111561132657611325610bfb565b5b61133284828501610cee565b60808301525060a082015167ffffffffffffffff81111561135657611355610bfb565b5b61136284828501610dea565b60a08301525060c082015167ffffffffffffffff81111561138657611385610bfb565b5b6113928482850161100e565b60c08301525060e082015167ffffffffffffffff8111156113b6576113b5610bfb565b5b6113c284828501611170565b60e0830152506101006113d784828501610b06565b6101008301525092915050565b60006113f76113f284610bc5565b6109a2565b9050808382526020820190506020840283018581111561141a57611419610bf1565b5b835b8181101561146157805167ffffffffffffffff81111561143f5761143e610927565b5b80860161144c898261125c565b8552602085019450505060208101905061141c565b5050509392505050565b600082601f8301126114805761147f610927565b5b81516114908482602086016113e4565b91505092915050565b6000602082840312156114af576114ae61085a565b5b600082015167ffffffffffffffff8111156114cd576114cc61085f565b5b6114d98482850161146b565b91505092915050565b7f4e487b7100000000000000000000000000000000000000000000000000000000600052603260045260246000fd5b7f4e487b7100000000000000000000000000000000000000000000000000000000600052601160045260246000fd5b600061154b82610cb8565b91507fffffffffffffffffffffffffffffffffffffffffffffffffffffffffffffffff82141561157e5761157d611511565b5b600182019050919050565b60006020828403121561159f5761159e61085a565b5b600082015167ffffffffffffffff8111156115bd576115bc61085f565b5b6115c98482850161125c565b91505092915050565b600081519050919050565b600082825260208201905092915050565b60006115f9826115d2565b61160381856115dd565b9350611613818560208601610c00565b61161c81610931565b840191505092915050565b61163081610884565b82525050565b61163f81610cb8565b82525050565b61164e816108ef565b82525050565b600060a083016000830151848203600086015261167182826115ee565b9150506020830151848203602086015261168b82826115ee565b915050604083015184820360408601526116a582826115ee565b915050606083015184820360608601526116bf82826115ee565b91505060808301516116d46080860182611645565b508091505092915050565b60006101608301600083015184820360008601526116fd82826115ee565b9150506020830151848203602086015261171782826115ee565b9150506040830151848203604086015261173182826115ee565b9150506060830151848203606086015261174b82826115ee565b9150506080830151848203608086015261176582826115ee565b91505060a083015184820360a086015261177f82826115ee565b91505060c083015184820360c086015261179982826115ee565b91505060e083015184820360e08601526117b382826115ee565b9150506101008301518482036101008601526117cf82826115ee565b9150506101208301518482036101208601526117eb82826115ee565b915050610140830151611802610140860182611645565b508091505092915050565b600060c083016000830151848203600086015261182a82826115ee565b9150506020830151848203602086015261184482826115ee565b9150506040830151848203604086015261185e82826115ee565b9150506060830151848203606086015261187882826115ee565b9150506080830151848203608086015261189282826115ee565b91505060a08301516118a760a0860182611645565b508091505092915050565b6118bb8161113a565b82525050565b600060e08301600083015184820360008601526118de82826115ee565b91505060208301516118f360208601826118b2565b50604083015161190660408601826118b2565b506060830151848203606086015261191e82826115ee565b915050608083015161193360808601826118b2565b5060a083015161194660a08601826118b2565b5060c083015161195960c0860182611645565b508091505092915050565b600061012083016000830151848203600086015261198282826115ee565b91505060208301516119976020860182611627565b50604083015184820360408601526119af82826115ee565b91505060608301516119c46060860182611636565b50608083015184820360808601526119dc8282611654565b91505060a083015184820360a08601526119f682826116df565b91505060c083015184820360c0860152611a10828261180d565b91505060e083015184820360e0860152611a2a82826118c1565b915050610100830151611a41610100860182611645565b508091505092915050565b60006020820190508181036000830152611a668184611964565b905092915050565b60006040820190508181036000830152611a888185611964565b9050611a976020830184610adc565b9392505050565b611aa781610cb8565b82525050565b6000602082019050611ac26000830184611a9e565b92915050565b7f417070726f766564000000000000000000000000000000000000000000000000600082015250565b6000611afe600883610b48565b9150611b0982611ac8565b602082019050919050565b6000611b1f826115d2565b611b298185610b48565b9350611b39818560208601610c00565b611b4281610931565b840191505092915050565b6000606082019050611b626000830185610adc565b8181036020830152611b7381611af1565b90508181036040830152611b878184611b14565b90509392505050565b7f52656a6563746564000000000000000000000000000000000000000000000000600082015250565b6000611bc6600883610b48565b9150611bd182611b90565b602082019050919050565b6000606082019050611bf16000830185610adc565b8181036020830152611c0281611bb9565b90508181036040830152611c168184611b14565b9050939250505056fea2646970667358221220cfcdee9d35b2c4eb893859852cbe5138208b574171538d5be935c3363b932f4b64736f6c63430008090033","opcodes":"PUSH1 0x80 PUSH1 0x40 MSTORE CALLVALUE DUP1 ISZERO PUSH2 0x10 JUMPI PUSH1 0x0 DUP1 REVERT JUMPDEST POP PUSH2 0x1C55 DUP1 PUSH2 0x20 PUSH1 0x0 CODECOPY PUSH1 0x0 RETURN INVALID PUSH1 0x80 PUSH1 0x40 MSTORE CALLVALUE DUP1 ISZERO PUSH2 0x10 JUMPI PUSH1 0x0 DUP1 REVERT JUMPDEST POP PUSH1 0x4 CALLDATASIZE LT PUSH2 0x57 JUMPI PUSH1 0x0 CALLDATALOAD PUSH1 0xE0 SHR DUP1 PUSH4 0x2914683D EQ PUSH2 0x5C JUMPI DUP1 PUSH4 0x2ACB9105 EQ PUSH2 0x78 JUMPI DUP1 PUSH4 0x36E6129B EQ PUSH2 0x94 JUMPI DUP1 PUSH4 0x63A812F9 EQ PUSH2 0xB0 JUMPI DUP1 PUSH4 0xB0B31A8A EQ PUSH2 0xCC JUMPI JUMPDEST PUSH1 0x0 DUP1 REVERT JUMPDEST PUSH2 0x76 PUSH1 0x4 DUP1 CALLDATASIZE SUB DUP2 ADD SWAP1 PUSH2 0x71 SWAP2 SWAP1 PUSH2 0x8C2 JUMP JUMPDEST PUSH2 0xE8 JUMP JUMPDEST STOP JUMPDEST PUSH2 0x92 PUSH1 0x4 DUP1 CALLDATASIZE SUB DUP2 ADD SWAP1 PUSH2 0x8D SWAP2 SWAP1 PUSH2 0x8C2 JUMP JUMPDEST PUSH2 0x12B JUMP JUMPDEST STOP JUMPDEST PUSH2 0xAE PUSH1 0x4 DUP1 CALLDATASIZE SUB DUP2 ADD SWAP1 PUSH2 0xA9 SWAP2 SWAP1 PUSH2 0xA6D JUMP JUMPDEST PUSH2 0x16F JUMP JUMPDEST STOP JUMPDEST PUSH2 0xCA PUSH1 0x4 DUP1 CALLDATASIZE SUB DUP2 ADD SWAP1 PUSH2 0xC5 SWAP2 SWAP1 PUSH2 0x8C2 JUMP JUMPDEST PUSH2 0x7C8 JUMP JUMPDEST STOP JUMPDEST PUSH2 0xE6 PUSH1 0x4 DUP1 CALLDATASIZE SUB DUP2 ADD SWAP1 PUSH2 0xE1 SWAP2 SWAP1 PUSH2 0x8C2 JUMP JUMPDEST PUSH2 0x80C JUMP JUMPDEST STOP JUMPDEST DUP1 PUSH1 0x0 DUP1 PUSH2 0x100 EXP DUP2 SLOAD DUP2 PUSH20 0xFFFFFFFFFFFFFFFFFFFFFFFFFFFFFFFFFFFFFFFF MUL NOT AND SWAP1 DUP4 PUSH20 0xFFFFFFFFFFFFFFFFFFFFFFFFFFFFFFFFFFFFFFFF AND MUL OR SWAP1 SSTORE POP POP JUMP JUMPDEST DUP1 PUSH1 0x3 PUSH1 0x0 PUSH2 0x100 EXP DUP2 SLOAD DUP2 PUSH20 0xFFFFFFFFFFFFFFFFFFFFFFFFFFFFFFFFFFFFFFFF MUL NOT AND SWAP1 DUP4 PUSH20 0xFFFFFFFFFFFFFFFFFFFFFFFFFFFFFFFFFFFFFFFF AND MUL OR SWAP1 SSTORE POP POP JUMP JUMPDEST PUSH1 0x2 PUSH1 0x0 SWAP1 SLOAD SWAP1 PUSH2 0x100 EXP SWAP1 DIV PUSH20 0xFFFFFFFFFFFFFFFFFFFFFFFFFFFFFFFFFFFFFFFF AND PUSH20 0xFFFFFFFFFFFFFFFFFFFFFFFFFFFFFFFFFFFFFFFF AND PUSH4 0x9026DEE8 CALLER PUSH1 0x40 MLOAD DUP3 PUSH4 0xFFFFFFFF AND PUSH1 0xE0 SHL DUP2 MSTORE PUSH1 0x4 ADD PUSH2 0x1CA SWAP2 SWAP1 PUSH2 0xAEB JUMP JUMPDEST PUSH1 0x20 PUSH1 0x40 MLOAD DUP1 DUP4 SUB DUP2 DUP7 DUP1 EXTCODESIZE ISZERO DUP1 ISZERO PUSH2 0x1E2 JUMPI PUSH1 0x0 DUP1 REVERT JUMPDEST POP GAS STATICCALL ISZERO DUP1 ISZERO PUSH2 0x1F6 JUMPI RETURNDATASIZE PUSH1 0x0 DUP1 RETURNDATACOPY RETURNDATASIZE PUSH1 0x0 REVERT JUMPDEST POP POP POP POP PUSH1 0x40 MLOAD RETURNDATASIZE PUSH1 0x1F NOT PUSH1 0x1F DUP3 ADD AND DUP3 ADD DUP1 PUSH1 0x40 MSTORE POP DUP2 ADD SWAP1 PUSH2 0x21A SWAP2 SWAP1 PUSH2 0xB1B JUMP JUMPDEST PUSH2 0x259 JUMPI PUSH1 0x40 MLOAD PUSH32 0x8C379A000000000000000000000000000000000000000000000000000000000 DUP2 MSTORE PUSH1 0x4 ADD PUSH2 0x250 SWAP1 PUSH2 0xBA5 JUMP JUMPDEST PUSH1 0x40 MLOAD DUP1 SWAP2 SUB SWAP1 REVERT JUMPDEST PUSH1 0x0 DUP1 PUSH1 0x1 PUSH1 0x0 SWAP1 SLOAD SWAP1 PUSH2 0x100 EXP SWAP1 DIV PUSH20 0xFFFFFFFFFFFFFFFFFFFFFFFFFFFFFFFFFFFFFFFF AND PUSH20 0xFFFFFFFFFFFFFFFFFFFFFFFFFFFFFFFFFFFFFFFF AND PUSH4 0x63BF0C25 PUSH1 0x40 MLOAD DUP2 PUSH4 0xFFFFFFFF AND PUSH1 0xE0 SHL DUP2 MSTORE PUSH1 0x4 ADD PUSH1 0x0 PUSH1 0x40 MLOAD DUP1 DUP4 SUB DUP2 DUP7 DUP1 EXTCODESIZE ISZERO DUP1 ISZERO PUSH2 0x2C4 JUMPI PUSH1 0x0 DUP1 REVERT JUMPDEST POP GAS STATICCALL ISZERO DUP1 ISZERO PUSH2 0x2D8 JUMPI RETURNDATASIZE PUSH1 0x0 DUP1 RETURNDATACOPY RETURNDATASIZE PUSH1 0x0 REVERT JUMPDEST POP POP POP POP PUSH1 0x40 MLOAD RETURNDATASIZE PUSH1 0x0 DUP3 RETURNDATACOPY RETURNDATASIZE PUSH1 0x1F NOT PUSH1 0x1F DUP3 ADD AND DUP3 ADD DUP1 PUSH1 0x40 MSTORE POP DUP2 ADD SWAP1 PUSH2 0x301 SWAP2 SWAP1 PUSH2 0x1499 JUMP JUMPDEST SWAP1 POP JUMPDEST DUP1 MLOAD DUP3 LT ISZERO PUSH2 0x377 JUMPI DUP5 PUSH20 0xFFFFFFFFFFFFFFFFFFFFFFFFFFFFFFFFFFFFFFFF AND DUP2 DUP4 DUP2 MLOAD DUP2 LT PUSH2 0x337 JUMPI PUSH2 0x336 PUSH2 0x14E2 JUMP JUMPDEST JUMPDEST PUSH1 0x20 MUL PUSH1 0x20 ADD ADD MLOAD PUSH1 0x20 ADD MLOAD PUSH20 0xFFFFFFFFFFFFFFFFFFFFFFFFFFFFFFFFFFFFFFFF AND EQ ISZERO PUSH2 0x364 JUMPI PUSH2 0x377 JUMP JUMPDEST DUP2 DUP1 PUSH2 0x36F SWAP1 PUSH2 0x1540 JUMP JUMPDEST SWAP3 POP POP PUSH2 0x304 JUMP JUMPDEST DUP4 ISZERO PUSH2 0x6A4 JUMPI PUSH1 0x0 DUP1 PUSH1 0x0 SWAP1 SLOAD SWAP1 PUSH2 0x100 EXP SWAP1 DIV PUSH20 0xFFFFFFFFFFFFFFFFFFFFFFFFFFFFFFFFFFFFFFFF AND PUSH20 0xFFFFFFFFFFFFFFFFFFFFFFFFFFFFFFFFFFFFFFFF AND PUSH4 0xE4D1EE61 DUP4 DUP6 DUP2 MLOAD DUP2 LT PUSH2 0x3CF JUMPI PUSH2 0x3CE PUSH2 0x14E2 JUMP JUMPDEST JUMPDEST PUSH1 0x20 MUL PUSH1 0x20 ADD ADD MLOAD PUSH1 0x20 ADD MLOAD PUSH1 0x40 MLOAD DUP3 PUSH4 0xFFFFFFFF AND PUSH1 0xE0 SHL DUP2 MSTORE PUSH1 0x4 ADD PUSH2 0x3F7 SWAP2 SWAP1 PUSH2 0xAEB JUMP JUMPDEST PUSH1 0x0 PUSH1 0x40 MLOAD DUP1 DUP4 SUB DUP2 DUP7 DUP1 EXTCODESIZE ISZERO DUP1 ISZERO PUSH2 0x40F JUMPI PUSH1 0x0 DUP1 REVERT JUMPDEST POP GAS STATICCALL ISZERO DUP1 ISZERO PUSH2 0x423 JUMPI RETURNDATASIZE PUSH1 0x0 DUP1 RETURNDATACOPY RETURNDATASIZE PUSH1 0x0 REVERT JUMPDEST POP POP POP POP PUSH1 0x40 MLOAD RETURNDATASIZE PUSH1 0x0 DUP3 RETURNDATACOPY RETURNDATASIZE PUSH1 0x1F NOT PUSH1 0x1F DUP3 ADD AND DUP3 ADD DUP1 PUSH1 0x40 MSTORE POP DUP2 ADD SWAP1 PUSH2 0x44C SWAP2 SWAP1 PUSH2 0x1589 JUMP JUMPDEST SWAP1 POP PUSH1 0x3 PUSH1 0x0 SWAP1 SLOAD SWAP1 PUSH2 0x100 EXP SWAP1 DIV PUSH20 0xFFFFFFFFFFFFFFFFFFFFFFFFFFFFFFFFFFFFFFFF AND PUSH20 0xFFFFFFFFFFFFFFFFFFFFFFFFFFFFFFFFFFFFFFFF AND PUSH4 0xB7A170E2 DUP3 PUSH1 0x40 MLOAD DUP3 PUSH4 0xFFFFFFFF AND PUSH1 0xE0 SHL DUP2 MSTORE PUSH1 0x4 ADD PUSH2 0x4A9 SWAP2 SWAP1 PUSH2 0x1A4C JUMP JUMPDEST PUSH1 0x0 PUSH1 0x40 MLOAD DUP1 DUP4 SUB DUP2 PUSH1 0x0 DUP8 DUP1 EXTCODESIZE ISZERO DUP1 ISZERO PUSH2 0x4C3 JUMPI PUSH1 0x0 DUP1 REVERT JUMPDEST POP GAS CALL ISZERO DUP1 ISZERO PUSH2 0x4D7 JUMPI RETURNDATASIZE PUSH1 0x0 DUP1 RETURNDATACOPY RETURNDATASIZE PUSH1 0x0 REVERT JUMPDEST POP POP POP POP PUSH1 0x0 DUP1 SLOAD SWAP1 PUSH2 0x100 EXP SWAP1 DIV PUSH20 0xFFFFFFFFFFFFFFFFFFFFFFFFFFFFFFFFFFFFFFFF AND PUSH20 0xFFFFFFFFFFFFFFFFFFFFFFFFFFFFFFFFFFFFFFFF AND PUSH4 0x4AA5B14 DUP4 DUP6 DUP2 MLOAD DUP2 LT PUSH2 0x52A JUMPI PUSH2 0x529 PUSH2 0x14E2 JUMP JUMPDEST JUMPDEST PUSH1 0x20 MUL PUSH1 0x20 ADD ADD MLOAD CALLER PUSH1 0x40 MLOAD DUP4 PUSH4 0xFFFFFFFF AND PUSH1 0xE0 SHL DUP2 MSTORE PUSH1 0x4 ADD PUSH2 0x550 SWAP3 SWAP2 SWAP1 PUSH2 0x1A6E JUMP JUMPDEST PUSH1 0x0 PUSH1 0x40 MLOAD DUP1 DUP4 SUB DUP2 PUSH1 0x0 DUP8 DUP1 EXTCODESIZE ISZERO DUP1 ISZERO PUSH2 0x56A JUMPI PUSH1 0x0 DUP1 REVERT JUMPDEST POP GAS CALL ISZERO DUP1 ISZERO PUSH2 0x57E JUMPI RETURNDATASIZE PUSH1 0x0 DUP1 RETURNDATACOPY RETURNDATASIZE PUSH1 0x0 REVERT JUMPDEST POP POP POP POP PUSH1 0x1 PUSH1 0x0 SWAP1 SLOAD SWAP1 PUSH2 0x100 EXP SWAP1 DIV PUSH20 0xFFFFFFFFFFFFFFFFFFFFFFFFFFFFFFFFFFFFFFFF AND PUSH20 0xFFFFFFFFFFFFFFFFFFFFFFFFFFFFFFFFFFFFFFFF AND PUSH4 0x7F1BE357 DUP5 PUSH1 0x40 MLOAD DUP3 PUSH4 0xFFFFFFFF AND PUSH1 0xE0 SHL DUP2 MSTORE PUSH1 0x4 ADD PUSH2 0x5DD SWAP2 SWAP1 PUSH2 0x1AAD JUMP JUMPDEST PUSH1 0x0 PUSH1 0x40 MLOAD DUP1 DUP4 SUB DUP2 PUSH1 0x0 DUP8 DUP1 EXTCODESIZE ISZERO DUP1 ISZERO PUSH2 0x5F7 JUMPI PUSH1 0x0 DUP1 REVERT JUMPDEST POP GAS CALL ISZERO DUP1 ISZERO PUSH2 0x60B JUMPI RETURNDATASIZE PUSH1 0x0 DUP1 RETURNDATACOPY RETURNDATASIZE PUSH1 0x0 REVERT JUMPDEST POP POP POP POP PUSH1 0x1 PUSH1 0x0 SWAP1 SLOAD SWAP1 PUSH2 0x100 EXP SWAP1 DIV PUSH20 0xFFFFFFFFFFFFFFFFFFFFFFFFFFFFFFFFFFFFFFFF AND PUSH20 0xFFFFFFFFFFFFFFFFFFFFFFFFFFFFFFFFFFFFFFFF AND PUSH4 0xFD8D3E2 DUP8 DUP7 PUSH1 0x40 MLOAD DUP4 PUSH4 0xFFFFFFFF AND PUSH1 0xE0 SHL DUP2 MSTORE PUSH1 0x4 ADD PUSH2 0x66C SWAP3 SWAP2 SWAP1 PUSH2 0x1B4D JUMP JUMPDEST PUSH1 0x0 PUSH1 0x40 MLOAD DUP1 DUP4 SUB DUP2 PUSH1 0x0 DUP8 DUP1 EXTCODESIZE ISZERO DUP1 ISZERO PUSH2 0x686 JUMPI PUSH1 0x0 DUP1 REVERT JUMPDEST POP GAS CALL ISZERO DUP1 ISZERO PUSH2 0x69A JUMPI RETURNDATASIZE PUSH1 0x0 DUP1 RETURNDATACOPY RETURNDATASIZE PUSH1 0x0 REVERT JUMPDEST POP POP POP POP POP PUSH2 0x7C1 JUMP JUMPDEST PUSH1 0x1 PUSH1 0x0 SWAP1 SLOAD SWAP1 PUSH2 0x100 EXP SWAP1 DIV PUSH20 0xFFFFFFFFFFFFFFFFFFFFFFFFFFFFFFFFFFFFFFFF AND PUSH20 0xFFFFFFFFFFFFFFFFFFFFFFFFFFFFFFFFFFFFFFFF AND PUSH4 0x7F1BE357 DUP4 PUSH1 0x40 MLOAD DUP3 PUSH4 0xFFFFFFFF AND PUSH1 0xE0 SHL DUP2 MSTORE PUSH1 0x4 ADD PUSH2 0x6FF SWAP2 SWAP1 PUSH2 0x1AAD JUMP JUMPDEST PUSH1 0x0 PUSH1 0x40 MLOAD DUP1 DUP4 SUB DUP2 PUSH1 0x0 DUP8 DUP1 EXTCODESIZE ISZERO DUP1 ISZERO PUSH2 0x719 JUMPI PUSH1 0x0 DUP1 REVERT JUMPDEST POP GAS CALL ISZERO DUP1 ISZERO PUSH2 0x72D JUMPI RETURNDATASIZE PUSH1 0x0 DUP1 RETURNDATACOPY RETURNDATASIZE PUSH1 0x0 REVERT JUMPDEST POP POP POP POP PUSH1 0x1 PUSH1 0x0 SWAP1 SLOAD SWAP1 PUSH2 0x100 EXP SWAP1 DIV PUSH20 0xFFFFFFFFFFFFFFFFFFFFFFFFFFFFFFFFFFFFFFFF AND PUSH20 0xFFFFFFFFFFFFFFFFFFFFFFFFFFFFFFFFFFFFFFFF AND PUSH4 0xFD8D3E2 DUP7 DUP6 PUSH1 0x40 MLOAD DUP4 PUSH4 0xFFFFFFFF AND PUSH1 0xE0 SHL DUP2 MSTORE PUSH1 0x4 ADD PUSH2 0x78E SWAP3 SWAP2 SWAP1 PUSH2 0x1BDC JUMP JUMPDEST PUSH1 0x0 PUSH1 0x40 MLOAD DUP1 DUP4 SUB DUP2 PUSH1 0x0 DUP8 DUP1 EXTCODESIZE ISZERO DUP1 ISZERO PUSH2 0x7A8 JUMPI PUSH1 0x0 DUP1 REVERT JUMPDEST POP GAS CALL ISZERO DUP1 ISZERO PUSH2 0x7BC JUMPI RETURNDATASIZE PUSH1 0x0 DUP1 RETURNDATACOPY RETURNDATASIZE PUSH1 0x0 REVERT JUMPDEST POP POP POP POP JUMPDEST POP POP POP POP POP JUMP JUMPDEST DUP1 PUSH1 0x2 PUSH1 0x0 PUSH2 0x100 EXP DUP2 SLOAD DUP2 PUSH20 0xFFFFFFFFFFFFFFFFFFFFFFFFFFFFFFFFFFFFFFFF MUL NOT AND SWAP1 DUP4 PUSH20 0xFFFFFFFFFFFFFFFFFFFFFFFFFFFFFFFFFFFFFFFF AND MUL OR SWAP1 SSTORE POP POP JUMP JUMPDEST DUP1 PUSH1 0x1 PUSH1 0x0 PUSH2 0x100 EXP DUP2 SLOAD DUP2 PUSH20 0xFFFFFFFFFFFFFFFFFFFFFFFFFFFFFFFFFFFFFFFF MUL NOT AND SWAP1 DUP4 PUSH20 0xFFFFFFFFFFFFFFFFFFFFFFFFFFFFFFFFFFFFFFFF AND MUL OR SWAP1 SSTORE POP POP JUMP JUMPDEST PUSH1 0x0 PUSH1 0x40 MLOAD SWAP1 POP SWAP1 JUMP JUMPDEST PUSH1 0x0 DUP1 REVERT JUMPDEST PUSH1 0x0 DUP1 REVERT JUMPDEST PUSH1 0x0 PUSH20 0xFFFFFFFFFFFFFFFFFFFFFFFFFFFFFFFFFFFFFFFF DUP3 AND SWAP1 POP SWAP2 SWAP1 POP JUMP JUMPDEST PUSH1 0x0 PUSH2 0x88F DUP3 PUSH2 0x864 JUMP JUMPDEST SWAP1 POP SWAP2 SWAP1 POP JUMP JUMPDEST PUSH2 0x89F DUP2 PUSH2 0x884 JUMP JUMPDEST DUP2 EQ PUSH2 0x8AA JUMPI PUSH1 0x0 DUP1 REVERT JUMPDEST POP JUMP JUMPDEST PUSH1 0x0 DUP2 CALLDATALOAD SWAP1 POP PUSH2 0x8BC DUP2 PUSH2 0x896 JUMP JUMPDEST SWAP3 SWAP2 POP POP JUMP JUMPDEST PUSH1 0x0 PUSH1 0x20 DUP3 DUP5 SUB SLT ISZERO PUSH2 0x8D8 JUMPI PUSH2 0x8D7 PUSH2 0x85A JUMP JUMPDEST JUMPDEST PUSH1 0x0 PUSH2 0x8E6 DUP5 DUP3 DUP6 ADD PUSH2 0x8AD JUMP JUMPDEST SWAP2 POP POP SWAP3 SWAP2 POP POP JUMP JUMPDEST PUSH1 0x0 DUP2 ISZERO ISZERO SWAP1 POP SWAP2 SWAP1 POP JUMP JUMPDEST PUSH2 0x904 DUP2 PUSH2 0x8EF JUMP JUMPDEST DUP2 EQ PUSH2 0x90F JUMPI PUSH1 0x0 DUP1 REVERT JUMPDEST POP JUMP JUMPDEST PUSH1 0x0 DUP2 CALLDATALOAD SWAP1 POP PUSH2 0x921 DUP2 PUSH2 0x8FB JUMP JUMPDEST SWAP3 SWAP2 POP POP JUMP JUMPDEST PUSH1 0x0 DUP1 REVERT JUMPDEST PUSH1 0x0 DUP1 REVERT JUMPDEST PUSH1 0x0 PUSH1 0x1F NOT PUSH1 0x1F DUP4 ADD AND SWAP1 POP SWAP2 SWAP1 POP JUMP JUMPDEST PUSH32 0x4E487B7100000000000000000000000000000000000000000000000000000000 PUSH1 0x0 MSTORE PUSH1 0x41 PUSH1 0x4 MSTORE PUSH1 0x24 PUSH1 0x0 REVERT JUMPDEST PUSH2 0x97A DUP3 PUSH2 0x931 JUMP JUMPDEST DUP2 ADD DUP2 DUP2 LT PUSH8 0xFFFFFFFFFFFFFFFF DUP3 GT OR ISZERO PUSH2 0x999 JUMPI PUSH2 0x998 PUSH2 0x942 JUMP JUMPDEST JUMPDEST DUP1 PUSH1 0x40 MSTORE POP POP POP JUMP JUMPDEST PUSH1 0x0 PUSH2 0x9AC PUSH2 0x850 JUMP JUMPDEST SWAP1 POP PUSH2 0x9B8 DUP3 DUP3 PUSH2 0x971 JUMP JUMPDEST SWAP2 SWAP1 POP JUMP JUMPDEST PUSH1 0x0 PUSH8 0xFFFFFFFFFFFFFFFF DUP3 GT ISZERO PUSH2 0x9D8 JUMPI PUSH2 0x9D7 PUSH2 0x942 JUMP JUMPDEST JUMPDEST PUSH2 0x9E1 DUP3 PUSH2 0x931 JUMP JUMPDEST SWAP1 POP PUSH1 0x20 DUP2 ADD SWAP1 POP SWAP2 SWAP1 POP JUMP JUMPDEST DUP3 DUP2 DUP4 CALLDATACOPY PUSH1 0x0 DUP4 DUP4 ADD MSTORE POP POP POP JUMP JUMPDEST PUSH1 0x0 PUSH2 0xA10 PUSH2 0xA0B DUP5 PUSH2 0x9BD JUMP JUMPDEST PUSH2 0x9A2 JUMP JUMPDEST SWAP1 POP DUP3 DUP2 MSTORE PUSH1 0x20 DUP2 ADD DUP5 DUP5 DUP5 ADD GT ISZERO PUSH2 0xA2C JUMPI PUSH2 0xA2B PUSH2 0x92C JUMP JUMPDEST JUMPDEST PUSH2 0xA37 DUP5 DUP3 DUP6 PUSH2 0x9EE JUMP JUMPDEST POP SWAP4 SWAP3 POP POP POP JUMP JUMPDEST PUSH1 0x0 DUP3 PUSH1 0x1F DUP4 ADD SLT PUSH2 0xA54 JUMPI PUSH2 0xA53 PUSH2 0x927 JUMP JUMPDEST JUMPDEST DUP2 CALLDATALOAD PUSH2 0xA64 DUP5 DUP3 PUSH1 0x20 DUP7 ADD PUSH2 0x9FD JUMP JUMPDEST SWAP2 POP POP SWAP3 SWAP2 POP POP JUMP JUMPDEST PUSH1 0x0 DUP1 PUSH1 0x0 PUSH1 0x60 DUP5 DUP7 SUB SLT ISZERO PUSH2 0xA86 JUMPI PUSH2 0xA85 PUSH2 0x85A JUMP JUMPDEST JUMPDEST PUSH1 0x0 PUSH2 0xA94 DUP7 DUP3 DUP8 ADD PUSH2 0x8AD JUMP JUMPDEST SWAP4 POP POP PUSH1 0x20 PUSH2 0xAA5 DUP7 DUP3 DUP8 ADD PUSH2 0x912 JUMP JUMPDEST SWAP3 POP POP PUSH1 0x40 DUP5 ADD CALLDATALOAD PUSH8 0xFFFFFFFFFFFFFFFF DUP2 GT ISZERO PUSH2 0xAC6 JUMPI PUSH2 0xAC5 PUSH2 0x85F JUMP JUMPDEST JUMPDEST PUSH2 0xAD2 DUP7 DUP3 DUP8 ADD PUSH2 0xA3F JUMP JUMPDEST SWAP2 POP POP SWAP3 POP SWAP3 POP SWAP3 JUMP JUMPDEST PUSH2 0xAE5 DUP2 PUSH2 0x884 JUMP JUMPDEST DUP3 MSTORE POP POP JUMP JUMPDEST PUSH1 0x0 PUSH1 0x20 DUP3 ADD SWAP1 POP PUSH2 0xB00 PUSH1 0x0 DUP4 ADD DUP5 PUSH2 0xADC JUMP JUMPDEST SWAP3 SWAP2 POP POP JUMP JUMPDEST PUSH1 0x0 DUP2 MLOAD SWAP1 POP PUSH2 0xB15 DUP2 PUSH2 0x8FB JUMP JUMPDEST SWAP3 SWAP2 POP POP JUMP JUMPDEST PUSH1 0x0 PUSH1 0x20 DUP3 DUP5 SUB SLT ISZERO PUSH2 0xB31 JUMPI PUSH2 0xB30 PUSH2 0x85A JUMP JUMPDEST JUMPDEST PUSH1 0x0 PUSH2 0xB3F DUP5 DUP3 DUP6 ADD PUSH2 0xB06 JUMP JUMPDEST SWAP2 POP POP SWAP3 SWAP2 POP POP JUMP JUMPDEST PUSH1 0x0 DUP3 DUP3 MSTORE PUSH1 0x20 DUP3 ADD SWAP1 POP SWAP3 SWAP2 POP POP JUMP JUMPDEST PUSH32 0x596F7520617265206E6F742041646D696E000000000000000000000000000000 PUSH1 0x0 DUP3 ADD MSTORE POP JUMP JUMPDEST PUSH1 0x0 PUSH2 0xB8F PUSH1 0x11 DUP4 PUSH2 0xB48 JUMP JUMPDEST SWAP2 POP PUSH2 0xB9A DUP3 PUSH2 0xB59 JUMP JUMPDEST PUSH1 0x20 DUP3 ADD SWAP1 POP SWAP2 SWAP1 POP JUMP JUMPDEST PUSH1 0x0 PUSH1 0x20 DUP3 ADD SWAP1 POP DUP2 DUP2 SUB PUSH1 0x0 DUP4 ADD MSTORE PUSH2 0xBBE DUP2 PUSH2 0xB82 JUMP JUMPDEST SWAP1 POP SWAP2 SWAP1 POP JUMP JUMPDEST PUSH1 0x0 PUSH8 0xFFFFFFFFFFFFFFFF DUP3 GT ISZERO PUSH2 0xBE0 JUMPI PUSH2 0xBDF PUSH2 0x942 JUMP JUMPDEST JUMPDEST PUSH1 0x20 DUP3 MUL SWAP1 POP PUSH1 0x20 DUP2 ADD SWAP1 POP SWAP2 SWAP1 POP JUMP JUMPDEST PUSH1 0x0 DUP1 REVERT JUMPDEST PUSH1 0x0 DUP1 REVERT JUMPDEST PUSH1 0x0 DUP1 REVERT JUMPDEST PUSH1 0x0 JUMPDEST DUP4 DUP2 LT ISZERO PUSH2 0xC1E JUMPI DUP1 DUP3 ADD MLOAD DUP2 DUP5 ADD MSTORE PUSH1 0x20 DUP2 ADD SWAP1 POP PUSH2 0xC03 JUMP JUMPDEST DUP4 DUP2 GT ISZERO PUSH2 0xC2D JUMPI PUSH1 0x0 DUP5 DUP5 ADD MSTORE JUMPDEST POP POP POP POP JUMP JUMPDEST PUSH1 0x0 PUSH2 0xC46 PUSH2 0xC41 DUP5 PUSH2 0x9BD JUMP JUMPDEST PUSH2 0x9A2 JUMP JUMPDEST SWAP1 POP DUP3 DUP2 MSTORE PUSH1 0x20 DUP2 ADD DUP5 DUP5 DUP5 ADD GT ISZERO PUSH2 0xC62 JUMPI PUSH2 0xC61 PUSH2 0x92C JUMP JUMPDEST JUMPDEST PUSH2 0xC6D DUP5 DUP3 DUP6 PUSH2 0xC00 JUMP JUMPDEST POP SWAP4 SWAP3 POP POP POP JUMP JUMPDEST PUSH1 0x0 DUP3 PUSH1 0x1F DUP4 ADD SLT PUSH2 0xC8A JUMPI PUSH2 0xC89 PUSH2 0x927 JUMP JUMPDEST JUMPDEST DUP2 MLOAD PUSH2 0xC9A DUP5 DUP3 PUSH1 0x20 DUP7 ADD PUSH2 0xC33 JUMP JUMPDEST SWAP2 POP POP SWAP3 SWAP2 POP POP JUMP JUMPDEST PUSH1 0x0 DUP2 MLOAD SWAP1 POP PUSH2 0xCB2 DUP2 PUSH2 0x896 JUMP JUMPDEST SWAP3 SWAP2 POP POP JUMP JUMPDEST PUSH1 0x0 DUP2 SWAP1 POP SWAP2 SWAP1 POP JUMP JUMPDEST PUSH2 0xCCB DUP2 PUSH2 0xCB8 JUMP JUMPDEST DUP2 EQ PUSH2 0xCD6 JUMPI PUSH1 0x0 DUP1 REVERT JUMPDEST POP JUMP JUMPDEST PUSH1 0x0 DUP2 MLOAD SWAP1 POP PUSH2 0xCE8 DUP2 PUSH2 0xCC2 JUMP JUMPDEST SWAP3 SWAP2 POP POP JUMP JUMPDEST PUSH1 0x0 PUSH1 0xA0 DUP3 DUP5 SUB SLT ISZERO PUSH2 0xD04 JUMPI PUSH2 0xD03 PUSH2 0xBF6 JUMP JUMPDEST JUMPDEST PUSH2 0xD0E PUSH1 0xA0 PUSH2 0x9A2 JUMP JUMPDEST SWAP1 POP PUSH1 0x0 DUP3 ADD MLOAD PUSH8 0xFFFFFFFFFFFFFFFF DUP2 GT ISZERO PUSH2 0xD2E JUMPI PUSH2 0xD2D PUSH2 0xBFB JUMP JUMPDEST JUMPDEST PUSH2 0xD3A DUP5 DUP3 DUP6 ADD PUSH2 0xC75 JUMP JUMPDEST PUSH1 0x0 DUP4 ADD MSTORE POP PUSH1 0x20 DUP3 ADD MLOAD PUSH8 0xFFFFFFFFFFFFFFFF DUP2 GT ISZERO PUSH2 0xD5E JUMPI PUSH2 0xD5D PUSH2 0xBFB JUMP JUMPDEST JUMPDEST PUSH2 0xD6A DUP5 DUP3 DUP6 ADD PUSH2 0xC75 JUMP JUMPDEST PUSH1 0x20 DUP4 ADD MSTORE POP PUSH1 0x40 DUP3 ADD MLOAD PUSH8 0xFFFFFFFFFFFFFFFF DUP2 GT ISZERO PUSH2 0xD8E JUMPI PUSH2 0xD8D PUSH2 0xBFB JUMP JUMPDEST JUMPDEST PUSH2 0xD9A DUP5 DUP3 DUP6 ADD PUSH2 0xC75 JUMP JUMPDEST PUSH1 0x40 DUP4 ADD MSTORE POP PUSH1 0x60 DUP3 ADD MLOAD PUSH8 0xFFFFFFFFFFFFFFFF DUP2 GT ISZERO PUSH2 0xDBE JUMPI PUSH2 0xDBD PUSH2 0xBFB JUMP JUMPDEST JUMPDEST PUSH2 0xDCA DUP5 DUP3 DUP6 ADD PUSH2 0xC75 JUMP JUMPDEST PUSH1 0x60 DUP4 ADD MSTORE POP PUSH1 0x80 PUSH2 0xDDE DUP5 DUP3 DUP6 ADD PUSH2 0xB06 JUMP JUMPDEST PUSH1 0x80 DUP4 ADD MSTORE POP SWAP3 SWAP2 POP POP JUMP JUMPDEST PUSH1 0x0 PUSH2 0x160 DUP3 DUP5 SUB SLT ISZERO PUSH2 0xE01 JUMPI PUSH2 0xE00 PUSH2 0xBF6 JUMP JUMPDEST JUMPDEST PUSH2 0xE0C PUSH2 0x160 PUSH2 0x9A2 JUMP JUMPDEST SWAP1 POP PUSH1 0x0 DUP3 ADD MLOAD PUSH8 0xFFFFFFFFFFFFFFFF DUP2 GT ISZERO PUSH2 0xE2C JUMPI PUSH2 0xE2B PUSH2 0xBFB JUMP JUMPDEST JUMPDEST PUSH2 0xE38 DUP5 DUP3 DUP6 ADD PUSH2 0xC75 JUMP JUMPDEST PUSH1 0x0 DUP4 ADD MSTORE POP PUSH1 0x20 DUP3 ADD MLOAD PUSH8 0xFFFFFFFFFFFFFFFF DUP2 GT ISZERO PUSH2 0xE5C JUMPI PUSH2 0xE5B PUSH2 0xBFB JUMP JUMPDEST JUMPDEST PUSH2 0xE68 DUP5 DUP3 DUP6 ADD PUSH2 0xC75 JUMP JUMPDEST PUSH1 0x20 DUP4 ADD MSTORE POP PUSH1 0x40 DUP3 ADD MLOAD PUSH8 0xFFFFFFFFFFFFFFFF DUP2 GT ISZERO PUSH2 0xE8C JUMPI PUSH2 0xE8B PUSH2 0xBFB JUMP JUMPDEST JUMPDEST PUSH2 0xE98 DUP5 DUP3 DUP6 ADD PUSH2 0xC75 JUMP JUMPDEST PUSH1 0x40 DUP4 ADD MSTORE POP PUSH1 0x60 DUP3 ADD MLOAD PUSH8 0xFFFFFFFFFFFFFFFF DUP2 GT ISZERO PUSH2 0xEBC JUMPI PUSH2 0xEBB PUSH2 0xBFB JUMP JUMPDEST JUMPDEST PUSH2 0xEC8 DUP5 DUP3 DUP6 ADD PUSH2 0xC75 JUMP JUMPDEST PUSH1 0x60 DUP4 ADD MSTORE POP PUSH1 0x80 DUP3 ADD MLOAD PUSH8 0xFFFFFFFFFFFFFFFF DUP2 GT ISZERO PUSH2 0xEEC JUMPI PUSH2 0xEEB PUSH2 0xBFB JUMP JUMPDEST JUMPDEST PUSH2 0xEF8 DUP5 DUP3 DUP6 ADD PUSH2 0xC75 JUMP JUMPDEST PUSH1 0x80 DUP4 ADD MSTORE POP PUSH1 0xA0 DUP3 ADD MLOAD PUSH8 0xFFFFFFFFFFFFFFFF DUP2 GT ISZERO PUSH2 0xF1C JUMPI PUSH2 0xF1B PUSH2 0xBFB JUMP JUMPDEST JUMPDEST PUSH2 0xF28 DUP5 DUP3 DUP6 ADD PUSH2 0xC75 JUMP JUMPDEST PUSH1 0xA0 DUP4 ADD MSTORE POP PUSH1 0xC0 DUP3 ADD MLOAD PUSH8 0xFFFFFFFFFFFFFFFF DUP2 GT ISZERO PUSH2 0xF4C JUMPI PUSH2 0xF4B PUSH2 0xBFB JUMP JUMPDEST JUMPDEST PUSH2 0xF58 DUP5 DUP3 DUP6 ADD PUSH2 0xC75 JUMP JUMPDEST PUSH1 0xC0 DUP4 ADD MSTORE POP PUSH1 0xE0 DUP3 ADD MLOAD PUSH8 0xFFFFFFFFFFFFFFFF DUP2 GT ISZERO PUSH2 0xF7C JUMPI PUSH2 0xF7B PUSH2 0xBFB JUMP JUMPDEST JUMPDEST PUSH2 0xF88 DUP5 DUP3 DUP6 ADD PUSH2 0xC75 JUMP JUMPDEST PUSH1 0xE0 DUP4 ADD MSTORE POP PUSH2 0x100 DUP3 ADD MLOAD PUSH8 0xFFFFFFFFFFFFFFFF DUP2 GT ISZERO PUSH2 0xFAD JUMPI PUSH2 0xFAC PUSH2 0xBFB JUMP JUMPDEST JUMPDEST PUSH2 0xFB9 DUP5 DUP3 DUP6 ADD PUSH2 0xC75 JUMP JUMPDEST PUSH2 0x100 DUP4 ADD MSTORE POP PUSH2 0x120 DUP3 ADD MLOAD PUSH8 0xFFFFFFFFFFFFFFFF DUP2 GT ISZERO PUSH2 0xFDF JUMPI PUSH2 0xFDE PUSH2 0xBFB JUMP JUMPDEST JUMPDEST PUSH2 0xFEB DUP5 DUP3 DUP6 ADD PUSH2 0xC75 JUMP JUMPDEST PUSH2 0x120 DUP4 ADD MSTORE POP PUSH2 0x140 PUSH2 0x1001 DUP5 DUP3 DUP6 ADD PUSH2 0xB06 JUMP JUMPDEST PUSH2 0x140 DUP4 ADD MSTORE POP SWAP3 SWAP2 POP POP JUMP JUMPDEST PUSH1 0x0 PUSH1 0xC0 DUP3 DUP5 SUB SLT ISZERO PUSH2 0x1024 JUMPI PUSH2 0x1023 PUSH2 0xBF6 JUMP JUMPDEST JUMPDEST PUSH2 0x102E PUSH1 0xC0 PUSH2 0x9A2 JUMP JUMPDEST SWAP1 POP PUSH1 0x0 DUP3 ADD MLOAD PUSH8 0xFFFFFFFFFFFFFFFF DUP2 GT ISZERO PUSH2 0x104E JUMPI PUSH2 0x104D PUSH2 0xBFB JUMP JUMPDEST JUMPDEST PUSH2 0x105A DUP5 DUP3 DUP6 ADD PUSH2 0xC75 JUMP JUMPDEST PUSH1 0x0 DUP4 ADD MSTORE POP PUSH1 0x20 DUP3 ADD MLOAD PUSH8 0xFFFFFFFFFFFFFFFF DUP2 GT ISZERO PUSH2 0x107E JUMPI PUSH2 0x107D PUSH2 0xBFB JUMP JUMPDEST JUMPDEST PUSH2 0x108A DUP5 DUP3 DUP6 ADD PUSH2 0xC75 JUMP JUMPDEST PUSH1 0x20 DUP4 ADD MSTORE POP PUSH1 0x40 DUP3 ADD MLOAD PUSH8 0xFFFFFFFFFFFFFFFF DUP2 GT ISZERO PUSH2 0x10AE JUMPI PUSH2 0x10AD PUSH2 0xBFB JUMP JUMPDEST JUMPDEST PUSH2 0x10BA DUP5 DUP3 DUP6 ADD PUSH2 0xC75 JUMP JUMPDEST PUSH1 0x40 DUP4 ADD MSTORE POP PUSH1 0x60 DUP3 ADD MLOAD PUSH8 0xFFFFFFFFFFFFFFFF DUP2 GT ISZERO PUSH2 0x10DE JUMPI PUSH2 0x10DD PUSH2 0xBFB JUMP JUMPDEST JUMPDEST PUSH2 0x10EA DUP5 DUP3 DUP6 ADD PUSH2 0xC75 JUMP JUMPDEST PUSH1 0x60 DUP4 ADD MSTORE POP PUSH1 0x80 DUP3 ADD MLOAD PUSH8 0xFFFFFFFFFFFFFFFF DUP2 GT ISZERO PUSH2 0x110E JUMPI PUSH2 0x110D PUSH2 0xBFB JUMP JUMPDEST JUMPDEST PUSH2 0x111A DUP5 DUP3 DUP6 ADD PUSH2 0xC75 JUMP JUMPDEST PUSH1 0x80 DUP4 ADD MSTORE POP PUSH1 0xA0 PUSH2 0x112E DUP5 DUP3 DUP6 ADD PUSH2 0xB06 JUMP JUMPDEST PUSH1 0xA0 DUP4 ADD MSTORE POP SWAP3 SWAP2 POP POP JUMP JUMPDEST PUSH1 0x0 DUP2 SWAP1 POP SWAP2 SWAP1 POP JUMP JUMPDEST PUSH2 0x114D DUP2 PUSH2 0x113A JUMP JUMPDEST DUP2 EQ PUSH2 0x1158 JUMPI PUSH1 0x0 DUP1 REVERT JUMPDEST POP JUMP JUMPDEST PUSH1 0x0 DUP2 MLOAD SWAP1 POP PUSH2 0x116A DUP2 PUSH2 0x1144 JUMP JUMPDEST SWAP3 SWAP2 POP POP JUMP JUMPDEST PUSH1 0x0 PUSH1 0xE0 DUP3 DUP5 SUB SLT ISZERO PUSH2 0x1186 JUMPI PUSH2 0x1185 PUSH2 0xBF6 JUMP JUMPDEST JUMPDEST PUSH2 0x1190 PUSH1 0xE0 PUSH2 0x9A2 JUMP JUMPDEST SWAP1 POP PUSH1 0x0 DUP3 ADD MLOAD PUSH8 0xFFFFFFFFFFFFFFFF DUP2 GT ISZERO PUSH2 0x11B0 JUMPI PUSH2 0x11AF PUSH2 0xBFB JUMP JUMPDEST JUMPDEST PUSH2 0x11BC DUP5 DUP3 DUP6 ADD PUSH2 0xC75 JUMP JUMPDEST PUSH1 0x0 DUP4 ADD MSTORE POP PUSH1 0x20 PUSH2 0x11D0 DUP5 DUP3 DUP6 ADD PUSH2 0x115B JUMP JUMPDEST PUSH1 0x20 DUP4 ADD MSTORE POP PUSH1 0x40 PUSH2 0x11E4 DUP5 DUP3 DUP6 ADD PUSH2 0x115B JUMP JUMPDEST PUSH1 0x40 DUP4 ADD MSTORE POP PUSH1 0x60 DUP3 ADD MLOAD PUSH8 0xFFFFFFFFFFFFFFFF DUP2 GT ISZERO PUSH2 0x1208 JUMPI PUSH2 0x1207 PUSH2 0xBFB JUMP JUMPDEST JUMPDEST PUSH2 0x1214 DUP5 DUP3 DUP6 ADD PUSH2 0xC75 JUMP JUMPDEST PUSH1 0x60 DUP4 ADD MSTORE POP PUSH1 0x80 PUSH2 0x1228 DUP5 DUP3 DUP6 ADD PUSH2 0x115B JUMP JUMPDEST PUSH1 0x80 DUP4 ADD MSTORE POP PUSH1 0xA0 PUSH2 0x123C DUP5 DUP3 DUP6 ADD PUSH2 0x115B JUMP JUMPDEST PUSH1 0xA0 DUP4 ADD MSTORE POP PUSH1 0xC0 PUSH2 0x1250 DUP5 DUP3 DUP6 ADD PUSH2 0xB06 JUMP JUMPDEST PUSH1 0xC0 DUP4 ADD MSTORE POP SWAP3 SWAP2 POP POP JUMP JUMPDEST PUSH1 0x0 PUSH2 0x120 DUP3 DUP5 SUB SLT ISZERO PUSH2 0x1273 JUMPI PUSH2 0x1272 PUSH2 0xBF6 JUMP JUMPDEST JUMPDEST PUSH2 0x127E PUSH2 0x120 PUSH2 0x9A2 JUMP JUMPDEST SWAP1 POP PUSH1 0x0 DUP3 ADD MLOAD PUSH8 0xFFFFFFFFFFFFFFFF DUP2 GT ISZERO PUSH2 0x129E JUMPI PUSH2 0x129D PUSH2 0xBFB JUMP JUMPDEST JUMPDEST PUSH2 0x12AA DUP5 DUP3 DUP6 ADD PUSH2 0xC75 JUMP JUMPDEST PUSH1 0x0 DUP4 ADD MSTORE POP PUSH1 0x20 PUSH2 0x12BE DUP5 DUP3 DUP6 ADD PUSH2 0xCA3 JUMP JUMPDEST PUSH1 0x20 DUP4 ADD MSTORE POP PUSH1 0x40 DUP3 ADD MLOAD PUSH8 0xFFFFFFFFFFFFFFFF DUP2 GT ISZERO PUSH2 0x12E2 JUMPI PUSH2 0x12E1 PUSH2 0xBFB JUMP JUMPDEST JUMPDEST PUSH2 0x12EE DUP5 DUP3 DUP6 ADD PUSH2 0xC75 JUMP JUMPDEST PUSH1 0x40 DUP4 ADD MSTORE POP PUSH1 0x60 PUSH2 0x1302 DUP5 DUP3 DUP6 ADD PUSH2 0xCD9 JUMP JUMPDEST PUSH1 0x60 DUP4 ADD MSTORE POP PUSH1 0x80 DUP3 ADD MLOAD PUSH8 0xFFFFFFFFFFFFFFFF DUP2 GT ISZERO PUSH2 0x1326 JUMPI PUSH2 0x1325 PUSH2 0xBFB JUMP JUMPDEST JUMPDEST PUSH2 0x1332 DUP5 DUP3 DUP6 ADD PUSH2 0xCEE JUMP JUMPDEST PUSH1 0x80 DUP4 ADD MSTORE POP PUSH1 0xA0 DUP3 ADD MLOAD PUSH8 0xFFFFFFFFFFFFFFFF DUP2 GT ISZERO PUSH2 0x1356 JUMPI PUSH2 0x1355 PUSH2 0xBFB JUMP JUMPDEST JUMPDEST PUSH2 0x1362 DUP5 DUP3 DUP6 ADD PUSH2 0xDEA JUMP JUMPDEST PUSH1 0xA0 DUP4 ADD MSTORE POP PUSH1 0xC0 DUP3 ADD MLOAD PUSH8 0xFFFFFFFFFFFFFFFF DUP2 GT ISZERO PUSH2 0x1386 JUMPI PUSH2 0x1385 PUSH2 0xBFB JUMP JUMPDEST JUMPDEST PUSH2 0x1392 DUP5 DUP3 DUP6 ADD PUSH2 0x100E JUMP JUMPDEST PUSH1 0xC0 DUP4 ADD MSTORE POP PUSH1 0xE0 DUP3 ADD MLOAD PUSH8 0xFFFFFFFFFFFFFFFF DUP2 GT ISZERO PUSH2 0x13B6 JUMPI PUSH2 0x13B5 PUSH2 0xBFB JUMP JUMPDEST JUMPDEST PUSH2 0x13C2 DUP5 DUP3 DUP6 ADD PUSH2 0x1170 JUMP JUMPDEST PUSH1 0xE0 DUP4 ADD MSTORE POP PUSH2 0x100 PUSH2 0x13D7 DUP5 DUP3 DUP6 ADD PUSH2 0xB06 JUMP JUMPDEST PUSH2 0x100 DUP4 ADD MSTORE POP SWAP3 SWAP2 POP POP JUMP JUMPDEST PUSH1 0x0 PUSH2 0x13F7 PUSH2 0x13F2 DUP5 PUSH2 0xBC5 JUMP JUMPDEST PUSH2 0x9A2 JUMP JUMPDEST SWAP1 POP DUP1 DUP4 DUP3 MSTORE PUSH1 0x20 DUP3 ADD SWAP1 POP PUSH1 0x20 DUP5 MUL DUP4 ADD DUP6 DUP2 GT ISZERO PUSH2 0x141A JUMPI PUSH2 0x1419 PUSH2 0xBF1 JUMP JUMPDEST JUMPDEST DUP4 JUMPDEST DUP2 DUP2 LT ISZERO PUSH2 0x1461 JUMPI DUP1 MLOAD PUSH8 0xFFFFFFFFFFFFFFFF DUP2 GT ISZERO PUSH2 0x143F JUMPI PUSH2 0x143E PUSH2 0x927 JUMP JUMPDEST JUMPDEST DUP1 DUP7 ADD PUSH2 0x144C DUP10 DUP3 PUSH2 0x125C JUMP JUMPDEST DUP6 MSTORE PUSH1 0x20 DUP6 ADD SWAP5 POP POP POP PUSH1 0x20 DUP2 ADD SWAP1 POP PUSH2 0x141C JUMP JUMPDEST POP POP POP SWAP4 SWAP3 POP POP POP JUMP JUMPDEST PUSH1 0x0 DUP3 PUSH1 0x1F DUP4 ADD SLT PUSH2 0x1480 JUMPI PUSH2 0x147F PUSH2 0x927 JUMP JUMPDEST JUMPDEST DUP2 MLOAD PUSH2 0x1490 DUP5 DUP3 PUSH1 0x20 DUP7 ADD PUSH2 0x13E4 JUMP JUMPDEST SWAP2 POP POP SWAP3 SWAP2 POP POP JUMP JUMPDEST PUSH1 0x0 PUSH1 0x20 DUP3 DUP5 SUB SLT ISZERO PUSH2 0x14AF JUMPI PUSH2 0x14AE PUSH2 0x85A JUMP JUMPDEST JUMPDEST PUSH1 0x0 DUP3 ADD MLOAD PUSH8 0xFFFFFFFFFFFFFFFF DUP2 GT ISZERO PUSH2 0x14CD JUMPI PUSH2 0x14CC PUSH2 0x85F JUMP JUMPDEST JUMPDEST PUSH2 0x14D9 DUP5 DUP3 DUP6 ADD PUSH2 0x146B JUMP JUMPDEST SWAP2 POP POP SWAP3 SWAP2 POP POP JUMP JUMPDEST PUSH32 0x4E487B7100000000000000000000000000000000000000000000000000000000 PUSH1 0x0 MSTORE PUSH1 0x32 PUSH1 0x4 MSTORE PUSH1 0x24 PUSH1 0x0 REVERT JUMPDEST PUSH32 0x4E487B7100000000000000000000000000000000000000000000000000000000 PUSH1 0x0 MSTORE PUSH1 0x11 PUSH1 0x4 MSTORE PUSH1 0x24 PUSH1 0x0 REVERT JUMPDEST PUSH1 0x0 PUSH2 0x154B DUP3 PUSH2 0xCB8 JUMP JUMPDEST SWAP2 POP PUSH32 0xFFFFFFFFFFFFFFFFFFFFFFFFFFFFFFFFFFFFFFFFFFFFFFFFFFFFFFFFFFFFFFFF DUP3 EQ ISZERO PUSH2 0x157E JUMPI PUSH2 0x157D PUSH2 0x1511 JUMP JUMPDEST JUMPDEST PUSH1 0x1 DUP3 ADD SWAP1 POP SWAP2 SWAP1 POP JUMP JUMPDEST PUSH1 0x0 PUSH1 0x20 DUP3 DUP5 SUB SLT ISZERO PUSH2 0x159F JUMPI PUSH2 0x159E PUSH2 0x85A JUMP JUMPDEST JUMPDEST PUSH1 0x0 DUP3 ADD MLOAD PUSH8 0xFFFFFFFFFFFFFFFF DUP2 GT ISZERO PUSH2 0x15BD JUMPI PUSH2 0x15BC PUSH2 0x85F JUMP JUMPDEST JUMPDEST PUSH2 0x15C9 DUP5 DUP3 DUP6 ADD PUSH2 0x125C JUMP JUMPDEST SWAP2 POP POP SWAP3 SWAP2 POP POP JUMP JUMPDEST PUSH1 0x0 DUP2 MLOAD SWAP1 POP SWAP2 SWAP1 POP JUMP JUMPDEST PUSH1 0x0 DUP3 DUP3 MSTORE PUSH1 0x20 DUP3 ADD SWAP1 POP SWAP3 SWAP2 POP POP JUMP JUMPDEST PUSH1 0x0 PUSH2 0x15F9 DUP3 PUSH2 0x15D2 JUMP JUMPDEST PUSH2 0x1603 DUP2 DUP6 PUSH2 0x15DD JUMP JUMPDEST SWAP4 POP PUSH2 0x1613 DUP2 DUP6 PUSH1 0x20 DUP7 ADD PUSH2 0xC00 JUMP JUMPDEST PUSH2 0x161C DUP2 PUSH2 0x931 JUMP JUMPDEST DUP5 ADD SWAP2 POP POP SWAP3 SWAP2 POP POP JUMP JUMPDEST PUSH2 0x1630 DUP2 PUSH2 0x884 JUMP JUMPDEST DUP3 MSTORE POP POP JUMP JUMPDEST PUSH2 0x163F DUP2 PUSH2 0xCB8 JUMP JUMPDEST DUP3 MSTORE POP POP JUMP JUMPDEST PUSH2 0x164E DUP2 PUSH2 0x8EF JUMP JUMPDEST DUP3 MSTORE POP POP JUMP JUMPDEST PUSH1 0x0 PUSH1 0xA0 DUP4 ADD PUSH1 0x0 DUP4 ADD MLOAD DUP5 DUP3 SUB PUSH1 0x0 DUP7 ADD MSTORE PUSH2 0x1671 DUP3 DUP3 PUSH2 0x15EE JUMP JUMPDEST SWAP2 POP POP PUSH1 0x20 DUP4 ADD MLOAD DUP5 DUP3 SUB PUSH1 0x20 DUP7 ADD MSTORE PUSH2 0x168B DUP3 DUP3 PUSH2 0x15EE JUMP JUMPDEST SWAP2 POP POP PUSH1 0x40 DUP4 ADD MLOAD DUP5 DUP3 SUB PUSH1 0x40 DUP7 ADD MSTORE PUSH2 0x16A5 DUP3 DUP3 PUSH2 0x15EE JUMP JUMPDEST SWAP2 POP POP PUSH1 0x60 DUP4 ADD MLOAD DUP5 DUP3 SUB PUSH1 0x60 DUP7 ADD MSTORE PUSH2 0x16BF DUP3 DUP3 PUSH2 0x15EE JUMP JUMPDEST SWAP2 POP POP PUSH1 0x80 DUP4 ADD MLOAD PUSH2 0x16D4 PUSH1 0x80 DUP7 ADD DUP3 PUSH2 0x1645 JUMP JUMPDEST POP DUP1 SWAP2 POP POP SWAP3 SWAP2 POP POP JUMP JUMPDEST PUSH1 0x0 PUSH2 0x160 DUP4 ADD PUSH1 0x0 DUP4 ADD MLOAD DUP5 DUP3 SUB PUSH1 0x0 DUP7 ADD MSTORE PUSH2 0x16FD DUP3 DUP3 PUSH2 0x15EE JUMP JUMPDEST SWAP2 POP POP PUSH1 0x20 DUP4 ADD MLOAD DUP5 DUP3 SUB PUSH1 0x20 DUP7 ADD MSTORE PUSH2 0x1717 DUP3 DUP3 PUSH2 0x15EE JUMP JUMPDEST SWAP2 POP POP PUSH1 0x40 DUP4 ADD MLOAD DUP5 DUP3 SUB PUSH1 0x40 DUP7 ADD MSTORE PUSH2 0x1731 DUP3 DUP3 PUSH2 0x15EE JUMP JUMPDEST SWAP2 POP POP PUSH1 0x60 DUP4 ADD MLOAD DUP5 DUP3 SUB PUSH1 0x60 DUP7 ADD MSTORE PUSH2 0x174B DUP3 DUP3 PUSH2 0x15EE JUMP JUMPDEST SWAP2 POP POP PUSH1 0x80 DUP4 ADD MLOAD DUP5 DUP3 SUB PUSH1 0x80 DUP7 ADD MSTORE PUSH2 0x1765 DUP3 DUP3 PUSH2 0x15EE JUMP JUMPDEST SWAP2 POP POP PUSH1 0xA0 DUP4 ADD MLOAD DUP5 DUP3 SUB PUSH1 0xA0 DUP7 ADD MSTORE PUSH2 0x177F DUP3 DUP3 PUSH2 0x15EE JUMP JUMPDEST SWAP2 POP POP PUSH1 0xC0 DUP4 ADD MLOAD DUP5 DUP3 SUB PUSH1 0xC0 DUP7 ADD MSTORE PUSH2 0x1799 DUP3 DUP3 PUSH2 0x15EE JUMP JUMPDEST SWAP2 POP POP PUSH1 0xE0 DUP4 ADD MLOAD DUP5 DUP3 SUB PUSH1 0xE0 DUP7 ADD MSTORE PUSH2 0x17B3 DUP3 DUP3 PUSH2 0x15EE JUMP JUMPDEST SWAP2 POP POP PUSH2 0x100 DUP4 ADD MLOAD DUP5 DUP3 SUB PUSH2 0x100 DUP7 ADD MSTORE PUSH2 0x17CF DUP3 DUP3 PUSH2 0x15EE JUMP JUMPDEST SWAP2 POP POP PUSH2 0x120 DUP4 ADD MLOAD DUP5 DUP3 SUB PUSH2 0x120 DUP7 ADD MSTORE PUSH2 0x17EB DUP3 DUP3 PUSH2 0x15EE JUMP JUMPDEST SWAP2 POP POP PUSH2 0x140 DUP4 ADD MLOAD PUSH2 0x1802 PUSH2 0x140 DUP7 ADD DUP3 PUSH2 0x1645 JUMP JUMPDEST POP DUP1 SWAP2 POP POP SWAP3 SWAP2 POP POP JUMP JUMPDEST PUSH1 0x0 PUSH1 0xC0 DUP4 ADD PUSH1 0x0 DUP4 ADD MLOAD DUP5 DUP3 SUB PUSH1 0x0 DUP7 ADD MSTORE PUSH2 0x182A DUP3 DUP3 PUSH2 0x15EE JUMP JUMPDEST SWAP2 POP POP PUSH1 0x20 DUP4 ADD MLOAD DUP5 DUP3 SUB PUSH1 0x20 DUP7 ADD MSTORE PUSH2 0x1844 DUP3 DUP3 PUSH2 0x15EE JUMP JUMPDEST SWAP2 POP POP PUSH1 0x40 DUP4 ADD MLOAD DUP5 DUP3 SUB PUSH1 0x40 DUP7 ADD MSTORE PUSH2 0x185E DUP3 DUP3 PUSH2 0x15EE JUMP JUMPDEST SWAP2 POP POP PUSH1 0x60 DUP4 ADD MLOAD DUP5 DUP3 SUB PUSH1 0x60 DUP7 ADD MSTORE PUSH2 0x1878 DUP3 DUP3 PUSH2 0x15EE JUMP JUMPDEST SWAP2 POP POP PUSH1 0x80 DUP4 ADD MLOAD DUP5 DUP3 SUB PUSH1 0x80 DUP7 ADD MSTORE PUSH2 0x1892 DUP3 DUP3 PUSH2 0x15EE JUMP JUMPDEST SWAP2 POP POP PUSH1 0xA0 DUP4 ADD MLOAD PUSH2 0x18A7 PUSH1 0xA0 DUP7 ADD DUP3 PUSH2 0x1645 JUMP JUMPDEST POP DUP1 SWAP2 POP POP SWAP3 SWAP2 POP POP JUMP JUMPDEST PUSH2 0x18BB DUP2 PUSH2 0x113A JUMP JUMPDEST DUP3 MSTORE POP POP JUMP JUMPDEST PUSH1 0x0 PUSH1 0xE0 DUP4 ADD PUSH1 0x0 DUP4 ADD MLOAD DUP5 DUP3 SUB PUSH1 0x0 DUP7 ADD MSTORE PUSH2 0x18DE DUP3 DUP3 PUSH2 0x15EE JUMP JUMPDEST SWAP2 POP POP PUSH1 0x20 DUP4 ADD MLOAD PUSH2 0x18F3 PUSH1 0x20 DUP7 ADD DUP3 PUSH2 0x18B2 JUMP JUMPDEST POP PUSH1 0x40 DUP4 ADD MLOAD PUSH2 0x1906 PUSH1 0x40 DUP7 ADD DUP3 PUSH2 0x18B2 JUMP JUMPDEST POP PUSH1 0x60 DUP4 ADD MLOAD DUP5 DUP3 SUB PUSH1 0x60 DUP7 ADD MSTORE PUSH2 0x191E DUP3 DUP3 PUSH2 0x15EE JUMP JUMPDEST SWAP2 POP POP PUSH1 0x80 DUP4 ADD MLOAD PUSH2 0x1933 PUSH1 0x80 DUP7 ADD DUP3 PUSH2 0x18B2 JUMP JUMPDEST POP PUSH1 0xA0 DUP4 ADD MLOAD PUSH2 0x1946 PUSH1 0xA0 DUP7 ADD DUP3 PUSH2 0x18B2 JUMP JUMPDEST POP PUSH1 0xC0 DUP4 ADD MLOAD PUSH2 0x1959 PUSH1 0xC0 DUP7 ADD DUP3 PUSH2 0x1645 JUMP JUMPDEST POP DUP1 SWAP2 POP POP SWAP3 SWAP2 POP POP JUMP JUMPDEST PUSH1 0x0 PUSH2 0x120 DUP4 ADD PUSH1 0x0 DUP4 ADD MLOAD DUP5 DUP3 SUB PUSH1 0x0 DUP7 ADD MSTORE PUSH2 0x1982 DUP3 DUP3 PUSH2 0x15EE JUMP JUMPDEST SWAP2 POP POP PUSH1 0x20 DUP4 ADD MLOAD PUSH2 0x1997 PUSH1 0x20 DUP7 ADD DUP3 PUSH2 0x1627 JUMP JUMPDEST POP PUSH1 0x40 DUP4 ADD MLOAD DUP5 DUP3 SUB PUSH1 0x40 DUP7 ADD MSTORE PUSH2 0x19AF DUP3 DUP3 PUSH2 0x15EE JUMP JUMPDEST SWAP2 POP POP PUSH1 0x60 DUP4 ADD MLOAD PUSH2 0x19C4 PUSH1 0x60 DUP7 ADD DUP3 PUSH2 0x1636 JUMP JUMPDEST POP PUSH1 0x80 DUP4 ADD MLOAD DUP5 DUP3 SUB PUSH1 0x80 DUP7 ADD MSTORE PUSH2 0x19DC DUP3 DUP3 PUSH2 0x1654 JUMP JUMPDEST SWAP2 POP POP PUSH1 0xA0 DUP4 ADD MLOAD DUP5 DUP3 SUB PUSH1 0xA0 DUP7 ADD MSTORE PUSH2 0x19F6 DUP3 DUP3 PUSH2 0x16DF JUMP JUMPDEST SWAP2 POP POP PUSH1 0xC0 DUP4 ADD MLOAD DUP5 DUP3 SUB PUSH1 0xC0 DUP7 ADD MSTORE PUSH2 0x1A10 DUP3 DUP3 PUSH2 0x180D JUMP JUMPDEST SWAP2 POP POP PUSH1 0xE0 DUP4 ADD MLOAD DUP5 DUP3 SUB PUSH1 0xE0 DUP7 ADD MSTORE PUSH2 0x1A2A DUP3 DUP3 PUSH2 0x18C1 JUMP JUMPDEST SWAP2 POP POP PUSH2 0x100 DUP4 ADD MLOAD PUSH2 0x1A41 PUSH2 0x100 DUP7 ADD DUP3 PUSH2 0x1645 JUMP JUMPDEST POP DUP1 SWAP2 POP POP SWAP3 SWAP2 POP POP JUMP JUMPDEST PUSH1 0x0 PUSH1 0x20 DUP3 ADD SWAP1 POP DUP2 DUP2 SUB PUSH1 0x0 DUP4 ADD MSTORE PUSH2 0x1A66 DUP2 DUP5 PUSH2 0x1964 JUMP JUMPDEST SWAP1 POP SWAP3 SWAP2 POP POP JUMP JUMPDEST PUSH1 0x0 PUSH1 0x40 DUP3 ADD SWAP1 POP DUP2 DUP2 SUB PUSH1 0x0 DUP4 ADD MSTORE PUSH2 0x1A88 DUP2 DUP6 PUSH2 0x1964 JUMP JUMPDEST SWAP1 POP PUSH2 0x1A97 PUSH1 0x20 DUP4 ADD DUP5 PUSH2 0xADC JUMP JUMPDEST SWAP4 SWAP3 POP POP POP JUMP JUMPDEST PUSH2 0x1AA7 DUP2 PUSH2 0xCB8 JUMP JUMPDEST DUP3 MSTORE POP POP JUMP JUMPDEST PUSH1 0x0 PUSH1 0x20 DUP3 ADD SWAP1 POP PUSH2 0x1AC2 PUSH1 0x0 DUP4 ADD DUP5 PUSH2 0x1A9E JUMP JUMPDEST SWAP3 SWAP2 POP POP JUMP JUMPDEST PUSH32 0x417070726F766564000000000000000000000000000000000000000000000000 PUSH1 0x0 DUP3 ADD MSTORE POP JUMP JUMPDEST PUSH1 0x0 PUSH2 0x1AFE PUSH1 0x8 DUP4 PUSH2 0xB48 JUMP JUMPDEST SWAP2 POP PUSH2 0x1B09 DUP3 PUSH2 0x1AC8 JUMP JUMPDEST PUSH1 0x20 DUP3 ADD SWAP1 POP SWAP2 SWAP1 POP JUMP JUMPDEST PUSH1 0x0 PUSH2 0x1B1F DUP3 PUSH2 0x15D2 JUMP JUMPDEST PUSH2 0x1B29 DUP2 DUP6 PUSH2 0xB48 JUMP JUMPDEST SWAP4 POP PUSH2 0x1B39 DUP2 DUP6 PUSH1 0x20 DUP7 ADD PUSH2 0xC00 JUMP JUMPDEST PUSH2 0x1B42 DUP2 PUSH2 0x931 JUMP JUMPDEST DUP5 ADD SWAP2 POP POP SWAP3 SWAP2 POP POP JUMP JUMPDEST PUSH1 0x0 PUSH1 0x60 DUP3 ADD SWAP1 POP PUSH2 0x1B62 PUSH1 0x0 DUP4 ADD DUP6 PUSH2 0xADC JUMP JUMPDEST DUP2 DUP2 SUB PUSH1 0x20 DUP4 ADD MSTORE PUSH2 0x1B73 DUP2 PUSH2 0x1AF1 JUMP JUMPDEST SWAP1 POP DUP2 DUP2 SUB PUSH1 0x40 DUP4 ADD MSTORE PUSH2 0x1B87 DUP2 DUP5 PUSH2 0x1B14 JUMP JUMPDEST SWAP1 POP SWAP4 SWAP3 POP POP POP JUMP JUMPDEST PUSH32 0x52656A6563746564000000000000000000000000000000000000000000000000 PUSH1 0x0 DUP3 ADD MSTORE POP JUMP JUMPDEST PUSH1 0x0 PUSH2 0x1BC6 PUSH1 0x8 DUP4 PUSH2 0xB48 JUMP JUMPDEST SWAP2 POP PUSH2 0x1BD1 DUP3 PUSH2 0x1B90 JUMP JUMPDEST PUSH1 0x20 DUP3 ADD SWAP1 POP SWAP2 SWAP1 POP JUMP JUMPDEST PUSH1 0x0 PUSH1 0x60 DUP3 ADD SWAP1 POP PUSH2 0x1BF1 PUSH1 0x0 DUP4 ADD DUP6 PUSH2 0xADC JUMP JUMPDEST DUP2 DUP2 SUB PUSH1 0x20 DUP4 ADD MSTORE PUSH2 0x1C02 DUP2 PUSH2 0x1BB9 JUMP JUMPDEST SWAP1 POP DUP2 DUP2 SUB PUSH1 0x40 DUP4 ADD MSTORE PUSH2 0x1C16 DUP2 DUP5 PUSH2 0x1B14 JUMP JUMPDEST SWAP1 POP SWAP4 SWAP3 POP POP POP JUMP INVALID LOG2 PUSH5 0x6970667358 0x22 SLT KECCAK256 0xCF 0xCD 0xEE SWAP14 CALLDATALOAD 0xB2 0xC4 0xEB DUP10 CODESIZE MSIZE DUP6 0x2C 0xBE MLOAD CODESIZE KECCAK256 DUP12 JUMPI COINBASE PUSH18 0x538D5BE935C3363B932F4B64736F6C634300 ADDMOD MULMOD STOP CALLER "},"methodIdentifiers":{"Approval(address,bool,string)":"36e6129b","setAdminContract(address)":"63a812f9","setRegisterStudentContract(address)":"2914683d","setRequestUpdateContract(address)":"b0b31a8a","setStudentHistoryContract(address)":"2acb9105"}}}}}