{
  "_format": "hh-sol-artifact-1",
  "contractName": "RequestUpdate",
  "sourceName": "contracts/RequestUpdate.sol",
  "abi": [
    {
      "inputs": [],
      "name": "getPendingQueue",
      "outputs": [
        {
          "components": [
            {
              "internalType": "string",
              "name": "Id",
              "type": "string"
            },
            {
              "internalType": "address",
              "name": "addr",
              "type": "address"
            },
            {
              "internalType": "string",
              "name": "programCode",
              "type": "string"
            },
            {
              "internalType": "uint256",
              "name": "admission_date",
              "type": "uint256"
            },
            {
              "components": [
                {
                  "internalType": "string",
                  "name": "picture",
                  "type": "string"
                },
                {
                  "internalType": "string",
                  "name": "cnic",
                  "type": "string"
                },
                {
                  "internalType": "string",
                  "name": "ssc_degree",
                  "type": "string"
                },
                {
                  "internalType": "string",
                  "name": "hssc_degree",
                  "type": "string"
                },
                {
                  "internalType": "bool",
                  "name": "stored",
                  "type": "bool"
                }
              ],
              "internalType": "struct documents",
              "name": "d_data",
              "type": "tuple"
            },
            {
              "components": [
                {
                  "internalType": "string",
                  "name": "name",
                  "type": "string"
                },
                {
                  "internalType": "string",
                  "name": "surname",
                  "type": "string"
                },
                {
                  "internalType": "string",
                  "name": "date_of_birth",
                  "type": "string"
                },
                {
                  "internalType": "string",
                  "name": "cnic",
                  "type": "string"
                },
                {
                  "internalType": "string",
                  "name": "gender",
                  "type": "string"
                },
                {
                  "internalType": "string",
                  "name": "phone_no",
                  "type": "string"
                },
                {
                  "internalType": "string",
                  "name": "email",
                  "type": "string"
                },
                {
                  "internalType": "string",
                  "name": "permanent_addr",
                  "type": "string"
                },
                {
                  "internalType": "string",
                  "name": "city",
                  "type": "string"
                },
                {
                  "internalType": "string",
                  "name": "country",
                  "type": "string"
                },
                {
                  "internalType": "bool",
                  "name": "stored",
                  "type": "bool"
                }
              ],
              "internalType": "struct personal_details",
              "name": "s_data",
              "type": "tuple"
            },
            {
              "components": [
                {
                  "internalType": "string",
                  "name": "name",
                  "type": "string"
                },
                {
                  "internalType": "string",
                  "name": "cnic",
                  "type": "string"
                },
                {
                  "internalType": "string",
                  "name": "phone_no",
                  "type": "string"
                },
                {
                  "internalType": "string",
                  "name": "ocupation",
                  "type": "string"
                },
                {
                  "internalType": "string",
                  "name": "salary",
                  "type": "string"
                },
                {
                  "internalType": "bool",
                  "name": "stored",
                  "type": "bool"
                }
              ],
              "internalType": "struct father_details",
              "name": "f_data",
              "type": "tuple"
            },
            {
              "components": [
                {
                  "internalType": "string",
                  "name": "ssc_board_name",
                  "type": "string"
                },
                {
                  "internalType": "int256",
                  "name": "ssc_total_marks",
                  "type": "int256"
                },
                {
                  "internalType": "int256",
                  "name": "ssc_obtained_marks",
                  "type": "int256"
                },
                {
                  "internalType": "string",
                  "name": "hssc_board_name",
                  "type": "string"
                },
                {
                  "internalType": "int256",
                  "name": "hssc_total_marks",
                  "type": "int256"
                },
                {
                  "internalType": "int256",
                  "name": "hssc_obtained_marks",
                  "type": "int256"
                },
                {
                  "internalType": "bool",
                  "name": "stored",
                  "type": "bool"
                }
              ],
              "internalType": "struct education_details",
              "name": "e_data",
              "type": "tuple"
            },
            {
              "internalType": "bool",
              "name": "isCreated",
              "type": "bool"
            }
          ],
          "internalType": "struct student[]",
          "name": "",
          "type": "tuple[]"
        }
      ],
      "stateMutability": "view",
      "type": "function"
    },
    {
      "inputs": [
        {
          "internalType": "address",
          "name": "_addr",
          "type": "address"
        }
      ],
      "name": "getStatus",
      "outputs": [
        {
          "internalType": "string[2]",
          "name": "",
          "type": "string[2]"
        }
      ],
      "stateMutability": "view",
      "type": "function"
    },
    {
      "inputs": [
        {
          "internalType": "address",
          "name": "addr",
          "type": "address"
        }
      ],
      "name": "getStudentRequestDetails",
      "outputs": [
        {
          "components": [
            {
              "internalType": "string",
              "name": "Id",
              "type": "string"
            },
            {
              "internalType": "address",
              "name": "addr",
              "type": "address"
            },
            {
              "internalType": "string",
              "name": "programCode",
              "type": "string"
            },
            {
              "internalType": "uint256",
              "name": "admission_date",
              "type": "uint256"
            },
            {
              "components": [
                {
                  "internalType": "string",
                  "name": "picture",
                  "type": "string"
                },
                {
                  "internalType": "string",
                  "name": "cnic",
                  "type": "string"
                },
                {
                  "internalType": "string",
                  "name": "ssc_degree",
                  "type": "string"
                },
                {
                  "internalType": "string",
                  "name": "hssc_degree",
                  "type": "string"
                },
                {
                  "internalType": "bool",
                  "name": "stored",
                  "type": "bool"
                }
              ],
              "internalType": "struct documents",
              "name": "d_data",
              "type": "tuple"
            },
            {
              "components": [
                {
                  "internalType": "string",
                  "name": "name",
                  "type": "string"
                },
                {
                  "internalType": "string",
                  "name": "surname",
                  "type": "string"
                },
                {
                  "internalType": "string",
                  "name": "date_of_birth",
                  "type": "string"
                },
                {
                  "internalType": "string",
                  "name": "cnic",
                  "type": "string"
                },
                {
                  "internalType": "string",
                  "name": "gender",
                  "type": "string"
                },
                {
                  "internalType": "string",
                  "name": "phone_no",
                  "type": "string"
                },
                {
                  "internalType": "string",
                  "name": "email",
                  "type": "string"
                },
                {
                  "internalType": "string",
                  "name": "permanent_addr",
                  "type": "string"
                },
                {
                  "internalType": "string",
                  "name": "city",
                  "type": "string"
                },
                {
                  "internalType": "string",
                  "name": "country",
                  "type": "string"
                },
                {
                  "internalType": "bool",
                  "name": "stored",
                  "type": "bool"
                }
              ],
              "internalType": "struct personal_details",
              "name": "s_data",
              "type": "tuple"
            },
            {
              "components": [
                {
                  "internalType": "string",
                  "name": "name",
                  "type": "string"
                },
                {
                  "internalType": "string",
                  "name": "cnic",
                  "type": "string"
                },
                {
                  "internalType": "string",
                  "name": "phone_no",
                  "type": "string"
                },
                {
                  "internalType": "string",
                  "name": "ocupation",
                  "type": "string"
                },
                {
                  "internalType": "string",
                  "name": "salary",
                  "type": "string"
                },
                {
                  "internalType": "bool",
                  "name": "stored",
                  "type": "bool"
                }
              ],
              "internalType": "struct father_details",
              "name": "f_data",
              "type": "tuple"
            },
            {
              "components": [
                {
                  "internalType": "string",
                  "name": "ssc_board_name",
                  "type": "string"
                },
                {
                  "internalType": "int256",
                  "name": "ssc_total_marks",
                  "type": "int256"
                },
                {
                  "internalType": "int256",
                  "name": "ssc_obtained_marks",
                  "type": "int256"
                },
                {
                  "internalType": "string",
                  "name": "hssc_board_name",
                  "type": "string"
                },
                {
                  "internalType": "int256",
                  "name": "hssc_total_marks",
                  "type": "int256"
                },
                {
                  "internalType": "int256",
                  "name": "hssc_obtained_marks",
                  "type": "int256"
                },
                {
                  "internalType": "bool",
                  "name": "stored",
                  "type": "bool"
                }
              ],
              "internalType": "struct education_details",
              "name": "e_data",
              "type": "tuple"
            },
            {
              "internalType": "bool",
              "name": "isCreated",
              "type": "bool"
            }
          ],
          "internalType": "struct student",
          "name": "",
          "type": "tuple"
        }
      ],
      "stateMutability": "view",
      "type": "function"
    },
    {
      "inputs": [
        {
          "internalType": "address",
          "name": "addr",
          "type": "address"
        }
      ],
      "name": "setRegisterStudentContract",
      "outputs": [],
      "stateMutability": "nonpayable",
      "type": "function"
    },
    {
      "inputs": [
        {
          "internalType": "address",
          "name": "_addr",
          "type": "address"
        },
        {
          "internalType": "string",
          "name": "_status",
          "type": "string"
        },
        {
          "internalType": "string",
          "name": "_comment",
          "type": "string"
        }
      ],
      "name": "setStatus",
      "outputs": [],
      "stateMutability": "nonpayable",
      "type": "function"
    },
    {
      "inputs": [
        {
          "internalType": "string",
          "name": "_regId",
          "type": "string"
        },
        {
          "internalType": "address",
          "name": "_addr",
          "type": "address"
        },
        {
          "internalType": "string",
          "name": "_programCode",
          "type": "string"
        },
        {
          "internalType": "uint256",
          "name": "_admission_date",
          "type": "uint256"
        },
        {
          "internalType": "string",
          "name": "_picture",
          "type": "string"
        },
        {
          "internalType": "string",
          "name": "_cnic",
          "type": "string"
        },
        {
          "internalType": "string",
          "name": "_ssc_degree",
          "type": "string"
        },
        {
          "internalType": "string",
          "name": "_hssc_degree",
          "type": "string"
        },
        {
          "internalType": "string",
          "name": "reasonofUpdate",
          "type": "string"
        }
      ],
      "name": "updateDocumentDetails",
      "outputs": [],
      "stateMutability": "nonpayable",
      "type": "function"
    },
    {
      "inputs": [
        {
          "internalType": "string",
          "name": "_ssc_board_name",
          "type": "string"
        },
        {
          "internalType": "int256",
          "name": "_ssc_total_marks",
          "type": "int256"
        },
        {
          "internalType": "int256",
          "name": "_ssc_obtained_marks",
          "type": "int256"
        },
        {
          "internalType": "string",
          "name": "_hssc_board_name",
          "type": "string"
        },
        {
          "internalType": "int256",
          "name": "_hssc_total_marks",
          "type": "int256"
        },
        {
          "internalType": "int256",
          "name": "_hssc_obtained_marks",
          "type": "int256"
        }
      ],
      "name": "updateEducationalDetails",
      "outputs": [],
      "stateMutability": "nonpayable",
      "type": "function"
    },
    {
      "inputs": [
        {
          "internalType": "string",
          "name": "_name",
          "type": "string"
        },
        {
          "internalType": "string",
          "name": "_cnic",
          "type": "string"
        },
        {
          "internalType": "string",
          "name": "_phone_no",
          "type": "string"
        },
        {
          "internalType": "string",
          "name": "_ocupation",
          "type": "string"
        },
        {
          "internalType": "string",
          "name": "_salary",
          "type": "string"
        }
      ],
      "name": "updateFatherDetails",
      "outputs": [],
      "stateMutability": "nonpayable",
      "type": "function"
    },
    {
      "inputs": [
        {
          "internalType": "uint256",
          "name": "index",
          "type": "uint256"
        }
      ],
      "name": "updatePendingQueue",
      "outputs": [],
      "stateMutability": "nonpayable",
      "type": "function"
    },
    {
      "inputs": [
        {
          "internalType": "string",
          "name": "_name",
          "type": "string"
        },
        {
          "internalType": "string",
          "name": "_surname",
          "type": "string"
        },
        {
          "internalType": "string",
          "name": "_date_of_birth",
          "type": "string"
        },
        {
          "internalType": "string",
          "name": "_cnic",
          "type": "string"
        },
        {
          "internalType": "string",
          "name": "_gender",
          "type": "string"
        },
        {
          "internalType": "string",
          "name": "_phone",
          "type": "string"
        },
        {
          "internalType": "string",
          "name": "_email",
          "type": "string"
        },
        {
          "internalType": "string",
          "name": "_address",
          "type": "string"
        },
        {
          "internalType": "string",
          "name": "_city",
          "type": "string"
        },
        {
          "internalType": "string",
          "name": "_country",
          "type": "string"
        }
      ],
      "name": "updatePersonalDetails",
      "outputs": [],
      "stateMutability": "nonpayable",
      "type": "function"
    }
  ],
  "bytecode": "0x608060405234801561001057600080fd5b506157b580620000216000396000f3fe608060405234801561001057600080fd5b506004361061009e5760003560e01c806363bf0c251161006657806363bf0c25146101575780636d1426a3146101755780637f1be357146101915780637fd0180b146101ad578063ab3719cd146101c95761009e565b8063088590a2146100a35780630fd8d3e2146100bf57806325321851146100db5780632914683d1461010b57806330ccebb514610127575b600080fd5b6100bd60048036038101906100b89190614706565b6101e5565b005b6100d960048036038101906100d49190614894565b610cf5565b005b6100f560048036038101906100f0919061491f565b610dca565b6040516101029190614e0f565b60405180910390f35b6101256004803603810190610120919061491f565b611ca2565b005b610141600480360381019061013c919061491f565b611ce5565b60405161014e9190614ee7565b60405180910390f35b61015f611df1565b60405161016c91906150b3565b60405180910390f35b61018f600480360381019061018a9190615101565b612ccf565b005b6101ab60048036038101906101a691906151c6565b612ff9565b005b6101c760048036038101906101c291906151f3565b613a1c565b005b6101e360048036038101906101de91906152fa565b613d2b565b005b60008054906101000a900473ffffffffffffffffffffffffffffffffffffffff1673ffffffffffffffffffffffffffffffffffffffff1663f481345a336040518263ffffffff1660e01b815260040161023e9190615500565b60206040518083038186803b15801561025657600080fd5b505afa15801561026a573d6000803e3d6000fd5b505050506040513d601f19601f8201168201806040525081019061028e9190615547565b6102cd576040517f08c379a00000000000000000000000000000000000000000000000000000000081526004016102c4906155d1565b60405180910390fd5b600260003373ffffffffffffffffffffffffffffffffffffffff1673ffffffffffffffffffffffffffffffffffffffff16815260200190815260200160002060040160040160009054906101000a900460ff1615610360576040517f08c379a00000000000000000000000000000000000000000000000000000000081526004016103579061563d565b60405180910390fd5b87600260003373ffffffffffffffffffffffffffffffffffffffff1673ffffffffffffffffffffffffffffffffffffffff16815260200190815260200160002060010160006101000a81548173ffffffffffffffffffffffffffffffffffffffff021916908373ffffffffffffffffffffffffffffffffffffffff16021790555088600260003373ffffffffffffffffffffffffffffffffffffffff1673ffffffffffffffffffffffffffffffffffffffff1681526020019081526020016000206000019080519060200190610437929190614201565b5086600260003373ffffffffffffffffffffffffffffffffffffffff1673ffffffffffffffffffffffffffffffffffffffff168152602001908152602001600020600201908051906020019061048e929190614201565b5085600260003373ffffffffffffffffffffffffffffffffffffffff1673ffffffffffffffffffffffffffffffffffffffff168152602001908152602001600020600301819055506001600260003373ffffffffffffffffffffffffffffffffffffffff1673ffffffffffffffffffffffffffffffffffffffff16815260200190815260200160002060210160006101000a81548160ff02191690831515021790555084600260003373ffffffffffffffffffffffffffffffffffffffff1673ffffffffffffffffffffffffffffffffffffffff168152602001908152602001600020600401600001908051906020019061058a929190614201565b5083600260003373ffffffffffffffffffffffffffffffffffffffff1673ffffffffffffffffffffffffffffffffffffffff16815260200190815260200160002060040160010190805190602001906105e4929190614201565b5082600260003373ffffffffffffffffffffffffffffffffffffffff1673ffffffffffffffffffffffffffffffffffffffff168152602001908152602001600020600401600201908051906020019061063e929190614201565b5081600260003373ffffffffffffffffffffffffffffffffffffffff1673ffffffffffffffffffffffffffffffffffffffff1681526020019081526020016000206004016003019080519060200190610698929190614201565b506001600260003373ffffffffffffffffffffffffffffffffffffffff1673ffffffffffffffffffffffffffffffffffffffff16815260200190815260200160002060040160040160006101000a81548160ff0219169083151502179055506001600260003373ffffffffffffffffffffffffffffffffffffffff1673ffffffffffffffffffffffffffffffffffffffff168152602001908152602001600020908060018154018082558091505060019003906000526020600020906022020160009091909190915060008201816000019080546107759061568c565b610780929190614287565b506001820160009054906101000a900473ffffffffffffffffffffffffffffffffffffffff168160010160006101000a81548173ffffffffffffffffffffffffffffffffffffffff021916908373ffffffffffffffffffffffffffffffffffffffff16021790555060028201816002019080546107fc9061568c565b610807929190614287565b50600382015481600301556004820181600401600082018160000190805461082e9061568c565b610839929190614287565b50600182018160010190805461084e9061568c565b610859929190614287565b50600282018160020190805461086e9061568c565b610879929190614287565b50600382018160030190805461088e9061568c565b610899929190614287565b506004820160009054906101000a900460ff168160040160006101000a81548160ff0219169083151502179055505050600982018160090160008201816000019080546108e59061568c565b6108f0929190614287565b5060018201816001019080546109059061568c565b610910929190614287565b5060028201816002019080546109259061568c565b610930929190614287565b5060038201816003019080546109459061568c565b610950929190614287565b5060048201816004019080546109659061568c565b610970929190614287565b5060058201816005019080546109859061568c565b610990929190614287565b5060068201816006019080546109a59061568c565b6109b0929190614287565b5060078201816007019080546109c59061568c565b6109d0929190614287565b5060088201816008019080546109e59061568c565b6109f0929190614287565b506009820181600901908054610a059061568c565b610a10929190614287565b50600a820160009054906101000a900460ff1681600a0160006101000a81548160ff021916908315150217905550505060148201816014016000820181600001908054610a5c9061568c565b610a67929190614287565b506001820181600101908054610a7c9061568c565b610a87929190614287565b506002820181600201908054610a9c9061568c565b610aa7929190614287565b506003820181600301908054610abc9061568c565b610ac7929190614287565b506004820181600401908054610adc9061568c565b610ae7929190614287565b506005820160009054906101000a900460ff168160050160006101000a81548160ff0219169083151502179055505050601a820181601a016000820181600001908054610b339061568c565b610b3e929190614287565b5060018201548160010155600282015481600201556003820181600301908054610b679061568c565b610b72929190614287565b5060048201548160040155600582015481600501556006820160009054906101000a900460ff168160060160006101000a81548160ff02191690831515021790555050506021820160009054906101000a900460ff168160210160006101000a81548160ff02191690831515021790555050506040518060400160405280600781526020017f50656e64696e6700000000000000000000000000000000000000000000000000815250600360003373ffffffffffffffffffffffffffffffffffffffff1673ffffffffffffffffffffffffffffffffffffffff168152602001908152602001600020600060028110610c6d57610c6c6156be565b5b019080519060200190610c81929190614201565b5080600360003373ffffffffffffffffffffffffffffffffffffffff1673ffffffffffffffffffffffffffffffffffffffff168152602001908152602001600020600160028110610cd557610cd46156be565b5b019080519060200190610ce9929190614201565b50505050505050505050565b81600360008573ffffffffffffffffffffffffffffffffffffffff1673ffffffffffffffffffffffffffffffffffffffff168152602001908152602001600020600060028110610d4857610d476156be565b5b019080519060200190610d5c929190614201565b5080600360008573ffffffffffffffffffffffffffffffffffffffff1673ffffffffffffffffffffffffffffffffffffffff168152602001908152602001600020600160028110610db057610daf6156be565b5b019080519060200190610dc4929190614201565b50505050565b610dd2614314565b600260008373ffffffffffffffffffffffffffffffffffffffff1673ffffffffffffffffffffffffffffffffffffffff16815260200190815260200160002060405180610120016040529081600082018054610e2d9061568c565b80601f0160208091040260200160405190810160405280929190818152602001828054610e599061568c565b8015610ea65780601f10610e7b57610100808354040283529160200191610ea6565b820191906000526020600020905b815481529060010190602001808311610e8957829003601f168201915b505050505081526020016001820160009054906101000a900473ffffffffffffffffffffffffffffffffffffffff1673ffffffffffffffffffffffffffffffffffffffff1673ffffffffffffffffffffffffffffffffffffffff168152602001600282018054610f159061568c565b80601f0160208091040260200160405190810160405280929190818152602001828054610f419061568c565b8015610f8e5780601f10610f6357610100808354040283529160200191610f8e565b820191906000526020600020905b815481529060010190602001808311610f7157829003601f168201915b5050505050815260200160038201548152602001600482016040518060a0016040529081600082018054610fc19061568c565b80601f0160208091040260200160405190810160405280929190818152602001828054610fed9061568c565b801561103a5780601f1061100f5761010080835404028352916020019161103a565b820191906000526020600020905b81548152906001019060200180831161101d57829003601f168201915b505050505081526020016001820180546110539061568c565b80601f016020809104026020016040519081016040528092919081815260200182805461107f9061568c565b80156110cc5780601f106110a1576101008083540402835291602001916110cc565b820191906000526020600020905b8154815290600101906020018083116110af57829003601f168201915b505050505081526020016002820180546110e59061568c565b80601f01602080910402602001604051908101604052809291908181526020018280546111119061568c565b801561115e5780601f106111335761010080835404028352916020019161115e565b820191906000526020600020905b81548152906001019060200180831161114157829003601f168201915b505050505081526020016003820180546111779061568c565b80601f01602080910402602001604051908101604052809291908181526020018280546111a39061568c565b80156111f05780601f106111c5576101008083540402835291602001916111f0565b820191906000526020600020905b8154815290600101906020018083116111d357829003601f168201915b505050505081526020016004820160009054906101000a900460ff161515151581525050815260200160098201604051806101600160405290816000820180546112399061568c565b80601f01602080910402602001604051908101604052809291908181526020018280546112659061568c565b80156112b25780601f10611287576101008083540402835291602001916112b2565b820191906000526020600020905b81548152906001019060200180831161129557829003601f168201915b505050505081526020016001820180546112cb9061568c565b80601f01602080910402602001604051908101604052809291908181526020018280546112f79061568c565b80156113445780601f1061131957610100808354040283529160200191611344565b820191906000526020600020905b81548152906001019060200180831161132757829003601f168201915b5050505050815260200160028201805461135d9061568c565b80601f01602080910402602001604051908101604052809291908181526020018280546113899061568c565b80156113d65780601f106113ab576101008083540402835291602001916113d6565b820191906000526020600020905b8154815290600101906020018083116113b957829003601f168201915b505050505081526020016003820180546113ef9061568c565b80601f016020809104026020016040519081016040528092919081815260200182805461141b9061568c565b80156114685780601f1061143d57610100808354040283529160200191611468565b820191906000526020600020905b81548152906001019060200180831161144b57829003601f168201915b505050505081526020016004820180546114819061568c565b80601f01602080910402602001604051908101604052809291908181526020018280546114ad9061568c565b80156114fa5780601f106114cf576101008083540402835291602001916114fa565b820191906000526020600020905b8154815290600101906020018083116114dd57829003601f168201915b505050505081526020016005820180546115139061568c565b80601f016020809104026020016040519081016040528092919081815260200182805461153f9061568c565b801561158c5780601f106115615761010080835404028352916020019161158c565b820191906000526020600020905b81548152906001019060200180831161156f57829003601f168201915b505050505081526020016006820180546115a59061568c565b80601f01602080910402602001604051908101604052809291908181526020018280546115d19061568c565b801561161e5780601f106115f35761010080835404028352916020019161161e565b820191906000526020600020905b81548152906001019060200180831161160157829003601f168201915b505050505081526020016007820180546116379061568c565b80601f01602080910402602001604051908101604052809291908181526020018280546116639061568c565b80156116b05780601f10611685576101008083540402835291602001916116b0565b820191906000526020600020905b81548152906001019060200180831161169357829003601f168201915b505050505081526020016008820180546116c99061568c565b80601f01602080910402602001604051908101604052809291908181526020018280546116f59061568c565b80156117425780601f1061171757610100808354040283529160200191611742565b820191906000526020600020905b81548152906001019060200180831161172557829003601f168201915b5050505050815260200160098201805461175b9061568c565b80601f01602080910402602001604051908101604052809291908181526020018280546117879061568c565b80156117d45780601f106117a9576101008083540402835291602001916117d4565b820191906000526020600020905b8154815290600101906020018083116117b757829003601f168201915b50505050508152602001600a820160009054906101000a900460ff1615151515815250508152602001601482016040518060c001604052908160008201805461181c9061568c565b80601f01602080910402602001604051908101604052809291908181526020018280546118489061568c565b80156118955780601f1061186a57610100808354040283529160200191611895565b820191906000526020600020905b81548152906001019060200180831161187857829003601f168201915b505050505081526020016001820180546118ae9061568c565b80601f01602080910402602001604051908101604052809291908181526020018280546118da9061568c565b80156119275780601f106118fc57610100808354040283529160200191611927565b820191906000526020600020905b81548152906001019060200180831161190a57829003601f168201915b505050505081526020016002820180546119409061568c565b80601f016020809104026020016040519081016040528092919081815260200182805461196c9061568c565b80156119b95780601f1061198e576101008083540402835291602001916119b9565b820191906000526020600020905b81548152906001019060200180831161199c57829003601f168201915b505050505081526020016003820180546119d29061568c565b80601f01602080910402602001604051908101604052809291908181526020018280546119fe9061568c565b8015611a4b5780601f10611a2057610100808354040283529160200191611a4b565b820191906000526020600020905b815481529060010190602001808311611a2e57829003601f168201915b50505050508152602001600482018054611a649061568c565b80601f0160208091040260200160405190810160405280929190818152602001828054611a909061568c565b8015611add5780601f10611ab257610100808354040283529160200191611add565b820191906000526020600020905b815481529060010190602001808311611ac057829003601f168201915b505050505081526020016005820160009054906101000a900460ff1615151515815250508152602001601a82016040518060e0016040529081600082018054611b259061568c565b80601f0160208091040260200160405190810160405280929190818152602001828054611b519061568c565b8015611b9e5780601f10611b7357610100808354040283529160200191611b9e565b820191906000526020600020905b815481529060010190602001808311611b8157829003601f168201915b505050505081526020016001820154815260200160028201548152602001600382018054611bcb9061568c565b80601f0160208091040260200160405190810160405280929190818152602001828054611bf79061568c565b8015611c445780601f10611c1957610100808354040283529160200191611c44565b820191906000526020600020905b815481529060010190602001808311611c2757829003601f168201915b5050505050815260200160048201548152602001600582015481526020016006820160009054906101000a900460ff16151515158152505081526020016021820160009054906101000a900460ff1615151515815250509050919050565b806000806101000a81548173ffffffffffffffffffffffffffffffffffffffff021916908373ffffffffffffffffffffffffffffffffffffffff16021790555050565b611ced614390565b600360008373ffffffffffffffffffffffffffffffffffffffff1673ffffffffffffffffffffffffffffffffffffffff168152602001908152602001600020600280602002604051908101604052809291906000905b82821015611de6578382018054611d599061568c565b80601f0160208091040260200160405190810160405280929190818152602001828054611d859061568c565b8015611dd25780601f10611da757610100808354040283529160200191611dd2565b820191906000526020600020905b815481529060010190602001808311611db557829003601f168201915b505050505081526020019060010190611d43565b505050509050919050565b60606001805480602002602001604051908101604052809291908181526020016000905b82821015612cc6578382906000526020600020906022020160405180610120016040529081600082018054611e499061568c565b80601f0160208091040260200160405190810160405280929190818152602001828054611e759061568c565b8015611ec25780601f10611e9757610100808354040283529160200191611ec2565b820191906000526020600020905b815481529060010190602001808311611ea557829003601f168201915b505050505081526020016001820160009054906101000a900473ffffffffffffffffffffffffffffffffffffffff1673ffffffffffffffffffffffffffffffffffffffff1673ffffffffffffffffffffffffffffffffffffffff168152602001600282018054611f319061568c565b80601f0160208091040260200160405190810160405280929190818152602001828054611f5d9061568c565b8015611faa5780601f10611f7f57610100808354040283529160200191611faa565b820191906000526020600020905b815481529060010190602001808311611f8d57829003601f168201915b5050505050815260200160038201548152602001600482016040518060a0016040529081600082018054611fdd9061568c565b80601f01602080910402602001604051908101604052809291908181526020018280546120099061568c565b80156120565780601f1061202b57610100808354040283529160200191612056565b820191906000526020600020905b81548152906001019060200180831161203957829003601f168201915b5050505050815260200160018201805461206f9061568c565b80601f016020809104026020016040519081016040528092919081815260200182805461209b9061568c565b80156120e85780601f106120bd576101008083540402835291602001916120e8565b820191906000526020600020905b8154815290600101906020018083116120cb57829003601f168201915b505050505081526020016002820180546121019061568c565b80601f016020809104026020016040519081016040528092919081815260200182805461212d9061568c565b801561217a5780601f1061214f5761010080835404028352916020019161217a565b820191906000526020600020905b81548152906001019060200180831161215d57829003601f168201915b505050505081526020016003820180546121939061568c565b80601f01602080910402602001604051908101604052809291908181526020018280546121bf9061568c565b801561220c5780601f106121e15761010080835404028352916020019161220c565b820191906000526020600020905b8154815290600101906020018083116121ef57829003601f168201915b505050505081526020016004820160009054906101000a900460ff161515151581525050815260200160098201604051806101600160405290816000820180546122559061568c565b80601f01602080910402602001604051908101604052809291908181526020018280546122819061568c565b80156122ce5780601f106122a3576101008083540402835291602001916122ce565b820191906000526020600020905b8154815290600101906020018083116122b157829003601f168201915b505050505081526020016001820180546122e79061568c565b80601f01602080910402602001604051908101604052809291908181526020018280546123139061568c565b80156123605780601f1061233557610100808354040283529160200191612360565b820191906000526020600020905b81548152906001019060200180831161234357829003601f168201915b505050505081526020016002820180546123799061568c565b80601f01602080910402602001604051908101604052809291908181526020018280546123a59061568c565b80156123f25780601f106123c7576101008083540402835291602001916123f2565b820191906000526020600020905b8154815290600101906020018083116123d557829003601f168201915b5050505050815260200160038201805461240b9061568c565b80601f01602080910402602001604051908101604052809291908181526020018280546124379061568c565b80156124845780601f1061245957610100808354040283529160200191612484565b820191906000526020600020905b81548152906001019060200180831161246757829003601f168201915b5050505050815260200160048201805461249d9061568c565b80601f01602080910402602001604051908101604052809291908181526020018280546124c99061568c565b80156125165780601f106124eb57610100808354040283529160200191612516565b820191906000526020600020905b8154815290600101906020018083116124f957829003601f168201915b5050505050815260200160058201805461252f9061568c565b80601f016020809104026020016040519081016040528092919081815260200182805461255b9061568c565b80156125a85780601f1061257d576101008083540402835291602001916125a8565b820191906000526020600020905b81548152906001019060200180831161258b57829003601f168201915b505050505081526020016006820180546125c19061568c565b80601f01602080910402602001604051908101604052809291908181526020018280546125ed9061568c565b801561263a5780601f1061260f5761010080835404028352916020019161263a565b820191906000526020600020905b81548152906001019060200180831161261d57829003601f168201915b505050505081526020016007820180546126539061568c565b80601f016020809104026020016040519081016040528092919081815260200182805461267f9061568c565b80156126cc5780601f106126a1576101008083540402835291602001916126cc565b820191906000526020600020905b8154815290600101906020018083116126af57829003601f168201915b505050505081526020016008820180546126e59061568c565b80601f01602080910402602001604051908101604052809291908181526020018280546127119061568c565b801561275e5780601f106127335761010080835404028352916020019161275e565b820191906000526020600020905b81548152906001019060200180831161274157829003601f168201915b505050505081526020016009820180546127779061568c565b80601f01602080910402602001604051908101604052809291908181526020018280546127a39061568c565b80156127f05780601f106127c5576101008083540402835291602001916127f0565b820191906000526020600020905b8154815290600101906020018083116127d357829003601f168201915b50505050508152602001600a820160009054906101000a900460ff1615151515815250508152602001601482016040518060c00160405290816000820180546128389061568c565b80601f01602080910402602001604051908101604052809291908181526020018280546128649061568c565b80156128b15780601f10612886576101008083540402835291602001916128b1565b820191906000526020600020905b81548152906001019060200180831161289457829003601f168201915b505050505081526020016001820180546128ca9061568c565b80601f01602080910402602001604051908101604052809291908181526020018280546128f69061568c565b80156129435780601f1061291857610100808354040283529160200191612943565b820191906000526020600020905b81548152906001019060200180831161292657829003601f168201915b5050505050815260200160028201805461295c9061568c565b80601f01602080910402602001604051908101604052809291908181526020018280546129889061568c565b80156129d55780601f106129aa576101008083540402835291602001916129d5565b820191906000526020600020905b8154815290600101906020018083116129b857829003601f168201915b505050505081526020016003820180546129ee9061568c565b80601f0160208091040260200160405190810160405280929190818152602001828054612a1a9061568c565b8015612a675780601f10612a3c57610100808354040283529160200191612a67565b820191906000526020600020905b815481529060010190602001808311612a4a57829003601f168201915b50505050508152602001600482018054612a809061568c565b80601f0160208091040260200160405190810160405280929190818152602001828054612aac9061568c565b8015612af95780601f10612ace57610100808354040283529160200191612af9565b820191906000526020600020905b815481529060010190602001808311612adc57829003601f168201915b505050505081526020016005820160009054906101000a900460ff1615151515815250508152602001601a82016040518060e0016040529081600082018054612b419061568c565b80601f0160208091040260200160405190810160405280929190818152602001828054612b6d9061568c565b8015612bba5780601f10612b8f57610100808354040283529160200191612bba565b820191906000526020600020905b815481529060010190602001808311612b9d57829003601f168201915b505050505081526020016001820154815260200160028201548152602001600382018054612be79061568c565b80601f0160208091040260200160405190810160405280929190818152602001828054612c139061568c565b8015612c605780601f10612c3557610100808354040283529160200191612c60565b820191906000526020600020905b815481529060010190602001808311612c4357829003601f168201915b5050505050815260200160048201548152602001600582015481526020016006820160009054906101000a900460ff16151515158152505081526020016021820160009054906101000a900460ff16151515158152505081526020019060010190611e15565b50505050905090565b60008054906101000a900473ffffffffffffffffffffffffffffffffffffffff1673ffffffffffffffffffffffffffffffffffffffff1663f481345a336040518263ffffffff1660e01b8152600401612d289190615500565b60206040518083038186803b158015612d4057600080fd5b505afa158015612d54573d6000803e3d6000fd5b505050506040513d601f19601f82011682018060405250810190612d789190615547565b612db7576040517f08c379a0000000000000000000000000000000000000000000000000000000008152600401612dae906155d1565b60405180910390fd5b85600260003373ffffffffffffffffffffffffffffffffffffffff1673ffffffffffffffffffffffffffffffffffffffff168152602001908152602001600020601a016000019080519060200190612e10929190614201565b5084600260003373ffffffffffffffffffffffffffffffffffffffff1673ffffffffffffffffffffffffffffffffffffffff168152602001908152602001600020601a016001018190555083600260003373ffffffffffffffffffffffffffffffffffffffff1673ffffffffffffffffffffffffffffffffffffffff168152602001908152602001600020601a016002018190555082600260003373ffffffffffffffffffffffffffffffffffffffff1673ffffffffffffffffffffffffffffffffffffffff168152602001908152602001600020601a016003019080519060200190612efe929190614201565b5081600260003373ffffffffffffffffffffffffffffffffffffffff1673ffffffffffffffffffffffffffffffffffffffff168152602001908152602001600020601a016004018190555080600260003373ffffffffffffffffffffffffffffffffffffffff1673ffffffffffffffffffffffffffffffffffffffff168152602001908152602001600020601a01600501819055506001600260003373ffffffffffffffffffffffffffffffffffffffff1673ffffffffffffffffffffffffffffffffffffffff168152602001908152602001600020601a0160060160006101000a81548160ff021916908315150217905550505050505050565b6002600060018381548110613011576130106156be565b5b906000526020600020906022020160010160009054906101000a900473ffffffffffffffffffffffffffffffffffffffff1673ffffffffffffffffffffffffffffffffffffffff1673ffffffffffffffffffffffffffffffffffffffff1681526020019081526020016000206000808201600061308e91906143b7565b6001820160006101000a81549073ffffffffffffffffffffffffffffffffffffffff02191690556002820160006130c591906143b7565b600382016000905560048201600080820160006130e291906143b7565b6001820160006130f291906143b7565b60028201600061310291906143b7565b60038201600061311291906143b7565b6004820160006101000a81549060ff02191690555050600982016000808201600061313d91906143b7565b60018201600061314d91906143b7565b60028201600061315d91906143b7565b60038201600061316d91906143b7565b60048201600061317d91906143b7565b60058201600061318d91906143b7565b60068201600061319d91906143b7565b6007820160006131ad91906143b7565b6008820160006131bd91906143b7565b6009820160006131cd91906143b7565b600a820160006101000a81549060ff0219169055505060148201600080820160006131f891906143b7565b60018201600061320891906143b7565b60028201600061321891906143b7565b60038201600061322891906143b7565b60048201600061323891906143b7565b6005820160006101000a81549060ff02191690555050601a82016000808201600061326391906143b7565b6001820160009055600282016000905560038201600061328391906143b7565b600482016000905560058201600090556006820160006101000a81549060ff021916905550506021820160006101000a81549060ff02191690555050600180805490506132d0919061571c565b81146137af5760018080805490506132e8919061571c565b815481106132f9576132f86156be565b5b90600052602060002090602202016001828154811061331b5761331a6156be565b5b9060005260206000209060220201600082018160000190805461333d9061568c565b613348929190614287565b506001820160009054906101000a900473ffffffffffffffffffffffffffffffffffffffff168160010160006101000a81548173ffffffffffffffffffffffffffffffffffffffff021916908373ffffffffffffffffffffffffffffffffffffffff16021790555060028201816002019080546133c49061568c565b6133cf929190614287565b5060038201548160030155600482018160040160008201816000019080546133f69061568c565b613401929190614287565b5060018201816001019080546134169061568c565b613421929190614287565b5060028201816002019080546134369061568c565b613441929190614287565b5060038201816003019080546134569061568c565b613461929190614287565b506004820160009054906101000a900460ff168160040160006101000a81548160ff0219169083151502179055505050600982018160090160008201816000019080546134ad9061568c565b6134b8929190614287565b5060018201816001019080546134cd9061568c565b6134d8929190614287565b5060028201816002019080546134ed9061568c565b6134f8929190614287565b50600382018160030190805461350d9061568c565b613518929190614287565b50600482018160040190805461352d9061568c565b613538929190614287565b50600582018160050190805461354d9061568c565b613558929190614287565b50600682018160060190805461356d9061568c565b613578929190614287565b50600782018160070190805461358d9061568c565b613598929190614287565b5060088201816008019080546135ad9061568c565b6135b8929190614287565b5060098201816009019080546135cd9061568c565b6135d8929190614287565b50600a820160009054906101000a900460ff1681600a0160006101000a81548160ff0219169083151502179055505050601482018160140160008201816000019080546136249061568c565b61362f929190614287565b5060018201816001019080546136449061568c565b61364f929190614287565b5060028201816002019080546136649061568c565b61366f929190614287565b5060038201816003019080546136849061568c565b61368f929190614287565b5060048201816004019080546136a49061568c565b6136af929190614287565b506005820160009054906101000a900460ff168160050160006101000a81548160ff0219169083151502179055505050601a820181601a0160008201816000019080546136fb9061568c565b613706929190614287565b506001820154816001015560028201548160020155600382018160030190805461372f9061568c565b61373a929190614287565b5060048201548160040155600582015481600501556006820160009054906101000a900460ff168160060160006101000a81548160ff02191690831515021790555050506021820160009054906101000a900460ff168160210160006101000a81548160ff0219169083151502179055509050505b60018054806137c1576137c0615750565b5b6001900381819060005260206000209060220201600080820160006137e691906143b7565b6001820160006101000a81549073ffffffffffffffffffffffffffffffffffffffff021916905560028201600061381d91906143b7565b6003820160009055600482016000808201600061383a91906143b7565b60018201600061384a91906143b7565b60028201600061385a91906143b7565b60038201600061386a91906143b7565b6004820160006101000a81549060ff02191690555050600982016000808201600061389591906143b7565b6001820160006138a591906143b7565b6002820160006138b591906143b7565b6003820160006138c591906143b7565b6004820160006138d591906143b7565b6005820160006138e591906143b7565b6006820160006138f591906143b7565b60078201600061390591906143b7565b60088201600061391591906143b7565b60098201600061392591906143b7565b600a820160006101000a81549060ff02191690555050601482016000808201600061395091906143b7565b60018201600061396091906143b7565b60028201600061397091906143b7565b60038201600061398091906143b7565b60048201600061399091906143b7565b6005820160006101000a81549060ff02191690555050601a8201600080820160006139bb91906143b7565b600182016000905560028201600090556003820160006139db91906143b7565b600482016000905560058201600090556006820160006101000a81549060ff021916905550506021820160006101000a81549060ff02191690555050905550565b60008054906101000a900473ffffffffffffffffffffffffffffffffffffffff1673ffffffffffffffffffffffffffffffffffffffff1663f481345a336040518263ffffffff1660e01b8152600401613a759190615500565b60206040518083038186803b158015613a8d57600080fd5b505afa158015613aa1573d6000803e3d6000fd5b505050506040513d601f19601f82011682018060405250810190613ac59190615547565b613b04576040517f08c379a0000000000000000000000000000000000000000000000000000000008152600401613afb906155d1565b60405180910390fd5b84600260003373ffffffffffffffffffffffffffffffffffffffff1673ffffffffffffffffffffffffffffffffffffffff1681526020019081526020016000206014016000019080519060200190613b5d929190614201565b5083600260003373ffffffffffffffffffffffffffffffffffffffff1673ffffffffffffffffffffffffffffffffffffffff1681526020019081526020016000206014016001019080519060200190613bb7929190614201565b5082600260003373ffffffffffffffffffffffffffffffffffffffff1673ffffffffffffffffffffffffffffffffffffffff1681526020019081526020016000206014016002019080519060200190613c11929190614201565b5081600260003373ffffffffffffffffffffffffffffffffffffffff1673ffffffffffffffffffffffffffffffffffffffff1681526020019081526020016000206014016003019080519060200190613c6b929190614201565b5080600260003373ffffffffffffffffffffffffffffffffffffffff1673ffffffffffffffffffffffffffffffffffffffff1681526020019081526020016000206014016004019080519060200190613cc5929190614201565b506001600260003373ffffffffffffffffffffffffffffffffffffffff1673ffffffffffffffffffffffffffffffffffffffff16815260200190815260200160002060140160050160006101000a81548160ff0219169083151502179055505050505050565b60008054906101000a900473ffffffffffffffffffffffffffffffffffffffff1673ffffffffffffffffffffffffffffffffffffffff1663f481345a336040518263ffffffff1660e01b8152600401613d849190615500565b60206040518083038186803b158015613d9c57600080fd5b505afa158015613db0573d6000803e3d6000fd5b505050506040513d601f19601f82011682018060405250810190613dd49190615547565b613e13576040517f08c379a0000000000000000000000000000000000000000000000000000000008152600401613e0a906155d1565b60405180910390fd5b89600260003373ffffffffffffffffffffffffffffffffffffffff1673ffffffffffffffffffffffffffffffffffffffff1681526020019081526020016000206009016000019080519060200190613e6c929190614201565b5088600260003373ffffffffffffffffffffffffffffffffffffffff1673ffffffffffffffffffffffffffffffffffffffff1681526020019081526020016000206009016001019080519060200190613ec6929190614201565b5087600260003373ffffffffffffffffffffffffffffffffffffffff1673ffffffffffffffffffffffffffffffffffffffff1681526020019081526020016000206009016002019080519060200190613f20929190614201565b5086600260003373ffffffffffffffffffffffffffffffffffffffff1673ffffffffffffffffffffffffffffffffffffffff1681526020019081526020016000206009016003019080519060200190613f7a929190614201565b5085600260003373ffffffffffffffffffffffffffffffffffffffff1673ffffffffffffffffffffffffffffffffffffffff1681526020019081526020016000206009016004019080519060200190613fd4929190614201565b5084600260003373ffffffffffffffffffffffffffffffffffffffff1673ffffffffffffffffffffffffffffffffffffffff168152602001908152602001600020600901600501908051906020019061402e929190614201565b5083600260003373ffffffffffffffffffffffffffffffffffffffff1673ffffffffffffffffffffffffffffffffffffffff1681526020019081526020016000206009016006019080519060200190614088929190614201565b5082600260003373ffffffffffffffffffffffffffffffffffffffff1673ffffffffffffffffffffffffffffffffffffffff16815260200190815260200160002060090160070190805190602001906140e2929190614201565b5081600260003373ffffffffffffffffffffffffffffffffffffffff1673ffffffffffffffffffffffffffffffffffffffff168152602001908152602001600020600901600801908051906020019061413c929190614201565b5080600260003373ffffffffffffffffffffffffffffffffffffffff1673ffffffffffffffffffffffffffffffffffffffff1681526020019081526020016000206009016009019080519060200190614196929190614201565b506001600260003373ffffffffffffffffffffffffffffffffffffffff1673ffffffffffffffffffffffffffffffffffffffff168152602001908152602001600020600901600a0160006101000a81548160ff02191690831515021790555050505050505050505050565b82805461420d9061568c565b90600052602060002090601f01602090048101928261422f5760008555614276565b82601f1061424857805160ff1916838001178555614276565b82800160010185558215614276579182015b8281111561427557825182559160200191906001019061425a565b5b50905061428391906143f7565b5090565b8280546142939061568c565b90600052602060002090601f0160209004810192826142b55760008555614303565b82601f106142c65780548555614303565b8280016001018555821561430357600052602060002091601f016020900482015b828111156143025782548255916001019190600101906142e7565b5b50905061431091906143f7565b5090565b60405180610120016040528060608152602001600073ffffffffffffffffffffffffffffffffffffffff168152602001606081526020016000815260200161435a614414565b8152602001614367614445565b81526020016143746144a1565b81526020016143816144d9565b81526020016000151581525090565b60405180604001604052806002905b606081526020019060019003908161439f5790505090565b5080546143c39061568c565b6000825580601f106143d557506143f4565b601f0160209004906000526020600020908101906143f391906143f7565b5b50565b5b808211156144105760008160009055506001016143f8565b5090565b6040518060a00160405280606081526020016060815260200160608152602001606081526020016000151581525090565b604051806101600160405280606081526020016060815260200160608152602001606081526020016060815260200160608152602001606081526020016060815260200160608152602001606081526020016000151581525090565b6040518060c0016040528060608152602001606081526020016060815260200160608152602001606081526020016000151581525090565b6040518060e001604052806060815260200160008152602001600081526020016060815260200160008152602001600081526020016000151581525090565b6000604051905090565b600080fd5b600080fd5b600080fd5b600080fd5b6000601f19601f8301169050919050565b7f4e487b7100000000000000000000000000000000000000000000000000000000600052604160045260246000fd5b61457f82614536565b810181811067ffffffffffffffff8211171561459e5761459d614547565b5b80604052505050565b60006145b1614518565b90506145bd8282614576565b919050565b600067ffffffffffffffff8211156145dd576145dc614547565b5b6145e682614536565b9050602081019050919050565b82818337600083830152505050565b6000614615614610846145c2565b6145a7565b90508281526020810184848401111561463157614630614531565b5b61463c8482856145f3565b509392505050565b600082601f8301126146595761465861452c565b5b8135614669848260208601614602565b91505092915050565b600073ffffffffffffffffffffffffffffffffffffffff82169050919050565b600061469d82614672565b9050919050565b6146ad81614692565b81146146b857600080fd5b50565b6000813590506146ca816146a4565b92915050565b6000819050919050565b6146e3816146d0565b81146146ee57600080fd5b50565b600081359050614700816146da565b92915050565b60008060008060008060008060006101208a8c03121561472957614728614522565b5b60008a013567ffffffffffffffff81111561474757614746614527565b5b6147538c828d01614644565b99505060206147648c828d016146bb565b98505060408a013567ffffffffffffffff81111561478557614784614527565b5b6147918c828d01614644565b97505060606147a28c828d016146f1565b96505060808a013567ffffffffffffffff8111156147c3576147c2614527565b5b6147cf8c828d01614644565b95505060a08a013567ffffffffffffffff8111156147f0576147ef614527565b5b6147fc8c828d01614644565b94505060c08a013567ffffffffffffffff81111561481d5761481c614527565b5b6148298c828d01614644565b93505060e08a013567ffffffffffffffff81111561484a57614849614527565b5b6148568c828d01614644565b9250506101008a013567ffffffffffffffff81111561487857614877614527565b5b6148848c828d01614644565b9150509295985092959850929598565b6000806000606084860312156148ad576148ac614522565b5b60006148bb868287016146bb565b935050602084013567ffffffffffffffff8111156148dc576148db614527565b5b6148e886828701614644565b925050604084013567ffffffffffffffff81111561490957614908614527565b5b61491586828701614644565b9150509250925092565b60006020828403121561493557614934614522565b5b6000614943848285016146bb565b91505092915050565b600081519050919050565b600082825260208201905092915050565b60005b8381101561498657808201518184015260208101905061496b565b83811115614995576000848401525b50505050565b60006149a68261494c565b6149b08185614957565b93506149c0818560208601614968565b6149c981614536565b840191505092915050565b6149dd81614692565b82525050565b6149ec816146d0565b82525050565b60008115159050919050565b614a07816149f2565b82525050565b600060a0830160008301518482036000860152614a2a828261499b565b91505060208301518482036020860152614a44828261499b565b91505060408301518482036040860152614a5e828261499b565b91505060608301518482036060860152614a78828261499b565b9150506080830151614a8d60808601826149fe565b508091505092915050565b6000610160830160008301518482036000860152614ab6828261499b565b91505060208301518482036020860152614ad0828261499b565b91505060408301518482036040860152614aea828261499b565b91505060608301518482036060860152614b04828261499b565b91505060808301518482036080860152614b1e828261499b565b91505060a083015184820360a0860152614b38828261499b565b91505060c083015184820360c0860152614b52828261499b565b91505060e083015184820360e0860152614b6c828261499b565b915050610100830151848203610100860152614b88828261499b565b915050610120830151848203610120860152614ba4828261499b565b915050610140830151614bbb6101408601826149fe565b508091505092915050565b600060c0830160008301518482036000860152614be3828261499b565b91505060208301518482036020860152614bfd828261499b565b91505060408301518482036040860152614c17828261499b565b91505060608301518482036060860152614c31828261499b565b91505060808301518482036080860152614c4b828261499b565b91505060a0830151614c6060a08601826149fe565b508091505092915050565b6000819050919050565b614c7e81614c6b565b82525050565b600060e0830160008301518482036000860152614ca1828261499b565b9150506020830151614cb66020860182614c75565b506040830151614cc96040860182614c75565b5060608301518482036060860152614ce1828261499b565b9150506080830151614cf66080860182614c75565b5060a0830151614d0960a0860182614c75565b5060c0830151614d1c60c08601826149fe565b508091505092915050565b6000610120830160008301518482036000860152614d45828261499b565b9150506020830151614d5a60208601826149d4565b5060408301518482036040860152614d72828261499b565b9150506060830151614d8760608601826149e3565b5060808301518482036080860152614d9f8282614a0d565b91505060a083015184820360a0860152614db98282614a98565b91505060c083015184820360c0860152614dd38282614bc6565b91505060e083015184820360e0860152614ded8282614c84565b915050610100830151614e046101008601826149fe565b508091505092915050565b60006020820190508181036000830152614e298184614d27565b905092915050565b600060029050919050565b600081905092915050565b6000819050919050565b6000614e5d838361499b565b905092915050565b6000602082019050919050565b6000614e7d82614e31565b614e878185614e3c565b935083602082028501614e9985614e47565b8060005b85811015614ed55784840389528151614eb68582614e51565b9450614ec183614e65565b925060208a01995050600181019050614e9d565b50829750879550505050505092915050565b60006020820190508181036000830152614f018184614e72565b905092915050565b600081519050919050565b600082825260208201905092915050565b6000819050602082019050919050565b6000610120830160008301518482036000860152614f53828261499b565b9150506020830151614f6860208601826149d4565b5060408301518482036040860152614f80828261499b565b9150506060830151614f9560608601826149e3565b5060808301518482036080860152614fad8282614a0d565b91505060a083015184820360a0860152614fc78282614a98565b91505060c083015184820360c0860152614fe18282614bc6565b91505060e083015184820360e0860152614ffb8282614c84565b9150506101008301516150126101008601826149fe565b508091505092915050565b60006150298383614f35565b905092915050565b6000602082019050919050565b600061504982614f09565b6150538185614f14565b93508360208202850161506585614f25565b8060005b858110156150a15784840389528151615082858261501d565b945061508d83615031565b925060208a01995050600181019050615069565b50829750879550505050505092915050565b600060208201905081810360008301526150cd818461503e565b905092915050565b6150de81614c6b565b81146150e957600080fd5b50565b6000813590506150fb816150d5565b92915050565b60008060008060008060c0878903121561511e5761511d614522565b5b600087013567ffffffffffffffff81111561513c5761513b614527565b5b61514889828a01614644565b965050602061515989828a016150ec565b955050604061516a89828a016150ec565b945050606087013567ffffffffffffffff81111561518b5761518a614527565b5b61519789828a01614644565b93505060806151a889828a016150ec565b92505060a06151b989828a016150ec565b9150509295509295509295565b6000602082840312156151dc576151db614522565b5b60006151ea848285016146f1565b91505092915050565b600080600080600060a0868803121561520f5761520e614522565b5b600086013567ffffffffffffffff81111561522d5761522c614527565b5b61523988828901614644565b955050602086013567ffffffffffffffff81111561525a57615259614527565b5b61526688828901614644565b945050604086013567ffffffffffffffff81111561528757615286614527565b5b61529388828901614644565b935050606086013567ffffffffffffffff8111156152b4576152b3614527565b5b6152c088828901614644565b925050608086013567ffffffffffffffff8111156152e1576152e0614527565b5b6152ed88828901614644565b9150509295509295909350565b6000806000806000806000806000806101408b8d03121561531e5761531d614522565b5b60008b013567ffffffffffffffff81111561533c5761533b614527565b5b6153488d828e01614644565b9a505060208b013567ffffffffffffffff81111561536957615368614527565b5b6153758d828e01614644565b99505060408b013567ffffffffffffffff81111561539657615395614527565b5b6153a28d828e01614644565b98505060608b013567ffffffffffffffff8111156153c3576153c2614527565b5b6153cf8d828e01614644565b97505060808b013567ffffffffffffffff8111156153f0576153ef614527565b5b6153fc8d828e01614644565b96505060a08b013567ffffffffffffffff81111561541d5761541c614527565b5b6154298d828e01614644565b95505060c08b013567ffffffffffffffff81111561544a57615449614527565b5b6154568d828e01614644565b94505060e08b013567ffffffffffffffff81111561547757615476614527565b5b6154838d828e01614644565b9350506101008b013567ffffffffffffffff8111156154a5576154a4614527565b5b6154b18d828e01614644565b9250506101208b013567ffffffffffffffff8111156154d3576154d2614527565b5b6154df8d828e01614644565b9150509295989b9194979a5092959850565b6154fa81614692565b82525050565b600060208201905061551560008301846154f1565b92915050565b615524816149f2565b811461552f57600080fd5b50565b6000815190506155418161551b565b92915050565b60006020828403121561555d5761555c614522565b5b600061556b84828501615532565b91505092915050565b600082825260208201905092915050565b7f596f7520617265206e6f74207265676973746572656400000000000000000000600082015250565b60006155bb601683615574565b91506155c682615585565b602082019050919050565b600060208201905081810360008301526155ea816155ae565b9050919050565b7f446f63756d656e747320616c72656164792075706c6f61646564000000000000600082015250565b6000615627601a83615574565b9150615632826155f1565b602082019050919050565b600060208201905081810360008301526156568161561a565b9050919050565b7f4e487b7100000000000000000000000000000000000000000000000000000000600052602260045260246000fd5b600060028204905060018216806156a457607f821691505b602082108114156156b8576156b761565d565b5b50919050565b7f4e487b7100000000000000000000000000000000000000000000000000000000600052603260045260246000fd5b7f4e487b7100000000000000000000000000000000000000000000000000000000600052601160045260246000fd5b6000615727826146d0565b9150615732836146d0565b925082821015615745576157446156ed565b5b828203905092915050565b7f4e487b7100000000000000000000000000000000000000000000000000000000600052603160045260246000fdfea26469706673582212201710fc26bcaff7febf4a2506c2f280cb976e683199f70b027612585fdb3d888964736f6c63430008090033",
  "linkReferences": {},
  "deployedLinkReferences": {}
}