{
  "_format": "hh-sol-artifact-1",
  "contractName": "StudentHistory",
  "sourceName": "contracts/StudentHistory.sol",
  "abi": [
    {
      "inputs": [
        {
          "components": [
            {
              "internalType": "string",
              "name": "Id",
              "type": "string"
            },
            {
              "internalType": "address",
              "name": "addr",
              "type": "address"
            },
            {
              "internalType": "string",
              "name": "programCode",
              "type": "string"
            },
            {
              "internalType": "uint256",
              "name": "admission_date",
              "type": "uint256"
            },
            {
              "components": [
                {
                  "internalType": "string",
                  "name": "picture",
                  "type": "string"
                },
                {
                  "internalType": "string",
                  "name": "cnic",
                  "type": "string"
                },
                {
                  "internalType": "string",
                  "name": "ssc_degree",
                  "type": "string"
                },
                {
                  "internalType": "string",
                  "name": "hssc_degree",
                  "type": "string"
                },
                {
                  "internalType": "bool",
                  "name": "stored",
                  "type": "bool"
                }
              ],
              "internalType": "struct documents",
              "name": "d_data",
              "type": "tuple"
            },
            {
              "components": [
                {
                  "internalType": "string",
                  "name": "name",
                  "type": "string"
                },
                {
                  "internalType": "string",
                  "name": "surname",
                  "type": "string"
                },
                {
                  "internalType": "string",
                  "name": "date_of_birth",
                  "type": "string"
                },
                {
                  "internalType": "string",
                  "name": "cnic",
                  "type": "string"
                },
                {
                  "internalType": "string",
                  "name": "gender",
                  "type": "string"
                },
                {
                  "internalType": "string",
                  "name": "phone_no",
                  "type": "string"
                },
                {
                  "internalType": "string",
                  "name": "email",
                  "type": "string"
                },
                {
                  "internalType": "string",
                  "name": "permanent_addr",
                  "type": "string"
                },
                {
                  "internalType": "string",
                  "name": "city",
                  "type": "string"
                },
                {
                  "internalType": "string",
                  "name": "country",
                  "type": "string"
                },
                {
                  "internalType": "bool",
                  "name": "stored",
                  "type": "bool"
                }
              ],
              "internalType": "struct personal_details",
              "name": "s_data",
              "type": "tuple"
            },
            {
              "components": [
                {
                  "internalType": "string",
                  "name": "name",
                  "type": "string"
                },
                {
                  "internalType": "string",
                  "name": "cnic",
                  "type": "string"
                },
                {
                  "internalType": "string",
                  "name": "phone_no",
                  "type": "string"
                },
                {
                  "internalType": "string",
                  "name": "ocupation",
                  "type": "string"
                },
                {
                  "internalType": "string",
                  "name": "salary",
                  "type": "string"
                },
                {
                  "internalType": "bool",
                  "name": "stored",
                  "type": "bool"
                }
              ],
              "internalType": "struct father_details",
              "name": "f_data",
              "type": "tuple"
            },
            {
              "components": [
                {
                  "internalType": "string",
                  "name": "ssc_board_name",
                  "type": "string"
                },
                {
                  "internalType": "int256",
                  "name": "ssc_total_marks",
                  "type": "int256"
                },
                {
                  "internalType": "int256",
                  "name": "ssc_obtained_marks",
                  "type": "int256"
                },
                {
                  "internalType": "string",
                  "name": "hssc_board_name",
                  "type": "string"
                },
                {
                  "internalType": "int256",
                  "name": "hssc_total_marks",
                  "type": "int256"
                },
                {
                  "internalType": "int256",
                  "name": "hssc_obtained_marks",
                  "type": "int256"
                },
                {
                  "internalType": "bool",
                  "name": "stored",
                  "type": "bool"
                }
              ],
              "internalType": "struct education_details",
              "name": "e_data",
              "type": "tuple"
            },
            {
              "internalType": "bool",
              "name": "isCreated",
              "type": "bool"
            }
          ],
          "internalType": "struct student",
          "name": "s",
          "type": "tuple"
        }
      ],
      "name": "UpdateHistory",
      "outputs": [],
      "stateMutability": "nonpayable",
      "type": "function"
    },
    {
      "inputs": [
        {
          "internalType": "address",
          "name": "adr",
          "type": "address"
        }
      ],
      "name": "getHistory",
      "outputs": [
        {
          "components": [
            {
              "internalType": "string",
              "name": "Id",
              "type": "string"
            },
            {
              "internalType": "address",
              "name": "addr",
              "type": "address"
            },
            {
              "internalType": "string",
              "name": "programCode",
              "type": "string"
            },
            {
              "internalType": "uint256",
              "name": "admission_date",
              "type": "uint256"
            },
            {
              "components": [
                {
                  "internalType": "string",
                  "name": "picture",
                  "type": "string"
                },
                {
                  "internalType": "string",
                  "name": "cnic",
                  "type": "string"
                },
                {
                  "internalType": "string",
                  "name": "ssc_degree",
                  "type": "string"
                },
                {
                  "internalType": "string",
                  "name": "hssc_degree",
                  "type": "string"
                },
                {
                  "internalType": "bool",
                  "name": "stored",
                  "type": "bool"
                }
              ],
              "internalType": "struct documents",
              "name": "d_data",
              "type": "tuple"
            },
            {
              "components": [
                {
                  "internalType": "string",
                  "name": "name",
                  "type": "string"
                },
                {
                  "internalType": "string",
                  "name": "surname",
                  "type": "string"
                },
                {
                  "internalType": "string",
                  "name": "date_of_birth",
                  "type": "string"
                },
                {
                  "internalType": "string",
                  "name": "cnic",
                  "type": "string"
                },
                {
                  "internalType": "string",
                  "name": "gender",
                  "type": "string"
                },
                {
                  "internalType": "string",
                  "name": "phone_no",
                  "type": "string"
                },
                {
                  "internalType": "string",
                  "name": "email",
                  "type": "string"
                },
                {
                  "internalType": "string",
                  "name": "permanent_addr",
                  "type": "string"
                },
                {
                  "internalType": "string",
                  "name": "city",
                  "type": "string"
                },
                {
                  "internalType": "string",
                  "name": "country",
                  "type": "string"
                },
                {
                  "internalType": "bool",
                  "name": "stored",
                  "type": "bool"
                }
              ],
              "internalType": "struct personal_details",
              "name": "s_data",
              "type": "tuple"
            },
            {
              "components": [
                {
                  "internalType": "string",
                  "name": "name",
                  "type": "string"
                },
                {
                  "internalType": "string",
                  "name": "cnic",
                  "type": "string"
                },
                {
                  "internalType": "string",
                  "name": "phone_no",
                  "type": "string"
                },
                {
                  "internalType": "string",
                  "name": "ocupation",
                  "type": "string"
                },
                {
                  "internalType": "string",
                  "name": "salary",
                  "type": "string"
                },
                {
                  "internalType": "bool",
                  "name": "stored",
                  "type": "bool"
                }
              ],
              "internalType": "struct father_details",
              "name": "f_data",
              "type": "tuple"
            },
            {
              "components": [
                {
                  "internalType": "string",
                  "name": "ssc_board_name",
                  "type": "string"
                },
                {
                  "internalType": "int256",
                  "name": "ssc_total_marks",
                  "type": "int256"
                },
                {
                  "internalType": "int256",
                  "name": "ssc_obtained_marks",
                  "type": "int256"
                },
                {
                  "internalType": "string",
                  "name": "hssc_board_name",
                  "type": "string"
                },
                {
                  "internalType": "int256",
                  "name": "hssc_total_marks",
                  "type": "int256"
                },
                {
                  "internalType": "int256",
                  "name": "hssc_obtained_marks",
                  "type": "int256"
                },
                {
                  "internalType": "bool",
                  "name": "stored",
                  "type": "bool"
                }
              ],
              "internalType": "struct education_details",
              "name": "e_data",
              "type": "tuple"
            },
            {
              "internalType": "bool",
              "name": "isCreated",
              "type": "bool"
            }
          ],
          "internalType": "struct student[]",
          "name": "",
          "type": "tuple[]"
        }
      ],
      "stateMutability": "view",
      "type": "function"
    },
    {
      "inputs": [
        {
          "internalType": "address",
          "name": "addr",
          "type": "address"
        }
      ],
      "name": "setAdminContract",
      "outputs": [],
      "stateMutability": "nonpayable",
      "type": "function"
    }
  ],
  "bytecode": "0x608060405234801561001057600080fd5b5061269c806100206000396000f3fe608060405234801561001057600080fd5b50600436106100415760003560e01c806363a812f9146100465780638039681114610062578063b7a170e214610092575b600080fd5b610060600480360381019061005b9190611661565b6100ae565b005b61007c60048036038101906100779190611661565b6100f1565b6040516100899190611c2e565b60405180910390f35b6100ac60048036038101906100a791906124d3565b6110f6565b005b806000806101000a81548173ffffffffffffffffffffffffffffffffffffffff021916908373ffffffffffffffffffffffffffffffffffffffff16021790555050565b606060008054906101000a900473ffffffffffffffffffffffffffffffffffffffff1673ffffffffffffffffffffffffffffffffffffffff16639026dee8336040518263ffffffff1660e01b815260040161014c919061252b565b60206040518083038186803b15801561016457600080fd5b505afa158015610178573d6000803e3d6000fd5b505050506040513d601f19601f8201168201806040525081019061019c919061255b565b6101db576040517f08c379a00000000000000000000000000000000000000000000000000000000081526004016101d2906125e5565b60405180910390fd5b600160008373ffffffffffffffffffffffffffffffffffffffff1673ffffffffffffffffffffffffffffffffffffffff168152602001908152602001600020805480602002602001604051908101604052809291908181526020016000905b828210156110eb57838290600052602060002090602202016040518061012001604052908160008201805461026e90612634565b80601f016020809104026020016040519081016040528092919081815260200182805461029a90612634565b80156102e75780601f106102bc576101008083540402835291602001916102e7565b820191906000526020600020905b8154815290600101906020018083116102ca57829003601f168201915b505050505081526020016001820160009054906101000a900473ffffffffffffffffffffffffffffffffffffffff1673ffffffffffffffffffffffffffffffffffffffff1673ffffffffffffffffffffffffffffffffffffffff16815260200160028201805461035690612634565b80601f016020809104026020016040519081016040528092919081815260200182805461038290612634565b80156103cf5780601f106103a4576101008083540402835291602001916103cf565b820191906000526020600020905b8154815290600101906020018083116103b257829003601f168201915b5050505050815260200160038201548152602001600482016040518060a001604052908160008201805461040290612634565b80601f016020809104026020016040519081016040528092919081815260200182805461042e90612634565b801561047b5780601f106104505761010080835404028352916020019161047b565b820191906000526020600020905b81548152906001019060200180831161045e57829003601f168201915b5050505050815260200160018201805461049490612634565b80601f01602080910402602001604051908101604052809291908181526020018280546104c090612634565b801561050d5780601f106104e25761010080835404028352916020019161050d565b820191906000526020600020905b8154815290600101906020018083116104f057829003601f168201915b5050505050815260200160028201805461052690612634565b80601f016020809104026020016040519081016040528092919081815260200182805461055290612634565b801561059f5780601f106105745761010080835404028352916020019161059f565b820191906000526020600020905b81548152906001019060200180831161058257829003601f168201915b505050505081526020016003820180546105b890612634565b80601f01602080910402602001604051908101604052809291908181526020018280546105e490612634565b80156106315780601f1061060657610100808354040283529160200191610631565b820191906000526020600020905b81548152906001019060200180831161061457829003601f168201915b505050505081526020016004820160009054906101000a900460ff1615151515815250508152602001600982016040518061016001604052908160008201805461067a90612634565b80601f01602080910402602001604051908101604052809291908181526020018280546106a690612634565b80156106f35780601f106106c8576101008083540402835291602001916106f3565b820191906000526020600020905b8154815290600101906020018083116106d657829003601f168201915b5050505050815260200160018201805461070c90612634565b80601f016020809104026020016040519081016040528092919081815260200182805461073890612634565b80156107855780601f1061075a57610100808354040283529160200191610785565b820191906000526020600020905b81548152906001019060200180831161076857829003601f168201915b5050505050815260200160028201805461079e90612634565b80601f01602080910402602001604051908101604052809291908181526020018280546107ca90612634565b80156108175780601f106107ec57610100808354040283529160200191610817565b820191906000526020600020905b8154815290600101906020018083116107fa57829003601f168201915b5050505050815260200160038201805461083090612634565b80601f016020809104026020016040519081016040528092919081815260200182805461085c90612634565b80156108a95780601f1061087e576101008083540402835291602001916108a9565b820191906000526020600020905b81548152906001019060200180831161088c57829003601f168201915b505050505081526020016004820180546108c290612634565b80601f01602080910402602001604051908101604052809291908181526020018280546108ee90612634565b801561093b5780601f106109105761010080835404028352916020019161093b565b820191906000526020600020905b81548152906001019060200180831161091e57829003601f168201915b5050505050815260200160058201805461095490612634565b80601f016020809104026020016040519081016040528092919081815260200182805461098090612634565b80156109cd5780601f106109a2576101008083540402835291602001916109cd565b820191906000526020600020905b8154815290600101906020018083116109b057829003601f168201915b505050505081526020016006820180546109e690612634565b80601f0160208091040260200160405190810160405280929190818152602001828054610a1290612634565b8015610a5f5780601f10610a3457610100808354040283529160200191610a5f565b820191906000526020600020905b815481529060010190602001808311610a4257829003601f168201915b50505050508152602001600782018054610a7890612634565b80601f0160208091040260200160405190810160405280929190818152602001828054610aa490612634565b8015610af15780601f10610ac657610100808354040283529160200191610af1565b820191906000526020600020905b815481529060010190602001808311610ad457829003601f168201915b50505050508152602001600882018054610b0a90612634565b80601f0160208091040260200160405190810160405280929190818152602001828054610b3690612634565b8015610b835780601f10610b5857610100808354040283529160200191610b83565b820191906000526020600020905b815481529060010190602001808311610b6657829003601f168201915b50505050508152602001600982018054610b9c90612634565b80601f0160208091040260200160405190810160405280929190818152602001828054610bc890612634565b8015610c155780601f10610bea57610100808354040283529160200191610c15565b820191906000526020600020905b815481529060010190602001808311610bf857829003601f168201915b50505050508152602001600a820160009054906101000a900460ff1615151515815250508152602001601482016040518060c0016040529081600082018054610c5d90612634565b80601f0160208091040260200160405190810160405280929190818152602001828054610c8990612634565b8015610cd65780601f10610cab57610100808354040283529160200191610cd6565b820191906000526020600020905b815481529060010190602001808311610cb957829003601f168201915b50505050508152602001600182018054610cef90612634565b80601f0160208091040260200160405190810160405280929190818152602001828054610d1b90612634565b8015610d685780601f10610d3d57610100808354040283529160200191610d68565b820191906000526020600020905b815481529060010190602001808311610d4b57829003601f168201915b50505050508152602001600282018054610d8190612634565b80601f0160208091040260200160405190810160405280929190818152602001828054610dad90612634565b8015610dfa5780601f10610dcf57610100808354040283529160200191610dfa565b820191906000526020600020905b815481529060010190602001808311610ddd57829003601f168201915b50505050508152602001600382018054610e1390612634565b80601f0160208091040260200160405190810160405280929190818152602001828054610e3f90612634565b8015610e8c5780601f10610e6157610100808354040283529160200191610e8c565b820191906000526020600020905b815481529060010190602001808311610e6f57829003601f168201915b50505050508152602001600482018054610ea590612634565b80601f0160208091040260200160405190810160405280929190818152602001828054610ed190612634565b8015610f1e5780601f10610ef357610100808354040283529160200191610f1e565b820191906000526020600020905b815481529060010190602001808311610f0157829003601f168201915b505050505081526020016005820160009054906101000a900460ff1615151515815250508152602001601a82016040518060e0016040529081600082018054610f6690612634565b80601f0160208091040260200160405190810160405280929190818152602001828054610f9290612634565b8015610fdf5780601f10610fb457610100808354040283529160200191610fdf565b820191906000526020600020905b815481529060010190602001808311610fc257829003601f168201915b50505050508152602001600182015481526020016002820154815260200160038201805461100c90612634565b80601f016020809104026020016040519081016040528092919081815260200182805461103890612634565b80156110855780601f1061105a57610100808354040283529160200191611085565b820191906000526020600020905b81548152906001019060200180831161106857829003601f168201915b5050505050815260200160048201548152602001600582015481526020016006820160009054906101000a900460ff16151515158152505081526020016021820160009054906101000a900460ff1615151515815250508152602001906001019061023a565b505050509050919050565b60016000826020015173ffffffffffffffffffffffffffffffffffffffff1673ffffffffffffffffffffffffffffffffffffffff168152602001908152602001600020819080600181540180825580915050600190039060005260206000209060220201600090919091909150600082015181600001908051906020019061117f92919061154c565b5060208201518160010160006101000a81548173ffffffffffffffffffffffffffffffffffffffff021916908373ffffffffffffffffffffffffffffffffffffffff16021790555060408201518160020190805190602001906111e392919061154c565b5060608201518160030155608082015181600401600082015181600001908051906020019061121392919061154c565b50602082015181600101908051906020019061123092919061154c565b50604082015181600201908051906020019061124d92919061154c565b50606082015181600301908051906020019061126a92919061154c565b5060808201518160040160006101000a81548160ff021916908315150217905550505060a08201518160090160008201518160000190805190602001906112b292919061154c565b5060208201518160010190805190602001906112cf92919061154c565b5060408201518160020190805190602001906112ec92919061154c565b50606082015181600301908051906020019061130992919061154c565b50608082015181600401908051906020019061132692919061154c565b5060a082015181600501908051906020019061134392919061154c565b5060c082015181600601908051906020019061136092919061154c565b5060e082015181600701908051906020019061137d92919061154c565b5061010082015181600801908051906020019061139b92919061154c565b506101208201518160090190805190602001906113b992919061154c565b5061014082015181600a0160006101000a81548160ff021916908315150217905550505060c082015181601401600082015181600001908051906020019061140292919061154c565b50602082015181600101908051906020019061141f92919061154c565b50604082015181600201908051906020019061143c92919061154c565b50606082015181600301908051906020019061145992919061154c565b50608082015181600401908051906020019061147692919061154c565b5060a08201518160050160006101000a81548160ff021916908315150217905550505060e082015181601a0160008201518160000190805190602001906114be92919061154c565b50602082015181600101556040820151816002015560608201518160030190805190602001906114ef92919061154c565b506080820151816004015560a0820151816005015560c08201518160060160006101000a81548160ff02191690831515021790555050506101008201518160210160006101000a81548160ff021916908315150217905550505050565b82805461155890612634565b90600052602060002090601f01602090048101928261157a57600085556115c1565b82601f1061159357805160ff19168380011785556115c1565b828001600101855582156115c1579182015b828111156115c05782518255916020019190600101906115a5565b5b5090506115ce91906115d2565b5090565b5b808211156115eb5760008160009055506001016115d3565b5090565b6000604051905090565b600080fd5b600080fd5b600073ffffffffffffffffffffffffffffffffffffffff82169050919050565b600061162e82611603565b9050919050565b61163e81611623565b811461164957600080fd5b50565b60008135905061165b81611635565b92915050565b600060208284031215611677576116766115f9565b5b60006116858482850161164c565b91505092915050565b600081519050919050565b600082825260208201905092915050565b6000819050602082019050919050565b600081519050919050565b600082825260208201905092915050565b60005b838110156116f45780820151818401526020810190506116d9565b83811115611703576000848401525b50505050565b6000601f19601f8301169050919050565b6000611725826116ba565b61172f81856116c5565b935061173f8185602086016116d6565b61174881611709565b840191505092915050565b61175c81611623565b82525050565b6000819050919050565b61177581611762565b82525050565b60008115159050919050565b6117908161177b565b82525050565b600060a08301600083015184820360008601526117b3828261171a565b915050602083015184820360208601526117cd828261171a565b915050604083015184820360408601526117e7828261171a565b91505060608301518482036060860152611801828261171a565b91505060808301516118166080860182611787565b508091505092915050565b600061016083016000830151848203600086015261183f828261171a565b91505060208301518482036020860152611859828261171a565b91505060408301518482036040860152611873828261171a565b9150506060830151848203606086015261188d828261171a565b915050608083015184820360808601526118a7828261171a565b91505060a083015184820360a08601526118c1828261171a565b91505060c083015184820360c08601526118db828261171a565b91505060e083015184820360e08601526118f5828261171a565b915050610100830151848203610100860152611911828261171a565b91505061012083015184820361012086015261192d828261171a565b915050610140830151611944610140860182611787565b508091505092915050565b600060c083016000830151848203600086015261196c828261171a565b91505060208301518482036020860152611986828261171a565b915050604083015184820360408601526119a0828261171a565b915050606083015184820360608601526119ba828261171a565b915050608083015184820360808601526119d4828261171a565b91505060a08301516119e960a0860182611787565b508091505092915050565b6000819050919050565b611a07816119f4565b82525050565b600060e0830160008301518482036000860152611a2a828261171a565b9150506020830151611a3f60208601826119fe565b506040830151611a5260408601826119fe565b5060608301518482036060860152611a6a828261171a565b9150506080830151611a7f60808601826119fe565b5060a0830151611a9260a08601826119fe565b5060c0830151611aa560c0860182611787565b508091505092915050565b6000610120830160008301518482036000860152611ace828261171a565b9150506020830151611ae36020860182611753565b5060408301518482036040860152611afb828261171a565b9150506060830151611b10606086018261176c565b5060808301518482036080860152611b288282611796565b91505060a083015184820360a0860152611b428282611821565b91505060c083015184820360c0860152611b5c828261194f565b91505060e083015184820360e0860152611b768282611a0d565b915050610100830151611b8d610100860182611787565b508091505092915050565b6000611ba48383611ab0565b905092915050565b6000602082019050919050565b6000611bc48261168e565b611bce8185611699565b935083602082028501611be0856116aa565b8060005b85811015611c1c5784840389528151611bfd8582611b98565b9450611c0883611bac565b925060208a01995050600181019050611be4565b50829750879550505050505092915050565b60006020820190508181036000830152611c488184611bb9565b905092915050565b600080fd5b7f4e487b7100000000000000000000000000000000000000000000000000000000600052604160045260246000fd5b611c8d82611709565b810181811067ffffffffffffffff82111715611cac57611cab611c55565b5b80604052505050565b6000611cbf6115ef565b9050611ccb8282611c84565b919050565b600080fd5b600080fd5b600080fd5b600067ffffffffffffffff821115611cfa57611cf9611c55565b5b611d0382611709565b9050602081019050919050565b82818337600083830152505050565b6000611d32611d2d84611cdf565b611cb5565b905082815260208101848484011115611d4e57611d4d611cda565b5b611d59848285611d10565b509392505050565b600082601f830112611d7657611d75611cd5565b5b8135611d86848260208601611d1f565b91505092915050565b611d9881611762565b8114611da357600080fd5b50565b600081359050611db581611d8f565b92915050565b611dc48161177b565b8114611dcf57600080fd5b50565b600081359050611de181611dbb565b92915050565b600060a08284031215611dfd57611dfc611c50565b5b611e0760a0611cb5565b9050600082013567ffffffffffffffff811115611e2757611e26611cd0565b5b611e3384828501611d61565b600083015250602082013567ffffffffffffffff811115611e5757611e56611cd0565b5b611e6384828501611d61565b602083015250604082013567ffffffffffffffff811115611e8757611e86611cd0565b5b611e9384828501611d61565b604083015250606082013567ffffffffffffffff811115611eb757611eb6611cd0565b5b611ec384828501611d61565b6060830152506080611ed784828501611dd2565b60808301525092915050565b60006101608284031215611efa57611ef9611c50565b5b611f05610160611cb5565b9050600082013567ffffffffffffffff811115611f2557611f24611cd0565b5b611f3184828501611d61565b600083015250602082013567ffffffffffffffff811115611f5557611f54611cd0565b5b611f6184828501611d61565b602083015250604082013567ffffffffffffffff811115611f8557611f84611cd0565b5b611f9184828501611d61565b604083015250606082013567ffffffffffffffff811115611fb557611fb4611cd0565b5b611fc184828501611d61565b606083015250608082013567ffffffffffffffff811115611fe557611fe4611cd0565b5b611ff184828501611d61565b60808301525060a082013567ffffffffffffffff81111561201557612014611cd0565b5b61202184828501611d61565b60a08301525060c082013567ffffffffffffffff81111561204557612044611cd0565b5b61205184828501611d61565b60c08301525060e082013567ffffffffffffffff81111561207557612074611cd0565b5b61208184828501611d61565b60e08301525061010082013567ffffffffffffffff8111156120a6576120a5611cd0565b5b6120b284828501611d61565b6101008301525061012082013567ffffffffffffffff8111156120d8576120d7611cd0565b5b6120e484828501611d61565b610120830152506101406120fa84828501611dd2565b6101408301525092915050565b600060c0828403121561211d5761211c611c50565b5b61212760c0611cb5565b9050600082013567ffffffffffffffff81111561214757612146611cd0565b5b61215384828501611d61565b600083015250602082013567ffffffffffffffff81111561217757612176611cd0565b5b61218384828501611d61565b602083015250604082013567ffffffffffffffff8111156121a7576121a6611cd0565b5b6121b384828501611d61565b604083015250606082013567ffffffffffffffff8111156121d7576121d6611cd0565b5b6121e384828501611d61565b606083015250608082013567ffffffffffffffff81111561220757612206611cd0565b5b61221384828501611d61565b60808301525060a061222784828501611dd2565b60a08301525092915050565b61223c816119f4565b811461224757600080fd5b50565b60008135905061225981612233565b92915050565b600060e0828403121561227557612274611c50565b5b61227f60e0611cb5565b9050600082013567ffffffffffffffff81111561229f5761229e611cd0565b5b6122ab84828501611d61565b60008301525060206122bf8482850161224a565b60208301525060406122d38482850161224a565b604083015250606082013567ffffffffffffffff8111156122f7576122f6611cd0565b5b61230384828501611d61565b60608301525060806123178482850161224a565b60808301525060a061232b8482850161224a565b60a08301525060c061233f84828501611dd2565b60c08301525092915050565b6000610120828403121561236257612361611c50565b5b61236d610120611cb5565b9050600082013567ffffffffffffffff81111561238d5761238c611cd0565b5b61239984828501611d61565b60008301525060206123ad8482850161164c565b602083015250604082013567ffffffffffffffff8111156123d1576123d0611cd0565b5b6123dd84828501611d61565b60408301525060606123f184828501611da6565b606083015250608082013567ffffffffffffffff81111561241557612414611cd0565b5b61242184828501611de7565b60808301525060a082013567ffffffffffffffff81111561244557612444611cd0565b5b61245184828501611ee3565b60a08301525060c082013567ffffffffffffffff81111561247557612474611cd0565b5b61248184828501612107565b60c08301525060e082013567ffffffffffffffff8111156124a5576124a4611cd0565b5b6124b18482850161225f565b60e0830152506101006124c684828501611dd2565b6101008301525092915050565b6000602082840312156124e9576124e86115f9565b5b600082013567ffffffffffffffff811115612507576125066115fe565b5b6125138482850161234b565b91505092915050565b61252581611623565b82525050565b6000602082019050612540600083018461251c565b92915050565b60008151905061255581611dbb565b92915050565b600060208284031215612571576125706115f9565b5b600061257f84828501612546565b91505092915050565b600082825260208201905092915050565b7f596f7520617265206e6f742041646d696e000000000000000000000000000000600082015250565b60006125cf601183612588565b91506125da82612599565b602082019050919050565b600060208201905081810360008301526125fe816125c2565b9050919050565b7f4e487b7100000000000000000000000000000000000000000000000000000000600052602260045260246000fd5b6000600282049050600182168061264c57607f821691505b602082108114156126605761265f612605565b5b5091905056fea2646970667358221220bb208cef2f3fcc140aeb27b889053e36f250d2a1d25d95072e453856fc28e15b64736f6c63430008090033",
  "linkReferences": {},
  "deployedLinkReferences": {}
}