{
  "_format": "hh-sol-artifact-1",
  "contractName": "ScheduleAdmissions",
  "sourceName": "contracts/ScheduleAdmission.sol",
  "abi": [
    {
      "inputs": [
        {
          "internalType": "uint256",
          "name": "_close",
          "type": "uint256"
        }
      ],
      "name": "extendAdmissionDate",
      "outputs": [],
      "stateMutability": "nonpayable",
      "type": "function"
    },
    {
      "inputs": [],
      "name": "getAdmissionDates",
      "outputs": [
        {
          "internalType": "uint256",
          "name": "",
          "type": "uint256"
        },
        {
          "internalType": "uint256",
          "name": "",
          "type": "uint256"
        }
      ],
      "stateMutability": "view",
      "type": "function"
    },
    {
      "inputs": [],
      "name": "owner",
      "outputs": [
        {
          "internalType": "address",
          "name": "",
          "type": "address"
        }
      ],
      "stateMutability": "view",
      "type": "function"
    },
    {
      "inputs": [
        {
          "internalType": "uint256",
          "name": "_open",
          "type": "uint256"
        },
        {
          "internalType": "uint256",
          "name": "_close",
          "type": "uint256"
        }
      ],
      "name": "scheduleAdmission",
      "outputs": [],
      "stateMutability": "nonpayable",
      "type": "function"
    },
    {
      "inputs": [
        {
          "internalType": "address",
          "name": "addr",
          "type": "address"
        }
      ],
      "name": "setAdminContract",
      "outputs": [],
      "stateMutability": "nonpayable",
      "type": "function"
    }
  ],
  "bytecode": "0x608060405234801561001057600080fd5b506106d0806100206000396000f3fe608060405234801561001057600080fd5b50600436106100575760003560e01c806363a812f91461005c5780638714e74d146100785780638da5cb5b14610094578063ebf92b66146100b2578063ef268393146100d1575b600080fd5b6100766004803603810190610071919061041a565b6100ed565b005b610092600480360381019061008d919061047d565b610130565b005b61009c610269565b6040516100a991906104b9565b60405180910390f35b6100ba61028f565b6040516100c89291906104e3565b60405180910390f35b6100eb60048036038101906100e6919061050c565b6102a0565b005b806000806101000a81548173ffffffffffffffffffffffffffffffffffffffff021916908373ffffffffffffffffffffffffffffffffffffffff16021790555050565b60008054906101000a900473ffffffffffffffffffffffffffffffffffffffff1673ffffffffffffffffffffffffffffffffffffffff16639026dee8336040518263ffffffff1660e01b815260040161018991906104b9565b60206040518083038186803b1580156101a157600080fd5b505afa1580156101b5573d6000803e3d6000fd5b505050506040513d601f19601f820116820180604052508101906101d99190610584565b610218576040517f08c379a000000000000000000000000000000000000000000000000000000000815260040161020f9061060e565b60405180910390fd5b61022061039a565b61025f576040517f08c379a00000000000000000000000000000000000000000000000000000000081526004016102569061067a565b60405180910390fd5b8060038190555050565b600160009054906101000a900473ffffffffffffffffffffffffffffffffffffffff1681565b600080600254600354915091509091565b60008054906101000a900473ffffffffffffffffffffffffffffffffffffffff1673ffffffffffffffffffffffffffffffffffffffff16639026dee8336040518263ffffffff1660e01b81526004016102f991906104b9565b60206040518083038186803b15801561031157600080fd5b505afa158015610325573d6000803e3d6000fd5b505050506040513d601f19601f820116820180604052508101906103499190610584565b610388576040517f08c379a000000000000000000000000000000000000000000000000000000000815260040161037f9061060e565b60405180910390fd5b81600281905550806003819055505050565b60008060025411156103af57600190506103b4565b600090505b90565b600080fd5b600073ffffffffffffffffffffffffffffffffffffffff82169050919050565b60006103e7826103bc565b9050919050565b6103f7816103dc565b811461040257600080fd5b50565b600081359050610414816103ee565b92915050565b6000602082840312156104305761042f6103b7565b5b600061043e84828501610405565b91505092915050565b6000819050919050565b61045a81610447565b811461046557600080fd5b50565b60008135905061047781610451565b92915050565b600060208284031215610493576104926103b7565b5b60006104a184828501610468565b91505092915050565b6104b3816103dc565b82525050565b60006020820190506104ce60008301846104aa565b92915050565b6104dd81610447565b82525050565b60006040820190506104f860008301856104d4565b61050560208301846104d4565b9392505050565b60008060408385031215610523576105226103b7565b5b600061053185828601610468565b925050602061054285828601610468565b9150509250929050565b60008115159050919050565b6105618161054c565b811461056c57600080fd5b50565b60008151905061057e81610558565b92915050565b60006020828403121561059a576105996103b7565b5b60006105a88482850161056f565b91505092915050565b600082825260208201905092915050565b7f596f7520617265206e6f742041646d696e000000000000000000000000000000600082015250565b60006105f86011836105b1565b9150610603826105c2565b602082019050919050565b60006020820190508181036000830152610627816105eb565b9050919050565b7f41646d697373696f6e7320617265206e6f74207363686564756c656400000000600082015250565b6000610664601c836105b1565b915061066f8261062e565b602082019050919050565b6000602082019050818103600083015261069381610657565b905091905056fea2646970667358221220fc92a1f5473fec746d22d7287bf641429bd8f5f213b54aa12674ba6a4689c06364736f6c63430008090033",
  "linkReferences": {},
  "deployedLinkReferences": {}
}