{
  "_format": "hh-sol-artifact-1",
  "contractName": "RegisterStudent",
  "sourceName": "contracts/RegisterStudent.sol",
  "abi": [
    {
      "inputs": [
        {
          "internalType": "string",
          "name": "_picture",
          "type": "string"
        },
        {
          "internalType": "string",
          "name": "_cnic",
          "type": "string"
        },
        {
          "internalType": "string",
          "name": "_ssc_degree",
          "type": "string"
        },
        {
          "internalType": "string",
          "name": "_hssc_degree",
          "type": "string"
        }
      ],
      "name": "DocumentDetails",
      "outputs": [],
      "stateMutability": "nonpayable",
      "type": "function"
    },
    {
      "inputs": [
        {
          "internalType": "string",
          "name": "_ssc_board_name",
          "type": "string"
        },
        {
          "internalType": "int256",
          "name": "_ssc_total_marks",
          "type": "int256"
        },
        {
          "internalType": "int256",
          "name": "_ssc_obtained_marks",
          "type": "int256"
        },
        {
          "internalType": "string",
          "name": "_hssc_board_name",
          "type": "string"
        },
        {
          "internalType": "int256",
          "name": "_hssc_total_marks",
          "type": "int256"
        },
        {
          "internalType": "int256",
          "name": "_hssc_obtained_marks",
          "type": "int256"
        }
      ],
      "name": "EducationalDetails",
      "outputs": [],
      "stateMutability": "nonpayable",
      "type": "function"
    },
    {
      "inputs": [
        {
          "internalType": "string",
          "name": "_name",
          "type": "string"
        },
        {
          "internalType": "string",
          "name": "_cnic",
          "type": "string"
        },
        {
          "internalType": "string",
          "name": "_phone_no",
          "type": "string"
        },
        {
          "internalType": "string",
          "name": "_ocupation",
          "type": "string"
        },
        {
          "internalType": "string",
          "name": "_salary",
          "type": "string"
        }
      ],
      "name": "FatherDetails",
      "outputs": [],
      "stateMutability": "nonpayable",
      "type": "function"
    },
    {
      "inputs": [
        {
          "internalType": "string",
          "name": "_name",
          "type": "string"
        },
        {
          "internalType": "string",
          "name": "_surname",
          "type": "string"
        },
        {
          "internalType": "string",
          "name": "_date_of_birth",
          "type": "string"
        },
        {
          "internalType": "string",
          "name": "_cnic",
          "type": "string"
        },
        {
          "internalType": "string",
          "name": "_gender",
          "type": "string"
        },
        {
          "internalType": "string",
          "name": "_phone",
          "type": "string"
        },
        {
          "internalType": "string",
          "name": "_email",
          "type": "string"
        },
        {
          "internalType": "string",
          "name": "_address",
          "type": "string"
        },
        {
          "internalType": "string",
          "name": "_city",
          "type": "string"
        },
        {
          "internalType": "string",
          "name": "_country",
          "type": "string"
        }
      ],
      "name": "PersonalDetails",
      "outputs": [],
      "stateMutability": "nonpayable",
      "type": "function"
    },
    {
      "inputs": [
        {
          "components": [
            {
              "internalType": "string",
              "name": "Id",
              "type": "string"
            },
            {
              "internalType": "address",
              "name": "addr",
              "type": "address"
            },
            {
              "internalType": "string",
              "name": "programCode",
              "type": "string"
            },
            {
              "internalType": "uint256",
              "name": "admission_date",
              "type": "uint256"
            },
            {
              "components": [
                {
                  "internalType": "string",
                  "name": "picture",
                  "type": "string"
                },
                {
                  "internalType": "string",
                  "name": "cnic",
                  "type": "string"
                },
                {
                  "internalType": "string",
                  "name": "ssc_degree",
                  "type": "string"
                },
                {
                  "internalType": "string",
                  "name": "hssc_degree",
                  "type": "string"
                },
                {
                  "internalType": "bool",
                  "name": "stored",
                  "type": "bool"
                }
              ],
              "internalType": "struct documents",
              "name": "d_data",
              "type": "tuple"
            },
            {
              "components": [
                {
                  "internalType": "string",
                  "name": "name",
                  "type": "string"
                },
                {
                  "internalType": "string",
                  "name": "surname",
                  "type": "string"
                },
                {
                  "internalType": "string",
                  "name": "date_of_birth",
                  "type": "string"
                },
                {
                  "internalType": "string",
                  "name": "cnic",
                  "type": "string"
                },
                {
                  "internalType": "string",
                  "name": "gender",
                  "type": "string"
                },
                {
                  "internalType": "string",
                  "name": "phone_no",
                  "type": "string"
                },
                {
                  "internalType": "string",
                  "name": "email",
                  "type": "string"
                },
                {
                  "internalType": "string",
                  "name": "permanent_addr",
                  "type": "string"
                },
                {
                  "internalType": "string",
                  "name": "city",
                  "type": "string"
                },
                {
                  "internalType": "string",
                  "name": "country",
                  "type": "string"
                },
                {
                  "internalType": "bool",
                  "name": "stored",
                  "type": "bool"
                }
              ],
              "internalType": "struct personal_details",
              "name": "s_data",
              "type": "tuple"
            },
            {
              "components": [
                {
                  "internalType": "string",
                  "name": "name",
                  "type": "string"
                },
                {
                  "internalType": "string",
                  "name": "cnic",
                  "type": "string"
                },
                {
                  "internalType": "string",
                  "name": "phone_no",
                  "type": "string"
                },
                {
                  "internalType": "string",
                  "name": "ocupation",
                  "type": "string"
                },
                {
                  "internalType": "string",
                  "name": "salary",
                  "type": "string"
                },
                {
                  "internalType": "bool",
                  "name": "stored",
                  "type": "bool"
                }
              ],
              "internalType": "struct father_details",
              "name": "f_data",
              "type": "tuple"
            },
            {
              "components": [
                {
                  "internalType": "string",
                  "name": "ssc_board_name",
                  "type": "string"
                },
                {
                  "internalType": "int256",
                  "name": "ssc_total_marks",
                  "type": "int256"
                },
                {
                  "internalType": "int256",
                  "name": "ssc_obtained_marks",
                  "type": "int256"
                },
                {
                  "internalType": "string",
                  "name": "hssc_board_name",
                  "type": "string"
                },
                {
                  "internalType": "int256",
                  "name": "hssc_total_marks",
                  "type": "int256"
                },
                {
                  "internalType": "int256",
                  "name": "hssc_obtained_marks",
                  "type": "int256"
                },
                {
                  "internalType": "bool",
                  "name": "stored",
                  "type": "bool"
                }
              ],
              "internalType": "struct education_details",
              "name": "e_data",
              "type": "tuple"
            },
            {
              "internalType": "bool",
              "name": "isCreated",
              "type": "bool"
            }
          ],
          "internalType": "struct student",
          "name": "st",
          "type": "tuple"
        },
        {
          "internalType": "address",
          "name": "adminAddr",
          "type": "address"
        }
      ],
      "name": "UpdateStudentData",
      "outputs": [],
      "stateMutability": "nonpayable",
      "type": "function"
    },
    {
      "inputs": [
        {
          "internalType": "string",
          "name": "_regId",
          "type": "string"
        },
        {
          "internalType": "address",
          "name": "_addr",
          "type": "address"
        },
        {
          "internalType": "string",
          "name": "_programCode",
          "type": "string"
        }
      ],
      "name": "add_student",
      "outputs": [],
      "stateMutability": "nonpayable",
      "type": "function"
    },
    {
      "inputs": [
        {
          "internalType": "address",
          "name": "addr",
          "type": "address"
        }
      ],
      "name": "checkStudent",
      "outputs": [
        {
          "internalType": "bool",
          "name": "",
          "type": "bool"
        }
      ],
      "stateMutability": "view",
      "type": "function"
    },
    {
      "inputs": [],
      "name": "getStudentsList",
      "outputs": [
        {
          "components": [
            {
              "internalType": "string",
              "name": "Id",
              "type": "string"
            },
            {
              "internalType": "address",
              "name": "addr",
              "type": "address"
            },
            {
              "internalType": "string",
              "name": "programCode",
              "type": "string"
            },
            {
              "internalType": "uint256",
              "name": "admission_date",
              "type": "uint256"
            },
            {
              "components": [
                {
                  "internalType": "string",
                  "name": "picture",
                  "type": "string"
                },
                {
                  "internalType": "string",
                  "name": "cnic",
                  "type": "string"
                },
                {
                  "internalType": "string",
                  "name": "ssc_degree",
                  "type": "string"
                },
                {
                  "internalType": "string",
                  "name": "hssc_degree",
                  "type": "string"
                },
                {
                  "internalType": "bool",
                  "name": "stored",
                  "type": "bool"
                }
              ],
              "internalType": "struct documents",
              "name": "d_data",
              "type": "tuple"
            },
            {
              "components": [
                {
                  "internalType": "string",
                  "name": "name",
                  "type": "string"
                },
                {
                  "internalType": "string",
                  "name": "surname",
                  "type": "string"
                },
                {
                  "internalType": "string",
                  "name": "date_of_birth",
                  "type": "string"
                },
                {
                  "internalType": "string",
                  "name": "cnic",
                  "type": "string"
                },
                {
                  "internalType": "string",
                  "name": "gender",
                  "type": "string"
                },
                {
                  "internalType": "string",
                  "name": "phone_no",
                  "type": "string"
                },
                {
                  "internalType": "string",
                  "name": "email",
                  "type": "string"
                },
                {
                  "internalType": "string",
                  "name": "permanent_addr",
                  "type": "string"
                },
                {
                  "internalType": "string",
                  "name": "city",
                  "type": "string"
                },
                {
                  "internalType": "string",
                  "name": "country",
                  "type": "string"
                },
                {
                  "internalType": "bool",
                  "name": "stored",
                  "type": "bool"
                }
              ],
              "internalType": "struct personal_details",
              "name": "s_data",
              "type": "tuple"
            },
            {
              "components": [
                {
                  "internalType": "string",
                  "name": "name",
                  "type": "string"
                },
                {
                  "internalType": "string",
                  "name": "cnic",
                  "type": "string"
                },
                {
                  "internalType": "string",
                  "name": "phone_no",
                  "type": "string"
                },
                {
                  "internalType": "string",
                  "name": "ocupation",
                  "type": "string"
                },
                {
                  "internalType": "string",
                  "name": "salary",
                  "type": "string"
                },
                {
                  "internalType": "bool",
                  "name": "stored",
                  "type": "bool"
                }
              ],
              "internalType": "struct father_details",
              "name": "f_data",
              "type": "tuple"
            },
            {
              "components": [
                {
                  "internalType": "string",
                  "name": "ssc_board_name",
                  "type": "string"
                },
                {
                  "internalType": "int256",
                  "name": "ssc_total_marks",
                  "type": "int256"
                },
                {
                  "internalType": "int256",
                  "name": "ssc_obtained_marks",
                  "type": "int256"
                },
                {
                  "internalType": "string",
                  "name": "hssc_board_name",
                  "type": "string"
                },
                {
                  "internalType": "int256",
                  "name": "hssc_total_marks",
                  "type": "int256"
                },
                {
                  "internalType": "int256",
                  "name": "hssc_obtained_marks",
                  "type": "int256"
                },
                {
                  "internalType": "bool",
                  "name": "stored",
                  "type": "bool"
                }
              ],
              "internalType": "struct education_details",
              "name": "e_data",
              "type": "tuple"
            },
            {
              "internalType": "bool",
              "name": "isCreated",
              "type": "bool"
            }
          ],
          "internalType": "struct student[]",
          "name": "",
          "type": "tuple[]"
        }
      ],
      "stateMutability": "view",
      "type": "function"
    },
    {
      "inputs": [
        {
          "internalType": "address",
          "name": "_addr",
          "type": "address"
        }
      ],
      "name": "get_student",
      "outputs": [
        {
          "components": [
            {
              "internalType": "string",
              "name": "Id",
              "type": "string"
            },
            {
              "internalType": "address",
              "name": "addr",
              "type": "address"
            },
            {
              "internalType": "string",
              "name": "programCode",
              "type": "string"
            },
            {
              "internalType": "uint256",
              "name": "admission_date",
              "type": "uint256"
            },
            {
              "components": [
                {
                  "internalType": "string",
                  "name": "picture",
                  "type": "string"
                },
                {
                  "internalType": "string",
                  "name": "cnic",
                  "type": "string"
                },
                {
                  "internalType": "string",
                  "name": "ssc_degree",
                  "type": "string"
                },
                {
                  "internalType": "string",
                  "name": "hssc_degree",
                  "type": "string"
                },
                {
                  "internalType": "bool",
                  "name": "stored",
                  "type": "bool"
                }
              ],
              "internalType": "struct documents",
              "name": "d_data",
              "type": "tuple"
            },
            {
              "components": [
                {
                  "internalType": "string",
                  "name": "name",
                  "type": "string"
                },
                {
                  "internalType": "string",
                  "name": "surname",
                  "type": "string"
                },
                {
                  "internalType": "string",
                  "name": "date_of_birth",
                  "type": "string"
                },
                {
                  "internalType": "string",
                  "name": "cnic",
                  "type": "string"
                },
                {
                  "internalType": "string",
                  "name": "gender",
                  "type": "string"
                },
                {
                  "internalType": "string",
                  "name": "phone_no",
                  "type": "string"
                },
                {
                  "internalType": "string",
                  "name": "email",
                  "type": "string"
                },
                {
                  "internalType": "string",
                  "name": "permanent_addr",
                  "type": "string"
                },
                {
                  "internalType": "string",
                  "name": "city",
                  "type": "string"
                },
                {
                  "internalType": "string",
                  "name": "country",
                  "type": "string"
                },
                {
                  "internalType": "bool",
                  "name": "stored",
                  "type": "bool"
                }
              ],
              "internalType": "struct personal_details",
              "name": "s_data",
              "type": "tuple"
            },
            {
              "components": [
                {
                  "internalType": "string",
                  "name": "name",
                  "type": "string"
                },
                {
                  "internalType": "string",
                  "name": "cnic",
                  "type": "string"
                },
                {
                  "internalType": "string",
                  "name": "phone_no",
                  "type": "string"
                },
                {
                  "internalType": "string",
                  "name": "ocupation",
                  "type": "string"
                },
                {
                  "internalType": "string",
                  "name": "salary",
                  "type": "string"
                },
                {
                  "internalType": "bool",
                  "name": "stored",
                  "type": "bool"
                }
              ],
              "internalType": "struct father_details",
              "name": "f_data",
              "type": "tuple"
            },
            {
              "components": [
                {
                  "internalType": "string",
                  "name": "ssc_board_name",
                  "type": "string"
                },
                {
                  "internalType": "int256",
                  "name": "ssc_total_marks",
                  "type": "int256"
                },
                {
                  "internalType": "int256",
                  "name": "ssc_obtained_marks",
                  "type": "int256"
                },
                {
                  "internalType": "string",
                  "name": "hssc_board_name",
                  "type": "string"
                },
                {
                  "internalType": "int256",
                  "name": "hssc_total_marks",
                  "type": "int256"
                },
                {
                  "internalType": "int256",
                  "name": "hssc_obtained_marks",
                  "type": "int256"
                },
                {
                  "internalType": "bool",
                  "name": "stored",
                  "type": "bool"
                }
              ],
              "internalType": "struct education_details",
              "name": "e_data",
              "type": "tuple"
            },
            {
              "internalType": "bool",
              "name": "isCreated",
              "type": "bool"
            }
          ],
          "internalType": "struct student",
          "name": "",
          "type": "tuple"
        }
      ],
      "stateMutability": "view",
      "type": "function"
    },
    {
      "inputs": [
        {
          "internalType": "address",
          "name": "addr",
          "type": "address"
        }
      ],
      "name": "setAdminContract",
      "outputs": [],
      "stateMutability": "nonpayable",
      "type": "function"
    },
    {
      "inputs": [
        {
          "internalType": "address",
          "name": "addr",
          "type": "address"
        }
      ],
      "name": "setProgramContract",
      "outputs": [],
      "stateMutability": "nonpayable",
      "type": "function"
    }
  ],
  "bytecode": "0x608060405234801561001057600080fd5b50615fd580620000216000396000f3fe608060405234801561001057600080fd5b50600436106100a95760003560e01c80638b2601ef116100715780638b2601ef1461013c5780638cc7326414610158578063b550b22714610174578063e4d1ee6114610190578063ec56f4d9146101c0578063f481345a146101dc576100a9565b806304aa5b14146100ae5780631f44ee65146100ca57806349fd8dfb146100e657806363a812f91461010457806370201a0f14610120575b600080fd5b6100c860048036038101906100c39190614e71565b61020c565b005b6100e460048036038101906100df9190614ecd565b610bd3565b005b6100ee610c17565b6040516100fb9190615469565b60405180910390f35b61011e60048036038101906101199190614ecd565b611bdd565b005b61013a6004803603810190610135919061548b565b611c20565b005b61015660048036038101906101519190615550565b611e62565b005b610172600480360381019061016d91906155db565b6123c5565b005b61018e600480360381019061018991906156e2565b61267b565b005b6101aa60048036038101906101a59190614ecd565b612a69565b6040516101b791906159c1565b60405180910390f35b6101da60048036038101906101d591906159e3565b613941565b005b6101f660048036038101906101f19190614ecd565b61411d565b6040516102039190615ac9565b60405180910390f35b60008054906101000a900473ffffffffffffffffffffffffffffffffffffffff1673ffffffffffffffffffffffffffffffffffffffff16639026dee8826040518263ffffffff1660e01b81526004016102659190615af3565b60206040518083038186803b15801561027d57600080fd5b505afa158015610291573d6000803e3d6000fd5b505050506040513d601f19601f820116820180604052508101906102b59190615b23565b6102f4576040517f08c379a00000000000000000000000000000000000000000000000000000000081526004016102eb90615bad565b60405180910390fd5b8160026000846020015173ffffffffffffffffffffffffffffffffffffffff1673ffffffffffffffffffffffffffffffffffffffff168152602001908152602001600020600082015181600001908051906020019061035492919061429b565b5060208201518160010160006101000a81548173ffffffffffffffffffffffffffffffffffffffff021916908373ffffffffffffffffffffffffffffffffffffffff16021790555060408201518160020190805190602001906103b892919061429b565b506060820151816003015560808201518160040160008201518160000190805190602001906103e892919061429b565b50602082015181600101908051906020019061040592919061429b565b50604082015181600201908051906020019061042292919061429b565b50606082015181600301908051906020019061043f92919061429b565b5060808201518160040160006101000a81548160ff021916908315150217905550505060a082015181600901600082015181600001908051906020019061048792919061429b565b5060208201518160010190805190602001906104a492919061429b565b5060408201518160020190805190602001906104c192919061429b565b5060608201518160030190805190602001906104de92919061429b565b5060808201518160040190805190602001906104fb92919061429b565b5060a082015181600501908051906020019061051892919061429b565b5060c082015181600601908051906020019061053592919061429b565b5060e082015181600701908051906020019061055292919061429b565b5061010082015181600801908051906020019061057092919061429b565b5061012082015181600901908051906020019061058e92919061429b565b5061014082015181600a0160006101000a81548160ff021916908315150217905550505060c08201518160140160008201518160000190805190602001906105d792919061429b565b5060208201518160010190805190602001906105f492919061429b565b50604082015181600201908051906020019061061192919061429b565b50606082015181600301908051906020019061062e92919061429b565b50608082015181600401908051906020019061064b92919061429b565b5060a08201518160050160006101000a81548160ff021916908315150217905550505060e082015181601a01600082015181600001908051906020019061069392919061429b565b50602082015181600101556040820151816002015560608201518160030190805190602001906106c492919061429b565b506080820151816004015560a0820151816005015560c08201518160060160006101000a81548160ff02191690831515021790555050506101008201518160210160006101000a81548160ff02191690831515021790555090505060005b600480549050811015610bce57826020015173ffffffffffffffffffffffffffffffffffffffff166004828154811061075e5761075d615bcd565b5b906000526020600020906022020160010160009054906101000a900473ffffffffffffffffffffffffffffffffffffffff1673ffffffffffffffffffffffffffffffffffffffff161415610bbb5782600482815481106107c1576107c0615bcd565b5b906000526020600020906022020160008201518160000190805190602001906107eb92919061429b565b5060208201518160010160006101000a81548173ffffffffffffffffffffffffffffffffffffffff021916908373ffffffffffffffffffffffffffffffffffffffff160217905550604082015181600201908051906020019061084f92919061429b565b5060608201518160030155608082015181600401600082015181600001908051906020019061087f92919061429b565b50602082015181600101908051906020019061089c92919061429b565b5060408201518160020190805190602001906108b992919061429b565b5060608201518160030190805190602001906108d692919061429b565b5060808201518160040160006101000a81548160ff021916908315150217905550505060a082015181600901600082015181600001908051906020019061091e92919061429b565b50602082015181600101908051906020019061093b92919061429b565b50604082015181600201908051906020019061095892919061429b565b50606082015181600301908051906020019061097592919061429b565b50608082015181600401908051906020019061099292919061429b565b5060a08201518160050190805190602001906109af92919061429b565b5060c08201518160060190805190602001906109cc92919061429b565b5060e08201518160070190805190602001906109e992919061429b565b50610100820151816008019080519060200190610a0792919061429b565b50610120820151816009019080519060200190610a2592919061429b565b5061014082015181600a0160006101000a81548160ff021916908315150217905550505060c0820151816014016000820151816000019080519060200190610a6e92919061429b565b506020820151816001019080519060200190610a8b92919061429b565b506040820151816002019080519060200190610aa892919061429b565b506060820151816003019080519060200190610ac592919061429b565b506080820151816004019080519060200190610ae292919061429b565b5060a08201518160050160006101000a81548160ff021916908315150217905550505060e082015181601a016000820151816000019080519060200190610b2a92919061429b565b5060208201518160010155604082015181600201556060820151816003019080519060200190610b5b92919061429b565b506080820151816004015560a0820151816005015560c08201518160060160006101000a81548160ff02191690831515021790555050506101008201518160210160006101000a81548160ff021916908315150217905550905050610bce565b8080610bc690615c2b565b915050610722565b505050565b80600160006101000a81548173ffffffffffffffffffffffffffffffffffffffff021916908373ffffffffffffffffffffffffffffffffffffffff16021790555050565b606060008054906101000a900473ffffffffffffffffffffffffffffffffffffffff1673ffffffffffffffffffffffffffffffffffffffff16639026dee8336040518263ffffffff1660e01b8152600401610c729190615af3565b60206040518083038186803b158015610c8a57600080fd5b505afa158015610c9e573d6000803e3d6000fd5b505050506040513d601f19601f82011682018060405250810190610cc29190615b23565b610d01576040517f08c379a0000000000000000000000000000000000000000000000000000000008152600401610cf890615bad565b60405180910390fd5b6004805480602002602001604051908101604052809291908181526020016000905b82821015611bd4578382906000526020600020906022020160405180610120016040529081600082018054610d5790615ca3565b80601f0160208091040260200160405190810160405280929190818152602001828054610d8390615ca3565b8015610dd05780601f10610da557610100808354040283529160200191610dd0565b820191906000526020600020905b815481529060010190602001808311610db357829003601f168201915b505050505081526020016001820160009054906101000a900473ffffffffffffffffffffffffffffffffffffffff1673ffffffffffffffffffffffffffffffffffffffff1673ffffffffffffffffffffffffffffffffffffffff168152602001600282018054610e3f90615ca3565b80601f0160208091040260200160405190810160405280929190818152602001828054610e6b90615ca3565b8015610eb85780601f10610e8d57610100808354040283529160200191610eb8565b820191906000526020600020905b815481529060010190602001808311610e9b57829003601f168201915b5050505050815260200160038201548152602001600482016040518060a0016040529081600082018054610eeb90615ca3565b80601f0160208091040260200160405190810160405280929190818152602001828054610f1790615ca3565b8015610f645780601f10610f3957610100808354040283529160200191610f64565b820191906000526020600020905b815481529060010190602001808311610f4757829003601f168201915b50505050508152602001600182018054610f7d90615ca3565b80601f0160208091040260200160405190810160405280929190818152602001828054610fa990615ca3565b8015610ff65780601f10610fcb57610100808354040283529160200191610ff6565b820191906000526020600020905b815481529060010190602001808311610fd957829003601f168201915b5050505050815260200160028201805461100f90615ca3565b80601f016020809104026020016040519081016040528092919081815260200182805461103b90615ca3565b80156110885780601f1061105d57610100808354040283529160200191611088565b820191906000526020600020905b81548152906001019060200180831161106b57829003601f168201915b505050505081526020016003820180546110a190615ca3565b80601f01602080910402602001604051908101604052809291908181526020018280546110cd90615ca3565b801561111a5780601f106110ef5761010080835404028352916020019161111a565b820191906000526020600020905b8154815290600101906020018083116110fd57829003601f168201915b505050505081526020016004820160009054906101000a900460ff1615151515815250508152602001600982016040518061016001604052908160008201805461116390615ca3565b80601f016020809104026020016040519081016040528092919081815260200182805461118f90615ca3565b80156111dc5780601f106111b1576101008083540402835291602001916111dc565b820191906000526020600020905b8154815290600101906020018083116111bf57829003601f168201915b505050505081526020016001820180546111f590615ca3565b80601f016020809104026020016040519081016040528092919081815260200182805461122190615ca3565b801561126e5780601f106112435761010080835404028352916020019161126e565b820191906000526020600020905b81548152906001019060200180831161125157829003601f168201915b5050505050815260200160028201805461128790615ca3565b80601f01602080910402602001604051908101604052809291908181526020018280546112b390615ca3565b80156113005780601f106112d557610100808354040283529160200191611300565b820191906000526020600020905b8154815290600101906020018083116112e357829003601f168201915b5050505050815260200160038201805461131990615ca3565b80601f016020809104026020016040519081016040528092919081815260200182805461134590615ca3565b80156113925780601f1061136757610100808354040283529160200191611392565b820191906000526020600020905b81548152906001019060200180831161137557829003601f168201915b505050505081526020016004820180546113ab90615ca3565b80601f01602080910402602001604051908101604052809291908181526020018280546113d790615ca3565b80156114245780601f106113f957610100808354040283529160200191611424565b820191906000526020600020905b81548152906001019060200180831161140757829003601f168201915b5050505050815260200160058201805461143d90615ca3565b80601f016020809104026020016040519081016040528092919081815260200182805461146990615ca3565b80156114b65780601f1061148b576101008083540402835291602001916114b6565b820191906000526020600020905b81548152906001019060200180831161149957829003601f168201915b505050505081526020016006820180546114cf90615ca3565b80601f01602080910402602001604051908101604052809291908181526020018280546114fb90615ca3565b80156115485780601f1061151d57610100808354040283529160200191611548565b820191906000526020600020905b81548152906001019060200180831161152b57829003601f168201915b5050505050815260200160078201805461156190615ca3565b80601f016020809104026020016040519081016040528092919081815260200182805461158d90615ca3565b80156115da5780601f106115af576101008083540402835291602001916115da565b820191906000526020600020905b8154815290600101906020018083116115bd57829003601f168201915b505050505081526020016008820180546115f390615ca3565b80601f016020809104026020016040519081016040528092919081815260200182805461161f90615ca3565b801561166c5780601f106116415761010080835404028352916020019161166c565b820191906000526020600020905b81548152906001019060200180831161164f57829003601f168201915b5050505050815260200160098201805461168590615ca3565b80601f01602080910402602001604051908101604052809291908181526020018280546116b190615ca3565b80156116fe5780601f106116d3576101008083540402835291602001916116fe565b820191906000526020600020905b8154815290600101906020018083116116e157829003601f168201915b50505050508152602001600a820160009054906101000a900460ff1615151515815250508152602001601482016040518060c001604052908160008201805461174690615ca3565b80601f016020809104026020016040519081016040528092919081815260200182805461177290615ca3565b80156117bf5780601f10611794576101008083540402835291602001916117bf565b820191906000526020600020905b8154815290600101906020018083116117a257829003601f168201915b505050505081526020016001820180546117d890615ca3565b80601f016020809104026020016040519081016040528092919081815260200182805461180490615ca3565b80156118515780601f1061182657610100808354040283529160200191611851565b820191906000526020600020905b81548152906001019060200180831161183457829003601f168201915b5050505050815260200160028201805461186a90615ca3565b80601f016020809104026020016040519081016040528092919081815260200182805461189690615ca3565b80156118e35780601f106118b8576101008083540402835291602001916118e3565b820191906000526020600020905b8154815290600101906020018083116118c657829003601f168201915b505050505081526020016003820180546118fc90615ca3565b80601f016020809104026020016040519081016040528092919081815260200182805461192890615ca3565b80156119755780601f1061194a57610100808354040283529160200191611975565b820191906000526020600020905b81548152906001019060200180831161195857829003601f168201915b5050505050815260200160048201805461198e90615ca3565b80601f01602080910402602001604051908101604052809291908181526020018280546119ba90615ca3565b8015611a075780601f106119dc57610100808354040283529160200191611a07565b820191906000526020600020905b8154815290600101906020018083116119ea57829003601f168201915b505050505081526020016005820160009054906101000a900460ff1615151515815250508152602001601a82016040518060e0016040529081600082018054611a4f90615ca3565b80601f0160208091040260200160405190810160405280929190818152602001828054611a7b90615ca3565b8015611ac85780601f10611a9d57610100808354040283529160200191611ac8565b820191906000526020600020905b815481529060010190602001808311611aab57829003601f168201915b505050505081526020016001820154815260200160028201548152602001600382018054611af590615ca3565b80601f0160208091040260200160405190810160405280929190818152602001828054611b2190615ca3565b8015611b6e5780601f10611b4357610100808354040283529160200191611b6e565b820191906000526020600020905b815481529060010190602001808311611b5157829003601f168201915b5050505050815260200160048201548152602001600582015481526020016006820160009054906101000a900460ff16151515158152505081526020016021820160009054906101000a900460ff16151515158152505081526020019060010190610d23565b50505050905090565b806000806101000a81548173ffffffffffffffffffffffffffffffffffffffff021916908373ffffffffffffffffffffffffffffffffffffffff16021790555050565b85600260003373ffffffffffffffffffffffffffffffffffffffff1673ffffffffffffffffffffffffffffffffffffffff168152602001908152602001600020601a016000019080519060200190611c7992919061429b565b5084600260003373ffffffffffffffffffffffffffffffffffffffff1673ffffffffffffffffffffffffffffffffffffffff168152602001908152602001600020601a016001018190555083600260003373ffffffffffffffffffffffffffffffffffffffff1673ffffffffffffffffffffffffffffffffffffffff168152602001908152602001600020601a016002018190555082600260003373ffffffffffffffffffffffffffffffffffffffff1673ffffffffffffffffffffffffffffffffffffffff168152602001908152602001600020601a016003019080519060200190611d6792919061429b565b5081600260003373ffffffffffffffffffffffffffffffffffffffff1673ffffffffffffffffffffffffffffffffffffffff168152602001908152602001600020601a016004018190555080600260003373ffffffffffffffffffffffffffffffffffffffff1673ffffffffffffffffffffffffffffffffffffffff168152602001908152602001600020601a01600501819055506001600260003373ffffffffffffffffffffffffffffffffffffffff1673ffffffffffffffffffffffffffffffffffffffff168152602001908152602001600020601a0160060160006101000a81548160ff021916908315150217905550505050505050565b60008054906101000a900473ffffffffffffffffffffffffffffffffffffffff1673ffffffffffffffffffffffffffffffffffffffff16639026dee8336040518263ffffffff1660e01b8152600401611ebb9190615af3565b60206040518083038186803b158015611ed357600080fd5b505afa158015611ee7573d6000803e3d6000fd5b505050506040513d601f19601f82011682018060405250810190611f0b9190615b23565b611f4a576040517f08c379a0000000000000000000000000000000000000000000000000000000008152600401611f4190615bad565b60405180910390fd5b60026000600385604051611f5e9190615d11565b908152602001604051809103902060009054906101000a900473ffffffffffffffffffffffffffffffffffffffff1673ffffffffffffffffffffffffffffffffffffffff1673ffffffffffffffffffffffffffffffffffffffff16815260200190815260200160002060210160009054906101000a900460ff1615612018576040517f08c379a000000000000000000000000000000000000000000000000000000000815260040161200f90615d74565b60405180910390fd5b600260008373ffffffffffffffffffffffffffffffffffffffff1673ffffffffffffffffffffffffffffffffffffffff16815260200190815260200160002060210160009054906101000a900460ff16156120a8576040517f08c379a000000000000000000000000000000000000000000000000000000000815260040161209f90615de0565b60405180910390fd5b600160009054906101000a900473ffffffffffffffffffffffffffffffffffffffff1673ffffffffffffffffffffffffffffffffffffffff1663f67125dc826040518263ffffffff1660e01b81526004016121039190615e39565b60206040518083038186803b15801561211b57600080fd5b505afa15801561212f573d6000803e3d6000fd5b505050506040513d601f19601f820116820180604052508101906121539190615b23565b612192576040517f08c379a000000000000000000000000000000000000000000000000000000000815260040161218990615ea7565b60405180910390fd5b81600260008473ffffffffffffffffffffffffffffffffffffffff1673ffffffffffffffffffffffffffffffffffffffff16815260200190815260200160002060010160006101000a81548173ffffffffffffffffffffffffffffffffffffffff021916908373ffffffffffffffffffffffffffffffffffffffff16021790555082600260008473ffffffffffffffffffffffffffffffffffffffff1673ffffffffffffffffffffffffffffffffffffffff168152602001908152602001600020600001908051906020019061226992919061429b565b5080600260008473ffffffffffffffffffffffffffffffffffffffff1673ffffffffffffffffffffffffffffffffffffffff16815260200190815260200160002060020190805190602001906122c092919061429b565b5042600260008473ffffffffffffffffffffffffffffffffffffffff1673ffffffffffffffffffffffffffffffffffffffff168152602001908152602001600020600301819055506001600260008473ffffffffffffffffffffffffffffffffffffffff1673ffffffffffffffffffffffffffffffffffffffff16815260200190815260200160002060210160006101000a81548160ff021916908315150217905550816003846040516123749190615d11565b908152602001604051809103902060006101000a81548173ffffffffffffffffffffffffffffffffffffffff021916908373ffffffffffffffffffffffffffffffffffffffff160217905550505050565b600260003373ffffffffffffffffffffffffffffffffffffffff1673ffffffffffffffffffffffffffffffffffffffff16815260200190815260200160002060210160009054906101000a900460ff16612454576040517f08c379a000000000000000000000000000000000000000000000000000000000815260040161244b90615f13565b60405180910390fd5b84600260003373ffffffffffffffffffffffffffffffffffffffff1673ffffffffffffffffffffffffffffffffffffffff16815260200190815260200160002060140160000190805190602001906124ad92919061429b565b5083600260003373ffffffffffffffffffffffffffffffffffffffff1673ffffffffffffffffffffffffffffffffffffffff168152602001908152602001600020601401600101908051906020019061250792919061429b565b5082600260003373ffffffffffffffffffffffffffffffffffffffff1673ffffffffffffffffffffffffffffffffffffffff168152602001908152602001600020601401600201908051906020019061256192919061429b565b5081600260003373ffffffffffffffffffffffffffffffffffffffff1673ffffffffffffffffffffffffffffffffffffffff16815260200190815260200160002060140160030190805190602001906125bb92919061429b565b5080600260003373ffffffffffffffffffffffffffffffffffffffff1673ffffffffffffffffffffffffffffffffffffffff168152602001908152602001600020601401600401908051906020019061261592919061429b565b506001600260003373ffffffffffffffffffffffffffffffffffffffff1673ffffffffffffffffffffffffffffffffffffffff16815260200190815260200160002060140160050160006101000a81548160ff0219169083151502179055505050505050565b89600260003373ffffffffffffffffffffffffffffffffffffffff1673ffffffffffffffffffffffffffffffffffffffff16815260200190815260200160002060090160000190805190602001906126d492919061429b565b5088600260003373ffffffffffffffffffffffffffffffffffffffff1673ffffffffffffffffffffffffffffffffffffffff168152602001908152602001600020600901600101908051906020019061272e92919061429b565b5087600260003373ffffffffffffffffffffffffffffffffffffffff1673ffffffffffffffffffffffffffffffffffffffff168152602001908152602001600020600901600201908051906020019061278892919061429b565b5086600260003373ffffffffffffffffffffffffffffffffffffffff1673ffffffffffffffffffffffffffffffffffffffff16815260200190815260200160002060090160030190805190602001906127e292919061429b565b5085600260003373ffffffffffffffffffffffffffffffffffffffff1673ffffffffffffffffffffffffffffffffffffffff168152602001908152602001600020600901600401908051906020019061283c92919061429b565b5084600260003373ffffffffffffffffffffffffffffffffffffffff1673ffffffffffffffffffffffffffffffffffffffff168152602001908152602001600020600901600501908051906020019061289692919061429b565b5083600260003373ffffffffffffffffffffffffffffffffffffffff1673ffffffffffffffffffffffffffffffffffffffff16815260200190815260200160002060090160060190805190602001906128f092919061429b565b5082600260003373ffffffffffffffffffffffffffffffffffffffff1673ffffffffffffffffffffffffffffffffffffffff168152602001908152602001600020600901600701908051906020019061294a92919061429b565b5081600260003373ffffffffffffffffffffffffffffffffffffffff1673ffffffffffffffffffffffffffffffffffffffff16815260200190815260200160002060090160080190805190602001906129a492919061429b565b5080600260003373ffffffffffffffffffffffffffffffffffffffff1673ffffffffffffffffffffffffffffffffffffffff16815260200190815260200160002060090160090190805190602001906129fe92919061429b565b506001600260003373ffffffffffffffffffffffffffffffffffffffff1673ffffffffffffffffffffffffffffffffffffffff168152602001908152602001600020600901600a0160006101000a81548160ff02191690831515021790555050505050505050505050565b612a71614321565b600260008373ffffffffffffffffffffffffffffffffffffffff1673ffffffffffffffffffffffffffffffffffffffff16815260200190815260200160002060405180610120016040529081600082018054612acc90615ca3565b80601f0160208091040260200160405190810160405280929190818152602001828054612af890615ca3565b8015612b455780601f10612b1a57610100808354040283529160200191612b45565b820191906000526020600020905b815481529060010190602001808311612b2857829003601f168201915b505050505081526020016001820160009054906101000a900473ffffffffffffffffffffffffffffffffffffffff1673ffffffffffffffffffffffffffffffffffffffff1673ffffffffffffffffffffffffffffffffffffffff168152602001600282018054612bb490615ca3565b80601f0160208091040260200160405190810160405280929190818152602001828054612be090615ca3565b8015612c2d5780601f10612c0257610100808354040283529160200191612c2d565b820191906000526020600020905b815481529060010190602001808311612c1057829003601f168201915b5050505050815260200160038201548152602001600482016040518060a0016040529081600082018054612c6090615ca3565b80601f0160208091040260200160405190810160405280929190818152602001828054612c8c90615ca3565b8015612cd95780601f10612cae57610100808354040283529160200191612cd9565b820191906000526020600020905b815481529060010190602001808311612cbc57829003601f168201915b50505050508152602001600182018054612cf290615ca3565b80601f0160208091040260200160405190810160405280929190818152602001828054612d1e90615ca3565b8015612d6b5780601f10612d4057610100808354040283529160200191612d6b565b820191906000526020600020905b815481529060010190602001808311612d4e57829003601f168201915b50505050508152602001600282018054612d8490615ca3565b80601f0160208091040260200160405190810160405280929190818152602001828054612db090615ca3565b8015612dfd5780601f10612dd257610100808354040283529160200191612dfd565b820191906000526020600020905b815481529060010190602001808311612de057829003601f168201915b50505050508152602001600382018054612e1690615ca3565b80601f0160208091040260200160405190810160405280929190818152602001828054612e4290615ca3565b8015612e8f5780601f10612e6457610100808354040283529160200191612e8f565b820191906000526020600020905b815481529060010190602001808311612e7257829003601f168201915b505050505081526020016004820160009054906101000a900460ff16151515158152505081526020016009820160405180610160016040529081600082018054612ed890615ca3565b80601f0160208091040260200160405190810160405280929190818152602001828054612f0490615ca3565b8015612f515780601f10612f2657610100808354040283529160200191612f51565b820191906000526020600020905b815481529060010190602001808311612f3457829003601f168201915b50505050508152602001600182018054612f6a90615ca3565b80601f0160208091040260200160405190810160405280929190818152602001828054612f9690615ca3565b8015612fe35780601f10612fb857610100808354040283529160200191612fe3565b820191906000526020600020905b815481529060010190602001808311612fc657829003601f168201915b50505050508152602001600282018054612ffc90615ca3565b80601f016020809104026020016040519081016040528092919081815260200182805461302890615ca3565b80156130755780601f1061304a57610100808354040283529160200191613075565b820191906000526020600020905b81548152906001019060200180831161305857829003601f168201915b5050505050815260200160038201805461308e90615ca3565b80601f01602080910402602001604051908101604052809291908181526020018280546130ba90615ca3565b80156131075780601f106130dc57610100808354040283529160200191613107565b820191906000526020600020905b8154815290600101906020018083116130ea57829003601f168201915b5050505050815260200160048201805461312090615ca3565b80601f016020809104026020016040519081016040528092919081815260200182805461314c90615ca3565b80156131995780601f1061316e57610100808354040283529160200191613199565b820191906000526020600020905b81548152906001019060200180831161317c57829003601f168201915b505050505081526020016005820180546131b290615ca3565b80601f01602080910402602001604051908101604052809291908181526020018280546131de90615ca3565b801561322b5780601f106132005761010080835404028352916020019161322b565b820191906000526020600020905b81548152906001019060200180831161320e57829003601f168201915b5050505050815260200160068201805461324490615ca3565b80601f016020809104026020016040519081016040528092919081815260200182805461327090615ca3565b80156132bd5780601f10613292576101008083540402835291602001916132bd565b820191906000526020600020905b8154815290600101906020018083116132a057829003601f168201915b505050505081526020016007820180546132d690615ca3565b80601f016020809104026020016040519081016040528092919081815260200182805461330290615ca3565b801561334f5780601f106133245761010080835404028352916020019161334f565b820191906000526020600020905b81548152906001019060200180831161333257829003601f168201915b5050505050815260200160088201805461336890615ca3565b80601f016020809104026020016040519081016040528092919081815260200182805461339490615ca3565b80156133e15780601f106133b6576101008083540402835291602001916133e1565b820191906000526020600020905b8154815290600101906020018083116133c457829003601f168201915b505050505081526020016009820180546133fa90615ca3565b80601f016020809104026020016040519081016040528092919081815260200182805461342690615ca3565b80156134735780601f1061344857610100808354040283529160200191613473565b820191906000526020600020905b81548152906001019060200180831161345657829003601f168201915b50505050508152602001600a820160009054906101000a900460ff1615151515815250508152602001601482016040518060c00160405290816000820180546134bb90615ca3565b80601f01602080910402602001604051908101604052809291908181526020018280546134e790615ca3565b80156135345780601f1061350957610100808354040283529160200191613534565b820191906000526020600020905b81548152906001019060200180831161351757829003601f168201915b5050505050815260200160018201805461354d90615ca3565b80601f016020809104026020016040519081016040528092919081815260200182805461357990615ca3565b80156135c65780601f1061359b576101008083540402835291602001916135c6565b820191906000526020600020905b8154815290600101906020018083116135a957829003601f168201915b505050505081526020016002820180546135df90615ca3565b80601f016020809104026020016040519081016040528092919081815260200182805461360b90615ca3565b80156136585780601f1061362d57610100808354040283529160200191613658565b820191906000526020600020905b81548152906001019060200180831161363b57829003601f168201915b5050505050815260200160038201805461367190615ca3565b80601f016020809104026020016040519081016040528092919081815260200182805461369d90615ca3565b80156136ea5780601f106136bf576101008083540402835291602001916136ea565b820191906000526020600020905b8154815290600101906020018083116136cd57829003601f168201915b5050505050815260200160048201805461370390615ca3565b80601f016020809104026020016040519081016040528092919081815260200182805461372f90615ca3565b801561377c5780601f106137515761010080835404028352916020019161377c565b820191906000526020600020905b81548152906001019060200180831161375f57829003601f168201915b505050505081526020016005820160009054906101000a900460ff1615151515815250508152602001601a82016040518060e00160405290816000820180546137c490615ca3565b80601f01602080910402602001604051908101604052809291908181526020018280546137f090615ca3565b801561383d5780601f106138125761010080835404028352916020019161383d565b820191906000526020600020905b81548152906001019060200180831161382057829003601f168201915b50505050508152602001600182015481526020016002820154815260200160038201805461386a90615ca3565b80601f016020809104026020016040519081016040528092919081815260200182805461389690615ca3565b80156138e35780601f106138b8576101008083540402835291602001916138e3565b820191906000526020600020905b8154815290600101906020018083116138c657829003601f168201915b5050505050815260200160048201548152602001600582015481526020016006820160009054906101000a900460ff16151515158152505081526020016021820160009054906101000a900460ff1615151515815250509050919050565b600260003373ffffffffffffffffffffffffffffffffffffffff1673ffffffffffffffffffffffffffffffffffffffff16815260200190815260200160002060210160009054906101000a900460ff166139d0576040517f08c379a00000000000000000000000000000000000000000000000000000000081526004016139c790615f13565b60405180910390fd5b600260003373ffffffffffffffffffffffffffffffffffffffff1673ffffffffffffffffffffffffffffffffffffffff16815260200190815260200160002060040160040160009054906101000a900460ff1615613a63576040517f08c379a0000000000000000000000000000000000000000000000000000000008152600401613a5a90615f7f565b60405180910390fd5b83600260003373ffffffffffffffffffffffffffffffffffffffff1673ffffffffffffffffffffffffffffffffffffffff1681526020019081526020016000206004016000019080519060200190613abc92919061429b565b5082600260003373ffffffffffffffffffffffffffffffffffffffff1673ffffffffffffffffffffffffffffffffffffffff1681526020019081526020016000206004016001019080519060200190613b1692919061429b565b5081600260003373ffffffffffffffffffffffffffffffffffffffff1673ffffffffffffffffffffffffffffffffffffffff1681526020019081526020016000206004016002019080519060200190613b7092919061429b565b5080600260003373ffffffffffffffffffffffffffffffffffffffff1673ffffffffffffffffffffffffffffffffffffffff1681526020019081526020016000206004016003019080519060200190613bca92919061429b565b506001600260003373ffffffffffffffffffffffffffffffffffffffff1673ffffffffffffffffffffffffffffffffffffffff16815260200190815260200160002060040160040160006101000a81548160ff0219169083151502179055506004600260003373ffffffffffffffffffffffffffffffffffffffff1673ffffffffffffffffffffffffffffffffffffffff16815260200190815260200160002090806001815401808255809150506001900390600052602060002090602202016000909190919091506000820181600001908054613ca790615ca3565b613cb292919061439d565b506001820160009054906101000a900473ffffffffffffffffffffffffffffffffffffffff168160010160006101000a81548173ffffffffffffffffffffffffffffffffffffffff021916908373ffffffffffffffffffffffffffffffffffffffff1602179055506002820181600201908054613d2e90615ca3565b613d3992919061439d565b506003820154816003015560048201816004016000820181600001908054613d6090615ca3565b613d6b92919061439d565b506001820181600101908054613d8090615ca3565b613d8b92919061439d565b506002820181600201908054613da090615ca3565b613dab92919061439d565b506003820181600301908054613dc090615ca3565b613dcb92919061439d565b506004820160009054906101000a900460ff168160040160006101000a81548160ff021916908315150217905550505060098201816009016000820181600001908054613e1790615ca3565b613e2292919061439d565b506001820181600101908054613e3790615ca3565b613e4292919061439d565b506002820181600201908054613e5790615ca3565b613e6292919061439d565b506003820181600301908054613e7790615ca3565b613e8292919061439d565b506004820181600401908054613e9790615ca3565b613ea292919061439d565b506005820181600501908054613eb790615ca3565b613ec292919061439d565b506006820181600601908054613ed790615ca3565b613ee292919061439d565b506007820181600701908054613ef790615ca3565b613f0292919061439d565b506008820181600801908054613f1790615ca3565b613f2292919061439d565b506009820181600901908054613f3790615ca3565b613f4292919061439d565b50600a820160009054906101000a900460ff1681600a0160006101000a81548160ff021916908315150217905550505060148201816014016000820181600001908054613f8e90615ca3565b613f9992919061439d565b506001820181600101908054613fae90615ca3565b613fb992919061439d565b506002820181600201908054613fce90615ca3565b613fd992919061439d565b506003820181600301908054613fee90615ca3565b613ff992919061439d565b50600482018160040190805461400e90615ca3565b61401992919061439d565b506005820160009054906101000a900460ff168160050160006101000a81548160ff0219169083151502179055505050601a820181601a01600082018160000190805461406590615ca3565b61407092919061439d565b506001820154816001015560028201548160020155600382018160030190805461409990615ca3565b6140a492919061439d565b5060048201548160040155600582015481600501556006820160009054906101000a900460ff168160060160006101000a81548160ff02191690831515021790555050506021820160009054906101000a900460ff168160210160006101000a81548160ff021916908315150217905550505050505050565b6000600260008373ffffffffffffffffffffffffffffffffffffffff1673ffffffffffffffffffffffffffffffffffffffff168152602001908152602001600020600901600a0160009054906101000a900460ff1680156141cd5750600260008373ffffffffffffffffffffffffffffffffffffffff1673ffffffffffffffffffffffffffffffffffffffff16815260200190815260200160002060140160050160009054906101000a900460ff165b80156142285750600260008373ffffffffffffffffffffffffffffffffffffffff1673ffffffffffffffffffffffffffffffffffffffff168152602001908152602001600020601a0160060160009054906101000a900460ff165b80156142835750600260008373ffffffffffffffffffffffffffffffffffffffff1673ffffffffffffffffffffffffffffffffffffffff16815260200190815260200160002060040160040160009054906101000a900460ff165b156142915760019050614296565b600090505b919050565b8280546142a790615ca3565b90600052602060002090601f0160209004810192826142c95760008555614310565b82601f106142e257805160ff1916838001178555614310565b82800160010185558215614310579182015b8281111561430f5782518255916020019190600101906142f4565b5b50905061431d919061442a565b5090565b60405180610120016040528060608152602001600073ffffffffffffffffffffffffffffffffffffffff1681526020016060815260200160008152602001614367614447565b8152602001614374614478565b81526020016143816144d4565b815260200161438e61450c565b81526020016000151581525090565b8280546143a990615ca3565b90600052602060002090601f0160209004810192826143cb5760008555614419565b82601f106143dc5780548555614419565b8280016001018555821561441957600052602060002091601f016020900482015b828111156144185782548255916001019190600101906143fd565b5b509050614426919061442a565b5090565b5b8082111561444357600081600090555060010161442b565b5090565b6040518060a00160405280606081526020016060815260200160608152602001606081526020016000151581525090565b604051806101600160405280606081526020016060815260200160608152602001606081526020016060815260200160608152602001606081526020016060815260200160608152602001606081526020016000151581525090565b6040518060c0016040528060608152602001606081526020016060815260200160608152602001606081526020016000151581525090565b6040518060e001604052806060815260200160008152602001600081526020016060815260200160008152602001600081526020016000151581525090565b6000604051905090565b600080fd5b600080fd5b600080fd5b6000601f19601f8301169050919050565b7f4e487b7100000000000000000000000000000000000000000000000000000000600052604160045260246000fd5b6145ad82614564565b810181811067ffffffffffffffff821117156145cc576145cb614575565b5b80604052505050565b60006145df61454b565b90506145eb82826145a4565b919050565b600080fd5b600080fd5b600080fd5b600067ffffffffffffffff82111561461a57614619614575565b5b61462382614564565b9050602081019050919050565b82818337600083830152505050565b600061465261464d846145ff565b6145d5565b90508281526020810184848401111561466e5761466d6145fa565b5b614679848285614630565b509392505050565b600082601f830112614696576146956145f5565b5b81356146a684826020860161463f565b91505092915050565b600073ffffffffffffffffffffffffffffffffffffffff82169050919050565b60006146da826146af565b9050919050565b6146ea816146cf565b81146146f557600080fd5b50565b600081359050614707816146e1565b92915050565b6000819050919050565b6147208161470d565b811461472b57600080fd5b50565b60008135905061473d81614717565b92915050565b60008115159050919050565b61475881614743565b811461476357600080fd5b50565b6000813590506147758161474f565b92915050565b600060a082840312156147915761479061455f565b5b61479b60a06145d5565b9050600082013567ffffffffffffffff8111156147bb576147ba6145f0565b5b6147c784828501614681565b600083015250602082013567ffffffffffffffff8111156147eb576147ea6145f0565b5b6147f784828501614681565b602083015250604082013567ffffffffffffffff81111561481b5761481a6145f0565b5b61482784828501614681565b604083015250606082013567ffffffffffffffff81111561484b5761484a6145f0565b5b61485784828501614681565b606083015250608061486b84828501614766565b60808301525092915050565b6000610160828403121561488e5761488d61455f565b5b6148996101606145d5565b9050600082013567ffffffffffffffff8111156148b9576148b86145f0565b5b6148c584828501614681565b600083015250602082013567ffffffffffffffff8111156148e9576148e86145f0565b5b6148f584828501614681565b602083015250604082013567ffffffffffffffff811115614919576149186145f0565b5b61492584828501614681565b604083015250606082013567ffffffffffffffff811115614949576149486145f0565b5b61495584828501614681565b606083015250608082013567ffffffffffffffff811115614979576149786145f0565b5b61498584828501614681565b60808301525060a082013567ffffffffffffffff8111156149a9576149a86145f0565b5b6149b584828501614681565b60a08301525060c082013567ffffffffffffffff8111156149d9576149d86145f0565b5b6149e584828501614681565b60c08301525060e082013567ffffffffffffffff811115614a0957614a086145f0565b5b614a1584828501614681565b60e08301525061010082013567ffffffffffffffff811115614a3a57614a396145f0565b5b614a4684828501614681565b6101008301525061012082013567ffffffffffffffff811115614a6c57614a6b6145f0565b5b614a7884828501614681565b61012083015250610140614a8e84828501614766565b6101408301525092915050565b600060c08284031215614ab157614ab061455f565b5b614abb60c06145d5565b9050600082013567ffffffffffffffff811115614adb57614ada6145f0565b5b614ae784828501614681565b600083015250602082013567ffffffffffffffff811115614b0b57614b0a6145f0565b5b614b1784828501614681565b602083015250604082013567ffffffffffffffff811115614b3b57614b3a6145f0565b5b614b4784828501614681565b604083015250606082013567ffffffffffffffff811115614b6b57614b6a6145f0565b5b614b7784828501614681565b606083015250608082013567ffffffffffffffff811115614b9b57614b9a6145f0565b5b614ba784828501614681565b60808301525060a0614bbb84828501614766565b60a08301525092915050565b6000819050919050565b614bda81614bc7565b8114614be557600080fd5b50565b600081359050614bf781614bd1565b92915050565b600060e08284031215614c1357614c1261455f565b5b614c1d60e06145d5565b9050600082013567ffffffffffffffff811115614c3d57614c3c6145f0565b5b614c4984828501614681565b6000830152506020614c5d84828501614be8565b6020830152506040614c7184828501614be8565b604083015250606082013567ffffffffffffffff811115614c9557614c946145f0565b5b614ca184828501614681565b6060830152506080614cb584828501614be8565b60808301525060a0614cc984828501614be8565b60a08301525060c0614cdd84828501614766565b60c08301525092915050565b60006101208284031215614d0057614cff61455f565b5b614d0b6101206145d5565b9050600082013567ffffffffffffffff811115614d2b57614d2a6145f0565b5b614d3784828501614681565b6000830152506020614d4b848285016146f8565b602083015250604082013567ffffffffffffffff811115614d6f57614d6e6145f0565b5b614d7b84828501614681565b6040830152506060614d8f8482850161472e565b606083015250608082013567ffffffffffffffff811115614db357614db26145f0565b5b614dbf8482850161477b565b60808301525060a082013567ffffffffffffffff811115614de357614de26145f0565b5b614def84828501614877565b60a08301525060c082013567ffffffffffffffff811115614e1357614e126145f0565b5b614e1f84828501614a9b565b60c08301525060e082013567ffffffffffffffff811115614e4357614e426145f0565b5b614e4f84828501614bfd565b60e083015250610100614e6484828501614766565b6101008301525092915050565b60008060408385031215614e8857614e87614555565b5b600083013567ffffffffffffffff811115614ea657614ea561455a565b5b614eb285828601614ce9565b9250506020614ec3858286016146f8565b9150509250929050565b600060208284031215614ee357614ee2614555565b5b6000614ef1848285016146f8565b91505092915050565b600081519050919050565b600082825260208201905092915050565b6000819050602082019050919050565b600081519050919050565b600082825260208201905092915050565b60005b83811015614f60578082015181840152602081019050614f45565b83811115614f6f576000848401525b50505050565b6000614f8082614f26565b614f8a8185614f31565b9350614f9a818560208601614f42565b614fa381614564565b840191505092915050565b614fb7816146cf565b82525050565b614fc68161470d565b82525050565b614fd581614743565b82525050565b600060a0830160008301518482036000860152614ff88282614f75565b915050602083015184820360208601526150128282614f75565b9150506040830151848203604086015261502c8282614f75565b915050606083015184820360608601526150468282614f75565b915050608083015161505b6080860182614fcc565b508091505092915050565b60006101608301600083015184820360008601526150848282614f75565b9150506020830151848203602086015261509e8282614f75565b915050604083015184820360408601526150b88282614f75565b915050606083015184820360608601526150d28282614f75565b915050608083015184820360808601526150ec8282614f75565b91505060a083015184820360a08601526151068282614f75565b91505060c083015184820360c08601526151208282614f75565b91505060e083015184820360e086015261513a8282614f75565b9150506101008301518482036101008601526151568282614f75565b9150506101208301518482036101208601526151728282614f75565b915050610140830151615189610140860182614fcc565b508091505092915050565b600060c08301600083015184820360008601526151b18282614f75565b915050602083015184820360208601526151cb8282614f75565b915050604083015184820360408601526151e58282614f75565b915050606083015184820360608601526151ff8282614f75565b915050608083015184820360808601526152198282614f75565b91505060a083015161522e60a0860182614fcc565b508091505092915050565b61524281614bc7565b82525050565b600060e08301600083015184820360008601526152658282614f75565b915050602083015161527a6020860182615239565b50604083015161528d6040860182615239565b50606083015184820360608601526152a58282614f75565b91505060808301516152ba6080860182615239565b5060a08301516152cd60a0860182615239565b5060c08301516152e060c0860182614fcc565b508091505092915050565b60006101208301600083015184820360008601526153098282614f75565b915050602083015161531e6020860182614fae565b50604083015184820360408601526153368282614f75565b915050606083015161534b6060860182614fbd565b50608083015184820360808601526153638282614fdb565b91505060a083015184820360a086015261537d8282615066565b91505060c083015184820360c08601526153978282615194565b91505060e083015184820360e08601526153b18282615248565b9150506101008301516153c8610100860182614fcc565b508091505092915050565b60006153df83836152eb565b905092915050565b6000602082019050919050565b60006153ff82614efa565b6154098185614f05565b93508360208202850161541b85614f16565b8060005b85811015615457578484038952815161543885826153d3565b9450615443836153e7565b925060208a0199505060018101905061541f565b50829750879550505050505092915050565b6000602082019050818103600083015261548381846153f4565b905092915050565b60008060008060008060c087890312156154a8576154a7614555565b5b600087013567ffffffffffffffff8111156154c6576154c561455a565b5b6154d289828a01614681565b96505060206154e389828a01614be8565b95505060406154f489828a01614be8565b945050606087013567ffffffffffffffff8111156155155761551461455a565b5b61552189828a01614681565b935050608061553289828a01614be8565b92505060a061554389828a01614be8565b9150509295509295509295565b60008060006060848603121561556957615568614555565b5b600084013567ffffffffffffffff8111156155875761558661455a565b5b61559386828701614681565b93505060206155a4868287016146f8565b925050604084013567ffffffffffffffff8111156155c5576155c461455a565b5b6155d186828701614681565b9150509250925092565b600080600080600060a086880312156155f7576155f6614555565b5b600086013567ffffffffffffffff8111156156155761561461455a565b5b61562188828901614681565b955050602086013567ffffffffffffffff8111156156425761564161455a565b5b61564e88828901614681565b945050604086013567ffffffffffffffff81111561566f5761566e61455a565b5b61567b88828901614681565b935050606086013567ffffffffffffffff81111561569c5761569b61455a565b5b6156a888828901614681565b925050608086013567ffffffffffffffff8111156156c9576156c861455a565b5b6156d588828901614681565b9150509295509295909350565b6000806000806000806000806000806101408b8d03121561570657615705614555565b5b60008b013567ffffffffffffffff8111156157245761572361455a565b5b6157308d828e01614681565b9a505060208b013567ffffffffffffffff8111156157515761575061455a565b5b61575d8d828e01614681565b99505060408b013567ffffffffffffffff81111561577e5761577d61455a565b5b61578a8d828e01614681565b98505060608b013567ffffffffffffffff8111156157ab576157aa61455a565b5b6157b78d828e01614681565b97505060808b013567ffffffffffffffff8111156157d8576157d761455a565b5b6157e48d828e01614681565b96505060a08b013567ffffffffffffffff8111156158055761580461455a565b5b6158118d828e01614681565b95505060c08b013567ffffffffffffffff8111156158325761583161455a565b5b61583e8d828e01614681565b94505060e08b013567ffffffffffffffff81111561585f5761585e61455a565b5b61586b8d828e01614681565b9350506101008b013567ffffffffffffffff81111561588d5761588c61455a565b5b6158998d828e01614681565b9250506101208b013567ffffffffffffffff8111156158bb576158ba61455a565b5b6158c78d828e01614681565b9150509295989b9194979a5092959850565b60006101208301600083015184820360008601526158f78282614f75565b915050602083015161590c6020860182614fae565b50604083015184820360408601526159248282614f75565b91505060608301516159396060860182614fbd565b50608083015184820360808601526159518282614fdb565b91505060a083015184820360a086015261596b8282615066565b91505060c083015184820360c08601526159858282615194565b91505060e083015184820360e086015261599f8282615248565b9150506101008301516159b6610100860182614fcc565b508091505092915050565b600060208201905081810360008301526159db81846158d9565b905092915050565b600080600080608085870312156159fd576159fc614555565b5b600085013567ffffffffffffffff811115615a1b57615a1a61455a565b5b615a2787828801614681565b945050602085013567ffffffffffffffff811115615a4857615a4761455a565b5b615a5487828801614681565b935050604085013567ffffffffffffffff811115615a7557615a7461455a565b5b615a8187828801614681565b925050606085013567ffffffffffffffff811115615aa257615aa161455a565b5b615aae87828801614681565b91505092959194509250565b615ac381614743565b82525050565b6000602082019050615ade6000830184615aba565b92915050565b615aed816146cf565b82525050565b6000602082019050615b086000830184615ae4565b92915050565b600081519050615b1d8161474f565b92915050565b600060208284031215615b3957615b38614555565b5b6000615b4784828501615b0e565b91505092915050565b600082825260208201905092915050565b7f596f7520617265206e6f742041646d696e000000000000000000000000000000600082015250565b6000615b97601183615b50565b9150615ba282615b61565b602082019050919050565b60006020820190508181036000830152615bc681615b8a565b9050919050565b7f4e487b7100000000000000000000000000000000000000000000000000000000600052603260045260246000fd5b7f4e487b7100000000000000000000000000000000000000000000000000000000600052601160045260246000fd5b6000615c368261470d565b91507fffffffffffffffffffffffffffffffffffffffffffffffffffffffffffffffff821415615c6957615c68615bfc565b5b600182019050919050565b7f4e487b7100000000000000000000000000000000000000000000000000000000600052602260045260246000fd5b60006002820490506001821680615cbb57607f821691505b60208210811415615ccf57615cce615c74565b5b50919050565b600081905092915050565b6000615ceb82614f26565b615cf58185615cd5565b9350615d05818560208601614f42565b80840191505092915050565b6000615d1d8284615ce0565b915081905092915050565b7f496e76616c696420726567697374726174696f6e204964000000000000000000600082015250565b6000615d5e601783615b50565b9150615d6982615d28565b602082019050919050565b60006020820190508181036000830152615d8d81615d51565b9050919050565b7f53747564656e7420697320616c72656164792072656769737465726564000000600082015250565b6000615dca601d83615b50565b9150615dd582615d94565b602082019050919050565b60006020820190508181036000830152615df981615dbd565b9050919050565b6000615e0b82614f26565b615e158185615b50565b9350615e25818560208601614f42565b615e2e81614564565b840191505092915050565b60006020820190508181036000830152615e538184615e00565b905092915050565b7f50726f6772616d206973206e6f74207265676973746572656400000000000000600082015250565b6000615e91601983615b50565b9150615e9c82615e5b565b602082019050919050565b60006020820190508181036000830152615ec081615e84565b9050919050565b7f496e76616c6964206d6574616d61736b206163636f756e740000000000000000600082015250565b6000615efd601883615b50565b9150615f0882615ec7565b602082019050919050565b60006020820190508181036000830152615f2c81615ef0565b9050919050565b7f446f63756d656e747320616c72656164792075706c6f61646564000000000000600082015250565b6000615f69601a83615b50565b9150615f7482615f33565b602082019050919050565b60006020820190508181036000830152615f9881615f5c565b905091905056fea2646970667358221220810058760a2afa7bb4d8922001199fa7311c12414a1aa22cfcfff14fe3737e2764736f6c63430008090033",
  "linkReferences": {},
  "deployedLinkReferences": {}
}